:020000040800F2
:10000000102701205D0200089FCE0008AB89000880
:100010009DCE0008EB2400089D03010800000000AD
:1000200000000000000000000000000017D50008DC
:100030002D260008000000002BD000080DD9000874
:1000400077020008770200087702000877020008AC
:10005000770200087702000877020008770200089C
:10006000052B0008770200082D2B000871250008D9
:10007000770200087702000877020008770200087C
:100080007D25000877020008770200087702000843
:100090007702000877020008770200085D2B00084D
:1000A000770200087702000877020008770200084C
:1000B000770200087702000819DA000877020008C2
:1000C000770200087702000877020008770200082C
:1000D000770200087702000877020008770200081C
:1000E000D92A000877020008770200087702000882
:1000F00077020008770200087702000877020008FC
:1001000077020008770200083DDA0008770200084D
:10011000770200087702000881DA000877020008F9
:1001200077020008770200087702000877020008CB
:1001300077020008770200087702000877020008BB
:10014000770200087702000877020008A1CE0008B5
:10015000770200087702000877020008770200089B
:10016000770200087702000877020008770200088B
:1001700077020008770200087702000800000000FC
:1001800077020008770200084B1C012B98BF7047CC
:100190002DE9F003911C9B08B1F80480B1F802909E
:1001A0000A8831F802CC8044814402448444D9F85E
:1001B0000070D8F800601568DCF80040C9F80060ED
:1001C000C8F80070CCF800501460D9F80470D8F862
:1001D00004605568DCF80440C9F80460C8F804708D
:1001E000CCF80450546008315B1ED5D1BDE8F00353
:1001F00070474B1C012B98BF70472DE9F003911CF1
:100200009B08B1F80480B1F802900A8831F802CC5A
:1002100000EB580800EB590900EB520200EB5C0CB4
:10022000D9F80070D8F800601568DCF80040C9F80B
:100230000060C8F80070CCF80050146008315B1EF4
:10024000DFD1BDE8F0037047DFF80CD002F0FAF818
:1002500000480047892801081027012006488047E8
:1002600006480047FEE7FEE7FEE7FEE7FEE7FEE79B
:10027000FEE7FEE7FEE7FEE7C5D9000849020008F1
:1002800093081BD090ED000AD0ED011AD0ED020AC0
:1002900090ED031AB0EEC00A81ED000AF0EEE11A0B
:1002A000B0EEE00AC1ED011AF0EEC10A81ED020ADA
:1002B000C1ED030A103010315B1EE3D112F00302CE
:1002C00008BF7047B2F1004F23D2002AD8BF704751
:1002D000001F091F12F0010F07D090ED010A001D49
:1002E000B0EEC00A81ED010A091D520808BF70472F
:1002F00090ED010AB0EEC00A81ED010A90ED020A0C
:100300000830B0EEC00A81ED020A0831521EEFD16A
:100310007047B0EC010A521EB0EEC00AA1EC010A0F
:10032000F7D170475FEA930C26D000BFD0ED003ABA
:1003300091ED001AD0ED010A91ED013A33EE811AE8
:10034000D0ED022A70EE830A91ED022A90ED030AA5
:10035000D1ED031A82ED001AC2ED010A72EE820A93
:1003600030EE210A1030C2ED020A82ED030A10318C
:100370001032BCF1010CD9D113F0030308BF704750
:10038000B3F1004F2CD2002BD8BF7047001F091FBC
:10039000121F13F0010F0AD090ED010AD1ED010AEE
:1003A000001D091D30EE200A82ED010A121D5B08B6
:1003B00008BF704790ED010AD1ED010A30EE200A26
:1003C00082ED010A90ED020AD1ED020A08300831EF
:1003D00030EE200A82ED020A08325B1EEAD1704735
:1003E000B0EC010A5B1EF1EC010A30EE200AA2EC2F
:1003F000010AF5D1704700005FEA930C26D000BFD8
:1004000090ED000AD1ED000A90ED012A91ED011A5C
:1004100060EE201A90ED020A22EE012AD1ED020AC6
:1004200090ED031AC2ED001AD1ED031A20EE200A56
:1004300082ED012A61EE210A82ED020A1030C2ED3E
:10044000030A10311032BCF1010CD9D113F00303AF
:1004500008BF7047B3F1004F2CD2002BD8BF7047B4
:10046000001F091F121F13F0010F0AD090ED010A9F
:10047000D1ED010A001D091D20EE200A82ED010ABE
:10048000121D5B0808BF704790ED010AD1ED010A0B
:1004900020EE200A82ED010A90ED020AD1ED020A57
:1004A0000830083120EE200A82ED020A08325B1E75
:1004B000EAD17047B0EC010A5B1EF1EC010A20EEB4
:1004C000200AA2EC010AF5D170470000930814D06D
:1004D00090ED032AD0ED000A90ED011AD0ED021A3A
:1004E00022EE002A60EE800A21EE001A61EE801AE8
:1004F000E1EC040A10305B1EEAD112F0030208BFDF
:100500007047B2F1004F24D2002AD8BF7047001FB5
:10051000091F12F0010F07D0D0ED010A001D60EE97
:10052000800AC1ED010A091D520808BF704700BFCB
:10053000D0ED010A60EE800AC1ED010AD0ED020A99
:10054000083060EE800AC1ED020A0831521EEFD178
:100550007047F0EC010A521E60EE800AE1EC010ADD
:10056000F7D170475FEA930C26D000BFD0ED003A78
:1005700091ED001AD0ED010A91ED013A33EEC11A66
:10058000D0ED022A70EEC30A91ED022A90ED030A23
:10059000D1ED031A82ED001AC2ED010A72EEC20A11
:1005A00030EE610A1030C2ED020A82ED030A10310A
:1005B0001032BCF1010CD9D113F0030308BF70470E
:1005C000B3F1004F2CD2002BD8BF7047001F091F7A
:1005D000121F13F0010F0AD090ED010AD1ED010AAC
:1005E000001D091D30EE600A82ED010A121D5B0834
:1005F00008BF704790ED010AD1ED010A30EE600AA4
:1006000082ED010A90ED020AD1ED020A08300831AC
:1006100030EE600A82ED020A08325B1EEAD17047B2
:10062000B0EC010A5B1EF1EC010A30EE600AA2ECAC
:10063000010AF5D1704700009FED1A1AF5EE000A85
:1006400040EE010ABDEEE00AF5EEC00A10EE100A17
:10065000F1EE10FA38BF401E00EE100A1349F7EE13
:10066000001AB8EEC00A30EEC00ADFED0F0A20EE25
:10067000200AFCEEC00A10EE900AC0F3080000EE5B
:10068000900A01EB8000F8EE600A90ED011A70EE1E
:10069000600A90ED000A71EEE01A21EE800A00EE89
:1006A000810A704783F9223E00000044E09101086E
:1006B0009FED3D0A5FEA920C57D000BFD0ED000AD3
:1006C00090ED011A0B1D60EEA00A083041EE010A00
:1006D000F5EEC00AF1EE10FAA6BFB1EEE01A81ED18
:1006E000001A81ED000AD0ED000A90ED011A191DE3
:1006F00060EEA00A083041EE010AF5EEC00AF1EE04
:1007000010FAA6BFB1EEE01A83ED001A83ED000ADD
:10071000D0ED000A90ED011A0B1D60EEA00A083022
:1007200041EE010AF5EEC00AF1EE10FAA6BFB1EEF5
:10073000E01A81ED001A81ED000A90ED001AD0ED6B
:10074000010A191D21EE011A083000EEA01AB5EEBB
:10075000C01AF1EE10FAA6BFF1EEC10AC3ED000A0D
:1007600083ED000ABCF1010CA8D112F0030208BF0E
:10077000704700BFD0ED000A90ED011A0B4660EE05
:10078000A00A091D083041EE010AF5EEC00AF1EE9B
:1007900010FAA6BFB1EEE01A83ED001A83ED000A4D
:1007A000521EE7D170470000000000002DE9F00F55
:1007B0006FF003042DED0C8B5FEAD30AD0E901C77B
:1007C000B0F8009004EB89040CEB04089FEDFE9A4E
:1007D00018BF4FEAD90B00F0C18100BF91ED000AAC
:1007E000B0EE493A88ED000A91ED010AF0EE430AB5
:1007F00088ED010A91ED020AB0EE431A88ED020A73
:1008000091ED030AF0EE431A88ED030A91ED040A14
:10081000B0EE432A88ED040A91ED050AF0EE432A72
:1008200088ED050A91ED060AF0EE433A88ED060AD6
:1008300091ED070A203188ED070ADCED007A9CED86
:10084000017ADCED026A9CED036ADCED045A9CED52
:10085000055ADCED064AB0EE434A3D460CF11C0455
:1008600008F120085FEA0B0600F02681D5ED008A2A
:1008700094ED008A26EE280A65EEA89A25EE28AAAD
:1008800027EEA8BA64EEA8AA67EE28BA26EEA8CA90
:1008900068EE28CAD5ED018A32EE000A32EEA92AA6
:1008A00073EE0A2A30EE8BBA33EEAA3AD5ED020A7D
:1008B00074EE2C3A71EE8C1AD4ED017A31EE2B1ACB
:1008C00027EE28DA26EEA8CA66EE28BA25EEA84A50
:1008D00065EE289A24EEA8AA68EE28AA67EEA8CAB0
:1008E00094ED027A7BEE0D8A31EE0C1A71EEAB1AA2
:1008F00030EE040A32EE292A72EE8A2A33EE2A3AC0
:1009000073EEAC3A66EEA0CA66EE20BA65EEA09A27
:1009100025EE20AA24EEA04A68EE20AA27EEA0BA6F
:1009200027EE20CAD5ED030AD4ED036A30EE0A0A99
:1009300032EE042A78EEAC8A31EE2B1A71EEA91A47
:1009400072EEAA2A33EE0B3A73EE8C3A66EE20CAA8
:1009500065EEA0BA65EE209A24EEA04A28EE20AA01
:1009600067EEA0AA27EE20BA26EEA0CAD5ED040AAB
:1009700078EEAC8A31EE2B1A71EEA91A30EE040A29
:1009800032EE0A2A72EEAA2A33EE0B3A73EE8C3A52
:1009900065EEA0CA94ED046A65EE20BA24EEA0BA12
:1009A00028EE204A67EEA09A27EE20AA66EEA0AABB
:1009B00026EE20CAD5ED050AD4ED055A31EE2B1AE4
:1009C00071EE8B1A78EEAC8A30EE040A32EE292AE8
:1009D00072EE8A2A33EE2A3A73EE8C3A65EE20CA1A
:1009E00024EEA0BA68EE20BA27EEA04A67EE209A5D
:1009F00026EEA0AA66EE20AA25EEA0CAD5ED060A2C
:100A000030EE040A32EE292A27EE204A94ED065AE7
:100A100072EE8A2A66EEA09A78EEAC8A31EE0B1A54
:100A200071EEAB1A33EE2A3A73EE8C3A26EE20AA18
:100A300065EEA0AA64EEA0BA28EE20CA27EEA0BAFE
:100A400065EE20CAD5ED070A30EE040A32EE294AD7
:100A500072EE8A9A33EE2AAAD4ED074A31EE0C1AC6
:100A600078EEAB8A28EE20CA71EE8B1A73EEACAA30
:100A700066EE202A67EEA0BA27EE20BA26EEA02A5C
:100A800025EEA03A65EE203A24EEA08A74EE222AE2
:100A900078EE8C0A31EE2B1A71EE8B1A30EE022AA8
:100AA00039EE833A7AEE233A3AEE884A20342035FA
:100AB000761E7FF4DBAE00BF19F0070636D000BF0C
:100AC00095ED008A94ED000A241D67EE889A67EE82
:100AD000088A26EE88AA66EE08AA25EE88BA65EE90
:100AE00008BA24EE88CA20EE088AF0EE477AB0EE03
:100AF000667AF0EE466AB0EE656AF0EE455A70EE40
:100B0000A90A31EE281A71EE8A1A32EE2A2A72EEFA
:100B10008B2A33EE2B3A73EE8C3A34EE084AB0EE61
:100B2000645A2D1DF0EE404A761EC9D1C2ED000A6E
:100B300082ED011AC2ED021A82ED032AC2ED042AE7
:100B400082ED053AC2ED063A82ED074A2032BAF14B
:100B5000010A0CF1200C7FF441AE00BF13F0070A2C
:100B600043D000BFB1EC010A3E1D0CF10404B9F101
:100B70000103A8EC010ADCED000A97ED001AB0EEC3
:100B8000490A00EE810A29D0B3F1004F7DD2002B33
:100B900024DD251F341F13F0010F07D0D5ED010A06
:100BA00094ED011A241D2D1D00EE810A5B1015D055
:100BB000D5ED010A94ED011A00EE810AD5ED020A85
:100BC00094ED021A02E000000000000000EE810A2D
:100BD0005B1E04F1080405F10805E9D1A2EC010A45
:100BE000BAF1010A0CF1040CBCD14068A9F101046E
:100BF000A3081FD0B3F1004F54D2002B1ADD624678
:100C000001461D4692ED000A81ED000A92ED010AAF
:100C100081ED010A92ED020A81ED020A92ED030ACA
:100C2000103281ED030A10316D1EEBD10CEB031C69
:100C300000EB031014F0030202BFBDEC0C8BBDE807
:100C4000F00F7047B2F1004F42D2002A1ADD001FA8
:100C5000ACF1040112F0010F05D091ED010A80ED15
:100C6000010A001D091D52080CD000BF91ED010AB8
:100C700080ED010A91ED020A083180ED020A083088
:100C8000521EF3D1BDEC0C8B00E002E0BDE8F00F8A
:100C90007047F4EC010A5B1EB6EC011A00EE810A03
:100CA000F7D19BE79CED000A80ED000A9CED010A5C
:100CB00080ED010A9CED020A80ED020A9CED030A18
:100CC0000CF1100C80ED030A10305B1EEAD1B1E785
:100CD000BCEC010A521EA0EC010AF9D1D2E770B5B2
:100CE00004460498218008448000011F1D461846D0
:100CF000A26001F02DF8656070BD00002DE9FF4F86
:100D000081B00788DDF81090D0F80480B9F1000FA9
:100D10007ED0DFED884ABB08CDF80030D0E9025420
:100D2000009EC446B1EC010A6346F0EE640A002E50
:100D300047D000BFDCED002AD5ED001A95ED014A41
:100D40009CED012A01EEE20AD4ED003AD4ED015AFD
:100D500095ED025AB0EE401A41EE802A04EE421A96
:100D6000C3ED002ADCED021AB0EE413A42EEA30ACE
:100D700005EE611A04EE032ADCED032A95ED033A31
:100D800010350CF1100CF0EE413A42EE250AB0EEAF
:100D9000630A45EE231A03EE620A83ED012A94EDFD
:100DA000021AC3ED021A41EE810A40EE032A94EDC5
:100DB000031A1034C3ED032A42EE810A1033761E63
:100DC000B8D117F003061ED0B6F1004F7ED2002E28
:100DD00019DDE346A4469A464FEA060EF5EC011AE1
:100DE000BEF1010EBBEC011A01EEC10A00EE211AA0
:100DF000FCEC011AAAEC011A41EE210AEED104EB37
:100E0000860403EB860394ED001A40EE010A00E02D
:100E100009E083ED000A08F10408E2EC010AB9F1E7
:100E200001097FF47BAF40680499BB0800EB8101A6
:100E300021D0B3F1004F5FD2002B1CDD8C4602465F
:100E40004FEA03049CED000A82ED000A9CED010AC2
:100E500082ED010A9CED020A82ED020A9CED030A72
:100E60000CF1100C82ED030A1032641EEAD101EB82
:100E7000031100EB031017F0030204BF05B0BDE837
:100E8000F08FB2F1004F4CD2002ADCBF05B0BDE8B4
:100E9000F08F001F091F12F0010F05D091ED010A1C
:100EA00080ED010A001D091D520804BF05B0BDE810
:100EB000F08F00BF91ED010A80ED010A91ED020A69
:100EC000083180ED020A0830521E00E003E0F1D143
:100ED00005B0BDE8F08FBCEC011A761EF5EC011AE6
:100EE00001EEC10A00EE211AF4EC011AA3EC011A7A
:100EF00041EE210AEFD186E791ED000A80ED000A6C
:100F000091ED010A80ED010A91ED020A80ED020ADD
:100F100091ED030A103180ED030A10305B1EEBD116
:100F2000A9E7B1EC010A521EA0EC010AF9D105B003
:100F3000BDE8F08F0000000070B50446DDE9045004
:100F40002180084481002846C4E9022300F000FF04
:100F5000656070BD2DE9F04106462DED028B8C4693
:100F60000088736801EB80044508274601EB850083
:100F700004EB85025FEA95087DD000BFD1ED003A11
:100F8000D4ED001A91ED012A94ED013A73EEA16AB5
:100F900091ED024A91ED031AD4ED022AD4ED035AE1
:100FA00090ED008A90ED017A90ED020A90ED036ACF
:100FB00092ED005AD2ED014AD2ED027AD2ED030A47
:100FC000C1ED006A72EE036A73EEE13A74EEC71A7D
:100FD000C1ED016A74EE226A74EE622A37EEC04AED
:100FE000C1ED026A71EE256AC1ED036A72EE436AD1
:100FF00031EE652A38EE051A35EE483A80ED001AD2
:1010000037EE241A80ED011A30EE271A80ED021A0D
:1010100036EE201A80ED031A30EEC61A93ED000A60
:10102000D3ED010A63EE804A26EEA05A66EE805A9E
:1010300063EEA03A74EE854A75EEE33AC4ED004AD9
:1010400063EE204AC4ED013A61EE803A61EEA00AF7
:1010500023EE000A74EEE31A30EE800AC2ED001AA5
:1010600082ED010A93ED020AD3ED030A62EE803AA3
:1010700022EE203A00E024E062EEA01A22EE002ADE
:1010800073EE832A1030103172EE611AC4ED022A19
:1010900024EE202AC4ED031A61EE001A61EE200A44
:1010A00024EE000A103332EE611A103430EE800A5A
:1010B00082ED021A82ED030A1032B8F101087FF4C2
:1010C0005DAF294602236046726800F089FB7268B2
:1010D0002946BDEC028B3846BDE8F041022300F002
:1010E0007FBB2DE9F34F2DED048B87B00B98008863
:1010F000470801EB870000EB870606EB8705CDE983
:101100000056DDF82C80A5F1040C0CEB8703CDE92B
:1011100002014FEA5709D8F804800427CDE9049763
:10112000D1ED000A96ED000A90ED011A95ED013A15
:1011300070EE802A70EEC03AD1ED010A96ED010AF8
:10114000041F321F30EE802A70EEC01A31EE230ADF
:10115000D0ED000A32EE415A33EEC11A30EE434A66
:1011600071EEE04A95ED000A70EEA11A35EE435A91
:1011700074EE805A72EEE04A70EEA20A71EEC01A66
:1011800031EE031A74EEC04A30EE800A062708F1E9
:10119000080A81ED000A90ED010AD5ED010A08F177
:1011A000100B30EE020A08F1180830EE200A81ED2B
:1011B000010A80ED004AC0ED015AC6ED004A86EDF5
:1011C000015A85ED001AC5ED011ADDF810900830BE
:1011D000083108350836A9F102095FEA590900F01B
:1011E000078100BFD1ED000A96ED000AD0ED011A8B
:1011F000D5ED014A30EE802A30EEC05AD1ED010A19
:1012000096ED010A70EE802A30EEC01A31EE850AA2
:10121000D5ED000A30EE644A90ED000A31EE403A16
:1012200030EE011A73EE205A32EE403A30EE020AE6
:1012300031EE601A73EE603A30EE200A32EEE13A97
:1012400075EE611A81ED000A90ED010AD5ED010AF3
:1012500033EE643A30EE220A71EEA41A30EE200A20
:1012600081ED010AD4ED002ADCED004A54ED010ABB
:101270001CED010A32EEA47A32EEE49A72EEE42A10
:1012800052ED018A70EE807A30EEC02A72EEE82AC2
:10129000D2ED000A93ED000A13ED018A30EEC05A38
:1012A00072EE886A77EEE82A35EE026A32EEC85AA4
:1012B00077EE602A72EEC04A70EEC02A70EE870A9E
:1012C00072EEC22A30EE800A38EE682A84ED000AF7
:1012D00012ED010A53ED010A32EE492A30EE270AD7
:1012E00030EE200A04ED010A9AED000ADAED010A57
:1012F00064EE007A25EEA07A65EE805A24EE204A4C
:1013000037EE877A35EEC44A80ED007A80ED014AE7
:1013100026EEA04A66EE005A66EE200A26EE800A05
:10132000083034EE654A083130EE800A82ED004A1A
:10133000083C02ED010A9BED000ADBED010ADDF835
:1013400014E023EE804A63EE205A23EE003A63EE67
:10135000A03A083A34EE254A0BEB8E0B33EE633A93
:1013600086ED004A0AF1080A86ED013AB1EE643AC8
:10137000083663EE003A25EE203A25EE000A64EEC8
:10138000A00A33EEC33A30EEC00A8CED003A0CED01
:10139000010A98ED000AD8ED010A08EB870861EE12
:1013A000803A21EE203A21EE001A61EEA01AACF14B
:1013B000080C33EE833A31EE611A85ED003A62EEA5
:1013C000801A85ED011A22EE201A62EEA00A22EEA2
:1013D000000A083531EE611A30EE800A83ED001AFA
:1013E00003ED010A083BB9F101097FF4FBAE00BF30
:1013F000D1ED000A96ED000A91ED011AD0ED015AE7
:1014000030EE802A70EEC00A96ED010A95ED015A81
:10141000042371EE001A71EE404A35EEA00A90EDF9
:10142000001A31EEE54A70EEE50A30EE453A95EDE8
:10143000000A34EE454A30EE855A74EEC12A72EE47
:10144000413A71EE240A31EE021A72EE802A73EEEE
:10145000C03A70EEC00A31EE000A81ED000A90ED4C
:10146000010A95ED011A30EE210A30EE010A81EDF4
:10147000010A9AED000A9AED011A63EE001A22EEB3
:10148000812A22EE800A23EE011A71EE821A30EED2
:10149000410AC0ED001A80ED010A9BED000A9BEDA8
:1014A000011A63EE801A24EE012A24EE000A23EECC
:1014B000811A71EE821A30EE410AC6ED001A86EDED
:1014C000010A98ED010A98ED001A60EE801A25EEE7
:1014D000012A60EE810A25EE000A32EE211A30EE72
:1014E000C00A85ED001A85ED010A0B984268DDE916
:1014F000030100F075F90B980423049942680298DF
:1015000000F06EF90B98042304994268019800F0EA
:1015100067F90B98049904234268009807B0BDEC62
:10152000048B02B0BDE8F04F00F05AB92DE9F0414C
:101530000488984617460D460646012A20D1281DE4
:10154000F4B1A0F1080114F0010F06D091ED020AE8
:10155000B1EE400A81ED020A08315FEA540C0FD067
:1015600091ED020AB1EE400A81ED020A91ED040A02
:10157000B1EE400A81ED040A1031BCF1010CEFD14B
:10158000B4F5807F1BD008DC102C13D0202C16D093
:10159000402C19D0802C0DD01CE0B4F5007F13D066
:1015A000B4F5806F06D0B4F5006F08D0B4F5805F55
:1015B0000AD00FE029463046FFF7CCFC0AE0294666
:1015C0003046FFF78EFD05E021460123284672686C
:1015D00000F006F9B8F1000F04D0B1892846B268CE
:1015E000FEF7D2FD012F18BFBDE8F08100EE104AD2
:1015F000B7EE001A002CF8EE400A81EE200A08BF70
:10160000BDE8F081A5F1080014F0010F0ED0D0ED77
:10161000020A60EE800AC0ED020AD0ED030AF1EE84
:10162000600A60EE800AC0ED030A0830610808BF56
:10163000BDE8F081D0ED020A60EE800AC0ED020A3A
:10164000D0ED030AF1EE600A60EE800AC0ED030AF5
:10165000D0ED040A60EE800AC0ED040AD0ED050A60
:10166000F1EE600A60EE800AC0ED050A1030491EF6
:10167000E0D1BDE8F081000070B44FF0000CB0EC98
:10168000010A4E1E6446B50832D000BFD0ED000AF4
:1016900090ED011A0830B4EEE00AF1EE10FA3CBF0A
:1016A000B0EE600A0CF10104B4EEC10AF1EE10FADA
:1016B0003CBFB0EE410A0CF10204D0ED000A90EDFF
:1016C000011A0830B4EEE00AF1EE10FA3CBFB0EEB9
:1016D000600A0CF10304B4EEC10AF1EE10FA3CBF4B
:1016E000B0EE410A0CF104046D1E0CF1040CCDD1D6
:1016F00016F0030C18D0BCF1004F1AD2BCF1000F49
:10170000C4BF002566460FDDD0ED000AF4EEC00A26
:10171000F1EE10FA04DD4C19B0EE600AA4EB0C04F3
:10172000001D6D1C761EEFD182ED000A1C6070BC9E
:101730007047F0EC010AB4EEE00AF1EE10FA3CBF9B
:10174000B0EE600AA1EB0C04BCF1010CF1D1EBE7A7
:101750009FED220A8B0812D090ED002A90ED011A1D
:10176000D0ED020A30EE020AD0ED031A10305B1EF3
:1017700030EE010A30EE200A30EE210AECD111F0F1
:1017800003031AD0B3F1004F20D2002B15DD001F48
:1017900013F0010F04D0D0ED010A001D30EE800AD5
:1017A0005B080AD0D0ED010A30EE800AD0ED020AC3
:1017B00008305B1E30EE800AF4D100EE901AF8EE8D
:1017C000600A80EE201A82ED001A7047F0EC010AE0
:1017D0005B1E30EE800AF9D1EFE700000000000048
:1017E0002DE9FF4F2DED108B82B09FEDFEFA0B46D9
:1017F0001C46DB084FF0000C0CEB030505EB03085F
:1018000008EB030909EB030606EB030A00EBCC0720
:1018100000EBC60697ED001AD6ED000A0AEB030BA3
:1018200000EBC50500EBCA0A31EE200A71EE601A22
:1018300095ED002ADAED000A0BEB030E00EBC80869
:1018400032EE201A00EBCB0B32EE602AD8ED002AE4
:10185000DBED000A00EBC90900EBCE0E99ED003A72
:101860009EED004A72EEA03A72EEE02A73EE040A90
:1018700033EE443A70EE636A70EE233A31EE600A5A
:1018800071EE200A33EEA01A73EEE00A87ED001A1B
:10189000C6ED000A97ED011AD6ED010AD5ED013A21
:1018A00098ED014A31EE206A71EE600A9AED011A54
:1018B00099ED015A73EE814A73EEC13A9BED011A1C
:1018C00034EE017A34EE411A9EED014A75EE045A67
:1018D00035EE444A36EE475A36EE076A34EEE57A7C
:1018E00074EEA54A76EE245A76EE644AC7ED015AA4
:1018F000C6ED014A76EE874AC8ED004A76EEC74A41
:10190000CBED004A75EE404A35EE000AC8ED014ABB
:101910008BED010A32EE430A32EE032A20EE0F0A63
:1019200062EE0F4A33EEC42AA4448C4522EE0F3AED
:1019300033EE842A30EEC34A62EE0F3A30EE833A39
:1019400031EEC02A31EE800A71EE630A31EE231ABD
:1019500072EEE41A72EEA42A70EE013A30EE410AF9
:10196000C5ED003A8EED000A32EE200A8AED000A3B
:1019700032EE600A89ED000A33EE620A85ED010A53
:1019800033EE220A8EED010A34EE610A8AED010A75
:1019900034EE210A89ED010AFFF42EAF082B3FBF78
:1019A00002B0BDEC108B04B0BDE8F08F4FF0000C1E
:1019B000CDF804C04FF0010CCDF800C0DDF804C034
:1019C000159DAC444FEA8C0505EB0C07CDF804C01F
:1019D00007EB0C094FEA4C0808EB0C0609EB0C0A64
:1019E00002EBCC0C02EBC80802EBC60602EBC50505
:1019F00002EBC70702EBC90902EBCA0A9CED00DA49
:101A00009CED018AD8ED00CA96ED00CAD5ED00BA6A
:101A100097ED00BAD9ED00AADAED008AD8ED017A87
:101A200096ED01AA95ED017AD7ED016A99ED016A6B
:101A3000DAED019ADDF800C00CEB0307FD1805EBA9
:101A4000030A0AEB030808EB030606EB030B00EBA3
:101A5000CC0900EBC808D9ED000A98ED000A00EBAC
:101A6000C70700EBC606D7ED001A96ED001A70EE18
:101A7000803A0BEB030E70EEC00A31EE810A00EBE8
:101A8000C50500EBCB0B31EEC11AD5ED001A9BED6D
:101A9000002A00EBCA0A00EBCE0E31EE824A71EE4C
:101AA000C21A9AED002ADEED002A32EE223A32EE18
:101AB000622A73EEC42A73EE843A30EE435A30EE53
:101AC000030A33EE803A73EEC0DA89ED003A99EDFD
:101AD000010A98ED013AD7ED013A95ED014A70EE11
:101AE00003EA30EE433A96ED010A9AED01EADEEDA3
:101AF000014A33EE809A73EEC03A9BED010A74EE10
:101B0000005A34EE404A3EEE240A7EEE644A3EEE2F
:101B1000E5EA7EEEA55A79EE40EA39EE009A32EE19
:101B2000AE0A72EEEE2A75EE89EA35EEC99A7EEEBD
:101B3000455AC9ED01EA3EEE055A2BEEADEA67EED5
:101B400009EA2BEE899A67EE2DDA3EEE2EEA39EE9F
:101B50006D9A88ED00EA67EEA5DA88ED019A2CEE21
:101B6000809A6CEEA55A27EE800A39EE2D9A35EE52
:101B7000C00A85ED009A66EE055A85ED010A2AEE47
:101B8000A20A2AEE855A66EE222A30EE250A8BED4D
:101B9000000A35EE620A73EEA42A8BED010A31EEDB
:101BA000420A31EE021A33EEE42A62EE8F3A20EE58
:101BB0000F0A21EE0F1A22EE0F2A70EEC02A30EE25
:101BC000800A71EEC10A71EE811A33EE421A33EEC9
:101BD000022A34EE633A34EE234A70EE043A30EED1
:101BE000444A01E0F304353F72EE834A72EEC32AA1
:101BF00032EE613A32EE210A71EE601A71EE200A7D
:101C00002DEE232A28EE031A2DEE033A68EE233A2E
:101C1000A44432EE011A28EE842A8C4587ED001A7E
:101C200033EE631A29EE843A87ED011A29EE801A01
:101C300028EE800A32EE011A30EE430A26EEA42A7C
:101C40008EED001A8EED010A2BEE240A26EEA11A63
:101C50006BEE211A30EE010A2CEE221A86ED000AF4
:101C600031EEC20A6AEE221A86ED010A2AEE200A35
:101C70006CEE200A31EE000A8AED000A30EEE10A2D
:101C80008AED010AFFF4D8AEDDF800C00CF1010CBA
:101C9000CDF800C063453FF691AEDDF854C04FF675
:101CA000FF7404EACC0CCDF854C0072B3FF6A0AD6E
:101CB00002B0BDEC108B04B0BDE8F08F2DE9F05FF1
:101CC0000546002092469B468846064681464024AB
:101CD0001BE0284641464746224600F0DAF95346C3
:101CE0005A46C01A914110D311461846224600F0B8
:101CF000C1F92D1A67EB01084F4622460120002149
:101D000000F0B8F917EB00094E41201EA4F10104C0
:101D1000DFDC484631462A464346BDE8F09F40EAAC
:101D200001039B0703D009E008C9121F08C0042A59
:101D3000FAD203E011F8013B00F8013B521EF9D240
:101D40007047D2B201E000F8012B491EFBD2704768
:101D50000022F6E710B513460A4604461946FFF777
:101D6000F0FF204610BD421E12F8013F002BFBD1B0
:101D700011F8013B02F8013B002BF9D17047421CDE
:101D800010F8011B0029FBD1801A7047034611F897
:101D9000012B00F8012B002AF9D1184670472DE9D4
:101DA000FE4F81EA030404F0004421F00041009456
:101DB0004FF0000B23F0004350EA01045ED052EADA
:101DC00003045BD0C3F30A54C1F30A552C44A4F2B4
:101DD000F3340194A0FB0254C1F3130141F48011C8
:101DE000C3F3130343F4801301FB024400FB034ECF
:101DF000840A970A44EA815447EA8357A4FB076898
:101E000002958D0A05FB07854FEA932C04FB0C54C1
:101E10002705029D4FEA065847EA1637B5EB080535
:101E20006EEB070C870E920E47EA811742EA831287
:101E3000A7FB0201B6EB0B0164EB00042B0D43EA98
:101E40000C335E1844EB1C50DA465146E7FB0201A6
:101E5000C5F313044FEA0B3343EA14534FEA043239
:101E6000019C43EA0603A4F10C040294009CCDE912
:101E700000B400F064F903B0BDE8F08F0020014623
:101E8000F9E72DE9F04D81EA030404F0004B21F05D
:101E9000004514464FF0000A23F0004150EA0502C5
:101EA00020D054EA01021DD0C5F30A570246C5F3FB
:101EB0001303C1F31300C1F30A5640F4801543F431
:101EC0008013A7EB0608101BD64608F2FD3873EB0B
:101ED000050002D308F1010801E092185B41B8F156
:101EE000000F03DA00200146BDE8F08D00204FF41A
:101EF0008011064684460EE0171B73EB050705D3D9
:101F0000121B63EB050306434CEA010C49084FEA38
:101F1000300092185B4150EA0107EDD152EA03000C
:101F200012D082EA040083EA0501084305D0101BA1
:101F3000AB4106D20122002306E000224FF000430D
:101F400002E06FF0010253101AEB06004CEB08514F
:101F500010EB0A0041EB0B01BDE8F04D00F0E0B8DA
:101F60000EB540F2334102910021CDE900110A463D
:101F70000B4600F0E4F803B000BD70B5C1F30A529F
:101F800001F000450024C1F3130140F2FF3341F496
:101F900080119A4201DA002070BD40F233439A4228
:101FA000A2F2334203DC524200F073F800E09040AA
:101FB0002C43F1D0404270BDC1F30A5210B5C1F3B9
:101FC000130140F2FF3341F480119A4201DA0020FC
:101FD00010BD40F233439A42A2F2334203DC524234
:101FE00000F057F810BD904010BD00F0004230F0F6
:101FF00000400AD0C10D01F56071C0F3160042EA3D
:102000000151C20840071143704700200146704744
:1020100001F0004330B421F0004150EA010206D043
:102020000A0DA2F56072C1F31301002A02DC30BC74
:1020300000207047440F44EAC104C100E01830BCDE
:1020400000EBC25000F035B830B50B460146002019
:102050002022012409E021FA02F59D4205D303FA6A
:1020600002F5491B04FA02F52844151EA2F10102EB
:10207000F1DC30BD202A04DB203A00FA02F1002016
:1020800070479140C2F1200320FA03F319439040B6
:102090007047202A04DB203A21FA02F00021704721
:1020A00021FA02F3D040C2F12002914008431946C0
:1020B00070470029A8BF7047401C490008BF20F0A6
:1020C0000100704710B4B0FA80FC00FA0CF050EA3E
:1020D000010404BF10BC704749B1CCF1200421FABF
:1020E00004F411FA0CF118BF012121430843A3EBBA
:1020F0000C01CB1D4FEA00614FEA102042BF0020C7
:1021000010BC704700EBC35010440029A4BF10BCA2
:102110007047401C490008BF20F0010010BC704708
:1021200010B5141E73F1000408DA401C41F10001DF
:1021300092185B411A4301D120F0010010BD2DE936
:10214000F04D92469B4611B1B1FA81F202E0B0FA2D
:1021500080F220329046FFF78DFF04460F4640EA9A
:102160000A0041EA0B0153465A46084313D0114670
:1021700053EA010019D0C8F140025046FFF789FF29
:1021800005460E46504659464246FFF773FF084340
:1021900005D0012004E020463946BDE8F08D00203E
:1021A000054346EAE0762C4337430A986305E40A80
:1021B000A0EB08000022FD0A44EA47540A3002D589
:1021C00000200146E9E7010510196941DDE90845EC
:1021D00000196941BDE8F04DA2E72DE9FE4F8046A8
:1021E00081EA0300C00F0C46009021F0004123F06B
:1021F0000045B8EB0200A94105D240462146904671
:102200001C460B46024623F00040104347D0270DE2
:10221000C7F30A00C3F30A510290401A0190402804
:102220006BDAC3F3130040F4801B0098924620B190
:102230000023D2EB030A63EB0B0B01985946C0F164
:1022400040025046FFF716FF06460D4650465946D7
:10225000019A00F009F910EB08006141002487EAB7
:10226000115284EAE7731A4340D0009A62B3019A8C
:10227000012A4FEA075215DC001B61EB02014FF007
:10228000004202EA0752CDE90042001C41F58011EC
:1022900032462B46FFF753FF03B0BDE8F08F4046B0
:1022A0002146F9E7001B61EB0201001C41F5801398
:1022B00000185B412018A2F5001747EB030140EA24
:1022C000D570B6196D4111E06D084FEA360645EA42
:1022D000C0754FEA0752001B61EB0201001C41F57B
:1022E000801149084FEA30000019514132462B460F
:1022F00003B0BDE8F04FFFF713BF00980122400084
:102300000023D0EB020263EBE073009821464FEA12
:10231000E074B8EB000061EB0401E9E783F00043EF
:102320005BE781F0004158E72DE9F041054621F0D7
:1023300000400C46284309D0C4F30A5040F2334110
:10234000884205DD28462146BDE8F0812846FBE7A6
:1023500040F2FE31884210DC0CDB4FEA043040EAE8
:10236000155050EA053105D0104804F000410143F2
:102370000020E9E700200146E6E7A0F233404642AC
:10238000C6F1400228462146FFF774FE07468846FC
:10239000284621463246FFF77CFE43463A46FFF781
:1023A000BFFE3246BDE8F041FFF764BE0000F03FDB
:1023B000C1F30A52C1F3130140F2FF3341F480111B
:1023C0009A4202DA00200146704740F233439A42B3
:1023D000A2F2334202DC5242FFF75BBEFFF74ABE75
:1023E00030B5041E71F1000404DB4FF0004440429C
:1023F00064EB0101141E73F1000405DB1C464FF071
:102400000043524263EB04038B4208BF824230BD5B
:1024100030B5041E71F1000404DB4FF0004440426B
:1024200064EB0101141E73F1000405DB1C464FF040
:102430000043524263EB0403994208BF904230BD0F
:1024400000207047064C074D06E0E06840F00103AD
:1024500094E8070098471034AC42F6D3FDF7F8FE35
:10246000149C0108349C0108202A06DBCB17203A73
:1024700041FA02F043EAE07306E041FA02F3D04089
:10248000C2F12002914008431946704770B58D187B
:1024900010F8014B14F0030201D110F8012B2311A5
:1024A00006D110F8013B03E010F8016B01F8016B55
:1024B000521EF9D1ABB110F8012B04F00C048A1AAA
:1024C0000C2C03D0A2EB84129B1C08E010F8014BEB
:1024D000A2EB0422F8E712F8014B01F8014B5B1E56
:1024E000F9D5A942D4D3002070BDFEE70020704783
:1024F0000020704710B50022044905480CF0F0FC9C
:10250000044903480CF0E6FC002010BDFC1001203B
:1025100058000120FC08012010B5014603480CF0CA
:10252000D9FC02480CF0BAFC002010BD5800012074
:10253000094A10B5D2F89022D2F814220AB101202B
:1025400010BD0A46014604480CF0CAFCBDE8104024
:1025500001480CF023BD00005800012003484178D9
:1025600009B10C307047001D704700009CE9002045
:10257000014801F06DBC000098FF0020014801F007
:1025800067BC0000F8FF002001681823CAB2103AA7
:10259000B2FBF3F2054B6FF30901032A9B5CC365A1
:1025A00000D9091D81650846704700002E79010891
:1025B00010B5014600208B698A6A4FF0C07453B190
:1025C000B3F5005F15D072B1012A0CD0022A0AD0EF
:1025D000032A09D104E01AB1012A06D0022A03D144
:1025E000C96AC90100D5012010BDC96AA142FAD04B
:1025F00010BD002AF7D0012AF2D0022AF3D0032A14
:10260000F3D010BD30B50468256825F48025256019
:10261000046863608368402B036803D09960006896
:10262000C26030BD9A600068C16030BD7047000074
:102630002DE9F04FDFF898B100252DED048BADF5B5
:10264000017D9FED649A644CDFF89081DFF890A1E2
:102650000BF500790BEB850794ED112A97ED001A25
:1026600009EB8506D4ED121A21EE020AD6ED000A16
:1026700000EEE10A60EE820A41EE210A0DF0B8FF99
:10268000684600EB8500F0EE408AC0ED008A94EDCC
:102690000E8A38EEC80A00EE098A84ED0E8A97ED9C
:1026A000000A84ED120A96ED000A84ED110A98F8EA
:1026B0000000E0B39AF83200C8B39FED4A0A00BFA9
:1026C0006D1CADB286ED000A802DC3D36A4680230F
:1026D00011464548FEF712FB9DED000AB0EEC00A18
:1026E0000EF0BAFEDFED410A20EE200AD4ED0D0A0D
:1026F0009FED3F1A00EE810A84ED0D0AA0780028B4
:1027000060D110EE100A4FF07C55F6EE000AA84298
:1027100001DDC4ED0D0A94ED0D0AB2EE041A9AF82B
:10272000320020EE010A0022012378B100E010E01F
:1027300001EE100A98F80060B8EE411A5EB371EE2F
:10274000200AF4EEC00AF1EE10FA3AD888F8002018
:1027500037E00BF0BAFD092814D094ED100AD4ED3F
:102760000F0A84ED0F8A30EE080A30EE600ADFEDC2
:10277000210A20EE200ADFED200A84ED100A20EE67
:10278000200A9DE79FED1D0AC8EE800A9FED1C0AF6
:1027900020EE800A94E711EE106AAE4206DD01EEEB
:1027A000100AB8EE411A71EE600A03E000EE900ADA
:1027B000F8EE600AF4EEC00AF1EE10FA01DD88F8D6
:1027C0000030A2700DF5017DBDEC048BBDE8F08FEB
:1027D00034260020CDCC4C3D14000020B008002051
:1027E0009CE9002000000000942A00200AD7A33BA7
:1027F00052B87E3F8FC2753F0060EA46DB0F49400A
:102800000000804610B52021024802F087F80249F6
:10281000086010BD0010024060000020F0B50446C2
:102820008B488C4E85B000783178884305D005B050
:102830002046BDE8F0400FF00BBD874F874D38783C
:1028400098BB2846A97D90F82900012904D00229C7
:1028500013D0032924D15EE040B10BF031FD04EB2D
:10286000C40101EB041100EB810017E00BF028FD1F
:1028700004EB840100EB410010E038B10BF020FDC7
:1028800040F27121614300EB011007E00BF018FDED
:1028900004EB4401C1EBC41100EBC1000BF03CFDA3
:1028A00008F0C8F8387800286FD030786C4F0126CF
:1028B00080B36C48006840218DF80310002101911D
:1028C000B2040291CDE90312C0F3015202EB82027D
:1028D000C0F3034303EB4203C0F3023202EB820274
:1028E000C0F3032505EB420200F00F05C0F3021010
:1028F00000EB800005EB40058DF800305A488DF85C
:1029000001208DF80250007868B1012812D0022809
:1029100017D01CE03BE00BF0D3FC43F609516143B8
:1029200000EB8110BAE70BB9002C2EDB18198DF8DB
:1029300000000CE00AB9002C27DB10198DF801000B
:1029400005E00DB9002C20DB28198DF802009DF858
:102950000000182801D38DF800109DF801003C28D4
:1029600001D38DF801109DF802003C2801D38DF8A9
:1029700002103E4804F09EF83C4804F005F900229D
:1029800069463A4804F0C2F9BE7105B0F0BD384856
:1029900064210078801E052811D2DFE800F0034989
:1029A0003927160095F82600204410F0FF0085F81E
:1029B000260007D0642801D985F826107E702D489E
:1029C0000670E2E785F82660F8E795F833002044C2
:1029D00010F0FF0085F8330005D0FA28EED9FA2070
:1029E00085F83300EAE785F83360E7E7002C03DC7D
:1029F00095F832000028E1D095F832002044C0B2AA
:102A000085F832000A28D9D90A2085F83200D5E79E
:102A100095F83000204410F0FF0085F8300004D015
:102A20006428CBD985F83010C8E785F83060C5E751
:102A3000002C01DC687D38B1687D2044C0B2687527
:102A4000042801D9042068750AF07AFDB6E7000071
:102A50006508002064080020630800209CE900202D
:102A600096080020002800406A080020F8FA00209C
:102A700066080020A208002070B5144D20212846C9
:102A800001F04CFF124C6060216888421DD020602C
:102A90000421284601F042FF6268002590420D495A
:102AA000A06808D0401EA06091F8361049428142CB
:102AB0000BDD681E06E0401CA06091F836108142D4
:102AC00003DA0120FFF7AAFEA56070BD00100240E6
:102AD000600000209CE9002010B54FF4806001F0F8
:102AE0008BFD074C2078002808D100F0B7FB207838
:102AF000002803D1BDE8104000F0EEBC10BD00007E
:102B00009A00002010B5042001F076FD0549002050
:102B1000087005480078002803D0BDE81040FFF792
:102B2000ABBF10BDB7080020B108002010B51020C1
:102B300001F062FD0749002008700748007800286E
:102B400007D00BF0C2FB072803D0BDE810400BF004
:102B5000C1BB10BDB7080020B108002010B520206F
:102B600001F04AFD034900200870BDE8104007F05D
:102B7000B7BE0000B7080020FEE700002DE9F041D5
:102B8000A0482DED068B90F8310000287ED09E4C99
:102B9000A07800287AD02078DFED9C9A9FED9CAA3F
:102BA000F6EE00AA4FF40077B7EE009A4FF000055A
:102BB000C8B3DFF8608200BF00EE105AB8EEC00A5A
:102BC00020EE290A20EE0A0AFDF736FD39EE400A0A
:102BD00020EE2A0A10EE100AFFF707FA08EBC506E6
:102BE00041EC180B3068FFF700FA53EC182BFFF795
:102BF000D6F8FFF70DFA30607068FFF7F6F953EC7E
:102C0000182BFFF7CCF8FFF703FA6D1C7060BD427C
:102C1000D2DB012300227F49E068FEF787FC3A46B9
:102C20007D497C483AE0FFE7DFF8F08100EE105A7A
:102C3000B8EEC00A20EE290A20EE0A0AFDF7FCFCD5
:102C400039EE400A20EE2A0A10EE100AFFF7CDF9FD
:102C500008EBC50641EC180B3068FFF7C6F953ECDA
:102C6000182BFFF79CF8FFF7D3F930607068FFF777
:102C7000BCF953EC182BFFF792F8FFF7C9F96D1C5C
:102C80007060BD42D2DB0123002200E0B5E0634961
:102C9000E068FEF74BFC3A465F496048FDF708FDE7
:102CA000594B394610331A1D5B48FEF7E5FC564A6E
:102CB000394618325848FEF74BFD94ED050AD4ED1D
:102CC000070A30EE601ADFED561A4FF07E5581EE9E
:102CD000210A84ED080AE088082808D3B5EEC00A66
:102CE000F1EE10FA03DD00BF30EE800A25E0012886
:102CF00025D8B5EEC00AF1EE10FA04D210EE100A93
:102D000048498842F0D810EE900A4749884204DDCD
:102D1000B2EE040A30EEC00A0FE0B5EEC00AF1EEE2
:102D200010FA04D210EE100A10F1814FDCD810EE28
:102D3000900AA84203DD30EEC90A84ED070AD4EDFB
:102D4000060AB1EE000A20EE800AD4ED070AB4EEBE
:102D5000E00AF1EE10FA01DD84ED070A0026E680B4
:102D60003249E069884203DAB3EE040A84ED070AC7
:102D7000D4ED070A284B002103EB810090ED001AE7
:102D800081EE200A10EE102A80ED000AAA4201DD31
:102D900080ED009A491C89B2B942EDD36278DFED2B
:102DA000240A0021C4ED090A00200DE001FB0207FE
:102DB00003EB870794ED091A97ED000A401CC0B297
:102DC00030EE010A84ED090A9042EFD300EE102A9A
:102DD00094ED091A03EB8107F8EE401A81EE210AFF
:102DE00010EE100A87ED000AA84201DD87ED009A77
:102DF000491C89B2FF29D5D9A670BDEC068BBDE868
:102E0000F08100009CE9002070000020DB0FC94029
:102E10000000003B504C002050D00020505C0020AF
:102E200000004842000020C1000020410000A041F5
:102E300000000000BB2190FBF1F0F0B500211B4F1A
:102E400002B24FF480730E46002A14DD4FF00000EA
:102E500007EB412400EB02052DB2FF2D02D924F827
:102E6000106003E034F8155024F81050401C00B2F4
:102E70009842EFDD14E013DA184607EB4125841879
:102E800024B2002C01DD9C4202DD25F8106003E035
:102E900035F8144025F81040401E00B20028EEDA44
:102EA000491CC9B23229CFD3F0BD0000506C0020BC
:102EB0002DE9F0476E4D287800287DD16D4890F8B7
:102EC0003100002878D06C486C49007809780843B4
:102ED00072D10BF0FAF90B286ED0694CA07800285B
:102EE0006AD168480078002866D1674800780028D1
:102EF00062D16648007800285ED14FF0010985F85C
:102F000000903120624FA84620814FF0FF3A80B2F6
:102F100007EB4022A2F5007180235E4801F06AFAB7
:102F2000524600215B4801F0D3F92089401E00047D
:102F3000000C2081EBD1002501E0802D04D205F1A9
:102F40008000C6B2802D02D3A5F18000C6B27F2ECC
:102F500030D05149A8B201EB8000F3EE0E0A90ED9B
:102F6000000A20EE200ABCEEC00A10EE100A80B261
:102F7000A0801D2808D91E20A0804FF47840208111
:102F8000E088401CE08003E0C0B20FF009FA208125
:102F9000208927F8160000236FF01E02BE21701C46
:102FA00006F093F8A0882389404202B2BE21701C2B
:102FB00006F08BF86D1C00E049E0FF2DBDD94FF401
:102FC000FC6633466FF01D02BE21802006F07DF8BE
:102FD000FFF7C4FA0079BB250B2819D2DFE800F00F
:102FE000060D18060D060D1839183900FFF7B6FA48
:102FF000C088404290FBF5F004E0FFF7AFFAC088CC
:10300000B0FBF5F002B233469F21802006F04EF867
:103010004FF48075F0232A46BE21012005F0F8FE0A
:103020004FF448531D4A1A491D4801F0E3F952462E
:1030300000211B4801F04CF933462A46BE2180206E
:1030400006F043F884F80290002188F80010BDE8EB
:10305000F087FFF783FAC0884FF4BB75B0FBF5F03B
:1030600002B233469F21802006F020F8BEE7000020
:10307000670800209CE90020A8080020A90800207B
:103080007000002063080020620800206008002013
:10309000506C002088FE002050D000200000086006
:1030A000E8FE002010B500F08FFABDE8104000F0F7
:1030B00057BA00002DE9F05F524C534D4FF0010814
:1030C00020694646401C2061C5F8008000F034FAB3
:1030D000000320814FF480372F602E6000F02CFA1F
:1030E000218900F00F0041EA002020812F602E602E
:1030F00000F022FA218900F00F0041EA001020813F
:103100002F602E6000F018FA218900F00F000843AC
:10311000208100B2DFF8F490A08100EE100A99F847
:1031200000203E4E002AB8EEC00A3949DFF8E4B06C
:10313000DFF8E4A0326802D00BEB820001E00AEB7A
:10314000820080ED010AE08901EB800080ED000A39
:103150002F60C5F8008000F0EFF9000320812F6098
:10316000C5F8008000F0E8F9218900F00F0041EA7D
:10317000002020812F60C5F8008000F0DDF9218952
:1031800000F00F0041EA001020812F60C5F8008098
:1031900000F0D2F9218900F00F000843208100B22D
:1031A00000EE100AA08199F80020B8EEC00A1C4B6E
:1031B000D6F800C012B10BEB8C0001E00AEB8C00DA
:1031C0004FF0000C80ED000AE08903EB800080EDF9
:1031D000000AE089401C80B2E08133689B1C3360A8
:1031E000B0F5807F01D1A4F80EC0B3F5806F05D192
:1031F00082F00100C6F800C089F800002F60BDE829
:10320000F09F000098000020180802407000002085
:1032100050D80020504C0020505C00206C00002052
:1032200050DC002010B5094C0120206000F084F92A
:103230000749084A087000F0010111700649C0F3FF
:10324000400008704FF48030206010BD1808024024
:1032500098000020B5080020B60800202DE9F041B4
:10326000144C0120144D154EA07028783178084375
:1032700001D0032000E004206070C0B200F078FAB2
:103280000F4F022038600E4801221146183801F015
:1032900071FB4FF44030386028783178084302D011
:1032A00000F010F801E0FFF705FF0020A070BDE876
:1032B000F081000098000020A8080020A908002044
:1032C000180802402DE9F041384C2DED028B2069A1
:1032D0009FED388A401C20613548E18900EB810070
:1032E00090ED000A20EE080ABDEEC00A10EE100AAA
:1032F00000B26081C0F3073000F03AFA2E4D01268B
:103300002E6037042F606089C0F3072000F030FA88
:103310002E602F606089C0F3071000F029FA2E603C
:103320002F60A07A00F024FA2E602F602348E189F4
:1033300000EB810090ED000A20EE080ABDEEC00A05
:1033400010EE100A00B26081C0F3073000F010FAEE
:103350002E602F606089C0F3072000F009FA2E600C
:103360002F606089C0F3071000F002FA2E602F6012
:10337000A07A00F0FDF92E602F60E0890021401C4A
:1033800080B20F4AE081B0F5807F09D0802803D158
:10339000107800B1A671E170BDEC028BBDE8F08140
:1033A000107800B1A671E181E670F5E79800002081
:1033B00050E0002000FEFF461808024050E40020C4
:1033C000150000202DE9F041FFF7C8F800680FF064
:1033D0004DF83C4E3C4F0446307839783B4D08431D
:1033E00014D10AF072FF032802D004280ED105E0A0
:1033F000FFF7B4F80068A98E084404E0FFF7AEF8C0
:103400000068A98E401A0FF031F8044630480021B8
:10341000417032783B781A4301D0082103E04170B3
:103420002A7D02B104214170C8B200F0A1F9294FF0
:1034300001221146384601F09DFA264D4FF44030E6
:1034400018352860C4F3035000F092F901221146A8
:10345000384601F08FFA4FF480362E60C4F30340F3
:1034600000F086F901221146384601F083FA2E60F9
:10347000C4F3033000F07CF901221146384601F014
:1034800079FA2E60C4F3032000F072F9012211468C
:10349000384601F06FFA2E60C4F3031000F068F9AB
:1034A00001221146384601F065FA2E6004F00F0043
:1034B00000F05EF901221146384601F05BFA2E60F9
:1034C000BDE8F081A8080020A90800209CE90020A0
:1034D00098000020000802402DE9F041144C012022
:1034E0000025A07065702179022609B1607002E0A4
:1034F0006079C8B16670607800F03AF90D4F3E60AF
:103500000C4801221146183801F034FA4FF44030CB
:103510003860207918B1FFF755FF257104E0607914
:1035200010B1FFF77FFE6571A570BDE8F081000066
:103530009800002018080240084908690A6900F04C
:10354000010002F0020210430A69096902F0040254
:10355000104301F0080108437047000000000240DA
:1035600070B50A4C0120A070052000F001F9084D4B
:1035700002202860064801221146183801F0FAF9A5
:103580004FF4403028600020A07070BD98000020EB
:103590001808024070B50A4C0120A070062000F007
:1035A000E7F8084D02202860064801221146183825
:1035B00001F0E0F94FF4403028600020A07070BDA9
:1035C00098000020180802402DE9F0413CA010F0BE
:1035D00013F83F4C0120A0700A2000F0C9F83D4DBF
:1035E000022028603B4E0122183E1146304601F071
:1035F000C1F94FF440302860012000F0B9F80122F1
:103600001146304601F0B6F9FFF796FF2070012809
:1036100007D031A00FF0F0FF20780FF0D7FF32A0D5
:1036200042E04FF480372F60022000F0A1F8012221
:103630001146304601F09EF9FFF77EFF2070022808
:1036400007D02EA00FF0D8FF20780FF0BFFF2FA0DB
:103650002AE02F60042000F08BF80122114630464A
:1036600001F088F9FFF768FF2070042807D02CA02C
:103670000FF0C2FF20780FF0A9FF2DA014E02F60FB
:10368000082000F075F801221146304601F072F969
:10369000FFF752FF207008280AD02AA00FF0ACFFD5
:1036A00020780FF093FF2BA0BDE8F04109F04AB855
:1036B0002F600020A070BDE8F0412BA00FF09CBF50
:1036C00046504741204275732054657374200000B2
:1036D00098000020180802404552524F52203020D6
:1036E00050494E0D0A000000465047412062757354
:1036F0002050494E30206572726F72004552524F11
:103700005220312050494E0D0A00000046504741DA
:10371000206275732050494E31206572726F7200BD
:103720004552524F5220322050494E0D0A0000009F
:1037300046504741206275732050494E32206572D1
:10374000726F72004552524F5220332050494E0D35
:103750000A00000046504741206275732050494ED0
:1037600033206572726F72004F4B0D0A000000002B
:1037700042082023102103EA421201EA00111143FA
:103780008208402303EA82121143C008C00741EABD
:10379000106141F4700001498861704700000240E7
:1037A00070B515460C4606463BB1B3F5804F07D0C1
:1037B00040F24F1130A00EF039FB6FF0704056E030
:1037C0003B48864204D040F255112BA00EF02EFB50
:1037D00020680F2804D94FF4AB7127A00EF026FB08
:1037E0006068401E0E2804D940F2571122A00EF046
:1037F0001DFBA068401EFE2804D94FF4AC711EA02A
:103800000EF014FBE0680F2804D940F259111AA0F9
:103810000EF00CFBA06968B1B0F1805F0AD0B0F186
:10382000005F07D0B0F1405F04D04FF4AD7112A03B
:103830000EF0FCFA55B1022D08D0042D06D0062D4D
:1038400004D040F25B110CA00EF0F0FA56F82510EF
:103850001848A3890140D4E9000240EA0210A26896
:10386000120242EA03421043A2691043084346F899
:103870002500002070BD00002E2E2F447269766551
:1038800072732F53544D3332463478785F48414C2D
:103890005F4472697665722F5372632F73746D3350
:1038A00032663478785F6C6C5F66736D632E63008C
:1038B000040100A00000F0CF2DE9F0410C460546C0
:1038C000B0F1204F03D086215AA00EF0AFFA206845
:1038D00048B1022807D0042805D0062803D0872144
:1038E00054A00EF0A3FA606828B1022803D0882102
:1038F00050A00EF09BFAA06838B1042805D0082823
:1039000003D089214BA00EF091FAE06838B110285D
:1039100005D0202803D08A2146A00EF087FA20691E
:1039200030B1B0F5807F03D08B2142A00EF07EFA3B
:10393000606930B1B0F5007F03D08C213DA00EF05E
:1039400075FAA06930B1B0F5806F03D08E2139A02F
:103950000EF06CFAE06930B1B0F5006F03D0902141
:1039600034A00EF063FA206A30B1B0F5805F03D066
:10397000912130A00EF05AFA606A30B1B0F5005FC4
:1039800003D092212BA00EF051FAA06A30B1B0F50D
:10399000804F03D0932127A00EF048FAE06A30B19F
:1039A000B0F5004F03D0942122A00EF03FFA206B17
:1039B00030B1B0F5002F03D095211EA00EF036FADD
:1039C000E06B78B1B0F5803F0CD0B0F5003F09D086
:1039D000B0F5403F06D0B0F5802F03D0962115A05A
:1039E0000EF024FA226855F8220020490840D4E954
:1039F0000113D4E9036719433E43314366693143F8
:103A0000A6693143E6693143266A3143666A314328
:103A1000A66A3143E66A3143E66B246B31432143A6
:103A20000143082B01D141F0400145F8221000204C
:103A3000BDE8F0812E2E2F447269766572732F5384
:103A4000544D3332463478785F48414C5F44726954
:103A50007665722F5372632F73746D3332663478C8
:103A6000785F6C6C5F66736D632E63008000F0FF9F
:103A700070B515460C460646B0F1204F04D04FF401
:103A80008C7139A00EF0D2F920680F2804D940F2C9
:103A9000191135A00EF0CAF96068401E0E2804D92D
:103AA0004FF48D7130A00EF0C1F9A068401EFE28C1
:103AB00004D940F21B112CA00EF0B8F9E0680F28D1
:103AC00004D94FF48E7128A00EF0B0F92069801E41
:103AD0000E2804D940F21D1123A00EF0A7F9606949
:103AE000801E0F2804D94FF48F711FA00EF09EF98D
:103AF000A16969B1B1F1805F0AD0B1F1005F07D06F
:103B0000B1F1405F04D040F21F1117A00EF08EF902
:103B100055B1022D08D0042D06D0062D04D04FF447
:103B2000907111A00EF082F906EB85025068A5890C
:103B300000F04041D4E9000340EA0310A3681B02EF
:103B400043EA05431843238A154D05EB03531843F5
:103B5000237D6D0105EB03631843A36918430843F4
:103B60005060002070BD00002E2E2F4472697665D3
:103B700072732F53544D3332463478785F48414C3A
:103B80005F4472697665722F5372632F73746D335D
:103B900032663478785F6C6C5F66736D632E630099
:103BA0000000F0FF70B5114C00220121204600F00A
:103BB000E1FE4FF0FF352B4601220D490D4803F081
:103BC0009BFB0B492B460322891C0A4803F094FBFC
:103BD0002B463C220849074803F0E6FA2046BDE898
:103BE00070400122114600F0C5BE000000040240F2
:103BF000A108002018FB00209CE9002070B5164C9D
:103C000000220121204600F0B5FE4FF0FF352B4683
:103C100001221249124803F06FFB0122114620468F
:103C200000F0A8FE00220121204600F0A3FE0B496F
:103C30002B460122891C0A4803F05EFB07492B46EC
:103C40000322891D064803F057FB2046BDE870405B
:103C50000122114600F08EBE000402409D080020A3
:103C600018FB002070B5194C00220121204600F0FD
:103C700081FE4FF0FF352B4601221549154803F010
:103C80003BFB01221146204600F074FE0022012178
:103C9000204600F06FFE0E492B460122C91C0D483C
:103CA00003F02AFB0A492B460322891D094803F029
:103CB00023FB2B463C220849064803F01DFB204607
:103CC000BDE870400122114600F054BE00040240DD
:103CD0009D08002018FB00209CE9002010B509F089
:103CE00001FE002009F0FEFD4FF6FF7101EA0024FD
:103CF000002009F0F7FD2043C00810BD2DE9F05F5A
:103D000007469B469146884600269020FFF7E6FF2F
:103D1000054664200EF0B6F8D020FFF7DFFF04461A
:103D200014E09020FFF7DAFF824664200EF0AAF834
:103D3000D020FFF7D3FFBAF1000F05D020B105EB7B
:103D40000A014D0820444408761CF6B24E45E8D3DB
:103D5000BBF1000F04D03D80A8F80040BDE8F09F03
:103D600000EE105A1548B8EE400A90ED011AB0F96D
:103D70000010C0EE010A00EE101AB8EEC00A30EED4
:103D8000800ABCEEC00A10EE101A398000EE104A0C
:103D9000D0ED020AB0F90200B8EE400A80EE201A17
:103DA00000EE100AB8EEC00A31EE000ABCEEC00AFE
:103DB00010EE100AA8F80000D0E7000080090020EB
:103DC0002DE9F0410446876D00F00AFE064694F89E
:103DD00035000025022806D08020606584F8345024
:103DE0000120BDE8F0812068016821F01601016022
:103DF0002068416921F080014161206C08B9A06C04
:103E000020B12068016821F0080101602068016884
:103E100021F0010101600BE000F0E2FD801B0528AC
:103E200006D92020606504F8345F03206070D8E76D
:103E300020680068C007EFD194F85C103F208840EC
:103E4000B86004F8345F012060700020C9E700000A
:103E50002DE9F84304464FF00009CDF8009063487F
:103E60004FF41651A56D0068B0FBF1F72E6894F879
:103E70005C10082000FA01F131420FD021680A6875
:103E800052070BD50A6822F004020A6094F85C100D
:103E90008840A860606D40F00100606594F85C1097
:103EA0004FF0010808FA01F0304208D02168496952
:103EB000090604D5A860606D40F00200606594F8C2
:103EC0005C1004208840304208D0216809688907C6
:103ED00004D5A860606D40F00400606594F85C1043
:103EE00010208840304218D021680968090714D58D
:103EF000A86020680168490304D50068000308D55C
:103F0000A16C07E00168C90503D4016821F008012C
:103F10000160216C09B12046884794F85C1020208C
:103F20008840304231D021680968C9062DD5A86083
:103F300094F8350005282068016806D0490347D564
:103F4000006800031DD4616C1CE021F016010160C3
:103F50002068416921F080014161206C08B9A06CA2
:103F600020B12068016821F00801016094F85C101C
:103F70003F208840A86084F8349084F83580216D13
:103F80001FE0E16B09B120468847606D00282BD007
:103F9000606DC00714D0052084F8350020680168E2
:103FA00021F0010101600098401C0090B84203D844
:103FB00020680068C007F6D184F8349084F8358012
:103FC000E16C002910D001B02046BDE8F04308475D
:103FD0000168C905D5D4016821F01001016084F899
:103FE000349084F83580CCE7BDE8F883740900206C
:103FF0002DE9F041044600F0F3FC0546002C7CD08E
:10400000A249206888423ED0A049183188423AD05F
:104010009E493031884236D09C494831884232D05E
:104020009A49603188422ED09849783188422AD006
:1040300096499031884226D09449A831884222D0AE
:10404000934988421FD09249183188421BD0904929
:104050003031884217D08E494831884213D08C497C
:10406000603188420FD08A49783188420BD0884924
:104070009031884207D08649A831884203D0B821C0
:1040800084A00DF0D3FE6068C0B1B0F1007F15D000
:10409000B0F1806F12D0B0F1C06F0FD0B0F1006FEF
:1040A0000CD0B0F1206F09D0B0F1406F06D0B0F164
:1040B000606F03D0B92177A00DF0B8FEA06838B1C9
:1040C000402805D0802803D0BA2172A00DF0AEFEA2
:1040D000E068B0F5007F04D018B1BB216DA00DF0F1
:1040E000A5FE2069B0F5806F04D018B1BC2169A08D
:1040F0000DF09CFE606958B100E071E0B0F5006F12
:1041000006D0B0F5805F03D0BD2162A00DF08EFE19
:10411000A06948B1B0F5005F06D0B0F5804F03D07C
:10412000BE215CA00DF082FEE06940B1B0F5807F59
:1041300005D0202803D0BF2156A00DF077FE206ABD
:1041400060B1B0F5803F09D0B0F5003F06D0B0F5C2
:10415000403F03D0C0214FA00DF068FE606A0028E8
:1041600032D0042806D0C1214AA00DF05FFE606A5B
:10417000002829D0A06A48B1012807D0022805D01C
:10418000032803D0C62143A00DF050FEE06A60B1C1
:10419000B0F5000F09D0B0F1807F06D0B0F1C07F3C
:1041A00003D0C7213BA00DF041FE206B60B1B0F5FC
:1041B000001F09D0B0F5800F06D0B0F5C00F03D0B6
:1041C000C82134A00DF032FE002684F834600220AD
:1041D00084F835002068016821F0010101600EE0DB
:1041E0000120BDE8F08100BF00F0FAFB401B05286C
:1041F00005D920206065032084F83500F1E72068A8
:104200000068C007F0D12268116830480140D4E945
:1042100001031843D4E903352B431843636918435A
:10422000A3691843E3691843236A18430843616A82
:10423000042903D1D4E90B13194308431060206803
:104240004069656A20F0070128460D4301270428CC
:104250000CD1A06A0543E06A40B12046FEF7A8F9F8
:1042600020B14020606584F83570B9E72068456169
:104270002046FEF789F994F85C203F219140816047
:10428000666584F835700020ABE7000010600240DE
:10429000106402402E2E2F447269766572732F537C
:1042A000544D3332463478785F48414C5F447269EC
:1042B0007665722F5372632F73746D333266347860
:1042C000785F68616C5F646D612E63003F8010F001
:1042D0002DE9F74F82B0044600208946019000F096
:1042E0007FFB009094F835000027022804D080203E
:1042F000606584F8347068E020680068C00503D504
:104300004FF48070606560E094F85C004FF0200B23
:104310004FF0100AB9F1000F06D00AFA00F6A56DA9
:1043200028684FF001083AE00BFA00F6F7E7049826
:10433000401C12D0049830B100F052FB0099411A91
:104340000498814209D9C4F854B004F8347F84F841
:104350000180032005B0BDE8F08F286894F85C2048
:1043600008219140014204D0626D42F00102626571
:10437000A96094F85C2008FA02F1014204D0626D51
:1043800042F002026265A96094F85C200421914029
:10439000014204D0626D42F004026265A9603042BD
:1043A00002D1606DC007C2D0606D302678B1606DFB
:1043B000C0070CD02046FFF703FD94F85C00864050
:1043C000AE6004F8347F84F801800120C2E7B9F1BF
:1043D000000F06D094F85C100AFA01F0A86001986A
:1043E000B8E794F85C008640AE6004F8347F84F847
:1043F0000180F4E72DE9F041884604460025581E67
:104400004FF6FF711E461746884204D340F29D11B5
:1044100013A00DF00BFD94F8340001280DD00120FD
:1044200084F8340094F835100020012907D084F86E
:10443000340002252846BDE8F0810220FBE7022176
:1044400084F83510606533463A4641462046FEF70B
:10445000D9F82068016841F001010160EAE7000035
:104460002E2E2F447269766572732F53544D33325A
:10447000463478785F48414C5F4472697665722FA4
:104480005372632F73746D3332663478785F68616A
:104490006C5F646D612E63002DE9F0478946044628
:1044A000876D0025581E4FF6FF711E4690468842C4
:1044B00004D34FF4E6711EA00DF0B8FC94F834005C
:1044C00001280DD0012084F8340094F83510002024
:1044D000012907D084F8340002252846BDE8F0877A
:1044E0000220FBE7022184F835106065334642461E
:1044F00049462046FEF786F894F85C103F20884035
:10450000B8602068016841F01601016020684169C7
:1045100041F080014161206C20B12068016841F0C8
:10452000080101602068016841F001010160D4E7E1
:104530002E2E2F447269766572732F53544D333289
:10454000463478785F48414C5F4472697665722FD3
:104550005372632F73746D3332663478785F686199
:104560006C5F646D612E630070B5044600F038FA2C
:104570000546601C02D004480078044400F030FA7C
:10458000401BA042FAD370BD68090020F0B5154861
:1045900087B00168002923D1012404601248016812
:1045A00041F0010101600068022500F00100059062
:1045B0004FF68070CDE9000502AA03260C2782E899
:1045C000D0006946094800F023F84EF2B370CDE9F7
:1045D000000502AA694682E8D000054800F018F8F4
:1045E00007B0F0BD600900203838024000100240DA
:1045F000000C024070470000044910B50A680242EE
:1046000002D00860FFF7F6FF10BD0000143C014027
:104610002DE9F84F0446A0480D4684421BD09F4820
:10462000844218D09E48844215D09E48844212D0BD
:104630009D4884420FD09D4884420CD09C488442BF
:1046400009D09C48844206D09B48844203D0B321C1
:104650009AA00DF0EBFB28680104090C01D0000CB6
:1046600003D0B42195A00DF0E1FB6868F8B10128F2
:104670001DD011281BD0022819D0122817D09E490E
:10468000884214D09D49884211D09D4988420ED05D
:104690009C4988420BD09C49884208D09B4988425B
:1046A00005D0032803D0B52184A00DF0BFFBA86876
:1046B00038B1012805D0022803D0B6217FA00DF023
:1046C000B5FB00264FF0010B0BFA06F02F6882466F
:1046D000074057457ED16868022801D012282ED1A4
:1046E0002869F8B109281DD001281BD0022819D04B
:1046F000032817D0042815D0052813D0062811D078
:1047000007280FD008280DD00A280BD00B2809D075
:104710000C2807D00D2805D00F2803D0C72167A08B
:104720000DF084FBF00804EB8002106A7107CB0ED9
:104730000F219940884329699940014311622068FB
:104740007200032101FA02F82979914601F0030170
:1047500020EA080001FA09F1014321606868012894
:1047600005D0022803D0112801D012281CD1E868F6
:1047700048B1012807D0022805D0032803D0DA2148
:104780004EA00DF053FBA068E96820EA080001FA8A
:1047900009F10143A1606068297920EA0A00C1F3A8
:1047A0000011B14001436160E068A96820EA080097
:1047B00001FA09F10143E1606868C00065D5544819
:1047C000016841F480410160006826F0030100F4B3
:1047D000804000E059E000904E480A18D2F80808DE
:1047E000B1070B0F0F21994088432B498C4201D10F
:1047F000002123E029498C4201D101211EE02849F2
:104800008C4201D1022119E026498C4201D10321B9
:1048100014E025498C4201D104210FE023498C4248
:1048200001D105210AE022498C4201D1062105E08F
:1048300020498C4201D1072100E008219940014321
:10484000C2F80818344908686A68B843D20300D52A
:10485000384308603049091D08686A68B843920304
:1048600000D5384308602C49083108686A68B843A5
:10487000D20200D53843086027490C3108686A68BD
:10488000B843920200D538430860761C102EFFF41E
:104890001BAFBDE8F88F000000000240000402409A
:1048A00000080240000C02400010024000140240C8
:1048B00000180240001C0240002002402E2E2F440F
:1048C0007269766572732F53544D3332463478785B
:1048D0005F48414C5F4472697665722F5372632F53
:1048E00073746D3332663478785F68616C5F6770BB
:1048F000696F2E63000000000000111000002110FD
:1049000000003110000012100000221000003210D0
:104910004438024000300140003C014070B50C00BA
:10492000054604D14FF4BF7103A00DF07FFA28694A
:10493000204000D0012070BD2E2E2F447269766574
:1049400072732F53544D3332463478785F48414C5C
:104950005F4472697665722F5372632F73746D337F
:1049600032663478785F68616C5F6770696F2E6358
:104970000000000070B515460C00064604D140F258
:104980009F1108A00DF052FA45B1012D04D04FF44B
:10499000D07104A00DF04AFAB46170BD2004B0617A
:1049A00070BD00002E2E2F447269766572732F53EE
:1049B000544D3332463478785F48414C5F447269D5
:1049C0007665722F5372632F73746D333266347849
:1049D000785F68616C5F6770696F2E63000000002C
:1049E0000148806870470000680900202DE9FF41F8
:1049F00004460068816800917749784E4FF040275F
:104A0000884201D1324600E03A46926801924068FD
:104A10008846029001D1304600E038464068039055
:104A200060684FF00105B0F5007F1CD0D8B1900749
:104A300005D50398000602D5204603F0F7FF00983D
:104A4000C0070FD0029840067FD521682046CA686B
:104A5000E16A8B1CE3620A80618E491E6186618E69
:104A6000002967D071E00098800719D502980006E8
:104A700016D5616A20468A1C626222680988D16064
:104A8000618D491E6185618D51B901684A6822F0C6
:104A9000A0024A60418E19B980F8415000F070F9C7
:104AA0000198C00705D00398400602D5204603F0C0
:104AB0008DFF0198400622D5039880061FD52168F6
:104AC000414501D1304600E03846406820F06001A1
:104AD00001D1304600E0384641602068416821F04D
:104AE000A00141602068C1688068019084F841504D
:104AF000606C40F002006064204600F071F900989C
:104B0000000767D50298800664D52068416821F0C7
:104B1000A00141602168414501D1304600E038469E
:104B2000406820F0600000D03E46706020688068D9
:104B3000009043E001684A6822F060024A60418DBB
:104B400019B980F8415000F01BF9009840061ED5B5
:104B5000029880061BD52068416821F06001416001
:104B60002168414501D1304600E03846406820F0D8
:104B7000A00101D1304600E03846416084F8415040
:104B8000606C40F002006064204600F029F9019852
:104B900000071FD5039880061CD52168414501D127
:104BA000304600E03846406820F0A00000D03E4685
:104BB00070602068416821F06001416084F84150D4
:104BC000606C40F00400606404B02046BDE8F04131
:104BD00000F006B9BDE8FF81003800400034004015
:104BE0002DE9F84F044690F84100154689464FF0EC
:104BF000000AD346012802D04FF0020A82E0E9B34E
:104C0000E2B3DBB394F8400001283DD0012084F8E2
:104C10004000E26261622068C06900F0070003287A
:104C200034D0052832D0238563852386A4F832301A
:104C3000C4F844B0052084F84100E36B4B48186485
:104C4000E66B4B4BF363E76B4A4EFE64A76B38642D
:104C5000A06BC363A06BC6642068C369DFF81881CA
:104C600003F44073454E4FF04027B3F5007F16D054
:104C7000ABB1C269C2F30122032A00E001E045D0D2
:104C800047E00120BDE8F88F0220FBE74FF6FF70F8
:104C900000EA43002085608520866086C8E7238E71
:104CA000404501D1314600E039460C31E06BFFF759
:104CB000F3FB2068404501D1304600E038464068AB
:104CC00040F0010001D1314600E039464860238DB3
:104CD0002268494602F10C02A06BFFF7DDFB206859
:104CE000416841F0020138E040453CD13046C0699E
:104CF00040F4806000D03E46F0612068C16941F414
:104D00008061C16184F840B05046BBE7C2688268E8
:104D10000092238D404501D1324600E03A460C32E4
:104D2000A06BFFF7B9FB2168414501D1314600E096
:104D30003946496841F0020101D1304600E0384669
:104D40004160238E21682A4601F10C01E06BFFF7D8
:104D5000A3FB2068416841F0010141602068C169FE
:104D60004905C1D5CEE73846C1E70000A98B000848
:104D70008D8A0008558B0008003800400034004040
:104D80000068084988420BD1074A08480121137876
:104D900003B1417001701170416801F5807141608B
:104DA00070470000003C004015000020E80800208B
:104DB0000068084988420CD10749084801220B784D
:104DC00003B14270002303700A70416801F58071DD
:104DD00041607047003C004015000020E8080020BA
:104DE000704790F8410070472DE9F05F040067D0EC
:104DF000914D2068A84207D09049884204D04FF4D2
:104E000089718FA00DF012F860684FF4807B4FF429
:104E1000007758B1584509D0B84207D0B0F5407F67
:104E200004D040F2131186A00DF000F8A06860B124
:104E300010280AD0202808D0302806D0B02804D066
:104E40004FF48A717EA00CF0F1FFE06850B10128A8
:104E500008D0032806D0052804D040F2151178A008
:104E60000CF0E4FF2069B84205D020B14FF48B71FB
:104E700073A00CF0DBFF60697F4AA0F5FA51914204
:104E800006D9022804D040F217116DA00CF0CEFF15
:104E9000A06930B1082804D04FF48C7168A00CF0E0
:104EA000C5FFE069012805D020B140F2191164A0C6
:104EB0000CF0BCFF94F841004FF0000A18B109E073
:104EC0000120BDE8F09F84F840A06C486063204654
:104ED00000F0DAF84FF0020884F841802168CA69CE
:104EE00040F6BF7922EA0902CA612168C1F8208030
:104EF0006069022838D0E068B0B12026A068202878
:104F000000D87600012000F0E7FF2169B94228D1DE
:104F1000E16859B1B100B0FBF1F000EB8000410055
:104F20006069B1FBF0F00BE01026E7E7F100B0FBA1
:104F3000F1F000BF00EB800061694000B0FBF1F0D0
:104F4000401D0A21B0FBF1F000F00101401A4008B9
:104F50000902821EFE2A09D3606C40F010006064D2
:104F6000AEE7B0FBF6F0E5E7022000212269084336
:104F7000024320680262D4E901010843A269E168A2
:104F8000114308432168CA694E46B243104340F4B6
:104F90000060C861206AE8B3012807D04FF4DA71D5
:104FA00027A00CF043FF206A01283CD134486063FD
:104FB000206834494FF04022A84201D1084600E061
:104FC0001046C06920EA060001D10B4600E01346F6
:104FD000D86123684046AB4201D10B4600E013463E
:104FE00018622368AB4201D1084600E01046C06950
:104FF00086B26068B8421DD0E0B100202789B4F8BD
:105000000CC047EA0C07B4F818C04CEA000C47EA99
:105010000C0700E007E0B8B2304340F40060AB4258
:1050200000D01146C861C4F844A0012084F84100B2
:10503000002046E75846E1E700380040003C0040C9
:105040002E2E2F447269766572732F53544D33326E
:10505000463478785F48414C5F4472697665722FB8
:105060005372632F73746D3332663478785F68617E
:105070006C5F6932732E6300C0CE0200B38B0008F0
:10508000ED490008003400402DE9F04F87B0054697
:1050900014216846FCF75CFE4749286888427CD1A9
:1050A00046480124C0F85C4145480068444940F442
:1050B00000400860086800F400400590404810383F
:1050C00000683F4940F0010010390860086800F0AE
:1050D00001000590086840F0040008600868022795
:1050E00000F004000590E003CDE9000702AA0326C2
:1050F0004FF0060882E8500169463248FFF788FA07
:105100004FF4A050CDE9000702AADFF8BC9082E876
:10511000500169464846FFF77BFA4FF400680520C6
:10512000CDF80080CDE90360CDE9017469464846B9
:10513000FFF76EFA264C25483F032060700660603A
:105140000020A060C4E905874FF4806BC4E9030B1D
:10515000C4E90A60206304F11C014FF480784FF425
:1051600040394FF0040A81E800072046FEF740FF6F
:1051700008B1FDF701FDEC63A5631448154C7830C8
:10518000402120600020C4E90101C4E9030BC4E907
:105190000A6020634901204600E00AE004F114029D
:1051A00082E88207FEF724FF08B1FDF7E5FCAC6357
:1051B000A56307B0BDE8F08F003C00400000474207
:1051C00040380240000002400008024010600240E7
:1051D00098FF0020F8FF00207047704770B504006A
:1051E00033D024492068884203D09E2122A00CF0AD
:1051F0001DFE606878B101280DD002280BD003286D
:1052000009D0042807D0052805D0062803D09F21FF
:1052100019A00CF00BFEA068B0F5805F03D3A021AD
:1052200015A00CF003FE21684CF6CC400860216804
:1052300045F255500860D4E9000141602168A0683A
:105240008860FFF7CDFB054609E0012070BD00BF77
:10525000FFF7C6FB401B302801D9032070BD206832
:10526000C0680028F4D121684AF6AA20086000200E
:1052700070BD0000003000402E2E2F44726976650C
:1052800072732F53544D3332463478785F48414C13
:105290005F4472697665722F5372632F73746D3336
:1052A00032663478785F68616C5F697764672E6313
:1052B0000000000000684AF6AA2101600020704743
:1052C00002488168027811448160704768090020B3
:1052D0000B4810B5016841F400710160016841F4A8
:1052E00080610160016841F480710160032000F079
:1052F000E5F8012000F006F800F024F8002010BDC9
:10530000003C024070B50D4D04464FF47A71287888
:10531000B1FBF0F00A490968B1FBF0F002F003FAC2
:1053200048B9102C07D200222146501E00F076F812
:1053300000206C6070BD012070BD00006809002075
:10534000740900201B4808B5016841F480410160E0
:10535000006800F4804000901648001F016841F08A
:10536000805101600068002200F08050009001210F
:105370006FF00B0000F052F8002201216FF00A00DC
:1053800000F04CF8002201216FF0090000F046F80F
:1053900001210022881F00F041F801210022481F4E
:1053A00000F03CF800220121BDE80840C81E00F0D2
:1053B00035B800004438024010B5040003D5BE21C2
:1053C00007A00CF033FD002C09DB04F01F010120C5
:1053D00088406109890001F1E021C1F8000110BD98
:1053E0002E2E2F447269766572732F53544D3332CB
:1053F000463478785F48414C5F4472697665722F15
:105400005372632F73746D3332663478785F6861DA
:105410006C5F636F727465782E63000070B515461B
:105420000C460646102A03D3AA2114A00CF0FEFC59
:10543000102C03D3AB2111A00CF0F8FC1E4800681F
:10544000C0F30223C3F107022046042A00D9042234
:10545000191D072901D2002300E0DB1E012404FAF4
:1054600002F1491E014099409C40641E2C4021439A
:105470003046BDE870400BF0AAB800002E2E2F4435
:105480007269766572732F53544D3332463478788F
:105490005F48414C5F4472697665722F5372632F87
:1054A00073746D3332663478785F68616C5F636FF4
:1054B000727465782E6300000CED00E010B50446B0
:1054C00007280BD0062C09D0052C07D0042C05D0BA
:1054D000032C03D0922108A00CF0A8FC154904F07D
:1054E000070208684FF6FF03184040EA0220124AFC
:1054F0001043086010BD00002E2E2F44726976659F
:1055000072732F53544D3332463478785F48414C90
:105510005F4472697665722F5372632F73746D33B3
:1055200032663478785F68616C5F636F7274657837
:105530002E6300000CED00E00000FA0570470068E3
:10554000416200207047F0B50368586A39B19C6A1F
:105550004FF4827600EB144400204D1E0AE040EA2E
:10556000024098620FE006EB8007DF59401C04EB15
:105570001744C0B2A842F6D344EA02404FF4807206
:1055800002EB810158500020F0BDD0F8040409F06E
:1055900058BFC1EBC10200EB8202D0F80404926C48
:1055A00009F0ABBEC1EBC10200EB8202D0F80404EB
:1055B000D2F8082209F004BFD0F8040409F043BF70
:1055C00070B504460B0601F00F00C0EBC00104EB00
:1055D00081014FF001024FF0000503D581F83D2015
:1055E0003C3103E081F8FD5101F5FE71087094F83B
:1055F000BC03012808D084F8BC2320680AF09AFA7A
:1056000084F8BC53002070BD022070BD70B5044604
:1056100001F00F006268904201D9012070BD0B06B5
:1056200001F00F01C1EBC10104EB81014FF0010258
:105630004FF0000503D581F83D203C3103E081F8AF
:10564000FD5101F5FE718D70087094F8BC030128BE
:1056500008D084F8BC2320680AF042FC84F8BC53CC
:10566000002070BD022070BD01F00F01C1EBC1012F
:1056700000EB8100D0F8140270472DE9F041044698
:105680000F0601F00F00C0EBC00104EB81014FF0E9
:1056900001064FF0000503D581F83D603C3103E081
:1056A00081F8FD5101F5FE7108708A60CB704A786F
:1056B00002B1C880022B00D10D7194F8BC030128FF
:1056C00009D084F8BC6320680AF084F9284684F87D
:1056D000BC53BDE8F0810220FBE770B50C4601F039
:1056E0000F05C5EBC50100EB8101C1F81032C1F80F
:1056F00008220023C1F8143281F8FD3181F8FC51F1
:10570000036901F5FE71012B00D10A612207027CB9
:10571000006803D00AF03CFC002070BD0AF02EFBAC
:10572000FAE770B504460D4601F00F006168884243
:1057300001D9012070BD29064FF000064FF001028B
:1057400007D5C0EBC00104EB810181F83D203C315D
:1057500007E0C5EBC50104EB810181F8FD6101F5AE
:10576000FE718A70087094F8BC03012807D084F891
:10577000BC2320680AF0E0FB280702D007E00220E3
:1057800070BD217C04F5717220680AF07DFB84F8FD
:10579000BC63002070BD70B50C4601F00F05C5EB71
:1057A000C50100EB81010B658A6400234B65012371
:1057B00081F83D3001F83C5F0369012B00D10A619B
:1057C0002207027C006803D00AF0E2FB002070BDD3
:1057D0000AF0D4FAFAE700002DE9FC5F04460068FD
:1057E0000026814605460AF0ECFC00287DD12068A1
:1057F0000AF013FD002878D020680AF00EFD80071B
:1058000004D52068416901F00201416120680AF075
:1058100004FD010304F57170009075D520680AF04D
:10582000DBFC07464FF4004BDFF80CA46AE0F807F6
:1058300066D0F1B220680AF0E8FC8046C00708D0C4
:1058400005EB46110120C1F8080B3146204607F050
:105850002DFB5FEA08702FD52068016C019100EBE9
:105860004611D1F8080B2269012A019A0DD0F34B99
:105870009A4210D1000401D5C1F808BB204600F0BF
:10588000EBFA206901280DD011E0524503D900043C
:1058900001D5C1F808BB204600F0DEFA019850455A
:1058A000EFD804E020680121009A0AF0EDFA05EB38
:1058B00046110820C1F8080B5FEAC86004D505EB63
:1058C00046111020C1F8080B5FEA88600CD52069EA
:1058D000012804D120680121009A0AF0D5FA05EBCD
:1058E00046112020C1F8080B01E0A2E10CE05FEABC
:1058F000884005D505EB46114FF40050C1F8080B60
:105900007F08761C002F92D120680AF086FC4003A5
:105910004FF0020B4FF0000A60D520680AF055FCEA
:105920000746002658E0F80754D0F1B220680AF084
:105930005AFC8046C00727D006F00F010120D5F899
:10594000342800FA01F18A43C5F8342805EB4611E2
:10595000C1F808092069012807D1C6EBC60004EB8D
:105960008000D0E9111211448164F1B22046FFF7A2
:1059700010FE2069012807D136B9206D20B92068B2
:105980000121009A0AF080FA5FEA087004D505EB5D
:1059900046110820C1F808095FEAC86004D505EB84
:1059A00046111020C1F808095FEA486004D505EBEC
:1059B00046114020C1F808095FEA887003D505EB5D
:1059C0004611C1F808B95FEA086003D531462046A0
:1059D00007F0DAFA7F08761C002FA4D120680AF0BD
:1059E0001CFC002811DAD5F8040820F00100C5F8E5
:1059F000040894F8F40301282BD0204600F010FA94
:105A00002068416901F00041416120680AF005FC0D
:105A100000050BD5D5F80808C00702D0204600F0D5
:105A200043FA2068416901F40061416120680AF08D
:105A3000F4FBC0045CD5D5F8040820F00100C5F8DB
:105A40000408102120680AF09DFB00214FF67F32E8
:105A500019E084F8F4A300212046FFF76FFDCFE79B
:105A600005EB4110C0F80829D0F8003923F40013E1
:105A7000C0F80039C0F8082BD0F8003B23F400131D
:105A8000C0F8003B491C60688842E9D8D5F81C087A
:105A900040F00110C5F81C08206B60B1D5F88408EF
:105AA00040F00B00C5F88408D5F8440840F00B001E
:105AB000C5F844080CE0D5F8140842F22B0108435D
:105AC000C5F81408D5F8100840F00B00C5F8100808
:105AD000D5F8000820F4FE60C5F80008217C206895
