:020000040800F2
:1000000090C101209D0100082D170108E992000808
:1000100029170108990B0008B15F010800000000D2
:10002000000000000000000000000000891C010822
:10003000B50E0008000000003D170108512101081D
:10004000B7010008B7010008B7010008B7010008B0
:10005000B7010008B7010008B7010008B7010008A0
:1000600029120008B7010008551200084D0E0008BB
:10007000B7010008B7010008B7010008B701000880
:10008000590E0008B7010008B7010008B7010008C1
:10009000B7010008B7010008B70100088D12000879
:1000A000B7010008B7010008B7010008B701000850
:1000B000B7010008B7010008AD210108B701000829
:1000C000B7010008B7010008B7010008B701000830
:1000D000B7010008B7010008B7010008B701000820
:1000E000FD110008B7010008B7010008B7010008BA
:1000F000B7010008B7010008B7010008B701000800
:10010000B7010008B7010008DD210108B7010008A8
:10011000B7010008B701000819220108B70100085B
:10012000650E0008710E0008B7010008B70100084D
:10013000B7010008B7010008B7010008B7010008BF
:10014000B7010008B7010008B7010008311701081E
:10015000B70100087D0E0008B7010008B7010008CC
:10016000B7010008B7010008B7010008B70100088F
:10017000B7010008B7010008B7010008000000003F
:10018000B7010008B7010008DFF80CD000F03CFC14
:1001900000480047619D010890C101200648804742
:1001A00006480047FEE7FEE7FEE7FEE7FEE7FEE75C
:1001B000FEE7FEE7FEE7FEE755210108890100089A
:1001C0002DE9F05F0546002092469B46884606468C
:1001D000814640241BE0284641464746224600F01F
:1001E00001FA53465A46C01A914110D31146184697
:1001F000224600F0E8F92D1A67EB01084F46224627
:100200000120002100F0DFF917EB00094E41201E0C
:10021000A4F10104DFDC484631462A464346BDE8E6
:10022000F09F40EA01039B0703D009E008C9121FB1
:1002300008C0042AFAD203E011F8013B00F8013BA0
:10024000521EF9D27047D2B201E000F8012B491ECC
:10025000FBD270470022F6E710B513460A46044663
:100260001946FFF7F0FF204610BD421E12F8013F6D
:10027000002BFBD111F8013B02F8013B002BF9D117
:10028000704710B5044604E00B7800F8013B03B159
:10029000491C521EF8D2204610BD421C10F8011B0A
:1002A0000029FBD1801A704710B5002200E0521CD3
:1002B000835C8C5CA34201D1002BF8D1D8B2E1B2AF
:1002C000401A10BD034611F8012B00F8012B002A3B
:1002D000F9D11846704770B506461DF09FF90468BD
:1002E00005460A220021304600F08CF92C6070BDD2
:1002F0002DE9FE4F81EA030404F0004421F000419F
:1003000000944FF0000B23F0004350EA01045ED04C
:1003100052EA03045BD0C3F30A54C1F30A552C44D8
:10032000A4F2F3340194A0FB0254C1F3130141F48D
:100330008011C3F3130343F4801301FB024400FB59
:10034000034E840A970A44EA815447EA8357A4FB80
:10035000076802958D0A05FB07854FEA932C04FB7D
:100360000C542705029D4FEA065847EA1637B5EBAD
:1003700008056EEB070C870E920E47EA811742EADA
:100380008312A7FB0201B6EB0B0164EB00042B0DFB
:1003900043EA0C335E1844EB1C50DA465146E7FB47
:1003A0000201C5F313044FEA0B3343EA14534FEA37
:1003B0000432019C43EA0603A4F10C040294009C5D
:1003C000CDE900B400F09CF903B0BDE8F08F002047
:1003D0000146F9E72DE9F04D81EA030404F0004BF2
:1003E00021F0004514464FF0000A23F0004150EA86
:1003F000050220D054EA01021DD0C5F30A57024677
:10040000C5F31303C1F31300C1F30A5640F480157A
:1004100043F48013A7EB0608101BD64608F2FD38FC
:1004200073EB050002D308F1010801E092185B416B
:10043000B8F1000F03DA00200146BDE8F08D00207E
:100440004FF48011064684460EE0171B73EB050738
:1004500005D3121B63EB050306434CEA010C490864
:100460004FEA300092185B4150EA0107EDD152EAA1
:10047000030012D082EA040083EA0501084305D094
:10048000101BAB4106D20122002306E000224FF0F0
:10049000004302E06FF0010253101AEB06004CEB30
:1004A000085110EB0A0041EB0B01BDE8F04D00F0E4
:1004B00018B90EB540F2334102910021CDE9001187
:1004C0000A460B4600F01CF903B000BD70B5C1F33D
:1004D0000A5201F000450024C1F3130140F2FF333A
:1004E00041F480119A4201DA002070BD40F233439A
:1004F0009A42A2F2334203DC524200F073F800E069
:1005000090402C43F1D0404270BDC1F30A5210B567
:10051000C1F3130140F2FF3341F480119A4201DA32
:10052000002010BD40F233439A42A2F2334203DC72
:10053000524200F057F810BD904010BD00F000424C
:1005400030F000400AD0C10D01F56071C0F3160013
:1005500042EA0151C208400711437047002001469A
:10056000704701F0004330B421F0004150EA01022D
:1005700006D00A0DA2F56072C1F31301002A02DC55
:1005800030BC00207047440F44EAC104C100E018A9
:1005900030BC00EBC25000F06DB830B50B460146E0
:1005A00000202022012409E021FA02F59D4205D312
:1005B00003FA02F5491B04FA02F52844151EA2F1BC
:1005C0000102F1DC30BD202A04DB203A00FA02F1FE
:1005D000002070479140C2F1200320FA03F3194331
:1005E00090407047202A04DB203A21FA02F00021D3
:1005F000704721FA02F3D040C2F120029140084333
:10060000194670472DE9F04791460F46804604464B
:10061000002614F8015B2DB100F01AFA0068405D65
:10062000C007F6D12B2D02D02D2D18D0641E4A46BE
:100630003946204600F010FA27B13968A14201D1AD
:10064000C7F8008071054FF002040BD54042002826
:1006500003DD1CF0E3FF0460A007BDE8F08746F46B
:100660008066E4E70028F8DA1CF0D8FF04606FF039
:100670000040F2E70029A8BF7047401C490008BFAE
:1006800020F00100704710B4B0FA80FC00FA0CF0C2
:1006900050EA010404BF10BC704749B1CCF12004FA
:1006A00021FA04F411FA0CF118BF01212143084387
:1006B000A3EB0C01CB1D4FEA00614FEA102042BFB3
:1006C000002010BC704700EBC35010440029A4BFA9
:1006D00010BC7047401C490008BF20F0010010BC4E
:1006E000704710B5141E73F1000408DA401C41F184
:1006F000000192185B411A4301D120F0010010BDA6
:100700002DE9F04D92469B4611B1B1FA81F202E01B
:10071000B0FA80F220329046FFF755FF04460F46AC
:1007200040EA0A0041EA0B0153465A46084313D0F7
:10073000114653EA010019D0C8F140025046FFF7B4
:1007400051FF05460E46504659464246FFF73BFFCD
:10075000084305D0012004E020463946BDE8F08D6D
:100760000020054346EAE0762C4337430A986305A8
:10077000E40AA0EB08000022FD0A44EA47540A30CC
:1007800002D500200146E9E7010510196941DDE9BC
:10079000084500196941BDE8F04DA2E72DE9FE4F7B
:1007A000804681EA0300C00F0C46009021F0004112
:1007B00023F00045B8EB0200A94105D2404621468E
:1007C00090461C460B46024623F00040104347D09B
:1007D000270DC7F30A00C3F30A510290401A019093
:1007E00040286BDAC3F3130040F4801B0098924654
:1007F00020B10023D2EB030A63EB0B0B019859469F
:10080000C0F140025046FFF7DEFE06460D46504658
:100810005946019A00F00AF910EB080061410024E2
:1008200087EA115284EAE7731A4340D0009A62B310
:10083000019A012A4FEA075215DC001B61EB020105
:100840004FF0004202EA0752CDE90042001C41F598
:10085000801132462B46FFF753FF03B0BDE8F08FFF
:1008600040462146F9E7001B61EB0201001C41F5FF
:10087000801300185B412018A2F5001747EB030115
:1008800040EAD570B6196D4111E06D084FEA3606A1
:1008900045EAC0754FEA0752001B61EB0201001CDC
:1008A00041F5801149084FEA3000001951413246A4
:1008B0002B4603B0BDE8F04FFFF713BF00980122AD
:1008C00040000023D0EB020263EBE0730098214666
:1008D0004FEAE074B8EB000061EB0401E9E783F054
:1008E00000435BE781F0004158E700002DE9F0414B
:1008F000054621F000400C46284309D0C4F30A50B5
:1009000040F23341884205DD28462146BDE8F081AA
:100910002846FBE740F2FE31884210DC0CDB4FEA50
:10092000043040EA155050EA053105D0104804F073
:10093000004101430020E9E700200146E6E7A0F27C
:1009400033404642C6F1400228462146FFF73BFEAF
:1009500007468846284621463246FFF743FE43466F
:100960003A46FFF7BEFE3246BDE8F041FFF72BBE28
:100970000000F03FC1F30A52C1F3130140F2FF330C
:1009800041F480119A4202DA00200146704740F299
:1009900033439A42A2F2334202DC5242FFF722BEB4
:1009A000FFF711BE30B5041E71F1000404DB4FF0F7
:1009B0000044404264EB0101141E73F1000405DBA6
:1009C0001C464FF00043524263EB04038B4208BFC6
:1009D000824230BD30B5041E71F1000404DB4FF0DB
:1009E0000044404264EB0101141E73F1000405DB76
:1009F0001C464FF00043524263EB0403994208BF88
:100A0000904230BD00207047064C074D06E0E0687C
:100A100040F0010394E8070098471034AC42F6D345
:100A2000FFF7B6FB88590208A8590208202A06DBFE
:100A3000CB17203A41FA02F043EAE07306E041FAAC
:100A400002F3D040C2F1200291400843194670479A
:100A5000004870474CF101082DE9F05F82460078AC
:100A6000002715468B460AF10104B946302801D00B
:100A70009DB113E014F8010B0127782803D0582802
:100A800001D045B10AE00DB1102D07D10027102586
:100A900014F8010B02E0082500E00A250026B04604
:100AA0000EE005FB080005FB06F1012701EB1046EF
:100AB0001FFA80F8B6F5803F00D3B94614F8010B51
:100AC000294600F018F80028EBDABBF1000F05D03A
:100AD0000FB1641E00E05446CBF80040B9F1000F9E
:100AE00006D01CF09BFD02210160C81EBDE8F09FEE
:100AF00048EA0640FAE73A2800D2303820F02002CF
:100B0000412A01D3A2F13700884201D34FF0FF30D0
:100B1000704770B58C1810F8015B15F0070301D110
:100B200010F8013B2A1106D110F8012B03E010F850
:100B3000016B01F8016B5B1EF9D12B0705D4002373
:100B4000521E0DD401F8013BFAE710F8013BCB1A15
:100B5000921C03E013F8015B01F8015B521EF9D50A
:100B6000A142D8D3002070BD0020704710B544F2D8
:100B700090540021C2F20104D4F89802018442F298
:100B80005E31C2F20101C161204612F06BFF2046C6
:100B900012F044FF002010BDFEE700000020704767
:100BA00000207047B0B540F6B04444F290550022A2
:100BB000C2F20004C2F2010504F12001284612F03D
:100BC000C9FF2846214612F0BFFF0020B0BD00003B
:100BD0002DE9F04F91B00DF104080C460546402177
:100BE0004046FFF737FB226840462946FFF749FB9E
:100BF000206801383F2835D841F2F01741F2402BE8
:100C00004FF0000900200026C2F20007C2F2000BDC
:100C100007F1010A18F80000F8B13D783B280BF8FD
:100C200005000FD1C5F140013F2D0AEB050088BF3B
:100C30000021FFF70FFB504659462A46FFF7F1FA0D
:100C400005E000BF681C3870C0B2402805D3584684
:100C5000402187F80090FFF7FDFA01362168B0B215
:100C60008142D7D8002011B0BDE8F08F40F22011AA
:100C7000C2F200014A7B01F11800002A08BF01F10D
:100C800010007047222809D1887840F61F41C2F22F
:100C900000010138B0FA80F0400908700020704768
:100CA0000020704710B544F2905444F68831002279
:100CB000C2F20104C2F20001204612F0E3FF44F246
:100CC00088312046C2F2000112F0D6FF002010BD8C
:100CD00010B544F290540146C2F20104204612F0CD
:100CE000CBFF204612F0AEFF002010BDF0B54A1E2B
:100CF0004FF0000C02F47E42BCEB522F4BD140F679
:100D0000F04E44F290320023C2F2000EC2F2010211
:100D1000BEF80040C55CA6B29555651C05F47E443E
:100D2000BCEB542F03F1010418BF00258C42AEF830
:100D3000005030D2C418AFB201356678D65505F4EC
:100D40007E46BCEB562F03F1020618BF00258E42EB
:100D5000AEF800501FD2A678AFB20135D65505F4D3
:100D60007E46BCEB562F03F1030618BF00258E42CA
:100D7000AEF8005028BFF0BDE478AEB2043394550D
:100D80006C1C04F47E45BCEB552F18BF00248B422D
:100D9000AEF80040BED3F0BD2DE9F041ADF5007DC9
:100DA00040F6F046C2F2000674883788A74233D076
:100DB00044F29050C2F20100D0F89052686A58BBD9
:100DC00068464FF40071FFF745FAA74215D2002795
:100DD0004FF00008B7EB542F1BD144F29030C4F50C
:100DE0000078C2F20100424601196846FFF719FA7D
:100DF00000277780686A78B917E011D944F29030FB
:100E0000A7EB0408C2F20100424601196846FFF749
:100E100008FA7780686A40B10DF5007DBDE8F08181
:100E20004FF00008686A0028F6D144F290541FFA87
:100E300088F26946C2F20104204612F023FF2046E0
:100E400012F026FF0DF5007DBDE8F08144F63C0070
:100E5000C2F2010002F022B944F69C00C2F2010085
:100E600002F01CB940F64060C2F2000002F016B970
:100E700040F6C060C2F2000002F010B980B540F642
:100E80008070C2F2000002F009F98020BE214FF408
:100E900080724FF4FC6309F0EDFD40F2D7000021B1
:100EA000C2F20000017040F261000121C2F20000B4
:100EB000017080BD7047000080B541F20000202124
:100EC000C4F2020002F01EFF40F61041C2F200011F
:100ED000086080BDF0B585B040F2D50140F2D40580
:100EE0000446C2F20001C2F200050978287831B147
:100EF00028B9204605B0BDE8F04017F0FDBB40F230
:100F0000D306C2F200063178002943D0002800F051
:100F1000C38042F6000000214022C4F200000068B5
:100F200001918DF80320CDE902114FF48021049145
:100F3000C0F30341C0F3015242EA820201EB4202D4
:100F40008DF80020C0F30321C0F3023303EB8303C9
:100F500001EB430100F00F038DF80110C0F3021004
:100F600000EB800003EB400040F2DA03C2F2000322
:100F70008DF802001B78022B20D0012B28D083BBD8
:100F8000B4F1FF3F02DC002A00F0F78022448DF824
:100F9000002026E040F22C10C2F20000817E0129E0
:100FA00048D002294FD003295AD143F6095004FBF7
:100FB00000F711F065FE00EB87105DE0B4F1FF3F34
:100FC00002DC002800F0D98020448DF8020008E0FF
:100FD000B4F1FF3F02DC002900F0CF8021448DF8FE
:100FE0000110D2B2C9B2C0B240F61054182AC2F2EF
:100FF000000424BF00228DF800203C2924BF0021DA
:101000008DF801103C2824BF00208DF802002046F6
:1010100005F05AFB204605F0D9FB69462046002220
:1010200005F0DEFC40F20A100121C2F200008171DD
:1010300005B0F0BD90F82D7011F022FEC7B164210B
:1010400004FB010018E090F82D7011F019FE002F3C
:101050000CBF4FF47A7142F2107104FB01000BE0F7
:1010600040F20A100121C2F20000C17005B0F0BDCB
:1010700004EB840100EB410011F0BCFE40F20A10C9
:101080000121C2F20000C1703078002800F07580A4
:10109000287800287FF43DAF40F2D600C2F200006D
:1010A00000780238042862D8DFE800F0034B1527E7
:1010B000380040F22C10C2F2000090F82A102144AF
:1010C00011F0FF0F08BF0121CAB2642A28BF6421B2
:1010D00080F82A1045E040F22C10C2F2000090F88F
:1010E0003410214411F0FF0F08BF0121CAB2642A55
:1010F00028BF642180F8341033E040F22C10002C1B
:10110000C2F2000090F8361000DC51B32144CAB29C
:101110000A2A28BF0A2180F8361022E040F22C105B
:10112000C2F2000090F83710214411F0FF0F08BF01
:101130000121CAB2FA2A28BF6FF0050180F83710E2
:101140000FE040F22C10002CC2F20000417E00DCC7
:1011500029B12144CAB2042A28BF0421417610F0E3
:101160000DFE40F20A100121C2F20000417040F26F
:1011700025100121C2F20000017005B0F0BD000091
:10118000B0B541F200042021C4F20204204602F06E
:10119000B9FD40F61045C2F2000568602968814239
:1011A00024D028602046042102F0ACFDD5E90121BD
:1011B000824210D1481CA86040F22C10C2F20000FC
:1011C00090F86E008142B8BFB0BD0120FFF782FEEB
:1011D0000020A860B0BD481EA86040F22C10C2F2EA
:1011E000000090F86E004042814200DDB0BD4FF03B
:1011F000FF30FFF76FFE0020A860B0BD10B54FF4C0
:10120000806002F0EFFB40F2B204C2F200042078EA
:10121000002818BF10BD00F033FF207800B110BDCA
:10122000BDE8104001F016B980B5042002F0DAFBE9
:1012300040F623400021C2F20000017041F25050FC
:10124000C2F201000078002814BFBDE8804080BDD4
:10125000FFF796BF80B5102002F0C4FB40F6234094
:101260000021C2F20000017041F25050C2F20100B0
:101270000078002808BF80BD11F008FD072800D1C4
:1012800080BDBDE8804011F077BD000080B5202012
:1012900002F0A8FB40F623400021C2F200000170DA
:1012A000BDE880400BF044BBFEE70000F0B581B024
:1012B0002DED088B84B040F22C10C2F2000090F8A3
:1012C0003500002800F03B8140F26006C2F20006C3
:1012D0007078002800F033813078002840F02F81AA
:1012E00045F288309FEDA7AA9FEDA7BA0024B7EE7C
:1012F000008AB6EE009AC2F200000394CDE90144E0
:10130000051D00BFA0B200EE100AB8EE400A20EEA4
:101310000A0A20EE0B0A30EE000A15F047FF38EEFD
:10132000400A15ED011A95ED002A013420EE090A54
:10133000B4F5007F21EE001A20EE020A05ED011A35
:1013400085ED000A05F10805DCD145F2883542F645
:10135000BC60002201230027C2F20005C0F6020093
:10136000294615F031FB46F2883428464FF40072C6
:10137000C2F20004214615F079FE00202118E2197E
:101380004030203791ED000A91ED011AB0F5006F61
:1013900030EE010A20EE090A82ED000A91ED020A00
:1013A00091ED031A30EE010A20EE090A82ED010ADE
:1013B00091ED040A91ED051A30EE010A20EE090ABA
:1013C00082ED020A91ED060A91ED071A30EE010A4C
:1013D00020EE090A82ED030A91ED080A91ED091A3F
:1013E00030EE010A20EE090A82ED040A91ED0A0AA4
:1013F00091ED0B1A30EE010A20EE090A82ED050A82
:1014000091ED0C0A91ED0D1A30EE010A20EE090A59
:1014100082ED060A91ED0E0A91ED0F1A30EE010AE7
:1014200020EE090A82ED070AA8D146F2883402AA02
:1014300003AB4FF48071C2F20004204616F07EFA2E
:1014400001AA20464FF4807116F0E0FA96ED020AE8
:101450009DED021A7088B2EE042A31EE401A062879
:1014600081EE021A04D3B5EEC01AF1EE10FA15DCC3
:10147000B5EEC01A00220021BAEE043AF1EE10FADD
:10148000B4EEC31AB8BF0122022838BF0121F1EE21
:1014900010FA01EA020157DA002955D0B0EE413ABC
:1014A00030EE030A86ED020A9DED011AB1EE002A24
:1014B000002021EE021AB4EEC01AF1EE10FAC4BFF9
:1014C00086ED021AB0EE410AB3EE041A7080B4EE53
:1014D000C10AF1EE10FABEBF0020C4F2A010B06045
:1014E00011F0D4FB0B2807D146F200009FED270A2C
:1014F000C4F26A70B06001E096ED020A46F28834E8
:1015000088EE000A4FF48072C2F2000420462146A1
:1015100016F0DCFD46F6883521464FF48073C2F2A2
:10152000000528462A4615F0E5F9B6EE000A2846D9
:1015300029464FF4807216F0C9FD0120308004B0B6
:10154000BDEC088B01B0F0BDB4EEC20AF1EE10FAAA
:1015500001DD0228A4D3BFEE002A0022B0EE413AFA
:10156000B4EEC21AF1EE10FAB8BF01220A4297D1C6
:10157000B4EEC80AF1EE10FA96DD0128B0EE423A58
:101580008ED991E7DB0FC9400000003B00606A473D
:101590002DE9F04F82B04DF6C75144F6905546F60E
:1015A00088380090CAF63A71C2F20105C2F200080A
:1015B00051FB0002AC46D10901EBD2710FFA81F95F
:1015C000002105EB490E08EB890AF346BB2801917F
:1015D00068DB0EE001990BF5007B00980CF5007CB0
:1015E0000131322904BF02B0BDE8F08FBB28019160
:1015F00058DB002900F088810021002409EB040356
:101600000CEB440298B2FF2894BF3BF80100002085
:101610002CF80100581C80B2FF289ABF0BEB440045
:10162000408800205080981C80B2FF289ABF0BEBA6
:101630004400808800209080D81C80B2FF289ABF88
:101640000BEB4400C0880020D080181D80B2FF281A
:101650009ABF0BEB0100008900201081581D80B259
:10166000FF289ABF0BEB4400408900205081981D51
:1016700080B2FF289ABF0BEB440080890020083419
:101680009081D81D0CEB010280B2FF289ABF0BEBB2
:101690000100C08900201031B4F5807FD081ADD128
:1016A00098E700BF10F1BB0F94DC019800210028DF
:1016B0006AD000BF09EB01030CEB410403F1FF000A
:1016C00080B2FF289ABF0BEB4100B0F8FE0100206A
:1016D000A4F8FE0103F1FE0080B2FF289ABF0BEBD5
:1016E0004100B0F8FC010020A4F8FC0103F1FD006A
:1016F00080B2FF289ABF0BEB4100B0F8FA0100203E
:10170000A4F8FA0103F1FC0080B2FF289ABF0BEBAA
:101710004100B0F8F8010020A4F8F80103F1FB0043
:1017200080B2FF289ABF0BEB4100B0F8F601002011
:10173000A4F8F60103F1FA0080B2FF289ABF0BEB80
:101740004100B0F8F4010020A4F8F40103F1F9001D
:1017500080B2FF289ABF0BEB4100B0F8F2010020E5
:10176000A4F8F20103F1F80080B2FF289ABF0BEB56
:101770004100B0F8F0010020083911F5807FA4F88D
:10178000F00197D126E700BF09EB010404F1FF0047
:1017900080B2FF2802D900220CE000BF0AEB8103CF
:1017A0000EEB4100B0F8FE21D3F8FC3308EB8100CA
:1017B000C0F8FC3304F1FE0005EB410380B2A3F84E
:1017C000FE21FF2802D900220CE000BF0AEB8106AF
:1017D0000EEB4100B0F8FC21D6F8F86308EB81006D
:1017E000C0F8F86304F1FD00A3F8FC2180B2FF28E3
:1017F00002D900220CE000BF0AEB81060EEB41008B
:10180000B0F8FA21D6F8F46308EB8100C0F8F4636D
:1018100004F1FC00A3F8FA2180B2FF2802D90022CB
:101820000CE000BF0AEB81060EEB4100B0F8F82196
:10183000D6F8F06308EB8100C0F8F06304F1FB0018
:10184000A3F8F82180B2FF2802D900220CE000BFE3
:101850000AEB81060EEB4100B0F8F621D6F8EC63F6
:1018600008EB8100C0F8EC6304F1FA00A3F8F6215C
:1018700080B2FF2802D900220CE000BF0AEB8106EB
:101880000EEB4100B0F8F421D6F8E86308EB8100D4
:10189000C0F8E86304F1F900A3F8F42180B2FF284E
:1018A00002D900220CE000BF0AEB81060EEB4100DA
:1018B000B0F8F221D6F8E46308EB8100C0F8E463E5
:1018C00004F1F800A3F8F22180B2FF2808D9002221
:1018D0000839A3F8F02111F5807F7FF455AF79E640
:1018E0000AEB81040EEB4100B0F8F021D4F8E0439C
:1018F00008EB8100C0F8E0430839A3F8F02111F5A6
:10190000807F7FF441AF65E600271C240E2100BFD5
:1019100009EB070398B2FF2802D900220CE000BFB0
:101920000AEB04060EEB010030F80E2C56F81C6C86
:1019300008EB040040F81C6C681820F80E2C581CAA
:1019400080B2FF2802D94FF000080AE00EEB4700F2
:101950004246B0F8028002EB87000AEB8702526829
:101960004260981C05EB470280B2A2F80280FF2873
:1019700006D946F688380020C2F200080DE000BF04
:101980000EEB470046F688380AEB8705C2F20008DE
:101990008088AD6808EB8706B5609080D81C80B25F
:1019A000FF2801D9002008E00EEB47000AEB87066C
:1019B00008EB8705F668C088EE60D080181D80B2FD
:1019C000FF2801D9002008E00EEB47000AEB87064C
:1019D00008EB8705366900892E611081581D80B299
:1019E000FF2801D9002008E00EEB47000AEB87062C
:1019F00008EB8705766940896E615081981D80B239
:101A0000FF2801D9002008E00EEB47000AEB87060B
:101A100008EB8705B6698089AE619081D81D44F6D0
:101A20009055083780B2C2F20105FF288FBF002011
:101A30003EF801005AF8042048F804202034B7F595
:101A4000807F685201F110017FF462AFC2E50000AF
:101A50002DE9F04F81B02DED028BC0B040F22C107B
:101A6000C2F2000090F83500002800F0358140F205
:101A7000D70040F26005C2F20000C2F20005017812
:101A80006A78114340F2D302C2F200021278114385
:101A900040F2D202C2F200021278114340F2D002A8
:101AA000C2F2000212781143090640F015810121AB
:101AB0000170FFF7DBF8E968006888420BD0FFF798
:101AC000D5F8E9680068401A00B2FFF761FDFFF73A
:101AD000CDF80068E86044F6905840F6207400267F
:101AE000C2F20108C2F2000408EB0600802300F5F0
:101AF000C04100F5C442204601F0C0FE204600214E
:101B00004FF0FF3201F0ECFDA6F5007616F5C44F5C
:101B1000EAD16C464FF480712046FEF79BFB46F6F7
:101B200088364CF6CD4946F2676A0027B3EE0E8A36
:101B300041F2EC3BC2F20006CCF6CC49C6F2666A32
:101B400096ED000A20EE080ABDEEC00A10EE100A5B
:101B50001E28A88008D31E21A980688801306880CB
:101B60004FF478402AE000BFC0B20A2808D8C0EB82
:101B70000020A0FB0901CA080020002118E000BFD6
:101B8000C0EB0021142809D8A1F6F61050FB0AF08A
:101B9000811001EBD070C243014609E0A1EB0B00BC
:101BA000002250FB0AF0811001EBD070C143FF20EE
:101BB000C0B2C9B2D2B21AF08BFE297987F0800286
:101BC00001370436B7F5807FA15428F81200B7D149
:101BD0000020A021FF22BE23002608F015FC00BF34
:101BE000002700BFE05DC0F11E00864226BF05EB66
:101BF0004600008A002008F0FFFB0137B7F5807F20
:101C0000F0D101361E2EEBD18020BE216FF01D02D7
:101C10004FF4FC6308F02EFF00209E214FF48072E9
:101C2000002308F017FFFFF721F800790A283CD8B5
:101C30000121814011F0290F23D111F0520F0AD058
:101C4000FFF714F84DF6C751C088CAF63A71A0FBE9
:101C50000101CA0923E0012101FA00F010F4A06F8C
:101C600023D0FFF703F84DF6C751C0884FF4FC634B
:101C7000CAF63A71A0FB0101CA0980209E2108F032
:101C8000E9FEFEF7F3FF42F23921C088C5F2C50133
:101C900050FB01F1081AC10901EBD07002B280209B
:101CA0009E214FF4FC6308F0D5FE0020BE21FF22E8
:101CB000F02308F0A9FB40F6905044F690514FF401
:101CC0004853C2F20000C2F20101026840F680707F
:101CD000C2F2000001F016FE40B0BDEC028B01B074
:101CE000BDE8F08FB0B500F05FFC40F2B004012019
:101CF00040F6180550210122C2F20004C4F2020588
:101D0000C0F2F001A0704FF60000CFF6FF7029502E
:101D10000221284640F81819012102F009F84FF471
:101D2000403028600020A070B0BD00002DE9F04FC9
:101D300087B040F2B00110260122C2F20001C4F2C5
:101D40000206C86806F5FE640130C860204601211D
:101D500001F0EEFF3068012100220490306803900A
:101D60003068059030680690204601F0E1FF20467B
:101D70000121012201F0DCFFD6F80080D6F800A096
:101D8000306801210022019030680290204601F065
:101D9000CFFF20460121012201F0CAFF3568D6F8A5
:101DA0000090D6F800B0376820460121002201F0EB
:101DB000BFFF20460121012201F0BAFF04980399D8
:101DC0000AF0020200F0010001F002010843059947
:101DD00001F004010843069901F00801084308F0E6
:101DE00001011143019A02F004021143029A02F028
:101DF0000802114309F00202090241EA003005F02D
:101E0000010111430BF00402114307F008021143D2
:101E100040EA01103168326801F0010102F002026B
:101E20001143326802F004021143326802F00802E2
:101E30001143084340F2600100B2C2F2000100EE1B
:101E4000100A40F2B000C2F2000090ED041AB8EEA1
:101E5000C00A087841F24A51C2F20101097831EE14
:101E6000000A91B160B146F6887045F28831C2F23D
:101E70000000C2F20001006801EB800080ED000A62
:101E800046F68C70C2F2000011E060B146F6887030
:101E900045F28831C2F20000C2F20001006801EB95
:101EA000800080ED010A48F28C10C2F2000040F27E
:101EB000B0010022C2F20001498900EB810001213A
:101EC00080ED000A204601F033FF20460121012267
:101ED00001F02EFF30680121002204903068039049
:101EE0003068059030680690204601F021FF2046BA
:101EF0000121012201F01CFFD6F800B0D6F80090B5
:101F0000306801210022019030680290204601F0E3
:101F10000FFF20460121012201F00AFFD6F800A0A0
:101F20003768D6F80080356820460121002201F08C
:101F3000FFFE20460121012201F0FAFE04980399D8
:101F400009F0020200F0010001F0020108430599C6
:101F500001F004010843069901F0080108430BF061
:101F600001011143019A02F004021143029A02F0A6
:101F70000802114307F0020240F260070902C2F2B0
:101F8000000741EA00300AF00101114308F00402A1
:101F9000114305F00802114340EA0110316832682C
:101FA00001F0010102F002021143326802F0040262
:101FB0001143326802F008021143084301B240F2B3
:101FC000B00001EE101A41F24A51C2F20000C2F212
:101FD000010190ED040A3878B8EEC11A097830EEA4
:101FE000010A91B160B146F6887145F28832C2F2B9
:101FF0000001C2F20002096802EB810181ED010AD1
:1020000048F28C11C2F2000111E060B146F688710D
:1020100045F28832C2F20001C2F20002096802EB06
:10202000810181ED000A46F68C71C2F2000140F296
:10203000B002C2F200021346528901EB820181ED27
:10204000000A511C8AB2B2F5407F08BF0021002867
:1020500059810CD046F68870C2F200000168023146
:10206000B1F5806F016002BF002139700160204628
:102070000121002207B0BDE8F04F01F059BE000079
:10208000B0B540F2B0040120C2F20004A07010F01C
:1020900059FE18B110F0FAFD0B2801D1042000E020
:1020A0000320607000F00F004FF4700140F6180537
:1020B000012241EA00104FF60001C4F20205CFF6FA
:1020C000FF7168500221284640F81819012101F0DB
:1020D0002FFE4FF44030286010F034FE18B110F09D
:1020E000D5FD0B2804D1FFF721FE0020A070B0BD64
:1020F00000F004F80020A070B0BD00002DE9F04110
:1021000040F2B00549F68C71F0274FF6180640F6FC
:1021100000040122C2F20005C2F20001CFF6FF76F0
:10212000C4F20204E8680130E860688901EB8000CD
:10213000012190ED000ABDEEC00A10EE100A2881C0
:1021400007EA102040F47000A051204601F0F0FD95
:1021500020460121002201F0EBFD28890121012206
:1021600007EA101040F47000A051204601F0E0FD95
:1021700020460121002201F0DBFD288901210122F6
:1021800000F0F00040F47000A051204601F0D0FDB6
:1021900020460121002201F0CBFD28894FF4700870
:1021A0000121012200F00F0048EA0010A051204652
:1021B00001F0BEFD20460121002201F0B9FD49F2E7
:1021C0008C3168890122C2F2000101EB80000121FB
:1021D00090ED000ABDEEC00A10EE100A288107EA51
:1021E000102040F47000A051204601F0A1FD2046CF
:1021F0000121002201F09CFD28890121012207EA2A
:10220000101040F47000A051204601F091FD2046CE
:102210000121002201F08CFD28890121012200F01A
:10222000F00040F47000A051204601F081FD2046EE
:102230000121002201F07CFD28890121012200F00A
:102240000F0048EA0010A051204601F071FD204621
:102250000121002201F06CFD6889411C698140F276
:102260007F11884212D040F2FF21884218BFBDE89A
:10227000F08140F22200C2F20000017899B140F2F0
:10228000FF2068810120A871BDE8F08140F22200A2
:10229000C2F20000017869B140F27F10688101202C
:1022A000A871BDE8F08101210022E9706A81017006
:1022B000BDE8F081012101700020E870BDE8F081E7
:1022C0002DE9F041FEF7D2FC006816F06DFC0446E3
:1022D00010F038FDE8B910F0D9FC04280CD0032820
:1022E00017D1FEF7C3FC40F22C110068C2F20001C6
:1022F000B1F86C10084409E0FEF7B8FC40F22C116C
:102300000068C2F20001B1F86C10401A16F04CFCE3
:10231000044640F2B0050020C2F20005687010F0DB
:1023200011FD18B110F0B2FC0B2808D1687820F02C
:102330000800687010F006FD48B1687814E068780D
:1023400040F00800687010F0FDFC0028F5D140F264
:102350002C116878C2F20001497D00290CBF00F001
:10236000FB0040F0040068704FF470014FF618074E
:1023700040F6000501224FF4700860F30711C4F223
:102380000205CFF6FF77E9512846012101F0D0FC84
:1023900028460121002201F0CBFCF0260121012278
:1023A00006EA144040F47000E851284601F0C0FCF1
:1023B00028460121002201F0BBFC06EA143001216D
:1023C000012240F47000E851284601F0B1FC284693
:1023D0000121002201F0ACFC06EA142001210122B7
:1023E00040F47000E851284601F0A2FC2846012183
:1023F000002201F09DFC06EA14100121012240F4A4
:102400007000E851284601F093FC28460121002283
:1024100001F08EFC04F0F0000121012240F4700074
:10242000E851284601F084FC28460121002201F0F1
:102430007FFC64F3071828460121012245F8078034
:1024400001F076FC284601210022BDE8F04101F0B0
:102450006FBC0000F0B581B040F2B0054FF4807061
:10246000C2F20005A5F8010010202979C0F2F000A1
:1024700009B1012104E0697900294CD01030022112
:10248000102640F61807697001210122C4F20206E5
:10249000C4F20207B060022006F5FE6438602046F0
:1024A00001F046FC4FF440303860287938B1FFF72E
:1024B00007FF002028710020A87001B0F0BD6879E6
:1024C00048B320460121012201F032FC3068316816
:1024D00041F24852C2F2010200F0010001F0020193
:1024E0000843316801F0040108433168002601F017
:1024F0000801084300F001012870117041F24951B0
:10250000C0F340000022C2F2010108702046012100
:1025100001F00EFC6E710020A87001B0F0BD00004B
:10252000B0B540F2B004012040F618055021012258
:10253000C2F20004C4F20205C0F2F001A0704FF62E
:102540000000CFF6FF7029500221284640F81819E4
:10255000012101F0EDFB4FF4403028600020A07015
:10256000B0BD0000B0B540F2B004012040F618053F
:1025700060210122C2F20004C4F20205C0F2F0019F
:10258000A0704FF60000CFF6FF70295002212846B8
:1025900040F81819012101F0CBFB4FF440302860BE
:1025A0000020A070B0BD00002DE9F04381B073A001
:1025B0001AF09AF940F2B00910271026012040F6CF
:1025C000180501210122C2F20009C0F2F007C4F28D
:1025D0000206C4F2020589F8020007F1900006F530
:1025E000FE64B06002202860204601F0A1FB4FF499
:1025F00040300121012228602046B76001F098FB9D
:102600003068316800F0010001F0020108433168D0
:1026100001F004010843316801F008010843012872
:1026200089F8000071D120460121002201F080FBD1
:1026300007F1100001210122B060204601F078FB73
:102640003068316800F0010001F002010843316890
:1026500001F004010843316801F008010843022831
:1026600089F800005FD120460121002201F060FBC3
:1026700007F1300001210122B060204601F058FB33
:102680003068316800F0010001F002010843316850
:1026900001F004010843316801F0080108430428EF
:1026A00089F800004DD12046012100224FF000089A
:1026B00001F03EFB07F1700001210122B0602046CD
:1026C00001F036FB3068316800F0010001F00201D2
:1026D0000843316801F004010843316801F0080142
:1026E0000843082889F8000039D12046012100223A
:1026F00001F01EFB44F21D5089F80280C0F6020072
:1027000001B0BDE8F0431AF0EFB820A01AF0ECF8E1
:1027100099F8000000211AF03DF920A001B0BDE8B1
:10272000F0430EF083BE22A01AF0DEF899F8000004
:1027300000211AF02FF922A001B0BDE8F0430EF0FD
:1027400075BE24A01AF0D0F899F8000000211AF004
:1027500021F924A001B0BDE8F0430EF067BE26A029
:102760001AF0C2F899F8000000211AF013F926A017
:1027700001B0BDE8F0430EF059BE00BF46504741DE
:102780002042757320546573742000004552524FE7
:102790005220302050494E0D0A000000465047415B
:1027A000206275732050494E30206572726F72003E
:1027B0004552524F5220312050494E0D0A00000020
:1027C00046504741206275732050494E3120657252
:1027D000726F72004552524F5220322050494E0DB6
:1027E0000A00000046504741206275732050494E50
:1027F00032206572726F72004552524F5220332060
:1028000050494E0D0A000000465047412062757342
:102810002050494E33206572726F7200F0B581B05E
:10282000054643F480401F4614460E46B0F5804FDF
:1028300007D044F2476040F24F11C0F6020015F095
:1028400013FDB7F5804F28D140F20410CAF2000002
:10285000854207D044F2476040F25511C0F60200AD
:1028600015F002FD306810281ED2706801380F285C
:1028700026D2B0680138FF282ED2F068102836D250
:10288000B0694FEA307004283ED2062C46D80120A9
:10289000A04010F0550F49D140E06FF0704045F86E
:1028A0002400002001B0F0BD44F247604FF4AB714A
:1028B000C0F6020015F0D8FC706801380F28D8D394
:1028C00044F2476040F25711C0F6020015F0CCFC0C
:1028D000B0680138FF28D0D344F247604FF4AC71A0
:1028E000C0F6020015F0C0FCF0681028C8D344F20E
:1028F000476040F25911C0F6020015F0B5FCB0690E
:102900004FEA30700428C0D344F247604FF4AD71F1
:10291000C0F6020015F0A8FC062CB8D944F24760B6
:1029200040F25B11C0F6020015F09EFC002155F844
:102930002400CCF6F071084096E88E000843B16997
:1029400040EA021040EA032040EA0740084345F805
:102950002400002001B0F0BD2DE9F0470D4680466F
:10296000B0F1204F06D044F247608621C0F6020045
:1029700015F07AFC286806280ED8012101FA00F02B
:1029800010F0550F08D0686840F0020002280FD1FF
:10299000A868082817D9A8E044F247608721C0F644
:1029A000020015F061FC686840F002000228EFD0D8
:1029B00044F247608821C0F6020015F055FCA86873
:1029C000082800F29280012101FA00F040F2111172
:1029D000084200F08A80E868002818BF102840F0FC
:1029E0009180286940F48070B0F5807F40F09B8032
:1029F000686940F40070B0F5007F40F0A280A869DB
:102A000040F48060B0F5806F40F0A980E86940F440
:102A10000060B0F5006F40F0B080286A40F480504C
:102A2000B0F5805F40F0B780686A40F40050B0F5C0
:102A3000005F40F0BE80A86A40F48040B0F5804F4F
:102A400040F0C580E86A40F40040B0F5004F40F027
:102A5000CC80286B40F40020B0F5002F40F0D380EC
:102A6000D5F83CE04FEA3E41052908D344F24760DF
:102A70009621C0F6020015F0F7FBD5F83CE0D5E949
:102A800000C205F1080A80219AE8D804D5F81C9004
:102A9000CFF6F07158F82C00082B00EA010040EA4C
:102AA000020040EA030040EA040040EA060005F1A3
:102AB000200640EA070056CE2D6B40EA0A0040EAA5
:102AC000090040EA010040EA020040EA040040EA4E
:102AD000060040EA0E0040EA050008BF40F0400052
:102AE00048F82C000020BDE8F08744F247608921B7
:102AF000C0F6020015F0B8FBE868002818BF1028DF
:102B00003FF46FAF20283FF46CAF44F247608A2156
:102B1000C0F6020015F0A8FB286940F48070B0F5FB
:102B2000807F3FF465AF44F247608B21C0F602001E
:102B300015F09AFB686940F40070B0F5007F3FF42F
:102B40005EAF44F247608C21C0F6020015F08CFBAA
:102B5000A86940F48060B0F5806F3FF457AF44F24D
:102B600047608E21C0F6020015F07EFBE86940F454
:102B70000060B0F5006F3FF450AF44F24760902121
:102B8000C0F6020015F070FB286A40F48050B0F5E2
:102B9000805F3FF449AF44F247609121C0F60200E4
:102BA00015F062FB686A40F40050B0F5005F3FF436
:102BB00042AF44F247609221C0F6020015F054FB88
:102BC000A86A40F48040B0F5804F3FF43BAF44F238
:102BD00047609321C0F6020015F046FBE86A40F416
:102BE0000040B0F5004F3FF434AF44F24760942109
:102BF000C0F6020015F038FB286B40F40020B0F559
:102C0000002F3FF42DAF44F247609521C0F602003B
:102C100015F02AFBD5F83CE04FEA3E410529FFF4C8
:102C20002EAF23E7F0B581B015460C460646B0F14D
:102C3000204F07D044F247604FF48C71C0F6020079
:102C400015F012FB206810281FD2606801380F2889
:102C500027D2A0680138FF282FD2E068102837D289
:102C6000206902380F283FD260690238102847D205
:102C7000A0694FEA307004284FD2062D57D80120A2
:102C8000A84010F0550F5AD151E044F2476040F28D
:102C90001911C0F6020015F0E7FA606801380F2834
:102CA000D7D344F247604FF48D71C0F6020015F09F
:102CB000DBFAA0680138FF28CFD344F2476040F226
:102CC0001B11C0F6020015F0CFFAE0681028C7D338
:102CD00044F247604FF48E71C0F6020015F0C4FA5A
:102CE000206902380F28BFD344F2476040F21D111B
:102CF000C0F6020015F0B8FA606902381028B7D3A0
:102D000044F247604FF48F71C0F6020015F0ACFA40
:102D1000A0694FEA30700428AFD344F2476040F214
:102D20001F11C0F6020015F09FFA062DA7D944F234
:102D300047604FF49071C0F6020015F095FA06EB6B
:102D400085000027D0F804C094E84C00D4E9035172
:102D5000CFF6F077D4E905E407EB01510CF04047DA
:102D60003A4342EA031242EA062242EA054211438A
:102D70000EF1FE02214341EA02614160002001B0F0
:102D8000F0BD00002DE9F04F89B041F230340193DD
:102D9000CDE902019020924600264FF480550DF1B6
:102DA00023010DF122020123C2F200048DF8230059
:102DB0008DF822600095204604F046FB0DF12301BA
:102DC0000DF12202204601238DF823608DF8226048
:102DD000009504F039FB9DF822900DF123010DF1CF
:102DE0002202204601238DF823608DF82260009591
:102DF00004F02AFB9DF82280642015F07DFAD02093
:102E00000DF123010DF1220201238DF822600095BE
:102E10008DF82300204604F017FB0DF123010DF17E
:102E20002202204601238DF823608DF82260009550
:102E300004F00AFB9DF822700DF123010DF122022E
:102E4000204601238DF823608DF82260009504F060
:102E5000FBFA48EA0920BAF1000FC0F3CC00059054
:102E60009DF8220040EA0720C0F3CC00CDF810A066
:102E70000690504600F0818041F2303500274FF037
:102E8000000B4FF48054C2F2000500BF90200DF1FA
:102E900023060DF1220801238DF822B000948DF84D
:102EA000230028463146424604F0CEFA28463146F1
:102EB000424601238DF823B08DF822B0009404F02F
:102EC000C3FA9DF822003146424601238DF823B013
:102ED0008DF822B000940790284604F0B5FA9DF8CA
:102EE00022A0642015F008FAD02031464246012382
:102EF0008DF822B000948DF82300284604F0A4FA3F
:102F000028463146424601238DF823B08DF822B081
:102F1000009404F099FA9DF82290284631464246E2
:102F200001238DF823B08DF822B0009404F08CFAC0
:102F300007984FF6F8714AEA002000EA0102C0F350
:102F4000CC009DF82210BBEBD20F41EA0921C1F35E
:102F5000CC0118BF00290BD0069A89B280B211FAB1
:102F600082F149080691059910FA81F04008059010
:102F700001370499F8B2884288D3019840B1029889
:102F80000599018006990398018009B0BDE8F08F8A
:102F9000059A40F68050C2F2000092B290ED010A0C
:102FA000B0F9001001EE102AB8EE411A81EE000AC5
:102FB00001EE101AB8EEC11A30EE010ABDEEC00AD9
:102FC000029A10EE101A1180069990ED020AB0F9DB
:102FD000020089B201EE101AB8EE411A81EE000A21
:102FE00001EE100AB8EEC11A30EE010ABDEEC00AB9
:102FF00010EE101A0398018009B0BDE8F08F0000B0
:1030000070B5866D044600F0B5FE054694F83500AF
:1030100002282DD12068016821F016010160416964
:1030200021F080014161216C09B9A16C19B10168DD
:1030300021F008010160016821F0010101600068D0
:1030400010F0010F05D11BE02068006810F0010F9F
:1030500016D000F08FFE401B0628F5D320206065B7
:10306000002084F83400032084F83500C0B270BD1D
:10307000002084F83400802060650120C0B270BD5B
:10308000E06D3F2101FA00F0B060012084F83500C6
:10309000002084F83400C0B270BD0000F0B581B0EB
:1030A0000446002048F2B5130821009040F6C410F1
:1030B000C1F64E33C2F200000268D4E916603768E8
:1030C0008140A2FB032539420DD02268136813F01A
:1030D000040F08D0136823F004031360B160616D1E
:1030E00041F00101616501218140394209D0226826
:1030F000526912F0800F04D0B160616D41F002019D
:10310000616504218140394209D02268126812F0B9
:10311000020F04D0B160616D41F0040161651021BE
:103120008140394219D02068026812F0080F14D08B
:10313000B1600268016812F4802F08D1C9055EBF32
:10314000016821F008010160216C21B905E0080344
:1031500045D4216C09B120468847E16D202000FA52
:1031600001F23A4248D02068036813F0100F43D0B0
:10317000B26094F835300268052B1ED122F0160299
:103180000260426922F080024261226C0AB9A26C9C
:103190001AB1026822F0080202603F208840B06045
:1031A000012084F83500002084F83400216D0029C6
:1031B0005FD02046884701B0F0BD0168520312D4A9
:1031C000C90515D4016821F010010160012084F8BF
:1031D0003500002084F83400E16B59B90CE0A16C93
:1031E0000029B8D1B9E7080302D4616C11B903E032
:1031F000E16B09B120468847606DD0B3606D10F077
:10320000010F32D00521A80A84F8351021680A6818
:1032100022F001020A60009A0132824200921ED816
:103220000A6812F0010F1AD0009A0132824200920D
:1032300015D80A6812F0010F11D0009A01328242AB
:1032400000920CD80A6812F0010F08D0009A0132DF
:103250008242009203D80A6812F0010FDBD10120EC
:1032600084F83500002084F83400E16C09B1204670
:10327000884701B0F0BD00002DE9F041044600F0A0
:1032800079FD054604B346F20F412068C4F20201FD
:1032900088421DDC46F26F01C4F20201884230DC34
:1032A00046F23F01C4F20201884250DC46F21001AE
:1032B000C4F20201884200F0848046F22801C4F280
:1032C000020188427DD075E00122D0B2BDE8F081D4
:1032D00046F26F41C4F20201884225DC46F23F41CA
:1032E000C4F2020188423FDC46F21041C4F20201FE
:1032F000884266D046F22841C4F20201884260D07A
:1033000058E046F29F01C4F20201884239DC46F2DD
:103310007001C4F20201884253D046F28801C4F21F
:10332000020188424DD045E046F29F41C4F20201BD
:10333000884233DC46F27041C4F20201884240D038
:1033400046F28841C4F2020188423AD032E046F2A5
:103350004001C4F20201884233D046F25801C4F25F
:10336000020188422DD025E046F24041C4F202011C
:10337000884226D046F25841C4F20201884220D049
:1033800018E046F2A001C4F20201884219D046F2C8
:10339000B801C4F20201884213D00BE046F2A0410A
:1033A000C4F2020188420CD046F2B841C4F20201D4
:1033B000884206D044F6B800B821C0F6020014F0E6
:1033C00053FF6068B0F1606F0AD04FEA7060072861
:1033D00006D344F6B800B921C0F6020014F044FF49
:1033E000A068002818BF402822D1E06840F400708F
:1033F000B0F5007F2BD1206940F48060B0F5806F7C
:1034000032D16069002818BFB0F5006F39D0B0F52F
:10341000805F36D044F6B800BD21C0F6020014F03B
:1034200023FFA069002818BFB0F5005F30D0F5E099
:103430008028DAD044F6B800BA21C0F6020014F0B1
:1034400013FFE06840F40070B0F5007FD3D044F67D
:10345000B800BB21C0F6020014F006FF206940F45A
:103460008060B0F5806FCCD044F6B800BC21C0F6C7
:10347000020014F0F9FE6069002818BFB0F5006F73
:10348000C5D1A069002818BFB0F5005F40F0C68024
:10349000E069002818BF202840F0D180206A4FEA58
:1034A0003040042806D344F6B800C021C0F602001C
:1034B00014F0DAFE606A00B3042808D044F6B800BD
:1034C000C121C0F6020014F0CFFE606AA8B1A06A64
:1034D000042880F0C680E06A4FEAF050042880F0AB
:1034E000CD80206B4FEA7050042806D344F6B80014
:1034F000C821C0F6020014F0B7FE022084F835009F
:10350000002084F834002068016821F00101016086
:10351000016811F0010F06D113E000BF20680168B7
:1035200011F0010F0DD000F025FC401B0528F5D946
:10353000032320210322D0B2616584F83530BDE831
:10354000F08148F23F020168D4E9013504F10C082A
:10355000CFF2100201EA020C98E8C201D4E9072E6A
:1035600043EA0C032B431943636A31433943042B69
:1035700041EA080141EA020141EA0E0220D1D4E900
:103580000BE142EA0E02BEF1000F41EA02010160C6
:103590004169A56A21F0070141EA050141F0040CE7
:1035A00014D0B8F5005F77D0B8F1000F40F08580F7
:1035B000022D00F08680012D00F0788035B980E082
:1035C0000260416921F0070141EA030C6FF00F012D
:1035D00040F2FF32C0F814C0012351FA80F1904349
:1035E0004AF6AB22CAF6AA225F29A1FB021288BFC3
:1035F00040F00400110942F6CC62A065C0F6020258
:10360000515C3F22E16502FA01F100228160002154
:10361000D0B2616584F83530BDE8F081B0F5804FF7
:103620003FF436AF44F6B800BE21C0F6020014F0F5
:103630001BFEE069002818BF20283FF42FAFB0F52B
:10364000807F3FF42BAF44F6B800BF21C0F60200E4
:1036500014F00AFE206A4FEA30400428BFF423AF7A
:1036600028E744F6B800C621C0F6020014F0FCFDBD
:10367000E06A4FEAF0500428FFF433AF44F6B80094
:10368000C721C0F6020014F0EFFD206B4FEA705026
:103690000428BFF42BAF30E7032D97D80123402136
:1036A0000122DFE805F0020E0203B1E7AEF1C071BE
:1036B000B1FA81F1490949B988E7032D06D37FF4AE
:1036C00085AFCEF3006100293FF480AF0123402194
:1036D0000122D0B2616584F83530BDE8F081000088
:1036E0002DE9F04F81B016468846044600F042FBB3
:1036F000074694F83500022823D12068006810F4AA
:10370000807F28D11021B8F1000F08BF2021D4E913
:10371000165001FA00F9296811EA090F23D0616DEA
:1037200019B1616D11F0010F26D1B8F1000F35D03C
:10373000102101FA00F0A8600020C0B201B0BDE87D
:10374000F08F002084F83400802060650120C0B232
:1037500001B0BDE8F08F4FF4807060650120C0B209
:1037600001B0BDE8F08F711C26D0002E48D1616DEC
:1037700011F0010F74D0D2E72046FFF741FCE06D55
:10378000302101FA00F00021A860012084F8350002
:1037900084F83410C0B201B0BDE8F08F302101FAD6
:1037A00000F0A860012084F83500002084F834007F
:1037B000C0B201B0BDE8F08F04210122082381408E
:1037C00082408340676D17F0010FA8D12F683B42FC
:1037D00004D0666D46F001066665AB603A4204D0DF
:1037E000666D46F002066665AA60394204D0666DD1
:1037F00046F004066665A96017EA090FE2D08EE775
:103800004FF0010B4FF0040A616D11F0010F7FF4CE
:1038100086AF00F0AFFAC01BB04221D8E06D08219E
:1038200001FA00F229680A4204D0636D43F00103F3
:103830006365AA600BFA00F20A4204D0636D43F09C
:1038400002036365AA600AFA00F20A4204D0636DBB
:1038500043F004036365AA6011EA090FD4D05EE760
:1038600020206065002084F83400012084F83500B1
:103870000320C0B201B0BDE8F08F0000F0B581B008
:103880000D460746581E4FF6FF711E4614468842E5
:1038900007D344F6B80040F29D11C0F6020014F0C0
:1038A000E3FC97F83400012803D10220C0B201B034
:1038B000F0BD012087F8340097F8350001281AD1AF
:1038C000022087F83500002078653968BA680B68EF
:1038D000402A2A4623F480230B604E6008BF22460C
:1038E0008A6008BF2C46CC600A6842F001020A6078
:1038F000C0B201B0F0BD002087F834000220C0B291
:1039000001B0F0BD2DE9F0410E460446D0F85880D4
:10391000581E4FF6FF711F461546884207D344F6DE
:10392000B8004FF4E671C0F6020014F09DFC94F864
:10393000340001283BD0012084F8340094F835008D
:10394000012831D1022084F835000020606520680C
:10395000A16802684029314622F480220260476053
:1039600008BF29464FF03F02816008BF3546C56059
:10397000E16D02FA01F1C8F80810016841F0160182
:103980000160416941F080014161216C00291EBF45
:10399000016841F008010160016841F00101016026
:1039A0000020C0B2BDE8F081002084F8340002207D
:1039B000C0B2BDE8F0810000B0B5044600F0DAF90D
:1039C000054640F2B010611CC2F20000007818BF3A
:1039D000044400BF00F0CEF9401BA042FAD3B0BDB2
:1039E0007047000043F61441C4F201010A68024224
:1039F00014BF08607047FFF7F3BF00002DE9F04FD8
:103A000083B0054600F13E400C4600F1FF704FEADE
:103A1000B026092E06D344F67F00B321C0F602007B
:103A200014F022FC20680021B1EB104F01D180B2CC
:103A300030B944F67F00B421C0F6020014F014FC43
:103A40004FF6FF716068C1F2100188420BDC12284A
:103A500000F22B81012101FA00F00F21C0F20601D2
:103A6000084226D121E14FF6FF71C1F221018842BF
:103A70000FDC0021C1F2110188421AD00021C1F2ED
:103A80001201884215D00021C1F22101884210D0D4
:103A90000BE10021C1F2220188420AD00021C1F2CB
:103AA0003101884205D00021C1F23201884240F044
:103AB000FC80A068032806D344F67F00B621C0F638
:103AC000020014F0D1FB41F6004008214FF0010C38
:103AD0004FF0000B4FF0000A4FF00009C4F2020053
:103AE000854204F1100008BF0721072E38BF314678
:103AF0000190009120680CFA09F6304211D100BF04
:103B000009F101090BF1020B0AF1040AB9F1100FD6
:103B100004BF03B0BDE8F08F20680CFA09F630420C
:103B2000EED0606840F0100112292BD10198006896
:103B3000102806D281B24BF6FF7222FA01F1C907B2
:103B40000AD144F67F00C721C0F6020014F08CFBB6
:103B500001984FF0010C02E05AA101EB80004FF6F2
:103B6000FC730AF01C010F220068C7F6FF738A403D
:103B700003EA590388402B441F6A27EA02021043D4
:103B80001862606803222B6800F00301122802FA11
:103B90000BF201FA0BF123EA02036FEA020841EA91
:103BA0000301296021D80CFA00F111F0061F1CD086
:103BB000E16804290AD344F67F00DA21C0F6020046
:103BC00014F052FB6068E1684FF0010CAA6801FA3A
:103BD0000BF102EA08021143A960C0F300116A6800
:103BE00001FA09F1B24311436960E968A268C000B3
:103BF00001EA080102FA0BF241EA0201E9607FF5ED
:103C00007FAF00200AF00C020F23029043F644001D
:103C10009340C4F202000146006840F4804008600E
:103C2000086843F60041C4F2010100F480400F46E9
:103C3000029029F00300084402994FF60841CFF69C
:103C4000FF718E4641589943009B03FA02F21143DB
:103C500040F80E103868626840EA060112F4803FAE
:103C600008BF20EA060112F4003F3960786840EA94
:103C7000060108BF20EA060112F4801F7960B868C7
:103C800040EA060108BF20EA060143F60C4012F4A0
:103C9000001FC4F20100B9600346006840EA060153
:103CA00008BF20EA060119602AE744F67F00B52123
:103CB000C0F6020014F0D8FAA0680328BFF4FCAEE6
:103CC00001E700BF0000000001000000020000004A
:103CD00003000000040000000500000006000000D2
:103CE0000700000008000000090000000A000000B2
:103CF0000B0000000C0000000D00000000000000A0
:103D00000F000000B0B50C46054621B128692040DF
:103D100018BF0120B0BD44F67F004FF4BF71C0F65C
:103D2000020014F0A1FA2869204018BF0120B0BD9C
:103D300070B516460C46054621B16EB1012E0ED166
:103D4000AC6170BD44F67F0040F29F11C0F60200E6
:103D500014F08AFA002EF1D12404AC6170BD44F64F
:103D60007F004FF4D071C0F6020014F07DFAAC6110
:103D700070BD000040F2B010C2F2000080687047D1
:103D800070B586B00446006843F20045C4F20005F1
:103D9000816805F58066B04205914FF0402104BF6F
:103DA00043F20041C4F200018A680492426803921F
:103DB0004A680292626842F40072B2F5007F40F0F5
:103DC0009180059911F0020F19D0039911F0800F1D
:103DD00015D0616A8A1C62620988C160618D0139EF
:103DE0006185618D59B9416821F0A0014160608E03
:103DF00028B9012084F84100204600F0CFF904984A
:103E000010F0010F1FD0029810F0400F1BD0206857
:103E1000B042284618BF4FF04020C168E26A931CA8
:103E2000E3621180618E01396186618E59B9416802
:103E300021F060014160608D28B9012084F84100C3
:103E4000204600F0ABF9049810F0400F22D0029801
:103E500010F0200F1ED020682946B04218BF4FF046
:103E600040214A6822F060024A60416821F0A001C6
:103E7000416000210191C168019180680190019821
:103E8000012084F84100606C40F00200606420462C
:103E900000F0DAF9059810F0080F00F09F80039801
:103EA00010F0200F00F09A8020684168B04221F0A5
:103EB000A001416018BF4FF04025696821F0600102
:103EC000696000210191806801900198012084F8C7
:103ED0004100606C40F004006064204600F0B4F9DA
:103EE00006B070BD049810F0020F19D0029810F0BF
:103EF000800F15D0606A821C62620088C860608D85
:103F000001386085608D58B9486820F0A00048608D
:103F1000608E28B9012084F84100204600F03EF967
:103F2000059810F0010F1AD0039810F0400F16D02A
:103F30002068C168E26A931CE3621180618E0139D6
:103F40006186618E59B9416821F060014160608DE0
:103F500028B9012084F84100204600F01FF9059897
:103F600010F0400F1BD0039810F0200F17D02068DE
:103F70004168B04221F060014160284618BF4FF00F
:103F80004020416821F0A0014160012084F84100F7
:103F9000606C40F002006064204600F055F904981F
:103FA00010F0080F1AD0029810F0200F16D02068D9
:103FB000B04218BF4FF04025696821F0A001696048
:103FC000416821F060014160012084F84100606C8B
:103FD00040F004006064204600F036F906B070BD81
:103FE0002DE9F04782B0044690F8410015460E4690
:103FF000012810D1002E4FF0010018BF002D06D06F
:104000002BB1274617F8400F01280DD10220C0B26E
:1040100002B0BDE8F08704F14007022000213970AA
:10402000C0B202B0BDE8F0870120666284F84000AB
:10403000E5622168C86900F00700052803D003285D
:1040400008BF5B0000E05B000020238563852386BA
:10405000638649F2ED2E49F2F93C49F2B1336064CE
:104060000520C0F6000EC0F6000CC0F6000384F870
:104070004100E26BC2E90FECD364A06BC0E90FEC26
:10408000C364CB6903F4807343F40073B3F5007F1A
:1040900034D143F200494FF040204FF04028C4F2A1
:1040A000000909F5806A514504BF43F20040C4F29B
:1040B0000000238E40F00C0110462A46FFF722FC38
:1040C00021684FF04020514504BF43F20040C4F244
:1040D0000000426842F00102426001F10C023146E8
:1040E000238DA06BFFF70EFC2068416841F00201B0
:1040F0004160C16911F4806F40D04CE0CA6902F49C
:104100004072B2F5407F06D100220192CA68019246
:104110008A680192019A43F200494FF04028C4F2A4
:10412000000909F5806A51454FF0402104BF43F270
:104130000041C4F20001238D41F00C023146FFF72B
:10414000E1FB21684FF04020514501F10C0104BF13
:1041500043F20040C4F20000426842F002024260B2
:104160002A46238EE06BFFF7CDFB2068416841F0C3
:1041700001014160C16911F4806F0CD1504508BF45
:10418000C846D8F81C1041F48061C8F81C10C169F9
:1041900041F48061C161002040E70000B0B543F602
:1041A00000410068C4F20001884220D140F2A81406
:1041B000C2F20004A078002818BFB0BD40F2210070
:1041C0000125C2F20000017800291CBF01216170A5
:1041D000057025700EF05AFD0B2802BF40F2220038
:1041E000C2F200000570606800F540706060B0BD0C
:1041F000B0B543F600410068C4F20001884221D105
:1042000040F2A814C2F20004A078002818BFB0BD84
:1042100040F221000125C2F20000017800291CBFF4
:10422000012161700570002020700EF02FFD0B2819
:1042300002BF40F22200C2F200000570606800F583
:1042400040706060B0BD00007047000090F8410011
:1042500070470000B0B50446002800F0CC8020680C
:1042600043F60041C4F2000140F48060884217D157
:1042700060684FEA302004281FD2A0684FEA30104F
:10428000042827D30B2825D044F27F604FF48A718D
:10429000C0F6020013F0E8FFE06805281DD933E0FE
:1042A00044F27F604FF48971C0F6020013F0DCFF26
:1042B00060684FEA30200428DFD344F27F6040F288
:1042C0001311C0F6020013F0CFFFA0684FEA3010C0
:1042D0000428D7D2E068052816D8012101FA00F099
:1042E00010F02B0F10D0206940F40070B0F5007F63
:1042F00018D16069B0F5FA5F20D34EF60161C0F2C3
:10430000020188421CD223E044F27F6040F2151182
:10431000C0F6020013F0A8FF206940F40070B0F569
:10432000007FE6D044F27F604FF48B71C0F602004C
:1043300013F09AFF6069B0F5FA5FDED2022807D069
:1043400044F27F6040F21711C0F6020013F08CFFB8
:10435000A06940F0080008284FD1E069022857D230
:1043600094F8410000285FD0022140F6BF7384F822
:1043700041102068C2699A43C261016261690229E1
:1043800003D12169022200235DE0D4E90201002269
:1043900021284FF0200038BF0122002908BF10203B
:1043A00000FA02F5012001F029FA2169B1F5007F38
:1043B00004D1E268002A0CBFED00AD00B0FBF5F0BF
:1043C00062696FF0010300EB80004000B0FBF2F087
:1043D0004CF6CD420530CCF6CC42A0FB0202C2F333
:1043E000C000C0EBD20203EB5203FD2B28D9606C56
:1043F00040F0100060640120B0BD44F27F604FF4D3
:104400008C71C0F6020013F02FFFE0690228A7D3D9
:1044100044F27F6040F21911C0F6020013F024FF4D
:1044200094F8410000289FD149F20140C0F60000F5
:104430006063002084F84000204600F05FF893E7B6
:104440000302206852081A43114340F6BF7201620A
:10445000C169D4E901C3E56821EA0202A16942EA1F
:104460000C021A432A43114341F40061C161226ADC
:10447000F2B3012A0CD044F27F604FF4DA71C0F637
:10448000020013F0F1FE206A012831D1D4E9000CBA
:1044900043F681514FF04022C0F60001616343F2C0
:1044A0000041C4F2000101F58061884240F6BF710D
:1044B00004BF43F20042C4F20002D06988434CF4C6
:1044C0000071D0610220B1F5007F1062D06914BF85
:1044D00000214FF480710843D4E90213A569084311
:1044E0004FF2FF7118432843084040F40060D06148
:1044F00000200121606484F84110B0BD2DE9F04F27
:1045000087B0002740F6000504460697CDE90477FA
:10451000CDE90277C4F202050068A5F5E6318842CC
:1045200002D007B0BDE8F08F40F25C1001210226F6
:104530000DF1080A4FF003084FF00609C4F24720B6
:10454000016043F630000197C4F20200016941F4B2
:1045500000410161016901F4004101910199019754
:10456000016841F001010160016801F00101019160
:1045700001990197016841F004010160514600680A
:1045800000F004000190019803964FF4004002905F
:10459000A5F500600496CDF81480CDF81890FFF7CB
:1045A0002DFA4FF4A05003965146029004A880E8DB
:1045B00040032846FFF722FA4FF4006905200396CE
:1045C0005146CDF80890CDE9046806902846FFF7DB
:1045D00015FA44F63C0546F210064FF0C0604FF461
:1045E00080634FF400514FF480724FF4403B4FF022
:1045F000040AC2F20105C4F20206C5E900602846B9
:10460000C5E90277C5E90439C5E90612C5E908BA62
:10461000C5E90A872F63FEF72FFE002818BFFCF7B5
:1046200043FE06F1780044F69C0600214022E56333
:10463000AC63C2F2010686E807004FF48060F160C7
:10464000C6E904094FF40050B0614FF48070C6E928
:10465000070B3046C6E909A8C6E90B11FEF70CFEA8
:10466000002818BFFCF720FEA663B46307B0BDE8BE
:10467000F08F00007047000070470000B0B504469E
:10468000002842D043F200012068C4F200018842B1
:1046900006D044F2B7609E21C0F6020013F0E4FD9C
:1046A0006068072806D344F2B7609F21C0F6020075
:1046B00013F0DAFDA068B0F5805F07D344F2B7606D
:1046C000A021C0F6020013F0CFFDA06821684CF6CF
:1046D000CC420A6045F255520A6062684A608860BE
:1046E000FFF748FB054600BF2068C16839B1FFF7F6
:1046F00041FB401B3028F7D90320C0B2B0BD4AF6B9
:10470000AA2101600020C0B2B0BD0120C0B2B0BD7E
:1047100000684AF6AA2101600020704740F2B010FC
:10472000C2F2000001788268114481607047000085
:1047300080B543F60040C4F20200016841F4007104
:104740000160016841F480610160016841F4807199
:104750000160032000F0C8F8012000F005F800F027
:1047600025F8002080BD000070B540F2B016044668
:104770004FF47A71C2F200063078B1FBF0F040F6E7
:10478000C411C2F200010968B1FBF0F003F066F851
:1047900001250F2C08D838B94FF0FF3021460022F0
:1047A000002500F05DF87460284670BD80B582B0C9
:1047B00043F6400100200190C4F202014A6842F42D
:1047C00080424A604A6802F480420192019A009055
:1047D0000868002240F0805008600868012100F05D
:1047E0008050009000986FF00B0000F039F86FF0E7
:1047F0000A000121002200F033F86FF009000121C6
:10480000002200F02DF86FF004000121002200F0DA
:1048100027F86FF003000121002200F021F86FF06B
:1048200001000121002202B0BDE8804000F018B86C
:10483000B0F1FF3F0CDD00F01F010122400902FA38
:1048400001F14EF20012CEF2000242F82010704741
:1048500044F6F000BE21C0F6020013F005BD0000D2
:1048600070B514460D460646102A06D344F6F000ED
:10487000AA21C0F6020013F0F7FC102D06D344F66F
:10488000F000AB21C0F6020013F0EEFC06F00F01C1
:104890004EF60C5206F16040B6F1FF3FA1F1040163
:1048A000CEF20002114401F10C01C8BF00F56441D1
:1048B0001068C0F30220021DC31E80F00700072A03
:1048C0004FF0010238BF0023042828BF042002FA59
:1048D00000F09A4001380F3228402240984010439F
:1048E0000001087070BD000010B5044603380528AB
:1048F00006D344F6F0009221C0F6020013F0B4FC97
:104900004EF60C504FF6FF02CEF200000168114047
:1049100064F30A2141F0806141F0FD71016010BD36
:1049200070470000006841620020704780B5D0F8F1
:1049300000E00029DEF824003BD0DEF82830B1F199
:10494000010C00EB13432CD0002000210EEB800063
:10495000D0F8040103EB104341F00100C0B28445DC
:104960001FD90EEB8000D0F8040103EB104341F097
:104970000200C0B2844514D90EEB8000D0F80401C7
:1049800003EB104341F00300C0B2844509D90EEB9C
:1049900080000431D0F8040103EB1043C8B2844511
:1049A000D4D80EEB8C0043EA0241C0F80411002079
:1049B00080BD40EA0240CEF82800002080BD000003
:1049C000D0F804040FF026BCC1EBC10200EB820258
:1049D000D0F80404926C0FF073BB0000C1EBC1026D
:1049E00000EB8202D0F80404D2F808220FF0CCBB0E
:1049F000D0F804040FF010BC10B5044601F00F000D
:104A000011F0800F09D1C0EBC001002204EB81013D
:104A100081F8FD2101F5FE7107E0C0EBC001012224
:104A200004EB810181F83D203C31087094F8BC030F
:104A3000012802BF0220C0B210BD012084F8BC03CF
:104A4000206810F0E5FC002084F8BC03C0B210BD63
:104A5000B0B5044601F00F006268904282BF0125A4
:104A6000E8B2B0BD090609D4C0EBC001002204EBD6
:104A7000810181F8FD2101F5FE7107E0C0EBC00165
:104A8000012204EB810181F83D203C3100250870B2
:104A90008D7094F8BC03012802BF0225E8B2B0BDB6
:104AA000012084F8BC03206810F096FFE8B284F877
:104AB000BC53B0BD01F00F01C1EBC10100EB81009F
:104AC000D0F814027047000010B5044601F00F0042
:104AD00011F0800F09D1C0EBC00104EB810C002163
:104AE0008CF8FD110CF5FE7108E0C0EBC00104EB81
:104AF000810C01218CF83D100CF13C018A60CB70D7
:104B000008704A78002A1CBFC0B2C880022B04BFBC
:104B10000020087194F8BC03012802BF0220C0B233
:104B200010BD012084F8BC03206810F04BFB00206E
:104B300084F8BC03C0B210BD80B501F00F0CCCEB03
:104B4000CC0100EB810E0021CEF80822CEE98431A1
:104B50008EF8FD118EF8FCC10EF5FE710369012B74
:104B600008BFCEF80C22DAB2BCF1000F006803D007
:104B700010F082FF002080BD10F07EFE002080BD7E
:104B8000B0B50446406801F00F05854282BF0120A0
:104B9000C0B2B0BD080609D4C1EBC100002104EBCE
:104BA000800080F8FD1100F5FE7108E0C5EBC5003E
:104BB000012104EB800080F83D1000F13C01012050
:104BC0000D70887094F8BC23012A02BF0220C0B285
:104BD000B0BD84F8BC03206810F026FF25B100208A
:104BE00084F8BC03C0B2B0BD217C206804F57172AA
:104BF00010F0C4FE002084F8BC03C0B2B0BD0000B9
:104C000010B501F00F0C0024CCEBCC0100EB810EB1
:104C1000714601F83CCFCA60C1E9053401234B70ED
:104C20000369012B08BFCEF84C20DAB2BCF1000FAB
:104C3000006803D010F020FF002010BD10F01CFE13
:104C4000002010BD2DE9F04F87B083460068069024
:104C500011F04EF810B107B0BDE8F08FDBF800009E
:104C600011F074F80028F6D0DBF8000011F06EF8AF
:104C70000146DBF8000011F0020F1EBF416901F090
:104C80000201416111F062F810F4002F0ED0DBF840
:104C9000000011F039F8002640B10BF571710BF5E9
:104CA00001744FF43068002505918DE00025DBF894
:104CB000000011F04BF810F4802F40F00781D8E18C
:104CC00043F20A02C4F654720132914206D310F440
:104CD00000401CBF4FF40040C9F80800584600F0DF
:104CE00049FDDBF80000059A012110F047FE08207D
:104CF000C9F80800380740F1C88000BFDBF8001091
:104D000008EB01000E6C8168DBF81020012A09D144
:104D100043F20A02C4F6547296420BD8584600F089
:104D200029FD23E043F20A09C4F6547909F580729B
:104D300096420CD1090444BF4FF4004181605846AB
:104D400000F018FDDBF81000012809D00EE05846ED
:104D500000F010FD4E4509D9DBF81000012805D1FF
:104D6000DBF80000059A012110F008FE06980821E2
:104D700040448160F8064FF0000640F18B800698B1
:104D8000102140448160B80640F18780DBF81000B4
:104D9000012805D1DBF80000059A012110F0EEFD95
:104DA0000698202140448160B80478D47CE04FF418
:104DB0000040C9F808003807A0D466E02020C9F8F0
:104DC0000800380761D599E78246C0076CD0EEB27B
:104DD000DBF80000314610F0B1FF074610F0010F7C
:104DE00050D00698012140448160DBF8000008EBB8
:104DF0000009016CD9F80800DBF81020012A2DD138
:104E000002073FF55DAF8206D8D410F0280F39D1E4
:104E100043F20A02C4F654720132914202D310F4F2
:104E20000040C4D1D4E90001D9F810206FF3DF426B
:104E3000821A08443146226160605846FFF7CEFD71
:104E400005BBDBF81002E8B9DBF80000059A012188
:104E500010F094FD38073FF551AF16E043F20A0217
:104E6000C4F6547202F58072914206D101049ED4B8
:104E7000800644BF2020C9F8080058463146FFF795
:104E8000ADFD00BF38073FF539AFF8064FF000061B
:104E90003FF575AFB8063FF579AFB80404D506986D
:104EA0004FF40051404481601C3408F120084FEA5F
:104EB0005A000135B6EB5A0F7FF486AFDBF80000DD
:104EC00010F044FF10F4802F00F0D380DBF80000D6
:104ED00010F012FF0027002800F0FD800BF5717123
:104EE00000250191069901F51064029430E001F16A
:104EF0004806CDF80CB00CF5106B316801E000BF2E
:104F00002368039F3F7C0097171A9F4288BF1F4664
:104F1000DDE90402BBB211F011F83068FB1CC119C5
:104F20003160DAF800003844CAF80000DBF8187085
:104F3000D9F80020BFB2B7EB930F28BF8242DFD869
:104F4000DDF80CB0029C0027824200F28B807CE0EE
:104F50008046C00700F08680DBF80000E9B20591CA
:104F600010F0DAFE064610F0010F2DD0069905F07C
:104F70000F00012303FA00F00A46D1F8341821EAA1
:104F80000000C2F8340804EB45108360DBF8100021
:104F9000012807D1C5EBC5000BEB8000D0E9111249
:104FA0001144816405995846FFF70EFD65B9DBF899
:104FB0001000012808D1DBF8500028B9DBF8000008
:104FC000019A012110F0DAFC300742BF04EB4510D2
:104FD00008218160F00642BF04EB4510102181607A
:104FE000700642BF04EB451040218160B00742BF0C
:104FF00004EB451002218160300633D5C5EBC500B6
:105000000BEB8001894659F8502FCA465AF8040F15
:10501000824227D30C46DBF80070161A54F8443F3E
:1050200007EB451C9E4288BF1E46049706F1030EFF
:10503000DCF81869B6B2B6EB9E0F28BF82423FF685
:1050400056AF029C002782420CD8049A05F00F004C
:10505000012101FA00F0D2F8341821EA0000C2F868
:10506000340800BF4FEA58000135B7EB580F7FF402
:105070006FAFDBF8000010F069FE002832DBDBF8D0
:10508000000010F063FE10F4006F4DD1DBF800005B
:1050900010F05CFE10F4805F5AD0069C1021D4F80A
:1050A000040820F00100C4F80408DBF8000010F048
:1050B000E5FDDBF8040004F5006C002800F0F98041
:1050C000411E00F00302CDF814C00329CDE903B25C
:1050D00041D20022A4E00025DBF8000010F036FEEB
:1050E0000028CCDA06980146D0F8040820F0010028
:1050F000C1F804089BF8F403012807D1002000211F
:105100008BF8F4035846FFF70BFC02E0584600F01A
:1051100013FBDBF80000416901F00041416110F030
:1051200015FE10F4006FB1D00698D0F8080810F002
:10513000010F02D0584600F047FBDBF80000416940
:1051400001F40061416110F001FE10F4805FA4D110
:10515000DBF80000E0E0A0EB020806984FF6A05153
:105160004FF6C8594FF6C0564FF6E85A4FF6086B3F
:105170004FF6006C00224FF67F34CFF6FF71CFF66A
:10518000FF79CFF6FF76CFF6FF7ACFF6FF7BCFF62B
:10519000FF7C00F536674FF6E050CFF6FF7000BF9A
:1051A0004FF6A8530432CFF6FF739045FC5057F8E2
:1051B00001E02EF400137B5047F8584C57F8603C40
:1051C00023F4001347F8603C47F80940BB5923F427
:1051D0000013BB5147F8384C57F8403C23F40013F8
:1051E00047F8403C47F80A403B5823F400133B5033
:1051F00047F8184C57F8203C23F4001347F8203C9C
:1052000047F80B4057F80C3023F4001347F80C30E4
:10521000BC603B6823F400133B6007F18007BFD1FB
:10522000DDF810E0DDF80CB0DDF814C0BEF1000FC1
:105230003FD006994FF67F33BEF1010F01F5306084
:1052400001F5106101EB4217BB604FEA4217CE59DE
:1052500026F40016CE5100EB4216B360C65926F470
:105260000016C65125D0571CBEF1020F01EB4716A0
:10527000B3604FEA471600EB47178C5924F400142B
:105280008C51BB60835923F40013835111D0023237
:105290004FF67F3701EB42139F605301CE5826F43F
:1052A0000016CE5000EB42118F60C15821F400115E
:1052B000C150DCF81C0040F00110CCF81C00DBF8F9
:1052C000300040B1DCF8840040F00B00CCF88400E2
:1052D0000CF1440008E0DCF8140042F22B01084312
:1052E000CCF814000CF1100001680BF5717241F05C
:1052F0000B010160DCF8000020F4FE60CCF8000037
:105300009BF81010DBF8000010F038FBDBF8000011
:10531000416901F48051416110F018FD0146DBF84C
:10532000000011F4005F1DD00FF096FFDBF80000C5
:1053300010F0D0FC002818BF0220CBF80C00DBF8DE
:10534000006000F077FE9BF80C200146304610F01C
:105350006BFD584600F0D8F9DBF80000416901F414
:105360000051416110F0F2FC0146DBF8000011F041
:10537000100F40D0816921F0100181610698046A04
:10538000C4F3434004F00F0606281DD002282CD198
:1053900047F6F070044028D0C6EBC6000BEB800641
:1053A000D6F80812C4F30F12069810F0D3FCD6F802
:1053B0000802D6F8141200EB1410C6F8080201EB2C
:1053C0001410C6F8140210E006980BF5717108224B
:1053D00010F0C0FCC6EBC6000BEB8000D0F8141236
:1053E000C4F30A121144C0F81412DBF800008169FA
:1053F00041F01001816110F0A9FC10F0080F46D1B6
:10540000DBF8000010F0A2FC10F4801F4DD0E9B2D0
:10541000584600F061F8DBF80000416901F48011A2
:10542000416110F093FC10F4001F45D0E9B25846DA
:1054300000F056F8DBF80000416901F40011416109
:1054400010F084FC10F0804F3DD05846FFF7B8FABA
:10545000DBF80000416901F08041416110F076FC09
:1054600010F0040F3FF4F7ABDBF8000050F8044FE6
:1054700014F0040F05D05846FFF7BAFADBF8000025
:10548000043001682143016007B0BDE8F08F584641
:1054900000F056F9DBF80000416901F008014161B4
:1054A00010F054FC10F4801FB1D1DBF8000010F0B4
:1054B0004DFC10F4001FB9D1DBF8000010F046FCE1
:1054C00010F0804FC1D1DBF8000010F03FFC10F06D
:1054D000040FC9D1FFF7BFBBD0F804040EF004BF1E
:1054E000D0F804040EF002BF2DE9F04F8BB0044653
:1054F000D0B300212068C4F20401884206D0B0F184
:10550000A04F03D050A0862112F0AEFE94F8BD0348
:1055100028B9002084F8BC03204600F0B1F803202D
:1055200084F8BD03206810F0A1F9206804F1040E8E
:1055300004F11C0A0A909EE80E589AE8C007D4E9C4
:105540000C50CDE9085003A88DE8005880E8C0074A
:105550000A980FF09DFE60B10220012584F8BD037A
:1055600028460BB0BDE8F08F012528460BB0BDE8FA
:10557000F08F20680021002510F02EFC606870B3C9
:1055800001210023002200BFC3EBC303D7B204EB09
:10559000830383F83C20013283F83D10A3F8427066
:1055A00083F83F50C3E911551D65D3B29842EBD83B
:1055B00000210023002200BFC3EBC30304EB8303DD
:1055C00083F8FC21013283F8FD1183F8FF11C3E950
:1055D0008111C3F81012D3B29842EDD80546A068E5
:1055E00004F1240A22680A90D4E9033BD4E9057641
:1055F000D4E907CE9AE80007D4E90C10CDE90810E9
:1056000002A8CDE900B7294680E8405005A880E807
:10561000000710460A9A0FF053FF38B10220012507
:1056200084F8BD0328460BB0BDE8F08F00250120AB
:1056300084F8385084F8BD0320680FF035FF284601
:105640000BB0BDE8F08F00BF2E2E2F447269766537
:1056500072732F53544D3332463478785F48414C3F
:105660005F4472697665722F5372632F73746D3362
:1056700032663478785F68616C5F7063642E6300B3
:10568000B0B586B000240594CDE90344CDE90144CA
:105690000068B0F1A04F01D006B0B0BD43F63005B0
:1056A000009401A9C4F20205286840F001002860B6
:1056B000286800F0010000900098022002904FF44A
:1056C000C05001900320039404900A20059000200C
:1056D000C4F20200FEF792F968680021002240F04F
:1056E000800068600094686940F48040686168697F
:1056F00000F48040009000984320FFF7B1F8432069
:10570000FFF796F806B0B0BD10B50446C06818B1F2
:10571000022803D1012104E0002102E0FBF7C4FDCF
:105720000121D4F804040EF049FED4F80404BDE8C5
:1057300010400EF005BE0000D0F804040EF02ABEA2
:10574000D0F804040EF02CBE10B5044690F8BC034B
:10575000012802BF0220C0B210BD012084F8381019
:1057600084F8BC03206810F04FFB002084F8BC03D1
:10577000C0B210BDD0F8042400F5717110460EF0CF
:1057800033BE000010B5044690F8BC03012802BFE8
:105790000220C0B210BD0121206884F8BC13A16AA8
:1057A000012906D1A16901291EBF816B41F4803115
:1057B00081630FF06DFE206810F05AFA002084F823
:1057C000BC03C0B210BD000010B50446D0F80404FC
:1057D0000EF05CFE2068D0F8001E41F00101C0F818
:1057E000001E206A002808BF10BD4EF61050CEF2F1
:1057F0000000016841F00601016010BD01281CBFD6
:105800000020704743F60400C4F20200416811F41E
:10581000000F1EBF48F20000C0F2BB0070470168D5
:1058200041F20022C0F27A0211F4800F04BF42F26A
:105830000042C0F2F402016801F03F01B2FBF1F155
:10584000D0F88020C2F38812D0F880005143C0F312
:105850000270B1FBF0F070472DE9F04182B0804654
:105860000068411E072909D344F6440040F6CD11D3
:10587000C0F6020012F0F8FCD8F8000010F0050F96
:1058800055D0D8F808000238062807D344F644005B
:1058900040F6D411C0F6020012F0E6FCD8F804007D
:1058A0003238B0F5BF7F07D944F6440040F6D51131
:1058B000C0F6020012F0D8FC68270020C4F2472787
:1058C0003860FEF757FA47F2000605464FF4E43415
:1058D000C4F20006305910F0006F09D0FEF74AFA02
:1058E000401B0228F6D90320C0B202B0BDE8F08107
:1058F000D8E90101090741EA801043F67001C4F2BA
:105900000201486101203860FEF734FA054630593B
:1059100010F0006F0BD14FF4E43400BFFEF72AFA09
:10592000401B02285AD8305910F0006FF6D098F872
:105930000000800704D40020C0B202B0BDE8F081AE
:1059400040F2FF21D8F80C00C0F21001884223DC9D
:1059500040F2FF21C0F20801884244DC40F2FF21FE
:10596000C0F20401884276DC40F2FF21C0F202015D
:10597000884200F3C180B0F5807F00F02581B0F54A
:10598000007F00F0218144F6440040F60621C0F675
:10599000020012F069FC17E140F2FF21C0F2180189
:1059A00088423CDC40F2FF21C0F21401884267DCEF
:1059B00040F2FF21C0F21201884200F3AA8040F2B7
:1059C0000031C0F21001884200F0FE8040F2003148
:1059D000C0F21101884200F0F780D4E70320C0B282
:1059E00002B0BDE8F08140F2FF21C0F20C01884214
:1059F0005BDC40F2FF21C0F20A01884200F396808E
:105A000040F20031C0F20801884200F0DD8040F22F
:105A10000031C0F20901884200F0D680B3E740F2BD
:105A2000FF21C0F21C01884253DC40F2FF21C0F28A
:105A30001A01884200F3878040F20031C0F2180159
:105A4000884200F0C18040F20031C0F21901884262
:105A500000F0BA8097E740F2FF21C0F206018842C9
:105A60007EDC40F20031C0F20401884200F0AC80DC
:105A700040F20031C0F20501884200F0A58082E7C3
:105A800040F2FF21C0F21601884276DC40F200317C
:105A9000C0F21401884200F0978040F20031C0F259
:105AA0001501884200F090806DE740F2FF21C0F2BE
:105AB0000E0188426EDC40F20031C0F20C018842D7
:105AC00000F0828040F20031C0F20D0188427BD0AC
:105AD00059E740F2FF21C0F21E01884267DC40F224
