:020000040800F2
:10000000484E01209D0100081DFE0008658500087E
:1000100019FE0008690B0008D93A01080000000029
:10002000000000000000000000000000C103010803
:100030009D0B00080000000031FE0008890801083F
:10004000B7010008B7010008B7010008B7010008B0
:10005000B7010008B7010008B7010008B7010008A0
:10006000F90E0008B7010008250F0008850B0008ED
:10007000B7010008B7010008B7010008B701000880
:10008000910B0008B7010008B7010008B70100088C
:10009000B7010008B7010008B70100085D0F0008AC
:1000A000B7010008B7010008B7010008B701000850
:1000B000B7010008B7010008E5080108B70100080A
:1000C000B7010008B7010008B7010008B701000830
:1000D000B7010008B7010008B7010008B701000820
:1000E000CD0E0008B7010008B7010008B7010008ED
:1000F000B7010008B7010008B7010008B701000800
:10010000B7010008B701000819090108B701000884
:10011000B7010008B701000859090108B701000834
:10012000B7010008B7010008B7010008B7010008CF
:10013000B7010008B7010008B7010008B7010008BF
:10014000B7010008B7010008B701000821FE000848
:10015000B7010008B7010008B7010008B70100089F
:10016000B7010008B7010008B7010008B70100088F
:10017000B7010008B7010008B7010008000000003F
:10018000B7010008B7010008DFF80CD000F03CFC14
:1001900000480047697A0108484E01200648804718
:1001A00006480047FEE7FEE7FEE7FEE7FEE7FEE75C
:1001B000FEE7FEE7FEE7FEE78D080108890100087B
:1001C0002DE9F05F0546002092469B46884606468C
:1001D000814640241BE0284641464746224600F01F
:1001E00001FA53465A46C01A914110D31146184697
:1001F000224600F0E8F92D1A67EB01084F46224627
:100200000120002100F0DFF917EB00094E41201E0C
:10021000A4F10104DFDC484631462A464346BDE8E6
:10022000F09F40EA01039B0703D009E008C9121FB1
:1002300008C0042AFAD203E011F8013B00F8013BA0
:10024000521EF9D27047D2B201E000F8012B491ECC
:10025000FBD270470022F6E710B513460A46044663
:100260001946FFF7F0FF204610BD421E12F8013F6D
:10027000002BFBD111F8013B02F8013B002BF9D117
:10028000704710B5044604E00B7800F8013B03B159
:10029000491C521EF8D2204610BD421C10F8011B0A
:1002A0000029FBD1801A704710B5002200E0521CD3
:1002B000835C8C5CA34201D1002BF8D1D8B2E1B2AF
:1002C000401A10BD034611F8012B00F8012B002A3B
:1002D000F9D11846704770B506461AF033FC046829
:1002E00005460A220021304600F08CF92C6070BDD2
:1002F0002DE9FE4F81EA030404F0004421F000419F
:1003000000944FF0000B23F0004350EA01045ED04C
:1003100052EA03045BD0C3F30A54C1F30A552C44D8
:10032000A4F2F3340194A0FB0254C1F3130141F48D
:100330008011C3F3130343F4801301FB024400FB59
:10034000034E840A970A44EA815447EA8357A4FB80
:10035000076802958D0A05FB07854FEA932C04FB7D
:100360000C542705029D4FEA065847EA1637B5EBAD
:1003700008056EEB070C870E920E47EA811742EADA
:100380008312A7FB0201B6EB0B0164EB00042B0DFB
:1003900043EA0C335E1844EB1C50DA465146E7FB47
:1003A0000201C5F313044FEA0B3343EA14534FEA37
:1003B0000432019C43EA0603A4F10C040294009C5D
:1003C000CDE900B400F09CF903B0BDE8F08F002047
:1003D0000146F9E72DE9F04D81EA030404F0004BF2
:1003E00021F0004514464FF0000A23F0004150EA86
:1003F000050220D054EA01021DD0C5F30A57024677
:10040000C5F31303C1F31300C1F30A5640F480157A
:1004100043F48013A7EB0608101BD64608F2FD38FC
:1004200073EB050002D308F1010801E092185B416B
:10043000B8F1000F03DA00200146BDE8F08D00207E
:100440004FF48011064684460EE0171B73EB050738
:1004500005D3121B63EB050306434CEA010C490864
:100460004FEA300092185B4150EA0107EDD152EAA1
:10047000030012D082EA040083EA0501084305D094
:10048000101BAB4106D20122002306E000224FF0F0
:10049000004302E06FF0010253101AEB06004CEB30
:1004A000085110EB0A0041EB0B01BDE8F04D00F0E4
:1004B00018B90EB540F2334102910021CDE9001187
:1004C0000A460B4600F01CF903B000BD70B5C1F33D
:1004D0000A5201F000450024C1F3130140F2FF333A
:1004E00041F480119A4201DA002070BD40F233439A
:1004F0009A42A2F2334203DC524200F073F800E069
:1005000090402C43F1D0404270BDC1F30A5210B567
:10051000C1F3130140F2FF3341F480119A4201DA32
:10052000002010BD40F233439A42A2F2334203DC72
:10053000524200F057F810BD904010BD00F000424C
:1005400030F000400AD0C10D01F56071C0F3160013
:1005500042EA0151C208400711437047002001469A
:10056000704701F0004330B421F0004150EA01022D
:1005700006D00A0DA2F56072C1F31301002A02DC55
:1005800030BC00207047440F44EAC104C100E018A9
:1005900030BC00EBC25000F06DB830B50B460146E0
:1005A00000202022012409E021FA02F59D4205D312
:1005B00003FA02F5491B04FA02F52844151EA2F1BC
:1005C0000102F1DC30BD202A04DB203A00FA02F1FE
:1005D000002070479140C2F1200320FA03F3194331
:1005E00090407047202A04DB203A21FA02F00021D3
:1005F000704721FA02F3D040C2F120029140084333
:10060000194670472DE9F04791460F46804604464B
:10061000002614F8015B2DB100F01AFA0068405D65
:10062000C007F6D12B2D02D02D2D18D0641E4A46BE
:100630003946204600F010FA27B13968A14201D1AD
:10064000C7F8008071054FF002040BD54042002826
:1006500003DD1AF077FA0460A007BDE8F08746F4DE
:100660008066E4E70028F8DA1AF06CFA04606FF0AC
:100670000040F2E70029A8BF7047401C490008BFAE
:1006800020F00100704710B4B0FA80FC00FA0CF0C2
:1006900050EA010404BF10BC704749B1CCF12004FA
:1006A00021FA04F411FA0CF118BF01212143084387
:1006B000A3EB0C01CB1D4FEA00614FEA102042BFB3
:1006C000002010BC704700EBC35010440029A4BFA9
:1006D00010BC7047401C490008BF20F0010010BC4E
:1006E000704710B5141E73F1000408DA401C41F184
:1006F000000192185B411A4301D120F0010010BDA6
:100700002DE9F04D92469B4611B1B1FA81F202E01B
:10071000B0FA80F220329046FFF755FF04460F46AC
:1007200040EA0A0041EA0B0153465A46084313D0F7
:10073000114653EA010019D0C8F140025046FFF7B4
:1007400051FF05460E46504659464246FFF73BFFCD
:10075000084305D0012004E020463946BDE8F08D6D
:100760000020054346EAE0762C4337430A986305A8
:10077000E40AA0EB08000022FD0A44EA47540A30CC
:1007800002D500200146E9E7010510196941DDE9BC
:10079000084500196941BDE8F04DA2E72DE9FE4F7B
:1007A000804681EA0300C00F0C46009021F0004112
:1007B00023F00045B8EB0200A94105D2404621468E
:1007C00090461C460B46024623F00040104347D09B
:1007D000270DC7F30A00C3F30A510290401A019093
:1007E00040286BDAC3F3130040F4801B0098924654
:1007F00020B10023D2EB030A63EB0B0B019859469F
:10080000C0F140025046FFF7DEFE06460D46504658
:100810005946019A00F00AF910EB080061410024E2
:1008200087EA115284EAE7731A4340D0009A62B310
:10083000019A012A4FEA075215DC001B61EB020105
:100840004FF0004202EA0752CDE90042001C41F598
:10085000801132462B46FFF753FF03B0BDE8F08FFF
:1008600040462146F9E7001B61EB0201001C41F5FF
:10087000801300185B412018A2F5001747EB030115
:1008800040EAD570B6196D4111E06D084FEA3606A1
:1008900045EAC0754FEA0752001B61EB0201001CDC
:1008A00041F5801149084FEA3000001951413246A4
:1008B0002B4603B0BDE8F04FFFF713BF00980122AD
:1008C00040000023D0EB020263EBE0730098214666
:1008D0004FEAE074B8EB000061EB0401E9E783F054
:1008E00000435BE781F0004158E700002DE9F0414B
:1008F000054621F000400C46284309D0C4F30A50B5
:1009000040F23341884205DD28462146BDE8F081AA
:100910002846FBE740F2FE31884210DC0CDB4FEA50
:10092000043040EA155050EA053105D0104804F073
:10093000004101430020E9E700200146E6E7A0F27C
:1009400033404642C6F1400228462146FFF73BFEAF
:1009500007468846284621463246FFF743FE43466F
:100960003A46FFF7BEFE3246BDE8F041FFF72BBE28
:100970000000F03FC1F30A52C1F3130140F2FF330C
:1009800041F480119A4202DA00200146704740F299
:1009900033439A42A2F2334202DC5242FFF722BEB4
:1009A000FFF711BE30B5041E71F1000404DB4FF0F7
:1009B0000044404264EB0101141E73F1000405DBA6
:1009C0001C464FF00043524263EB04038B4208BFC6
:1009D000824230BD30B5041E71F1000404DB4FF0DB
:1009E0000044404264EB0101141E73F1000405DB76
:1009F0001C464FF00043524263EB0403994208BF88
:100A0000904230BD00207047064C074D06E0E0687C
:100A100040F0010394E8070098471034AC42F6D345
:100A2000FFF7B6FB4C2F02086C2F0208202A06DBCA
:100A3000CB17203A41FA02F043EAE07306E041FAAC
:100A400002F3D040C2F1200291400843194670479A
:100A500000487047B8C501082DE9F05F824600786C
:100A6000002715468B460AF10104B946302801D00B
:100A70009DB113E014F8010B0127782803D0582802
:100A800001D045B10AE00DB1102D07D10027102586
:100A900014F8010B02E0082500E00A250026B04604
:100AA0000EE005FB080005FB06F1012701EB1046EF
:100AB0001FFA80F8B6F5803F00D3B94614F8010B51
:100AC000294600F018F80028EBDABBF1000F05D03A
:100AD0000FB1641E00E05446CBF80040B9F1000F9E
:100AE00006D01AF02FF802210160C81EBDE8F09F61
:100AF00048EA0640FAE73A2800D2303820F02002CF
:100B0000412A01D3A2F13700884201D34FF0FF30D0
:100B1000704770B58C1810F8015B15F0070301D110
:100B200010F8013B2A1106D110F8012B03E010F850
:100B3000016B01F8016B5B1EF9D12B0705D4002373
:100B4000521E0DD401F8013BFAE710F8013BCB1A15
:100B5000921C03E013F8015B01F8015B521EF9D50A
:100B6000A142D8D3002070BDFEE7000040F2F001A2
:100B7000C2F200014A7B01F11800002A08BF01F10E
:100B8000100070474DF6FC60C2F2000002F01EB982
:100B90004DF65C70C2F2000002F018B97047000018
:100BA00080B541F200002021C4F2020003F000F9F8
:100BB00044F25071C2F20001086080BDF0B585B00A
:100BC00040F2B50140F2B4050446C2F20001C2F29F
:100BD00000050978287831B128B9204605B0BDE86C
:100BE000F04015F063BC40F2B306C2F20006317863
:100BF000002943D0002800F0B88042F60000002110
:100C00004022C4F20000006801918DF80320CDE974
:100C100002114FF480210491C0F30341C0F301524B
:100C200042EA820201EB42028DF80020C0F3032168
:100C3000C0F3023303EB830301EB430100F00F0326
:100C40008DF80110C0F3021000EB800003EB4000B0
:100C500040F2BA03C2F200038DF802001B78022BA7
:100C600021D0012B29D08BBBB4F1FF3F02DC002A3D
:100C700000F0EC8022448DF8002027E040F2FC00D8
:100C8000C2F20000817D032949D0022950D00129F8
:100C900061D190F8297010F0CFFA002F55D064215F
:100CA00004FB010055E0B4F1FF3F02DC002800F036
:100CB000CD8020448DF8020008E0B4F1FF3F02DC53
:100CC000002900F0C38021448DF80110D2B2C9B2CE
:100CD000C0B244F64004182AC2F2000424BF002225
:100CE0008DF800203C2924BF00218DF801103C28FC
:100CF00024BF00208DF80200204604F0E3FD2046CA
:100D000004F062FE69462046002204F067FF40F2CC
:100D1000E6000121C2F20000817105B0F0BD43F68A
:100D2000095004FB00F710F087FA00EB871010E081
:100D300090F8297010F080FA002F0CBF4FF47A71F0
:100D400042F2107104FB010003E004EB840100EBAC
:100D5000410010F0F7FA0AF09FFD3078002800F00B
:100D60007580287800287FF448AF40F2B600C2F2C0
:100D7000000000780238042862D8DFE800F0034B56
:100D80001527380040F2FC00C2F2000090F826104F
:100D9000214411F0FF0F08BF0121CAB2642A28BF05
:100DA000642180F8261045E040F2FC00C2F2000009
:100DB00090F83010214411F0FF0F08BF0121CAB292
:100DC000642A28BF642180F8301033E040F2FC0030
:100DD000002CC2F2000090F8321000DC51B3214424
:100DE000CAB20A2A28BF0A2180F8321022E040F253
:100DF000FC00C2F2000090F83310214411F0FF0F04
:100E000008BF0121CAB2FA2A28BF6FF0050180F895
:100E100033100FE040F2FC00002CC2F20000417DD4
:100E200000DC29B12144CAB2042A28BF042141753B
:100E30000FF040FB40F2E6000121C2F200004170D9
:100E400040F2F5000121C2F20000017005B0F0BDD2
:100E5000B0B541F200042021C4F20204204602F0A1
:100E6000A7FF44F25075C2F200056860296881420C
:100E700024D028602046042102F09AFFD5E9012100
:100E8000824210D1481CA86040F2FC00C2F200006F
:100E900090F86A008142B8BFB0BD0120FFF78EFE16
:100EA0000020A860B0BD481EA86040F2FC00C2F25D
:100EB000000090F86A004042814200DDB0BD4FF072
:100EC000FF30FFF77BFE0020A860B0BD10B54FF4E7
:100ED000806002F0DDFD40F29204C2F2000420784E
:100EE000002818BF10BD00F069FF207800B110BDC8
:100EF000BDE8104001F046B980B5042002F0C8FDFD
:100F000044F262700021C2F2000001704CF278706D
:100F1000C2F200000078002814BFBDE8804080BD08
:100F2000FFF796BF80B5102002F0B2FD44F2627068
:100F30000021C2F2000001704CF27870C2F2000091
:100F40000078002808BF80BD10F07CF9072800D188
:100F500080BDBDE8804010F0BDB9000080B5202004
:100F600002F096FD44F262700021C2F200000170AE
:100F7000BDE880400AF0D4BBFEE700002DE9F04751
:100F80002DED088B40F2FC00C2F2000090F8310019
:100F9000002800F0C88240F26008C2F2000898F809
:100FA0000200002800F0BF8298F80000B8B345F6B0
:100FB000B8509FEDA28A9FEDA29A0025B7EE00AA35
:100FC000B6EE00BAC2F20000041D00BF00EE105AD7
:100FD000B8EEC00A20EE080A20EE090A13F0ACFEB3
:100FE0003AEE400A14ED011A94ED002A013520EE84
:100FF0000B0AB5F5007F21EE001A20EE020A04ED7F
:10100000011A84ED000A04F10804DFD140F2303007
:1010100045F6B854C0F60200C2F2000436E046F6C7
:10102000B8509FED868A9FED869A0025B7EE00AAFC
:10103000B6EE00BAC2F20000041D00BF00EE105A66
:10104000B8EEC00A20EE080A20EE090A13F074FE7A
:101050003AEE400A14ED011A94ED002A013520EE13
:101060000B0AB5F5007F21EE001A20EE020A04ED0E
:10107000011A84ED000A04F10804DFD140F2303097
:1010800046F6B854C0F60200C2F20004214600221F
:10109000012313F05FFA47F6B85120464FF400726F
:1010A000C2F2000113F0A8FD47F6B85908F110028A
:1010B00008F10C034FF40071C2F20009484614F025
:1010C00003FA08F1140248464FF4007114F064FA70
:1010D00098ED040A98ED068AB2EE041A30EE480A3A
:1010E00080EE010A88ED070AB8F80600082804D344
:1010F000B5EEC00AF1EE10FA17DCB5EEC00A002218
:101100000021BAEE042AF1EE10FAB4EEC20AB8BF1A
:101110000122022838BF0121F1EE10FA01EA020192
:1011200080F20582002900F00282B0EE402A38EEFB
:10113000028A88ED068A98ED050AB1EE001A0020B1
:1011400020EE010AB4EEC80AF1EE10FAC4BF88ED31
:10115000060AB0EE408AB3EE040AA8F80600B4EE20
:10116000C08AF1EE10FA06DA0020B0EE408AC4F22E
:10117000A010C8F8180098F801C0BCF1000F00F0EA
:10118000A18000EE10CA0CF0030109EB8C009FED6A
:101190002D1A09F108054FEACC0EACF1010A002422
:1011A000B8EE400AACEB010200F108030020BAF1EE
:1011B000030F03D2B0EE412AC9B92DE02E46B0EE9E
:1011C000412A00BF16ED023A16ED014A96ED005A8B
:1011D00096ED016A04301036824233EE022A34EE74
:1011E000022A35EE022A36EE022AEBD1A1B104FB27
:1011F0000CF60129304409EB800090ED003A33EE03
:10120000022A09D090ED013A022933EE022A1CBFCE
:1012100090ED023A33EE022A09EB840082EE002AB6
:10122000BAF1030F80ED002A4FF000000CD2B0EEAF
:10123000412A44F0010611BB36E000BFDB0FC94074
:101240000000003B000000001E46B0EE412A00BF37
:1012500016ED023A16ED014A96ED005A96ED016A36
:1012600004301036824233EE022A34EE022A35EE82
:10127000022A36EE022AEBD144F00106A1B106FBA8
:101280000CF70129384409EB800090ED003A33EE69
:10129000022A09D090ED013A022933EE022A1CBF3E
:1012A00090ED023A33EE022A023409EB860082EE18
:1012B000003A73447544B4F5807F80ED003A7FF4C2
:1012C00075AF09E047F6B8504FF48061C2F20000F4
:1012D000FEF7C0FF9FEDA82A0020B7EE000A88EDB8
:1012E000082A00BF09EB0001203091ED001A91EDB2
:1012F000012A91ED023A91ED034A91ED045A91EDE4
:10130000056A91ED067AD1ED070A81EE081A82EEA0
:10131000082A83EE083A84EE084A85EE085A86EEDB
:10132000086A87EE087AC0EE880AB4EEC01AF1EEB9
:1013300010FAB4EEC02AC8BFB0EE401AF1EE10FAAF
:10134000B4EEC03AC8BFB0EE402AF1EE10FAB4EEE7
:10135000C04AC8BFB0EE403AF1EE10FAB4EEC05A3F
:10136000C8BFB0EE404AF1EE10FAB4EEC06AC8BF92
:10137000B0EE405AF1EE10FAB4EEC07AC8BFB0EE4B
:10138000406AF1EE10FAF4EEC00AC8BFB0EE407A3F
:10139000F1EE10FAC8BFF0EE400AB0F5806F81EDB3
:1013A000001A81ED012A81ED023A81ED034A81EDB7
:1013B000045A81ED056A81ED067AC1ED070A91D1E3
:1013C00048F2B8510020B6EE000AC2F2000100BF98
:1013D0000A1809EB0003403093ED001A92ED005A11
:1013E00093ED012A92ED016A93ED023A92ED027AB1
:1013F00093ED034AD2ED030AD3ED041AD2ED042A89
:10140000D3ED053AD2ED054AB0F5806F35EE011AFD
:1014100036EE022A37EE033A30EE844A32EEA15A13
:1014200034EEA36A21EE001A22EE002A23EE003ADF
:1014300024EE004A25EE005A26EE006A82ED001ADC
:1014400082ED012A82ED023A82ED034A82ED045ACE
:1014500082ED056A93ED061A92ED062A32EE011A24
:1014600021EE001A82ED061A93ED071A92ED072A73
:1014700032EE011A21EE001A82ED071A93ED081AD6
:1014800092ED082A32EE011A21EE001A82ED081AB6
:1014900093ED091A92ED092A32EE011A21EE001A93
:1014A00082ED091A93ED0A1A92ED0A2A32EE011A18
:1014B00021EE001A82ED0A1A93ED0B1A92ED0B2A17
:1014C00032EE011A21EE001A82ED0B1A93ED0C1A7E
:1014D00092ED0C2A32EE011A21EE001A82ED0C1A5E
:1014E00093ED0D1A92ED0D2A32EE011A21EE001A3B
:1014F00082ED0D1A93ED0E1A92ED0E2A32EE011ABC
:1015000021EE001A82ED0E1A93ED0F1A92ED0F2ABA
:1015100032EE011A21EE001A82ED0F1A7FF458AF55
:10152000002088F80200BDEC088BBDE8F087B4EE1F
:10153000C18AF1EE10FA02DD0228FFF4F8ADBFEE29
:10154000001A0022B0EE402AB4EEC10AF1EE10FA01
:10155000B8BF01220A427FF4EAADB7EE000AB4EE4A
:10156000C08AF1EE10FA7FF7E6AD0128B0EE412A0D
:101570007FF6DDADDFE500BF000000002DE9F043A0
:101580004DF6C751BB28CAF63A7151FB00014FEA2C
:10159000E11202EBD17977DB4EF248030FFA89F8BA
:1015A0004FF0000CC2F200034FEA480E03EB480272
:1015B0000BE000BF0CF1020C02F5806203F58063C2
:1015C000BCF1320F08BFBDE8F083002619461EE0CB
:1015D000651CADB2FF2D9ABF01EB0E056F88002789
:1015E00003EB460504366F80A71C0334BFB2A4B2D8
:1015F000FF2F9ABF01EB0E07BF880027FF2CAF809B
:101600009ABF01EB0E04E4880024CC80083108EB7B
:101610000604A5B2FF2D94BF31F80E500025B6F593
:10162000807F0D80D4D100244FF4007520E000BFEE
:101630004E1C03EB4400B6B2FF2E9ABF56197788B2
:1016400000275E1977808F1CBFB2FF2F9ABF02EB75
:101650004407B7F8047200270434A0F80472C81CC9
:1016600080B2FF289ABF5019C18800210835F18047
:1016700008EB04018EB2FF2E94BF565B0026B4F532
:10168000807F5E53D4D195E710F1BB0F00F37F80CC
:101690004EF248080FFA89F04FF0000EC2F200082F
:1016A000430008EB400208F2FA3C00BF4FF480749C
:1016B000002522E0B01E043C80B2FF289ABF02EB56
:1016C0004500B0F8FE010020A7F8FE01F01E80B230
:1016D000FF289ABF02EB4500B0F8FC010020A7F8F4
:1016E000FC01301F80B2FF289ABF02EB4500B0F822
:1016F000FA010020043DA7F8FA0104EB090608EB03
:101700004507701E81B205F58070FF299ABF02EB74
:101710004501B1F8001200210028A7F80012C9DC29
:101720004FF4807465464FF4807619E0B81E043E8D
:10173000043C80B2FF289ABFE81880880020A88067
:10174000F81E80B2FF289ABFE81840880020688001
:10175000381F80B2FF2894BFE85A002025F80809F6
:1017600006EB0907781E80B2FF289ABFE818C088E8
:101770000020002CE880D9DC0EF1020E0CF5806C04
:1017800002F5806208F58068BEF1320F8ED1BDE8A7
:10179000F08300002DE9F04F81B02DED028B40F277
:1017A000FC00C2F2000090F83100002800F0368101
:1017B00040F2B70240F26006C2F20002C2F2000636
:1017C0001078B178084340F2B301C2F20001097801
:1017D000084340F2B201C2F200010978084340F226
:1017E000B001C2F2000109780843000640F01681FA
:1017F0004EF2480A44F6402431200121C2F2000A88
:10180000C2F20004308111700AEB4022204680238E
:10181000A2F5007101F0CAFE204600214FF0FF3210
:1018200001F0F6FD30890138308180B20028EBD11B
:1018300048F2B85700254FF6E279B3EE0E8A6FF002
:101840007F0B4FF01E08C2F2000700BF97ED000AA1
:1018500085EA0B0420EE080ABDEEC00A10EE100A5D
:101860001E28B0800ED34FF478403081A6F8048053
:10187000F1880131F180E4B22AF8140028063CD145
:101880004AE000BFC0B20A280CD84CF6CD41C0EBEC
:101890000020CCF6CC41A0FB0101CA0800200021A9
:1018A00020E000BFC0EB002114280DD8A1F6F610EF
:1018B00046F26761C6F2666150FB01F0811001EBF0
:1018C000D070C24301460DE041F2EC30081A46F2F6
:1018D0006761C6F2666150FB01F0811001EBD070C8
:1018E000C1430A46C0B2C9B2D2B218F0C7F93081BA
:1018F000E4B22AF8140028060ED00FFA89F2204626
:10190000BE21002308F078FAB0883389BE21404216
:1019100002B2204608F070FA01350437B5F5807F31
:1019200094D10FFA89F28020BE214FF4FC6308F0B5
:1019300063FA00209E214FF480720023002708F0F4
:10194000E3F9FFF713F900790A283CD80121814017
:1019500011F0290F23D111F0520F0AD0FFF706F929
:101960004DF6C751C088CAF63A71A0FB0101CA09F9
:1019700023E0012101FA00F010F4A06F23D0FFF75B
:10198000F5F84DF6C751C0884FF4FC63CAF63A71BA
:10199000A0FB0101CA0980209E2108F0B5F9FFF7DC
:1019A000E5F842F23921C088C5F2C50150FB01F1CA
:1019B000081AC10901EBD07002B280209E214FF4B9
:1019C000FC6308F0A1F90020BE21FF22F02307F0FC
:1019D00043FE44F6A0244EF2480100224FF448533F
:1019E000C2F20004C2F20001C6F20802204601F071
:1019F000DDFD204600214FF0FF3201F009FD80207F
:101A0000BE214FF480724FF4FC6308F0F5F940F208
:101A1000B700C2F2000007700120B070BDEC028B6D
:101A200001B0BDE8F08F0000B0B500F055FC40F209
:101A30009004012040F6180550210122C2F2000452
:101A4000C4F20205C0F2F001A0704FF60000CFF61C
:101A5000FF7029500221284640F81819012102F090
:101A6000BDF94FF4403028600020A070B0BD0000E8
:101A70002DE9F04381B040F29005002010270121AC
:101A80000122C2F20005C4F20207288107F5FE64B4
:101A9000286901302861204602F0A0F938683968C9
:101AA000002200F0010001F002010843396801F052
:101AB00004010843396801F00801084301210003CB
:101AC0002881204602F08AF920460121012202F0F5
:101AD00085F938683968002200F0010001F0020140
:101AE0000843396801F004010843396801F008012E
:101AF0000843298941EA002001212881204602F07B
:101B00006DF920460121012202F068F93868396830
:101B1000002200F0010001F002010843396801F0E1
:101B200004010843396801F008010843298941EAA2
:101B3000001001212881204602F050F920460121A1
:101B4000012202F04BF93868396840F2600848F623
:101B5000B8194CF27276C2F20008C2F20009C2F261
:101B6000000600F0010001F002010843396801F0AD
:101B700004010843396895ED071A01F0080108438C
:101B80002989014308B200EE100AB8EEC00A98F89D
:101B90000020A9812981D9F80000317830EE410A6E
:101BA0002AB181B145F6B851C2F2000104E079B121
:101BB00046F6B851C2F2000101EB800048F6BC11B4
:101BC000C2F200010FE045F6B851C2F2000103E095
:101BD00046F6B851C2F2000101EB800048F6BC7134
:101BE0000430C2F2000180ED000AE889002201EB16
:101BF0008000012180ED000A204602F0EFF8204627
:101C00000121012202F0EAF838683968002200F068
:101C1000010001F002010843396801F004010843A2
:101C2000396801F00801084301210003288120469A
:101C300002F0D4F820460121012202F0CFF83868E2
:101C40003968002200F0010001F002010843396800
:101C500001F004010843396801F0080108432989AB
:101C600041EA002001212881204602F0B7F82046F1
:101C70000121012202F0B2F838683968002200F030
:101C8000010001F002010843396801F00401084332
:101C9000396801F008010843298941EA001001214F
:101CA0002881204602F09AF820460121012202F004
:101CB00095F83868396800F0010001F00201084326
:101CC000396801F004010843396895ED070A01F00D
:101CD000080108432989014308B201EE100AB8EE51
:101CE000C11A98F80000A9812981D9F8001032782A
:101CF00031EE400A28B19AB145F6B852C2F200025C
:101D000004E092B146F6B852C2F2000202EB810240
:101D100048F6BC7382ED010AEA89C2F2000311E0C1
:101D200045F6B852C2F2000203E046F6B852C2F2DB
:101D3000000202EB810248F6BC1382ED000AEA8938
:101D4000C2F2000303EB820395ED051A023183ED25
:101D5000000A48F6BC13C2F2000303EB820301320F
:101D600093ED000AB4EEC01AF1EE10FAB8BF85ED9B
:101D7000050A95ED061AB4EEC01AF1EE10FAC8BFC6
:101D800085ED060AEA8192B2C9F80010B2F5807FAB
:101D900004BF0022EA81B1F5806F06D1002180F0F6
:101DA0000100C9F8001088F8000020460121002237
:101DB00001B0BDE8F04302F011B80000B0B540F248
:101DC00090040120C2F20004A0700FF069FA18B16B
:101DD0000FF038FA0B2801D1042000E003206070D6
:101DE00000F00F004FF4700140F61805012241EA9F
:101DF00000104FF60001C4F20205CFF6FF716850E3
:101E00000221284640F81819012101F0E7FF4FF49C
:101E1000403028600FF044FA18B10FF013FA0B2885
:101E200004D1FFF725FE0020A070B0BD00F004F83B
:101E30000020A070B0BD00002DE9F04140F29005F7
:101E400049F6BC11F0274FF6180640F600040122AF
:101E5000C2F20005C2F20001CFF6FF76C4F202041E
:101E6000286901302861E88901EB8000012190EDAB
:101E7000000ABDEEC00A10EE100A688107EA1020C1
:101E800040F47000A051204601F0A8FF2046012137
:101E9000002201F0A3FF68890121012207EA101046
:101EA00040F47000A051204601F098FF2046012127
:101EB000002201F093FF68890121012200F0F00067
:101EC00040F47000A051204601F088FF2046012117
:101ED000002201F083FF68894FF47008012101227C
:101EE00000F00F0048EA0010A051204601F076FFF4
:101EF00020460121002201F071FF49F2BC51E8891E
:101F00000122C2F2000101EB8000012190ED000AE4
:101F1000BDEEC00A10EE100A688107EA102040F4F6
:101F20007000A051204601F059FF204601210022F7
:101F300001F054FF68890121012207EA101040F4E2
:101F40007000A051204601F049FF204601210022E7
:101F500001F044FF68890121012200F0F00040F403
:101F60007000A051204601F039FF204601210022D7
:101F700001F034FF68890121012200F00F0048EAD6
:101F80000010A051204601F029FF20460121002227
:101F900001F024FFE889411C7F28E9810FD0FF2848
:101FA00018BFBDE8F08140F22200C2F200000178C3
:101FB00089B1FF20E8810120A871BDE8F08140F2DD
:101FC0002200C2F20000017861B17F20E881012087
:101FD000A871BDE8F08101210022E970EA81017059
:101FE000BDE8F081012101700020E870BDE8F081BA
:101FF0002DE9F041FEF7BAFD006814F055FC0446E7
:102000000FF04EF9E8B90FF01DF904280CD00328A1
:1020100017D1FEF7ABFD40F2FC010068C2F20001EF
:10202000B1F86810084409E0FEF7A0FD40F2FC0199
:102030000068C2F20001B1F86810401A14F034FCD4
:10204000044640F290050020C2F2000568700FF0CF
:1020500027F918B10FF0F6F80B2808D1687820F0AE
:10206000080068700FF01CF948B1687814E06878CF
:1020700040F0080068700FF013F90028F5D140F225
:10208000FC016878C2F20001097D00290CBF00F054
:10209000FB0040F0040068704FF470014FF6180721
:1020A00040F6000501224FF4700860F30711C4F2F6
:1020B0000205CFF6FF77E9512846012101F08EFE97
:1020C00028460121002201F089FEF026012101228B
:1020D00006EA144040F47000E851284601F07EFE04
:1020E00028460121002201F079FE06EA1430012180
:1020F000012240F47000E851284601F06FFE2846A6
:102100000121002201F06AFE06EA142001210122C9
:1021100040F47000E851284601F060FE2846012195
:10212000002201F05BFE06EA14100121012240F4B6
:102130007000E851284601F051FE28460121002296
:1021400001F04CFE04F0F0000121012240F4700087
:10215000E851284601F042FE28460121002201F004
:102160003DFE64F3071828460121012245F8078047
:1021700001F034FE284601210022BDE8F04101F0C3
:102180002DBE0000F0B581B040F290054FF4807094
:10219000C2F20005A5F8010010202979C0F2F00074
:1021A00009B1012104E0697900294CD010300221E5
:1021B000102640F61807697001210122C4F20206B8
:1021C000C4F20207B060022006F5FE6438602046C3
:1021D00001F004FE4FF440303860287938B1FFF741
:1021E00007FF002028710020A87001B0F0BD6879B9
:1021F00048B320460121012201F0F0FD306831682A
:102200004CF27072C2F2000200F0010001F0020113
:102210000843316801F0040108433168002601F0E9
:102220000801084300F00101287011704CF271712F
:10223000C0F340000022C2F20001087020460121D4
:1022400001F0CCFD6E710020A87001B0F0BD00005F
:10225000B0B540F29004012040F61805502101224B
:10226000C2F20004C4F20205C0F2F001A0704FF601
:102270000000CFF6FF7029500221284640F81819B7
:10228000012101F0ABFD4FF4403028600020A07028
:10229000B0BD0000B0B540F29004012040F6180532
:1022A00060210122C2F20004C4F20205C0F2F00172
:1022B000A0704FF60000CFF6FF702950022128468B
:1022C00040F81819012101F089FD4FF440302860D1
:1022D0000020A070B0BD00002DE9F04381B073A0D4
:1022E00017F0D8FC40F2900910271026012040F684
:1022F000180501210122C2F20009C0F2F007C4F260
:102300000206C4F2020589F8020007F1900006F502
:10231000FE64B06002202860204601F05FFD4FF4AB
:1023200040300121012228602046B76001F056FDAF
:102330003068316800F0010001F0020108433168A3
:1023400001F004010843316801F008010843012845
:1023500089F8000071D120460121002201F03EFDE4
:1023600007F1100001210122B060204601F036FD86
:102370003068316800F0010001F002010843316863
:1023800001F004010843316801F008010843022804
:1023900089F800005FD120460121002201F01EFDD6
:1023A00007F1300001210122B060204601F016FD46
:1023B0003068316800F0010001F002010843316823
:1023C00001F004010843316801F0080108430428C2
:1023D00089F800004DD12046012100224FF000086D
:1023E00001F0FCFC07F1700001210122B0602046E1
:1023F00001F0F4FC3068316800F0010001F00201E6
:102400000843316801F004010843316801F0080114
:102410000843082889F8000039D12046012100220C
:1024200001F0DCFC41F6FD1089F80280C0F60200E4
:1024300001B0BDE8F04317F02DBC20A017F02AFC36
:1024400099F80000002117F089FC20A001B0BDE838
:10245000F0430DF0C9BB22A017F01CFC99F8000056
:10246000002117F07BFC22A001B0BDE8F0430DF085
:10247000BBBB24A017F00EFC99F80000002117F058
:102480006DFC24A001B0BDE8F0430DF0ADBB26A06B
:1024900017F000FC99F80000002117F05FFC26A05F
:1024A00001B0BDE8F0430DF09FBB00BF465047416F
:1024B0002042757320546573742000004552524FBA
:1024C0005220302050494E0D0A000000465047412E
:1024D000206275732050494E30206572726F720011
:1024E0004552524F5220312050494E0D0A000000F3
:1024F00046504741206275732050494E3120657225
:10250000726F72004552524F5220322050494E0D88
:102510000A00000046504741206275732050494E22
:1025200032206572726F72004552524F5220332032
:1025300050494E0D0A000000465047412062757315
:102540002050494E33206572726F7200F0B581B031
:10255000054643F480401F4614460E46B0F5804FB2
:1025600007D041F6943040F24F11C0F6020013F04C
:1025700041FCB7F5804F28D140F20410CAF20000A8
:10258000854207D041F6943040F25511C0F6020062
:1025900013F030FC306810281ED2706801380F2804
:1025A00026D2B0680138FF282ED2F068102836D223
:1025B000B0694FEA307004283ED2062C46D801207C
:1025C000A04010F0550F49D140E06FF0704045F841
:1025D0002400002001B0F0BD41F694304FF4AB71FF
:1025E000C0F6020013F006FC706801380F28D8D33B
:1025F00041F6943040F25711C0F6020013F0FAFB96
:10260000B0680138FF28D0D341F694304FF4AC7154
:10261000C0F6020013F0EEFBF0681028C8D341F6B4
:10262000943040F25911C0F6020013F0E3FBB06998
:102630004FEA30700428C0D341F694304FF4AD71A6
:10264000C0F6020013F0D6FB062CB8D941F6943040
:1026500040F25B11C0F6020013F0CCFB002155F8EC
:102660002400CCF6F071084096E88E000843B1696A
:1026700040EA021040EA032040EA0740084345F8D8
:102680002400002001B0F0BD2DE9F0470D46804642
:10269000B0F1204F06D041F694308621C0F60200FA
:1026A00013F0A8FB286806280ED8012101FA00F0D3
:1026B00010F0550F08D0686840F0020002280FD1D2
:1026C000A868082817D9A8E041F694308721C0F6F9
:1026D000020013F08FFB686840F002000228EFD080
:1026E00041F694308821C0F6020013F083FBA868FD
:1026F000082800F29280012101FA00F040F2111145
:10270000084200F08A80E868002818BF102840F0CE
:102710009180286940F48070B0F5807F40F09B8004
:10272000686940F40070B0F5007F40F0A280A869AD
:1027300040F48060B0F5806F40F0A980E86940F413
:102740000060B0F5006F40F0B080286A40F480501F
:10275000B0F5805F40F0B780686A40F40050B0F593
:10276000005F40F0BE80A86A40F48040B0F5804F22
:1027700040F0C580E86A40F40040B0F5004F40F0FA
:10278000CC80286B40F40020B0F5002F40F0D380BF
:10279000D5F83CE04FEA3E41052908D341F6943094
:1027A0009621C0F6020013F025FBD5F83CE0D5E9F0
:1027B00000C205F1080A80219AE8D804D5F81C90D7
:1027C000CFF6F07158F82C00082B00EA010040EA1F
:1027D000020040EA030040EA040040EA060005F176
:1027E000200640EA070056CE2D6B40EA0A0040EA78
:1027F000090040EA010040EA020040EA040040EA21
:10280000060040EA0E0040EA050008BF40F0400024
:1028100048F82C000020BDE8F08741F6943089216B
:10282000C0F6020013F0E6FAE868002818BF102886
:102830003FF46FAF20283FF46CAF41F694308A210B
:10284000C0F6020013F0D6FA286940F48070B0F5A3
:10285000807F3FF465AF41F694308B21C0F60200D3
:1028600013F0C8FA686940F40070B0F5007F3FF4D7
:102870005EAF41F694308C21C0F6020013F0BAFA34
:10288000A86940F48060B0F5806F3FF457AF41F61F
:1028900094308E21C0F6020013F0ACFAE86940F4DF
:1028A0000060B0F5006F3FF450AF41F694309021D6
:1028B000C0F6020013F09EFA286A40F48050B0F58A
:1028C000805F3FF449AF41F694309121C0F6020099
:1028D00013F090FA686A40F40050B0F5005F3FF4DE
:1028E00042AF41F694309221C0F6020013F082FA12
:1028F000A86A40F48040B0F5804F3FF43BAF41F60A
:1029000094309321C0F6020013F074FAE86A40F4A0
:102910000040B0F5004F3FF434AF41F694309421BD
:10292000C0F6020013F066FA286B40F40020B0F500
:10293000002F3FF42DAF41F694309521C0F60200F0
:1029400013F058FAD5F83CE04FEA3E410529FFF470
:102950002EAF23E7F0B581B015460C460646B0F120
:10296000204F07D041F694304FF48C71C0F602002E
:1029700013F040FA206810281FD2606801380F2831
:1029800027D2A0680138FF282FD2E068102837D25C
:10299000206902380F283FD260690238102847D2D8
:1029A000A0694FEA307004284FD2062D57D8012075
:1029B000A84010F0550F5AD151E041F6943040F242
:1029C0001911C0F6020013F015FA606801380F28DB
:1029D000D7D341F694304FF48D71C0F6020013F056
:1029E00009FAA0680138FF28CFD341F6943040F2AD
:1029F0001B11C0F6020013F0FDF9E0681028C7D3E0
:102A000041F694304FF48E71C0F6020013F0F2F9E3
:102A1000206902380F28BFD341F6943040F21D11CF
:102A2000C0F6020013F0E6F9606902381028B7D347
:102A300041F694304FF48F71C0F6020013F0DAF9CA
:102A4000A0694FEA30700428AFD341F6943040F2C9
:102A50001F11C0F6020013F0CDF9062DA7D941F6DB
:102A600094304FF49071C0F6020013F0C3F906EBF6
:102A700085000027D0F804C094E84C00D4E9035145
:102A8000CFF6F077D4E905E407EB01510CF04047AD
:102A90003A4342EA031242EA062242EA054211435D
:102AA0000EF1FE02214341EA02614160002001B0C3
:102AB000F0BD00002DE9F04F89B044F66054019359
:102AC000CDE902019020924600264FF480550DF189
:102AD00023010DF122020123C2F200048DF823002C
:102AE0008DF822600095204603F0ACFD0DF1230126
:102AF0000DF12202204601238DF823608DF822601B
:102B0000009503F09FFD9DF822900DF123010DF13A
:102B10002202204601238DF823608DF82260009563
:102B200003F090FD9DF82280642013F0D1FAD020AC
:102B30000DF123010DF1220201238DF82260009591
:102B40008DF82300204603F07DFD0DF123010DF1EA
:102B50002202204601238DF823608DF82260009523
:102B600003F070FD9DF822700DF123010DF122029A
:102B7000204601238DF823608DF82260009503F034
:102B800061FD48EA0920BAF1000FC0F3CC000590BE
:102B90009DF8220040EA0720C0F3CC00CDF810A039
:102BA0000690504600F0818044F6605500274FF0B3
:102BB000000B4FF48054C2F2000500BF90200DF1CD
:102BC00023060DF1220801238DF822B000948DF820
:102BD000230028463146424603F034FD284631465C
:102BE000424601238DF823B08DF822B0009403F003
:102BF00029FD9DF822003146424601238DF823B07D
:102C00008DF822B000940790284603F01BFD9DF834
:102C100022A0642013F05CFAD02031464246012302
:102C20008DF822B000948DF82300284603F00AFDA9
:102C300028463146424601238DF823B08DF822B054
:102C4000009403F0FFFC9DF822902846314642464E
:102C500001238DF823B08DF822B0009403F0F2FC2C
:102C600007984FF6F8714AEA002000EA0102C0F323
:102C7000CC009DF82210BBEBD20F41EA0921C1F331
:102C8000CC0118BF00290BD0069A89B280B211FA84
:102C900082F149080691059910FA81F040080590E3
:102CA00001370499F8B2884288D3019840B102985C
:102CB0000599018006990398018009B0BDE8F08F5D
:102CC000059A44F6A800C2F2000092B290ED010A03
:102CD000B0F9001001EE102AB8EE411A81EE000A98
:102CE00001EE101AB8EEC11A30EE010ABDEEC00AAC
:102CF000029A10EE101A1180069990ED020AB0F9AE
:102D0000020089B201EE101AB8EE411A81EE000AF3
:102D100001EE100AB8EEC11A30EE010ABDEEC00A8B
:102D200010EE101A0398018009B0BDE8F08F000082
:102D300070B5866D044601F073F8054694F83500C9
:102D400002282DD12068016821F016010160416937
:102D500021F080014161216C09B9A16C19B10168B0
:102D600021F008010160016821F0010101600068A3
:102D700010F0010F05D11BE02068006810F0010F72
:102D800016D001F04DF8401B0628F5D320206065D1
:102D9000002084F83400032084F83500C0B270BDF0
:102DA000002084F83400802060650120C0B270BD2E
:102DB000E06D3F2101FA00F0B060012084F8350099
:102DC000002084F83400C0B270BD0000F0B581B0BE
:102DD0000446002048F2B5130821009040F66C101C
:102DE000C1F64E33C2F200000268D4E916603768BB
:102DF0008140A2FB032539420DD02268136813F0ED
:102E0000040F08D0136823F004031360B160616DF0
:102E100041F00101616501218140394209D02268F8
:102E2000526912F0800F04D0B160616D41F002016F
:102E3000616504218140394209D02268126812F08C
:102E4000020F04D0B160616D41F004016165102191
:102E50008140394219D02068026812F0080F14D05E
:102E6000B1600268016812F4802F08D1C9055EBF05
:102E7000016821F008010160216C21B905E0080317
:102E800045D4216C09B120468847E16D202000FA25
:102E900001F23A4248D02068036813F0100F43D083
:102EA000B26094F835300268052B1ED122F016026C
:102EB0000260426922F080024261226C0AB9A26C6F
:102EC0001AB1026822F0080202603F208840B06018
:102ED000012084F83500002084F83400216D002999
:102EE0005FD02046884701B0F0BD0168520312D47C
:102EF000C90515D4016821F010010160012084F892
:102F00003500002084F83400E16B59B90CE0A16C65
:102F10000029B8D1B9E7080302D4616C11B903E004
:102F2000E16B09B120468847606DD0B3606D10F049
:102F3000010F32D00521A80A84F8351021680A68EB
:102F400022F001020A60009A0132824200921ED8E9
:102F50000A6812F0010F1AD0009A013282420092E0
:102F600015D80A6812F0010F11D0009A013282427E
:102F700000920CD80A6812F0010F08D0009A0132B2
:102F80008242009203D80A6812F0010FDBD10120BF
:102F900084F83500002084F83400E16C09B1204643
:102FA000884701B0F0BD00002DE9F041044600F073
:102FB00037FF054604B346F20F412068C4F2020110
:102FC00088421DDC46F26F01C4F20201884230DC07
:102FD00046F23F01C4F20201884250DC46F2100181
:102FE000C4F20201884200F0848046F22801C4F253
:102FF000020188427DD075E00122D0B2BDE8F081A7
:1030000046F26F41C4F20201884225DC46F23F419C
:10301000C4F2020188423FDC46F21041C4F20201D0
:10302000884266D046F22841C4F20201884260D04C
:1030300058E046F29F01C4F20201884239DC46F2B0
:103040007001C4F20201884253D046F28801C4F2F2
:10305000020188424DD045E046F29F41C4F2020190
:10306000884233DC46F27041C4F20201884240D00B
:1030700046F28841C4F2020188423AD032E046F278
:103080004001C4F20201884233D046F25801C4F232
:10309000020188422DD025E046F24041C4F20201EF
:1030A000884226D046F25841C4F20201884220D01C
:1030B00018E046F2A001C4F20201884219D046F29B
:1030C000B801C4F20201884213D00BE046F2A041DD
:1030D000C4F2020188420CD046F2B841C4F20201A7
:1030E000884206D041F60560B821C0F6020012F011
:1030F00081FE6068B0F1606F0AD04FEA7060072807
:1031000006D341F60560B921C0F6020012F072FE46
:10311000A068002818BF402822D1E06840F4007061
:10312000B0F5007F2BD1206940F48060B0F5806F4E
:1031300032D16069002818BFB0F5006F39D0B0F502
:10314000805F36D041F60560BD21C0F6020012F066
:1031500051FEA069002818BFB0F5005F30D0F5E03F
:103160008028DAD041F60560BA21C0F6020012F0DC
:1031700041FEE06840F40070B0F5007FD3D041F626
:103180000560BB21C0F6020012F034FE206940F455
:103190008060B0F5806FCCD041F60560BC21C0F6F0
:1031A000020012F027FE6069002818BFB0F5006F1A
:1031B000C5D1A069002818BFB0F5005F40F0C680F7
:1031C000E069002818BF202840F0D180206A4FEA2B
:1031D0003040042806D341F60560C021C0F6020045
:1031E00012F008FE606A00B3042808D041F60560BA
:1031F000C121C0F6020012F0FDFD606AA8B1A06A0C
:10320000042880F0C680E06A4FEAF050042880F07D
:10321000CD80206B4FEA7050042806D341F605603C
:10322000C821C0F6020012F0E5FD022084F8350046
:10323000002084F834002068016821F00101016059
:10324000016811F0010F06D113E000BF206801688A
:1032500011F0010F0DD000F0E3FD401B0528F5D95A
:10326000032320210322D0B2616584F83530BDE804
:10327000F08148F23F020168D4E9013504F10C08FD
:10328000CFF2100201EA020C98E8C201D4E9072E3D
:1032900043EA0C032B431943636A31433943042B3C
:1032A00041EA080141EA020141EA0E0220D1D4E9D3
:1032B0000BE142EA0E02BEF1000F41EA0201016099
:1032C0004169A56A21F0070141EA050141F0040CBA
:1032D00014D0B8F5005F77D0B8F1000F40F08580CA
:1032E000022D00F08680012D00F0788035B980E055
:1032F0000260416921F0070141EA030C6FF00F0100
:1033000040F2FF32C0F814C0012351FA80F190431B
:103310004AF6AB22CAF6AA225F29A1FB021288BF95
:1033200040F00400110940F28D32A065C0F602029F
:10333000515C3F22E16502FA01F100228160002127
:10334000D0B2616584F83530BDE8F081B0F5804FCA
:103350003FF436AF41F60560BE21C0F6020012F020
:1033600049FDE069002818BF20283FF42FAFB0F5D1
:10337000807F3FF42BAF41F60560BF21C0F602000D
:1033800012F038FD206A4FEA30400428BFF423AF22
:1033900028E741F60560C621C0F6020012F02AFDBA
:1033A000E06A4FEAF0500428FFF433AF41F60560BD
:1033B000C721C0F6020012F01DFD206B4FEA7050CD
:1033C0000428BFF42BAF30E7032D97D80123402109
:1033D0000122DFE805F0020E0203B1E7AEF1C07191
:1033E000B1FA81F1490949B988E7032D06D37FF481
:1033F00085AFCEF3006100293FF480AF0123402167
:103400000122D0B2616584F83530BDE8F08100005A
:103410002DE9F04F81B016468846044600F000FDC5
:10342000074694F83500022823D12068006810F47C
:10343000807F28D11021B8F1000F08BF2021D4E9E6
:10344000165001FA00F9296811EA090F23D0616DBD
:1034500019B1616D11F0010F26D1B8F1000F35D00F
:10346000102101FA00F0A8600020C0B201B0BDE850
:10347000F08F002084F83400802060650120C0B205
:1034800001B0BDE8F08F4FF4807060650120C0B2DC
:1034900001B0BDE8F08F711C26D0002E48D1616DBF
:1034A00011F0010F74D0D2E72046FFF741FCE06D28
:1034B000302101FA00F00021A860012084F83500D5
:1034C00084F83410C0B201B0BDE8F08F302101FAA9
:1034D00000F0A860012084F83500002084F8340052
:1034E000C0B201B0BDE8F08F042101220823814061
:1034F00082408340676D17F0010FA8D12F683B42CF
:1035000004D0666D46F001066665AB603A4204D0B1
:10351000666D46F002066665AA60394204D0666DA3
:1035200046F004066665A96017EA090FE2D08EE747
:103530004FF0010B4FF0040A616D11F0010F7FF4A1
:1035400086AF00F06DFCC01BB04221D8E06D0821B1
:1035500001FA00F229680A4204D0636D43F00103C6
:103560006365AA600BFA00F20A4204D0636D43F06F
:1035700002036365AA600AFA00F20A4204D0636D8E
:1035800043F004036365AA6011EA090FD4D05EE733
:1035900020206065002084F83400012084F8350084
:1035A0000320C0B201B0BDE8F08F0000F0B581B0DB
:1035B0000D460746581E4FF6FF711E4614468842B8
:1035C00007D341F6056040F29D11C0F6020012F0EB
:1035D00011FC97F83400012803D10220C0B201B0D9
:1035E000F0BD012087F8340097F8350001281AD182
:1035F000022087F83500002078653968BA680B68C2
:10360000402A2A4623F480230B604E6008BF2246DE
:103610008A6008BF2C46CC600A6842F001020A604A
:10362000C0B201B0F0BD002087F834000220C0B263
:1036300001B0F0BD2DE9F0410E460446D0F85880A7
:10364000581E4FF6FF711F461546884207D341F6B4
:1036500005604FF4E671C0F6020012F0CBFB94F85F
:10366000340001283BD0012084F8340094F8350060
:10367000012831D1022084F83500002060652068DF
:10368000A16802684029314622F480220260476026
:1036900008BF29464FF03F02816008BF3546C5602C
:1036A000E16D02FA01F1C8F80810016841F0160155
:1036B0000160416941F080014161216C00291EBF18
:1036C000016841F008010160016841F001010160F9
:1036D0000020C0B2BDE8F081002084F83400022050
:1036E000C0B2BDE8F0810000B0B5044600F098FB20
:1036F000054640F27C10611CC2F20000007818BF41
:10370000044400BF00F08CFB401BA042FAD3B0BDC4
:103710002DE9F04F81B0814600F13E400D4600F1A9
:10372000FF704FEAB026092E80F0CA8041F60040B3
:103730004FF0080BC4F20200814508BF4FF0070BA1
:10374000002E40F0CF8043F600424FF6FC7E00266C
:10375000042002214FF0010A4FF00F08C4F20102C9
:10376000C7F6FF7EA2F57E7B0AFA06F72F4251D0FC
:10377000F246B408A0F1040E0EF008035BF824C072
:1037800008FA03F31CEA030F1AD15BF824209A43CA
:103790004BF8242043F60042C4F20102134612689B
:1037A000BA431A605A68BA435A609A68BA439A6030
:1037B00043F60C42C4F2010213461268BA431A607F
:1037C0008A1E03230AEA56046FEA070C03FA02F280
:1037D000D9F800304C449343C9F800300EF0180378
:1037E000D6464FF0010A276A08FA03F327EA0303D3
:1037F0002362D9F808309343C9F80830D9F8043067
:1038000003EA0C03C9F80430D9F80C3023EA0202A9
:10381000C9F80C20721C0AFA02F72F4249D000F0B6
:103820000C0308FA03FCB3085BF8234014EA0C0FFE
:103830001BD15BF8234024EA0C044BF8234043F6E9
:103840000043C4F201031C461B68BB43236063684A
:10385000BB436360A368BB43A36043F60C43C4F25D
:1038600001031C461B68BB4323600323D9F80040B7
:103870000EEA56066FEA070C8B404E449C43C9F88B
:10388000004000F01C04376A08FA04F4A7433762CA
:10389000D9F808709F43C9F80870D9F8047007EA8E
:1038A0000C07C9F80470D9F80C7027EA0303C9F8AB
:1038B0000C30561C04310830102E7FF455AFE2E076
:1038C00041F6CC504FF49871C0F6020012F092FA13
:1038D00041F600404FF0080BC4F20200814508BFDA
:1038E0004FF0070B43F60043701E042102224FF0F5
:1038F000010C0628C4F201034FF0000038BFB346A4
:10390000A3F57E7E0CFA00F818EA050F5ED05B4640
:103910008608A1F1040B0F240BF0080A5EF826704C
:103920009C4604FA0AF403FA0AF327409F421ED188
:103930005EF82630A3434EF8263043F60043C4F227
:1039400001031C461B6823EA08032360636823EA1B
:1039500008036360A36823EA0803A36043F60C43EB
:10396000C4F201031C461B6823EA08032360931E6C
:1039700003240F266FEA080804FA03F3D9F800407D
:103980009C43C9F800400BF01804E3464FF0010CCB
:1039900006FA04F44FF6FC76C7F6FF7606EA5007FF
:1039A0004F443E6A26EA04043C62D9F808409C432E
:1039B000C9F80840D9F8044004EA0804C9F80440EA
:1039C000D9F80C4024EA0303C9F80C3000F10108CF
:1039D0000CFA08F62E424FD08408AA4601F00C03D8
:1039E0000F275EF824509F400BFA03F33D409D42A1
:1039F0001AD15EF82430BB434EF8243043F600431E
:103A0000C4F201031C461B68B34323606368B343DD
:103A10006360A368B343A36043F60C43C4F201039D
:103A20001C461B68B34323600323D9F800400F25CD
:103A3000F64393409C43C9F8004001F01C0405FA8A
:103A400004F44FF6FC75C7F6FF7505EA50004844CC
:103A5000056A25EA040455460462D9F8080098432B
:103A6000C9F80800D9F804003040C9F80400D9F8B2
:103A70000C009843C9F80C0008F101000432083129
:103A800010287FF43FAF01B0BDE8F08F7047000011
:103A900043F61441C4F201010A68024214BF0860EF
:103AA0007047FFF7F3BF00002DE9F04F83B00546E4
:103AB00000F13E400C4600F1FF704FEAB026092E9F
:103AC00006D341F6CC50B321C0F6020012F092F9B1
:103AD00020680021B1EB104F01D180B230B941F61E
:103AE000CC50B421C0F6020012F084F94FF6FF71F9
:103AF0006068C1F2100188420BDC122800F22B81B1
:103B0000012101FA00F00F21C0F20601084226D17E
:103B100021E14FF6FF71C1F2210188420FDC002143
:103B2000C1F2110188421AD00021C1F2120188426B
:103B300015D00021C1F22101884210D00BE10021F3
:103B4000C1F2220188420AD00021C1F2310188422B
:103B500005D00021C1F23201884240F0FC80A0680B
:103B6000032806D341F6CC50B621C0F6020012F06D
:103B700041F941F6004008214FF0010C4FF0000BD5
:103B80004FF0000A4FF00009C4F20200854204F130
:103B9000100008BF0721072E38BF31460190009161
:103BA00020680CFA09F6304211D100BF09F1010971
:103BB0000BF1020B0AF1040AB9F1100F04BF03B0B4
:103BC000BDE8F08F20680CFA09F63042EED060684C
:103BD00040F0100112292BD101980068102806D25C
:103BE00081B24BF6FF7222FA01F1C9070AD141F600
:103BF000CC50C721C0F6020012F0FCF801984FF03B
:103C0000010C02E05AA101EB80004FF6FC730AF0B0
:103C10001C010F220068C7F6FF738A4003EA5903AC
:103C200088402B441F6A27EA02021043186260682A
:103C300003222B6800F00301122802FA0BF201FAAA
:103C40000BF123EA02036FEA020841EA030129604B
:103C500021D80CFA00F111F0061F1CD0E1680429EC
:103C60000AD341F6CC50DA21C0F6020012F0C2F8B5
:103C70006068E1684FF0010CAA6801FA0BF102EAF2
:103C800008021143A960C0F300116A6801FA09F142
:103C9000B24311436960E968A268C00001EA080103
:103CA00002FA0BF241EA0201E9607FF57FAF0020E2
:103CB0000AF00C020F23029043F644009340C4F232
:103CC00002000146006840F480400860086843F63E
:103CD0000041C4F2010100F480400F46029029F037
:103CE0000300084402994FF60841CFF6FF718E4653
:103CF00041589943009B03FA02F2114340F80E1019
:103D00003868626840EA060112F4803F08BF20EA82
:103D1000060112F4003F3960786840EA060108BFE6
:103D200020EA060112F4801F7960B86840EA0601B3
:103D300008BF20EA060143F60C4012F4001FC4F24B
:103D40000100B9600346006840EA060108BF20EAA6
:103D5000060119602AE741F6CC50B521C0F60200F1
:103D600012F048F8A0680328BFF4FCAE01E700BFDA
:103D7000000000000100000002000000030000003D
:103D8000040000000500000006000000070000001D
:103D900008000000090000000A0000000B000000FD
:103DA0000C0000000D000000000000000F000000EB
:103DB000B0B50C46054621B12869204018BF012046
:103DC000B0BD41F6CC504FF4BF71C0F6020012F006
:103DD00011F82869204018BF0120B0BD70B5164603
:103DE0000C46054621B16EB1012E0ED1AC6170BDFD
:103DF00041F6CC5040F29F11C0F6020011F0FAFFDC
:103E0000002EF1D12404AC6170BD41F6CC504FF4CA
:103E1000D071C0F6020011F0EDFFAC6170BD000082
:103E200040F27C10C2F200008068704770B586B026
:103E30000446006843F20045C4F20005816805F5B8
:103E40008066B04205914FF0402104BF43F200412B
:103E5000C4F200018A680492426803924A6802929E
:103E6000626842F40072B2F5007F40F091800599DB
:103E700011F0020F19D0039911F0800F15D0616A6B
:103E80008A1C62620988C160618D01396185618D1A
:103E900059B9416821F0A0014160608E28B9012024
:103EA00084F84100204600F0CFF9049810F0010F8B
:103EB0001FD0029810F0400F1BD02068B042284657
:103EC00018BF4FF04020C168E26A931CE362118082
:103ED000618E01396186618E59B9416821F06001B6
:103EE0004160608D28B9012084F84100204600F02F
:103EF000ABF9049810F0400F22D0029810F0200F78
:103F00001ED020682946B04218BF4FF040214A68B1
:103F100022F060024A60416821F0A0014160002166
:103F20000191C1680191806801900198012084F895
:103F30004100606C40F002006064204600F0DAF955
:103F4000059810F0080F00F09F80039810F0200FE4
:103F500000F09A8020684168B04221F0A0014160E1
:103F600018BF4FF04025696821F0600169600021A9
:103F70000191806801900198012084F84100606CF3
:103F800040F004006064204600F0B4F906B070BD53
:103F9000049810F0020F19D0029810F0800F15D07D
:103FA000606A821C62620088C860608D013860852A
:103FB000608D58B9486820F0A0004860608E28B92C
:103FC000012084F84100204600F03EF9059810F0E9
:103FD000010F1AD0039810F0400F16D02068C16866
:103FE000E26A931CE3621180618E01396186618E01
:103FF00059B9416821F060014160608D28B9012004
:1040000084F84100204600F01FF9059810F0400F99
:104010001BD0039810F0200F17D020684168B042E1
:1040200021F060014160284618BF4FF040204168F0
:1040300021F0A0014160012084F84100606C40F053
:1040400002006064204600F055F9049810F0080F53
:104050001AD0029810F0200F16D02068B04218BF76
:104060004FF04025696821F0A0016960416821F0A6
:1040700060014160012084F84100606C40F0040060
:104080006064204600F036F906B070BD2DE9F047B7
:1040900082B0044690F8410015460E46012810D122
:1040A000002E4FF0010018BF002D06D02BB127467F
:1040B00017F8400F01280DD10220C0B202B0BDE8B0
:1040C000F08704F14007022000213970C0B202B02D
:1040D000BDE8F0870120666284F84000E56221684F
:1040E000C86900F00700052803D0032808BF5B005B
:1040F00000E05B000020238563852386638648F209
:10410000695E48F2756C48F22D6360640520C0F664
:10411000000EC0F6000CC0F6000384F84100E26B0C
:10412000C2E90FECD364A06BC0E90FECC364CB69A8
:1041300003F4807343F40073B3F5007F34D143F28A
:1041400000494FF040204FF04028C4F2000909F523
:10415000806A514504BF43F20040C4F20000238E40
:1041600040F00C0110462A46FFF764FA21684FF030
:104170004020514504BF43F20040C4F200004268B1
:1041800042F00102426001F10C023146238DA06B26
:10419000FFF750FA2068416841F002014160C169AF
:1041A00011F4806F40D04CE0CA6902F44072B2F55D
:1041B000407F06D100220192CA6801928A6801926A
:1041C000019A43F200494FF04028C4F2000909F572
:1041D000806A51454FF0402104BF43F20041C4F2D0
:1041E0000001238D41F00C023146FFF723FA2168CC
:1041F0004FF04020514501F10C0104BF43F2004053
:10420000C4F20000426842F0020242602A46238E55
:10421000E06BFFF70FFA2068416841F0010141604F
:10422000C16911F4806F0CD1504508BFC846D8F859
:104230001C1041F48061C8F81C10C16941F4806110
:10424000C161002040E70000B0B543F600410068BE
:10425000C4F20001884220D140F27414C2F200047A
:10426000A078002818BFB0BD40F221000125C2F29D
:104270000000017800291CBF0121617005702570C4
:104280000CF0E0FF0B2802BF40F22200C2F2000057
:104290000570606800F580706060B0BDB0B543F631
:1042A00000410068C4F20001884221D140F2741438
:1042B000C2F20004A078002818BFB0BD40F221006F
:1042C0000125C2F20000017800291CBF01216170A4
:1042D0000570002020700CF0B5FF0B2802BF40F2E3
:1042E0002200C2F200000570606800F58070606016
:1042F000B0BD00007047000090F84100704700001A
:10430000B0B50446002800F0CC80206843F6004198
:10431000C4F2000140F48060884217D160684FEA1F
:10432000302004281FD2A0684FEA3010042827D379
:104330000B2825D041F6CC304FF48A71C0F602002C
:1043400011F058FDE06805281DD933E041F6CC3066
:104350004FF48971C0F6020011F04CFD60684FEA1D
:1043600030200428DFD341F6CC3040F21311C0F6E0
:10437000020011F03FFDA0684FEA30100428D7D2A8
:10438000E068052816D8012101FA00F010F02B0F83
:1043900010D0206940F40070B0F5007F18D160693A
:1043A000B0F5FA5F20D34EF60161C0F202018842F7
:1043B0001CD223E041F6CC3040F21511C0F60200C9
:1043C00011F018FD206940F40070B0F5007FE6D0D0
:1043D00041F6CC304FF48B71C0F6020011F00AFDAB
:1043E0006069B0F5FA5FDED2022807D041F6CC3022
:1043F00040F21711C0F6020011F0FCFCA06940F079
:10440000080008284FD1E069022857D294F84100EB
:1044100000285FD0022140F6BF7384F84110206865
:10442000C2699A43C26101626169022903D12169AB
:10443000022200235DE0D4E90201002221284FF08E
:10444000200038BF0122002908BF102000FA02F521
:10445000012000F0D7FA2169B1F5007F04D1E268AC
:10446000002A0CBFED00AD00B0FBF5F062696FF003
:10447000010300EB80004000B0FBF2F04CF6CD42AF
:104480000530CCF6CC42A0FB0202C2F3C000C0EB68
:10449000D20203EB5203FD2B28D9606C40F01000D0
:1044A00060640120B0BD41F6CC304FF48C71C0F691
:1044B000020011F09FFCE0690228A7D341F6CC303E
:1044C00040F21911C0F6020011F094FC94F841007A
:1044D00000289FD148F27D60C0F600006063002094
:1044E00084F84000204600F05FF893E7030220685C
:1044F00052081A43114340F6BF720162C169D4E900
:1045000001C3E56821EA0202A16942EA0C021A43EA
:104510002A43114341F40061C161226AF2B3012AC6
:104520000CD041F6CC304FF4DA71C0F6020011F035
:1045300061FC206A012831D1D4E9000C43F62D61D9
:104540004FF04022C0F60001616343F20041C4F223
:10455000000101F58061884240F6BF7104BF43F25B
:104560000042C4F20002D06988434CF40071D0616B
:104570000220B1F5007F1062D06914BF00214FF412
:1045800080710843D4E90213A56908434FF2FF7113
:1045900018432843084040F40060D0610020012106
:1045A000606484F84110B0BD2DE9F04F87B000275A
:1045B00040F6000504460697CDE90477CDE9027779
:1045C000C4F202050068A5F5E631884202D007B0C2
:1045D000BDE8F08F40F25C10012102260DF1080ABF
:1045E0004FF003084FF00609C4F24720016043F67C
:1045F00030000197C4F20200016941F400410161F9
:10460000016901F40041019101990197016841F0AC
:1046100001010160016801F0010101910199019717
:10462000016841F0040101605146006800F0040097
:104630000190019803964FF400400290A5F50060A8
:104640000496CDF81480CDF81890FFF72DFA4FF4AA
:10465000A05003965146029004A880E840032846E3
:10466000FFF722FA4FF40069052003965146CDF872
:104670000890CDE9046806902846FFF715FA4DF634
:10468000FC6546F210064FF0C0604FF480634FF4B3
:1046900000514FF480724FF4403B4FF0040AC2F2D5
:1046A0000005C4F20206C5E900602846C5E90277A4
:1046B000C5E90439C5E90612C5E908BAC5E90A879A
:1046C0002F63FEF771FC002818BFFCF755FC06F1BC
:1046D00078004DF65C7600214022E563AC63C2F2BF
:1046E000000686E807004FF48060F160C6E904091F
:1046F0004FF40050B0614FF48070C6E9070B3046AC
:10470000C6E909A8C6E90B11FEF74EFC002818BF40
:10471000FCF732FCA663B46307B0BDE8F08F00007D
:104720007047000070470000B0B50446002842D032
:1047300043F200012068C4F20001884206D041F62D
:1047400004409E21C0F6020011F054FB6068072867
:1047500006D341F604409F21C0F6020011F04AFB47
:10476000A068B0F5805F07D341F60440A021C0F6F1
:10477000020011F03FFBA06821684CF6CC420A60B1
:1047800045F255520A6062684A608860FFF748FB4C
:10479000054600BF2068C16839B1FFF741FB401BE7
:1047A0003028F7D90320C0B2B0BD4AF6AA21016073
:1047B0000020C0B2B0BD0120C0B2B0BD00684AF652
:1047C000AA2101600020704740F27C10C2F2000074
:1047D00001788268114481607047000080B543F61B
:1047E0000040C4F20200016841F4007101600168F8
:1047F00041F480610160016841F48071016003202F
:1048000000F0E4F8012000F005F800F025F80020A1
:1048100080BD000070B540F27C1604464FF47A71FA
:10482000C2F200063078B1FBF0F040F66C11C2F233
:1048300000010968B1FBF0F002F00EF901250F2C20
:1048400008D838B94FF0FF3021460022002500F08B
:1048500079F87460284670BD80B582B043F6400197
:1048600000200190C4F202014A6842F480424A608A
:104870004A6802F480420192019A0090086800227E
:1048800040F0805008600868012100F080500090DE
:1048900000986FF00B0000F055F86FF00A0001214E
:1048A000002200F04FF86FF009000121002200F013
:1048B00049F86FF004000121002200F043F86FF086
:1048C00003000121002200F03DF86FF001000121FA
:1048D000002202B0BDE8804000F034B8B0F1FF3FE4
:1048E00010DD00F01F010122400902FA01F14EF231
:1048F0008012CEF2000242F82010BFF34F8FBFF3B8
:104900006F8F704741F63D60CE21C0F6020011F076
:1049100071BA0000B0F1FF3F0CDD00F01F01012271
:10492000400902FA01F14EF20012CEF2000242F802
:104930002010704741F63D60BE21C0F6020011F024
:1049400059BA000070B514460D460646102A06D323
:1049500041F63D60AA21C0F6020011F04BFA102D7D
:1049600006D341F63D60AB21C0F6020011F042FAD9
:1049700006F00F014EF60C5206F16040B6F1FF3F13
:10498000A1F10401CEF20002114401F10C01C8BFF3
:1049900000F564411068C0F30220021DC31E80F0C0
:1049A0000700072A4FF0010238BF0023042828BF60
:1049B000042002FA00F09A4001380F3228402240C9
:1049C000984010430001087070BD000010B5044607
:1049D0000338052806D341F63D609221C0F6020057
:1049E00011F008FA4EF60C504FF6FF02CEF200001E
:1049F0000168114064F30A2141F0806141F0FD71CA
:104A0000016010BD01281CBF0020704743F6040060
:104A1000C4F20200416811F4000F1EBF4BF62040A3
:104A2000C0F2BE007047016841F20022C0F27A0273
:104A300011F4800F04BF42F20042C0F2F402016898
:104A400001F03F01B2FBF1F1D0F88020C2F38812EF
:104A5000D0F880005143C0F30270B1FBF0F0704712
:104A60002DE9F04182B080460068411E072909D334
:104A700041F6915040F6CD11C0F6020011F0BAF99E
:104A8000D8F8000010F0050F55D0D8F8080002380B
:104A9000062807D341F6915040F6D411C0F6020023
:104AA00011F0A8F9D8F804003238B0F5BF7F07D963
:104AB00041F6915040F6D511C0F6020011F09AF976
:104AC00068270020C4F247273860FFF7A9F947F2AA
:104AD000000605464FF4E434C4F20006305910F0E5
:104AE000006F09D0FFF79CF9401B0228F6D903207C
:104AF000C0B202B0BDE8F081D8E90101090741EA7E
:104B0000801043F67001C4F2020148610120386050
:104B1000FFF786F90546305910F0006F0BD14FF4BE
:104B2000E43400BFFFF77CF9401B02285AD8305903
:104B300010F0006FF6D098F80000800704D4002031
:104B4000C0B202B0BDE8F08140F2FF21D8F80C00FD
:104B5000C0F21001884223DC40F2FF21C0F20801BC
:104B6000884244DC40F2FF21C0F20401884276DC36
:104B700040F2FF21C0F20201884200F3C180B0F58B
:104B8000807F00F02581B0F5007F00F0218141F6A3
:104B9000915040F60621C0F6020011F02BF917E102
:104BA00040F2FF21C0F2180188423CDC40F2FF21B4
:104BB000C0F21401884267DC40F2FF21C0F212010A
:104BC000884200F3AA8040F20031C0F2100188420E
:104BD00000F0FE8040F20031C0F21101884200F086
:104BE000F780D4E70320C0B202B0BDE8F08140F204
:104BF000FF21C0F20C0188425BDC40F2FF21C0F2D1
:104C00000A01884200F3968040F20031C0F20801A8
:104C1000884200F0DD8040F20031C0F20901884294
:104C200000F0D680B3E740F2FF21C0F21C018842B9
:104C300053DC40F2FF21C0F21A01884200F3878062
:104C400040F20031C0F21801884200F0C18040F209
:104C50000031C0F21901884200F0BA8097E740F2B3
:104C6000FF21C0F2060188427EDC40F20031C0F232
:104C70000401884200F0AC8040F20031C0F205012E
:104C8000884200F0A58082E740F2FF21C0F21601C1
:104C9000884276DC40F20031C0F21401884200F014
:104CA000978040F20031C0F21501884200F09080F8
:104CB0006DE740F2FF21C0F20E0188426EDC40F247
:104CC0000031C0F20C01884200F0828040F20031D5
:104CD000C0F20D0188427BD059E740F2FF21C0F2BB
:104CE0001E01884267DC40F20031C0F21C0188429C
:104CF0006ED040F20031C0F21D01884268D046E714
:104D000040F20031C0F20201884261D040F200312D
:104D1000C0F2030188425BD039E740F20031C0F2B3
:104D20001201884254D040F20031C0F2130188428F
:104D30004ED02CE740F20031C0F20A01884247D041
:104D400040F20031C0F20B01884241D01FE740F22F
:104D50000031C0F21A0188423AD040F20031C0F26C
:104D60001B01884234D012E740F20031C0F2060144
:104D700088422DD040F20031C0F20701884227D08E
:104D800005E740F20031C0F21601884220D040F21F
:104D90000031C0F2170188421AD0F8E640F2003123
:104DA000C0F20E01884213D040F20031C0F20F0170
:104DB00088420DD0EBE640F20031C0F21E0188427D
:104DC00006D040F20031C0F21F0188427FF4DFAE0E
:104DD00043F67006002047F200040190C4F2020678
:104DE000C4F2000456F8300C40F0805046F8300C05
:104DF00056F8300C00F0805001900198206840F483
:104E000080702060FFF70CF8054600BF206810F4A2
:104E1000807F09D1FFF704F8401B0228F6D9032050
:104E2000C0B202B0BDE8F081306810F4407028D004
:104E3000D8F80C1001F44071884222D0306840F656
:104E400040610122C4F247210A60002220F4407030
:104E50000A603060306810F0010F12D0FEF7E0FFFA
:104E60000546306810F0020F0BD141F2883400BFC4
:104E7000FEF7D6FF401BA04220D8306810F0020F8A
:104E8000F6D0D8F80C004FF6FF4156F8682CC0F663
:104E9000FF7100F44073014022F4F8126FF31F30E9
:104EA000B3F5407F08BF0A4346F8682C31680843D1
:104EB00030600020C0B202B0BDE8F0810320C0B273
:104EC00002B0BDE8F08100002DE9F0410D46044636
:104ED000002800F00C81206801380F2807D341F624
:104EE00059504FF41071C0F6020010F083FF082DE6
:104EF00007D341F6595040F24121C0F6020010F0AC
:104F000079FF43F60808C4F20208D8F8F80300F065
:104F10000F00A84208D288F8F853D8F8F80300F038
:104F20000F00A84240F0E380206810F0020F1DD06F
:104F300041076FF0070242BFD8F8001041F4E0517A
:104F4000C8F80010010742BFD8F8001041F46041D2
:104F5000C8F80010A16802EB3112082A2ED2D8F846
:104F6000002022F0F0021143C8F80010C0075CD006
:104F70006068811E022916D378B301280AD041F651
:104F8000595040F26B21C0F6020010F033FF606808
:104F9000012808D158F8081C012011F4003F23D142
:104FA000C0B2BDE8F08120F00101022916D158F805
:104FB000081C11F0007F00F09A8015E04FEA3112D2
:104FC000002ACCD041F659504FF41971C0F60200B6
:104FD00010F010FF2068A168C1E7002058F8081CF5
:104FE00011F0020F00F08380D8F8001021F00301C7
:104FF0000843C8F80000FEF713FF0646D8F8000083
:10500000616800F00C00B0EB810F0ED041F28837E0
:10501000FEF706FF801BB8426DD8D8F80000616823
:1050200000F00C00B0EB810FF2D1D8F8F80300F0DB
:105030000F00A84207D988F8F853D8F8F80300F011
:105040000F00A84253D1206810F0040F1AD0E16875
:105050006FF0030202EBB122042A0CD34FEAB12213
:105060004AB141F6595040F2A921C0F6020010F0B1
:10507000C1FE2068E168D8F8002022F4E052114314
:10508000C8F8001000071AD520696FF0030101EB82
:10509000B02104290BD34FEAB02141B141F6595058
:1050A0004FF42C71C0F6020010F0A4FE2069D8F86D
:1050B000001021F4604141EAC000C8F8000000F08F
:1050C000E5F8D8F800104CF62C02C0F60102C1F346
:1050D0000311515CC84040F66C11C2F20001086037
:1050E0000120FFF797FB0020C0B2BDE8F08101204E
:1050F000C0B2BDE8F0810320C0B2BDE8F08100007D
:105100002DE9F041FEF78CFE43F600060446C4F29A
:105110000206306840F00100306000BF306810F0D7
:10512000020F05D1FEF77CFE001B0228F6D948E0ED
:10513000306840F080003060FEF772FE05460020C7
:10514000B060B768FEF76CFE044617F00C0F0BD08A
:1051500041F28838601B404533D8B768FEF760FEDF
:10516000044617F00C0FF5D1306820F45020306061
:105170003768FEF755FE054617F4003F03D0281B9D
:105180006428F5D91DE0306820F08070306000BFE1
:105190003768FEF745FE044617F0007F03D0601B1A
:1051A0000228F5D90DE0306820F08060306000BF43
:1051B000306810F0006F07D0FEF732FE001B0228A7
:1051C000F6D90320BDE8F08143F2100042F200411D
:1051D000C0F20040C0F2F401706043F20000C2F27D
:1051E0000000C6F88400F06820F4F850F060F06821
:1051F00020F40050F060F06840F41F00F060F068A8
:1052000040F40010F060706F20F001007067706F64
:1052100040F08070706740F66C10C2F200000160D0
:105220000120FFF7F7FA002818BF0120BDE8F08140
:1052300040F66C10C2F200000068704740F66C1037
:1052400043F608014CF63C02C2F20000C4F202012F
:10525000C0F6010200680968C1F38221515CC840B0
:105260007047000040F66C1043F608014CF63C0213
:10527000C2F20000C4F20201C0F60102006809682F
:10528000C1F34231515CC8407047000010B543F68D
:105290000404C4F20204606800F00C0142F2004011
:1052A000C0F2F400082907D0042918BF10BD41F24C
:1052B0000020C0F27A0010BD2168236801F03F028F
:1052C000216813F4800FC1F3881105D1A1FB0001FF
:1052D0000023FAF775FF06E041F20020C0F27A00E1
:1052E0004843B0FBF2F021680222C1F3014102EB16
:1052F0004101B0FBF1F010BD2DE9F04381B004464F
:1053000068B32068102807D341F65950E821C0F649
:10531000020010F06FFD206843F6000943F67007A5
:10532000C007C4F20209C4F202077CD060680028FA
:1053300018BFB0F5803F17D157F8680C00F00C008B
:10534000042821D1D9F8000010F4003F6BD0606828
:10535000002868D10125E8B201B0BDE8F08301253D
:10536000E8B201B0BDE8F083B0F5A02FE4D041F67B
:105370005950ED21C0F6020010F03CFD57F8680CC2
:1053800000F00C000428DDD057F8680C00F00C0089
:10539000082804D157F86C0C10F4800FD2D166683D
:1053A000B6F5803F08D0D9F80000B6F5A02F1CD183
:1053B00040F48020C9F80000D9F8000040F48030A3
:1053C000C9F80000FEF72CFD054600BFD9F8000023
:1053D00010F4003F27D1FEF723FD401B6428F5D9C8
:1053E0000325E8B201B0BDE8F08320F48030C9F8AD
:1053F0000000D9F8000020F48020C9F80000FEF772
:105400000FFD0546002EE1D1D9F8000010F4003F51
:1054100009D0FEF705FD401B6428F5D90325E8B245
:1054200001B0BDE8F083207880075CD5E0680228F1
:105430002FD22069202837D257F8680C10F00C0FB3
:105440003FD057F8680C00F00C00082804D157F83A
:105450006C0C10F4800F34D0E1686020C4F2472057
:10546000002900F07E81012140F8601CFEF7D8FC85
:10547000054600BFD9F8000010F0020F2AD1FEF750
:10548000CFFC401B0228F5D90325E8B201B0BDE8E6
:10549000F08341F6595040F21F11C0F6020010F09F
:1054A000A9FC20692028C7D341F659504FF49071C8
:1054B000C0F6020010F09EFC57F8680C10F00C0FBC
:1054C000BFD1D9F8000010F0020F03D0E068012826
:1054D00040F0AF81D9F80000216920F0F80040EADF
:1054E000C100C9F800002078000739D5606960253F
:1054F000C4F2472500B3012809D041F659504FF4B2
:10550000B071C0F6020010F075FC6069A0B1012016
:10551000C5F8200EFEF784FC054600BF786810F041
:10552000020F1DD1FEF77CFC401B0228F6D9032593
:10553000E8B201B0BDE8F0830020C5F8200EFEF708
:105540006FFC0546786810F0020F09D0FEF768FC82
:10555000401B0228F6D90325E8B201B0BDE8F0836C
:10556000207840076DD5A068052800F2E980012168
:1055700001FA00F010F0230F00F0E28057F8300C31
:105580004FF0000810F0805F0FD1CDF800804FF091
:10559000010857F8300C40F0805047F8300C57F8AD
:1055A000300C00F080500090009843F60006CFF6D3
:1055B000FE7659F8060010F4807F18D159F80600DD
:1055C00040F4807049F80600FEF72AFC054600BF4B
:1055D00059F8060010F4807F09D1FEF721FC401B2A
:1055E0000228F5D90325E8B201B0BDE8F083A6682A
:1055F000012E06D03868052E40F0CA8040F0040025
:105600003860386840F001003860FEF709FC054654
:10561000386810F0020F0BD141F28836FEF700FC1B
:10562000401BB04200F2D280386810F0020FF5D073
:10563000B8F1000F1EBF57F8300C20F0805047F82B
:10564000300CA069411E022911D320B90025E8B20F
:1056500001B0BDE8F08341F6595040F2CF11C0F6D9
:10566000020010F0C7FBA069002800F0E78057F89F
:10567000681C01F00C01082904D10125E8B201B031
:10568000BDE8F083022840D1E06940F48000B0F525
:10569000800F40F0D880206A402880F0E080606A67
:1056A0003238B0F5BF7F00F2E880A06A082800F227
:1056B000F080012101FA00F010F4AA7F00F0E980E7
:1056C000E06A02380E2807D341F659504FF4EE71C4
:1056D000C0F6020010F08EFB40F260080020C4F219
:1056E0004728C8F80000FEF79BFB0546D9F80000E4
:1056F00010F0007F6FD0FEF793FB401B0228F5D916
:105700000325E8B201B0BDE8F08360200025C4F2B3
:1057100047200560FEF784FB0446D9F8000010F02E
:10572000007F00F087800025FEF77AFB001B03282E
:1057300080F0BD80D9F8000010F0007FF4D179E04E
:1057400041F659504FF4C671C0F6020010F052FBFA
:1057500057F8300C4FF0000810F0805F3FF415AFA1
:1057600023E7002140F8601CFEF75AFB054600BF06
:10577000D9F8000010F0020F3FF4B5AEFEF750FB71
:10578000401B0228F4D90325E8B201B0BDE8F0833C
:1057900020F001003860386820F004003860FEF71F
:1057A0003FFB0546002E7FF433AF386810F0020F40
:1057B0003FF43EAF41F28836FEF732FB401BB04269
:1057C0007AD8386810F0020FF6D131E70325E8B235
:1057D00001B0BDE8F08304F11C064FCE0843D903A5
:1057E00040EA82104FF6FF72914340EA0660A1F54D
:1057F0008031084347F86C0C0120C8F80000FEF720
:105800000FFB0446D9F80000002510F0007F06D0F9
:1058100010E000BFD9F8000010F0007F0AD1FEF7B9
:10582000FFFA001B0228F5D90325E8B201B0BDE854
:10583000F0830125E8B201B0BDE8F0830025E8B2AD
:1058400001B0BDE8F08341F659504FF4EC71C0F659
:10585000020010F0CFFA206A4028FFF420AF41F692
:10586000595040F2D911C0F6020010F0C3FA606A34
:105870003238B0F5BF7F7FF618AF41F659504FF47C
:10588000ED71C0F6020010F0B5FAA06A08287FF6A4
:1058900010AF41F6595040F2DB11C0F6020010F093
:1058A000A9FAE06A02380E28BFF40EAF14E7032508
:1058B000E8B201B0BDE8F0830325E8B201B0BDE86D
:1058C000F083000070B504460220CA21607720688A
:1058D000416253214162C16811F0400F12D14FF073
:1058E000FF31C160FEF79CFA05462068C16811F0DF
:1058F000400F07D1FEF794FA411B2068B1F57A7F7B
:10590000F4D94AE0002642F2011106604160816844
:1059100001F007018160FEF783FA05462068014621
:1059200051F80C2F12F0040F0DD100BFFEF778FADA
:10593000411B2068B1F57A7F40D8C16811F0040F8F
:10594000F4D000F10C01826886604FF6FF7242616C
:10595000FF22C0F27F0202618661C6610662C662F2
:10596000C66346648664C6600664826812F0200FCF
:105970001AD1086820F0A0000860FEF751FA054629
:10598000206800BFC16811F0200F0DD1FEF748FA62
:10599000411B2068B1F57A7FF4D9FF2141620420D0
:1059A00060770120C0B270BDFF214162204600F047
:1059B000F5F8002020776077C0B270BDFF2141620A
:1059C00003206077C0B270BDB0B50446002804BFA4
:1059D0000120B0BD606840F04000402840F0918058
:1059E000A068802880F09880E068B0F5004F80F0D3
:1059F0009F8020694FEA7050042880F0A68060697B
:105A000040F48010B0F5801F40F0AD80A06940F4F4
:105A10008020B0F5802F40F0B480607F20B9002056
:105A20002077204600F0CAF802206077CA2021685B
:105A3000486253204862084650F80C2F12F0400F7D
:105A400019D14FF0FF310160FEF7EAF921680546F0
:105A5000084650F80C2F12F0400F0CD1FEF7E0F979
:105A6000401B2168B0F57A7F37D8C86810F0400F26
:105A7000F4D001F10C004FF6BF738A68CFF68F7334
:105A80001A408A606268D4E904351A438B682A4355
:105A90001A438A60E2680A61A2680B6943EA02421B
:105AA0000A61CA6822F08002CA608A6812F0200F78
:105AB00019D1016821F0A0010160FEF7B1F9216858
:105AC000054600BFC86810F0200F0CD1FEF7A8F9FA
:105AD000401B2168B0F57A7FF4D901200422FF230E
