:020000040800F2
:10000000B8AE00205D020008B7700008B7530008C2
:10001000B57000087B2300083D8100080000000047
:1000200000000000000000000000000057750008FC
:100030003924000800000000D97000086979000820
:1000400077020008770200087702000877020008AC
:10005000770200087702000877020008770200089C
:10006000B525000877020008D52500087D23000883
:10007000770200087702000877020008770200087C
:100080008923000877020008770200087702000839
:10009000770200087702000877020008FD250008B3
:1000A000770200087702000877020008770200084C
:1000B00077020008770200086D7A000877020008CE
:1000C000770200087702000877020008770200082C
:1000D000770200087702000877020008770200081C
:1000E00089250008770200087702000877020008D7
:1000F00077020008770200087702000877020008FC
:100100007702000877020008917A00087702000859
:100110007702000877020008D57A00087702000805
:1001200077020008770200087702000877020008CB
:1001300077020008770200087702000877020008BB
:1001400077020008770200087702000877020008AB
:10015000770200087702000877020008770200089B
:10016000770200087702000877020008770200088B
:1001700077020008770200087702000800000000FC
:1001800077020008770200084B1C012B98BF7047CC
:100190002DE9F003911C9B08B1F80480B1F802909E
:1001A0000A8831F802CC8044814402448444D9F85E
:1001B0000070D8F800601568DCF80040C9F80060ED
:1001C000C8F80070CCF800501460D9F80470D8F862
:1001D00004605568DCF80440C9F80460C8F804708D
:1001E000CCF80450546008315B1ED5D1BDE8F00353
:1001F00070474B1C012B98BF70472DE9F003911CF1
:100200009B08B1F80480B1F802900A8831F802CC5A
:1002100000EB580800EB590900EB520200EB5C0CB4
:10022000D9F80070D8F800601568DCF80040C9F80B
:100230000060C8F80070CCF80050146008315B1EF4
:10024000DFD1BDE8F0037047DFF80CD002F046F8CC
:10025000004800474D9E0008B8AE00200648804781
:1002600006480047FEE7FEE7FEE7FEE7FEE7FEE79B
:10027000FEE7FEE7FEE7FEE7197A000849020008FC
:1002800093081BD090ED000AD0ED011AD0ED020AC0
:1002900090ED031AB0EEC00A81ED000AF0EEE11A0B
:1002A000B0EEE00AC1ED011AF0EEC10A81ED020ADA
:1002B000C1ED030A103010315B1EE3D112F00302CE
:1002C00008BF7047B2F1004F23D2002AD8BF704751
:1002D000001F091F12F0010F07D090ED010A001D49
:1002E000B0EEC00A81ED010A091D520808BF70472F
:1002F00090ED010AB0EEC00A81ED010A90ED020A0C
:100300000830B0EEC00A81ED020A0831521EEFD16A
:100310007047B0EC010A521EB0EEC00AA1EC010A0F
:10032000F7D170475FEA930C26D000BFD0ED003ABA
:1003300091ED001AD0ED010A91ED013A33EE811AE8
:10034000D0ED022A70EE830A91ED022A90ED030AA5
:10035000D1ED031A82ED001AC2ED010A72EE820A93
:1003600030EE210A1030C2ED020A82ED030A10318C
:100370001032BCF1010CD9D113F0030308BF704750
:10038000B3F1004F2CD2002BD8BF7047001F091FBC
:10039000121F13F0010F0AD090ED010AD1ED010AEE
:1003A000001D091D30EE200A82ED010A121D5B08B6
:1003B00008BF704790ED010AD1ED010A30EE200A26
:1003C00082ED010A90ED020AD1ED020A08300831EF
:1003D00030EE200A82ED020A08325B1EEAD1704735
:1003E000B0EC010A5B1EF1EC010A30EE200AA2EC2F
:1003F000010AF5D170470000930814D090ED032A4C
:10040000D0ED000A90ED011AD0ED021A22EE002A7A
:1004100060EE800A21EE001A61EE801AE1EC040A17
:1004200010305B1EEAD112F0030208BF7047B2F130
:10043000004F24D2002AD8BF7047001F091F12F0B6
:10044000010F07D0D0ED010A001D60EE800AC1ED5A
:10045000010A091D520808BF704700BFD0ED010A0C
:1004600060EE800AC1ED010AD0ED020A083060EEAC
:10047000800AC1ED020A0831521EEFD17047F0EC3C
:10048000010A521E60EE800AE1EC010AF7D17047C2
:100490005FEA930C26D000BFD0ED003A91ED001A30
:1004A000D0ED010A91ED013A33EEC11AD0ED022AE6
:1004B00070EEC30A91ED022A90ED030AD1ED031A02
:1004C00082ED001AC2ED010A72EEC20A30EE610A34
:1004D0001030C2ED020A82ED030A10311032BCF175
:1004E000010CD9D113F0030308BF7047B3F1004FDB
:1004F0002CD2002BD8BF7047001F091F121F13F00A
:10050000010F0AD090ED010AD1ED010A001D091D6D
:1005100030EE600A82ED010A121D5B0808BF7047C9
:1005200090ED010AD1ED010A30EE600A82ED010A78
:1005300090ED020AD1ED020A0830083130EE600A6F
:1005400082ED020A08325B1EEAD17047B0EC010A64
:100550005B1EF1EC010A30EE600AA2EC010AF5D153
:10056000704700009FED1A1AF5EE000A40EE010AEE
:10057000BDEEE00AF5EEC00A10EE100AF1EE10FA38
:1005800038BF401E00EE100A1349F7EE001AB8EE0D
:10059000C00A30EEC00ADFED0F0A20EE200AFCEEA2
:1005A000C00A10EE900AC0F3080000EE900A01EBBA
:1005B0008000F8EE600A90ED011A70EE600A90ED8E
:1005C000000A71EEE01A21EE800A00EE810A7047FF
:1005D00083F9223E0000004488C40008930833D009
:1005E00090ED000AD0ED010A90ED031A60EE002AAA
:1005F00090ED020A20EEA02AD0ED040A60EE001A67
:1006000090ED050A21EE013A20EEA01A60EE000AF4
:1006100032EE822A90ED060AD0ED072A71EE831A97
:1006200020EE000A62EEA22A71EE200A81ED002A75
:10063000C1ED011A30EE220AC1ED020A203081ED2F
:10064000030A10315B1ECBD112F0030208BF7047C2
:10065000B2F1004F2FD2002AD8BF70470838091FC7
:1006600012F0010F0BD090ED020A60EE000A90ED3F
:10067000030A083040EE000AC1ED010A091D5208C4
:1006800008BF704790ED020A60EE000A90ED030A81
:1006900040EE000AC1ED010A90ED040A60EE000A86
:1006A00090ED050A103040EE000AC1ED020A083153
:1006B000521EE7D17047D0ED000A90ED010A0830D4
:1006C00060EEA00A521E40EE000AE1EC010AF2D1EF
:1006D000704700002DE9F00F6FF003042DED0C8B37
:1006E0005FEAD30AD0E901C7B0F8009004EB8904AF
:1006F0000CEB04089FEDFE9A18BF4FEAD90B00F0EF
:10070000C18100BF91ED000AB0EE493A88ED000AC0
:1007100091ED010AF0EE430A88ED010A91ED020A1B
:10072000B0EE431A88ED020A91ED030AF0EE431A87
:1007300088ED030A91ED040AB0EE432A88ED040A1D
:1007400091ED050AF0EE432A88ED050A91ED060ABF
:10075000F0EE433A88ED060A91ED070A203188ED64
:10076000070ADCED007A9CED017ADCED026A9CED73
:10077000036ADCED045A9CED055ADCED064AB0EE46
:10078000434A3D460CF11C0408F120085FEA0B06C1
:1007900000F02681D5ED008A94ED008A26EE280A25
:1007A00065EEA89A25EE28AA27EEA8BA64EEA8AAB4
:1007B00067EE28BA26EEA8CA68EE28CAD5ED018AE7
:1007C00032EE000A32EEA92A73EE0A2A30EE8BBA14
:1007D00033EEAA3AD5ED020A74EE2C3A71EE8C1A79
:1007E000D4ED017A31EE2B1A27EE28DA26EEA8CACC
:1007F00066EE28BA25EEA84A65EE289A24EEA8AA45
:1008000068EE28AA67EEA8CA94ED027A7BEE0D8AFC
:1008100031EE0C1A71EEAB1A30EE040A32EE292AD0
:1008200072EE8A2A33EE2A3A73EEAC3A66EEA0CA2A
:1008300066EE20BA65EEA09A25EE20AA24EEA04A24
:1008400068EE20AA27EEA0BA27EE20CAD5ED030A4B
:10085000D4ED036A30EE0A0A32EE042A78EEAC8A4E
:1008600031EE2B1A71EEA91A72EEAA2A33EE0B3A68
:1008700073EE8C3A66EE20CA65EEA0BA65EE209A59
:1008800024EEA04A28EE20AA67EEA0AA27EE20BAFE
:1008900026EEA0CAD5ED040A78EEAC8A31EE2B1A0A
:1008A00071EEA91A30EE040A32EE0A2A72EEAA2A72
:1008B00033EE0B3A73EE8C3A65EEA0CA94ED046AFF
:1008C00065EE20BA24EEA0BA28EE204A67EEA09A80
:1008D00027EE20AA66EEA0AA26EE20CAD5ED050ACC
:1008E000D4ED055A31EE2B1A71EE8B1A78EEAC8AE4
:1008F00030EE040A32EE292A72EE8A2A33EE2A3AC0
:1009000073EE8C3A65EE20CA24EEA0BA68EE20BAE7
:1009100027EEA04A67EE209A26EEA0AA66EE20AA4D
:1009200025EEA0CAD5ED060A30EE040A32EE292AD9
:1009300027EE204A94ED065A72EE8A2A66EEA09AB5
:1009400078EEAC8A31EE0B1A71EEAB1A33EE2A3A1E
:1009500073EE8C3A26EE20AA65EEA0AA64EEA0BA49
:1009600028EE20CA27EEA0BA65EE20CAD5ED070A08
:1009700030EE040A32EE294A72EE8A9A33EE2AAA3F
:10098000D4ED074A31EE0C1A78EEAB8A28EE20CA75
:1009900071EE8B1A73EEACAA66EE202A67EEA0BA4F
:1009A00027EE20BA26EEA02A25EEA03A65EE203AE0
:1009B00024EEA08A74EE222A78EE8C0A31EE2B1AED
:1009C00071EE8B1A30EE022A39EE833A7AEE233A30
:1009D0003AEE884A20342035761E7FF4DBAE00BF25
:1009E00019F0070636D000BF95ED008A94ED000A95
:1009F000241D67EE889A67EE088A26EE88AA66EEBE
:100A000008AA25EE88BA65EE08BA24EE88CA20EE58
:100A1000088AF0EE477AB0EE667AF0EE466AB0EEFB
:100A2000656AF0EE455A70EEA90A31EE281A71EEA9
:100A30008A1A32EE2A2A72EE8B2A33EE2B3A73EEA2
:100A40008C3A34EE084AB0EE645A2D1DF0EE404A5E
:100A5000761EC9D1C2ED000A82ED011AC2ED021A5A
:100A600082ED032AC2ED042A82ED053AC2ED063A70
:100A700082ED074A2032BAF1010A0CF1200C7FF412
:100A800041AE00BF13F0070A43D000BFB1EC010A2A
:100A90003E1D0CF10404B9F10103A8EC010ADCEDE0
:100AA000000A97ED001AB0EE490A00EE810A29D03B
:100AB000B3F1004F7DD2002B24DD251F341F13F02E
:100AC000010F07D0D5ED010A94ED011A241D2D1D4B
:100AD00000EE810A5B1015D0D5ED010A94ED011AE4
:100AE00000EE810AD5ED020A94ED021A02E0000040
:100AF0000000000000EE810A5B1E04F1080405F10D
:100B00000805E9D1A2EC010ABAF1010A0CF1040CC2
:100B1000BCD14068A9F10104A3081FD0B3F1004F74
:100B200054D2002B1ADD624601461D4692ED000AA2
:100B300081ED000A92ED010A81ED010A92ED020AAF
:100B400081ED020A92ED030A103281ED030A1031A1
:100B50006D1EEBD10CEB031C00EB031014F0030231
:100B600002BFBDEC0C8BBDE8F00F7047B2F1004F37
:100B700042D2002A1ADD001FACF1040112F0010F6D
:100B800005D091ED010A80ED010A001D091D5208F2
:100B90000CD000BF91ED010A80ED010A91ED020A2F
:100BA000083180ED020A0830521EF3D1BDEC0C8BE7
:100BB00000E002E0BDE8F00F7047F4EC010A5B1EB4
:100BC000B6EC011A00EE810AF7D19BE79CED000A12
:100BD00080ED000A9CED010A80ED010A9CED020AFD
:100BE00080ED020A9CED030A0CF1100C80ED030A63
:100BF00010305B1EEAD1B1E7BCEC010A521EA0EC3A
:100C0000010AF9D1D2E770B504460498218008445E
:100C10008000011F1D461846A26000F0E5FF6560D8
:100C200070BD00002DE9FF4F81B00788DDF81090FE
:100C3000D0F80480B9F1000F7ED0DFED884ABB0800
:100C4000CDF80030D0E90254009EC446B1EC010A50
:100C50006346F0EE640A002E47D000BFDCED002AA8
:100C6000D5ED001A95ED014A9CED012A01EEE20A4C
:100C7000D4ED003AD4ED015A95ED025AB0EE401A87
:100C800041EE802A04EE421AC3ED002ADCED021A7E
:100C9000B0EE413A42EEA30A05EE611A04EE032AD1
:100CA000DCED032A95ED033A10350CF1100CF0EE53
:100CB000413A42EE250AB0EE630A45EE231A03EEEE
:100CC000620A83ED012A94ED021AC3ED021A41EE85
:100CD000810A40EE032A94ED031A1034C3ED032A6F
:100CE00042EE810A1033761EB8D117F003061ED0EB
:100CF000B6F1004F7ED2002E19DDE346A4469A4697
:100D00004FEA060EF5EC011ABEF1010EBBEC011A1A
:100D100001EEC10A00EE211AFCEC011AAAEC011A3C
:100D200041EE210AEED104EB860403EB860394ED39
:100D3000001A40EE010A00E009E083ED000A08F124
:100D40000408E2EC010AB9F101097FF47BAF4068C5
:100D50000499BB0800EB810121D0B3F1004F5FD2B1
:100D6000002B1CDD8C4602464FEA03049CED000A72
:100D700082ED000A9CED010A82ED010A9CED020A57
:100D800082ED020A9CED030A0CF1100C82ED030ABD
:100D90001032641EEAD101EB031100EB031017F0CF
:100DA000030204BF05B0BDE8F08FB2F1004F4CD292
:100DB000002ADCBF05B0BDE8F08F001F091F12F04C
:100DC000010F05D091ED010A80ED010A001D091DFA
:100DD000520804BF05B0BDE8F08F00BF91ED010AD5
:100DE00080ED010A91ED020A083180ED020A083017
:100DF000521E00E003E0F1D105B0BDE8F08FBCEC7D
:100E0000011A761EF5EC011A01EEC10A00EE211A54
:100E1000F4EC011AA3EC011A41EE210AEFD186E7A6
:100E200091ED000A80ED000A91ED010A80ED010AC2
:100E300091ED020A80ED020A91ED030A103180ED76
:100E4000030A10305B1EEBD1A9E7B1EC010A521E78
:100E5000A0EC010AF9D105B0BDE8F08F0000000058
:100E600070B50446DDE9045021800844810028461D
:100E7000C4E9022300F0B8FE656070BD2DE9F041C1
:100E800006462DED028B8C460088736801EB8004CA
:100E90004508274601EB850004EB85025FEA9508CB
:100EA0007DD000BFD1ED003AD4ED001A91ED012ABA
:100EB00094ED013A73EEA16A91ED024A91ED031AA5
:100EC000D4ED022AD4ED035A90ED008A90ED017A18
:100ED00090ED020A90ED036A92ED005AD2ED014ABC
:100EE000D2ED027AD2ED030AC1ED006A72EE036A16
:100EF00073EEE13A74EEC71AC1ED016A74EE226A2C
:100F000074EE622A37EEC04AC1ED026A71EE256ABC
:100F1000C1ED036A72EE436A31EE652A38EE051AB6
:100F200035EE483A80ED001A37EE241A80ED011AAA
:100F300030EE271A80ED021A36EE201A80ED031AE1
:100F400030EEC61A93ED000AD3ED010A63EE804A33
:100F500026EEA05A66EE805A63EEA03A74EE854AF9
:100F600075EEE33AC4ED004A63EE204AC4ED013A5F
:100F700061EE803A61EEA00A23EE000A74EEE31AF5
:100F800030EE800AC2ED001A82ED010A93ED020AEA
:100F9000D3ED030A62EE803A22EE203A00E024E02C
:100FA00062EEA01A22EE002A73EE832A103010316E
:100FB00072EE611AC4ED022A24EE202AC4ED031A4F
:100FC00061EE001A61EE200A24EE000A103332EEC0
:100FD000611A103430EE800A82ED021A82ED030AA3
:100FE0001032B8F101087FF45DAF29460223604654
:100FF000726800F041FB72682946BDEC028B3846EE
:10100000BDE8F041022300F037BB2DE9F34F2DED91
:10101000048B87B00B980088470801EB870000EB32
:10102000870606EB8705CDE90056DDF82C80A5F193
:10103000040C0CEB8703CDE902014FEA5709D8F8FD
:1010400004800427CDE90497D1ED000A96ED000A4B
:1010500090ED011A95ED013A70EE802A70EEC03ADB
:10106000D1ED010A96ED010A041F321F30EE802AED
:1010700070EEC01A31EE230AD0ED000A32EE415A6A
:1010800033EEC11A30EE434A71EEE04A95ED000AA4
:1010900070EEA11A35EE435A74EE805A72EEE04AB1
:1010A00070EEA20A71EEC01A31EE031A74EEC04A55
:1010B00030EE800A062708F1080A81ED000A90ED5B
:1010C000010AD5ED010A08F1100B30EE020A08F111
:1010D000180830EE200A81ED010A80ED004AC0EDCB
:1010E000015AC6ED004A86ED015A85ED001AC5ED9C
:1010F000011ADDF810900830083108350836A9F1DA
:1011000002095FEA590900F0078100BFD1ED000A2A
:1011100096ED000AD0ED011AD5ED014A30EE802A95
:1011200030EEC05AD1ED010A96ED010A70EE802A28
:1011300030EEC01A31EE850AD5ED000A30EE644A71
:1011400090ED000A31EE403A30EE011A73EE205A6B
:1011500032EE403A30EE020A31EE601A73EE603A37
:1011600030EE200A32EEE13A75EE611A81ED000AA6
:1011700090ED010AD5ED010A33EE643A30EE220A11
:1011800071EEA41A30EE200A81ED010AD4ED002A96
:10119000DCED004A54ED010A1CED010A32EEA47A9E
:1011A00032EEE49A72EEE42A52ED018A70EE807A11
:1011B00030EEC02A72EEE82AD2ED000A93ED000A62
:1011C00013ED018A30EEC05A72EE886A77EEE82A93
:1011D00035EE026A32EEC85A77EE602A72EEC04AE5
:1011E00070EEC02A70EE870A72EEC22A30EE800AD4
:1011F00038EE682A84ED000A12ED010A53ED010A67
:1012000032EE492A30EE270A30EE200A04ED010AB8
:101210009AED000ADAED010A64EE007A25EEA07A72
:1012200065EE805A24EE204A37EE877A35EEC44ABE
:1012300080ED007A80ED014A26EEA04A66EE005A63
:1012400066EE200A26EE800A083034EE654A083140
:1012500030EE800A82ED004A083C02ED010A9BED67
:10126000000ADBED010ADDF814E023EE804A63EEAC
:10127000205A23EE003A63EEA03A083A34EE254AAB
:101280000BEB8E0B33EE633A86ED004A0AF1080A47
:1012900086ED013AB1EE643A083663EE003A25EE87
:1012A000203A25EE000A64EEA00A33EEC33A30EE8F
:1012B000C00A8CED003A0CED010A98ED000AD8ED59
:1012C000010A08EB870861EE803A21EE203A21EE10
:1012D000001A61EEA01AACF1080C33EE833A31EE3D
:1012E000611A85ED003A62EE801A85ED011A22EE50
:1012F000201A62EEA00A22EE000A083531EE611AC9
:1013000030EE800A83ED001A03ED010A083BB9F1C3
:1013100001097FF4FBAE00BFD1ED000A96ED000A93
:1013200091ED011AD0ED015A30EE802A70EEC00A1C
:1013300096ED010A95ED015A042371EE001A71EE43
:10134000404A35EEA00A90ED001A31EEE54A70EE03
:10135000E50A30EE453A95ED000A34EE454A30EEA6
:10136000855A74EEC12A72EE413A71EE240A31EECA
:10137000021A72EE802A73EEC03A70EEC00A31EEA5
:10138000000A81ED000A90ED010A95ED011A30EE98
:10139000210A30EE010A81ED010A9AED000A9AED68
:1013A000011A63EE001A22EE812A22EE800A23EE51
:1013B000011A71EE821A30EE410AC0ED001A80ED7A
:1013C000010A9BED000A9BED011A63EE801A24EEE0
:1013D000012A24EE000A23EE811A71EE821A30EE01
:1013E000410AC6ED001A86ED010A98ED010A98ED52
:1013F000001A60EE801A25EE012A60EE810A25EEC1
:10140000000A32EE211A30EEC00A85ED001A85ED91
:10141000010A0B984268DDE9030100F02DF90B98F1
:10142000042304994268029800F026F90B980423DB
:1014300004994268019800F01FF90B98049904235D
:101440004268009807B0BDEC048B02B0BDE8F04FD5
:1014500000F012B92DE9F0410488984617460D4670
:101460000646012A20D1281DF4B1A0F1080114F08C
:10147000010F06D091ED020AB1EE400A81ED020A99
:1014800008315FEA540C0FD091ED020AB1EE400A28
:1014900081ED020A91ED040AB1EE400A81ED040AE1
:1014A0001031BCF1010CEFD1B4F5807F1BD008DC0A
:1014B000102C13D0202C16D0402C19D0802C0DD0FD
:1014C0001CE0B4F5007F13D0B4F5806F06D0B4F5FE
:1014D000006F08D0B4F5805F0AD00FE0294630468F
:1014E000FFF7CCFC0AE029463046FFF78EFD05E009
:1014F000214601232846726800F0BEF8B8F1000FBB
:1015000004D0B1892846B268FEF73EFE012F18BF0D
:10151000BDE8F08100EE104AB7EE001A002CF8EE9C
:10152000400A81EE200A08BFBDE8F081A5F108005D
:1015300014F0010F0ED0D0ED020A60EE800AC0ED6B
:10154000020AD0ED030AF1EE600A60EE800AC0EDF7
:10155000030A0830610808BFBDE8F081D0ED020A37
:1015600060EE800AC0ED020AD0ED030AF1EE600AD7
:1015700060EE800AC0ED030AD0ED040A60EE800A36
:10158000C0ED040AD0ED050AF1EE600A60EE800AB3
:10159000C0ED050A1030491EE0D1BDE8F081000021
:1015A00070B44FF0000CB0EC010A4E1E6446B50852
:1015B00032D000BFD0ED000A90ED011A0830B4EE31
:1015C000E00AF1EE10FA3CBFB0EE600A0CF1010443
:1015D000B4EEC10AF1EE10FA3CBFB0EE410A0CF1D4
:1015E0000204D0ED000A90ED011A0830B4EEE00AD2
:1015F000F1EE10FA3CBFB0EE600A0CF10304B4EE59
:10160000C10AF1EE10FA3CBFB0EE410A0CF104043D
:101610006D1E0CF1040CCDD116F0030C18D0BCF1EA
:10162000004F1AD2BCF1000FC4BF002566460FDD83
:10163000D0ED000AF4EEC00AF1EE10FA04DD4C1908
:10164000B0EE600AA4EB0C04001D6D1C761EEFD1F9
:1016500082ED000A1C6070BC7047F0EC010AB4EE29
:10166000E00AF1EE10FA3CBFB0EE600AA1EB0C0408
:10167000BCF1010CF1D1EBE72DE9FF4F2DED108B03
:1016800082B09FEDFEFA0B461C46DB084FF0000CC3
:101690000CEB030505EB030808EB030909EB030654
:1016A00006EB030A00EBCC0700EBC60697ED001A29
:1016B000D6ED000A0AEB030B00EBC50500EBCA0AE6
:1016C00031EE200A71EE601A95ED002ADAED000A7B
:1016D0000BEB030E00EBC80832EE201A00EBCB0B2D
:1016E00032EE602AD8ED002ADBED000A00EBC909D2
:1016F00000EBCE0E99ED003A9EED004A72EEA03A54
:1017000072EEE02A73EE040A33EE443A70EE636A36
:1017100070EE233A31EE600A71EE200A33EEA01A21
:1017200073EEE00A87ED001AC6ED000A97ED011A84
:10173000D6ED010AD5ED013A98ED014A31EE206A65
:1017400071EE600A9AED011A99ED015A73EE814A21
:1017500073EEC13A9BED011A34EE017A34EE411A70
:101760009EED014A75EE045A35EE444A36EE475A6C
:1017700036EE076A34EEE57A74EEA54A76EE245A20
:1017800076EE644AC7ED015AC6ED014A76EE874A05
:10179000C8ED004A76EEC74ACBED004A75EE404AE6
:1017A00035EE000AC8ED014A8BED010A32EE430A1C
:1017B00032EE032A20EE0F0A62EE0F4A33EEC42AFD
:1017C000A4448C4522EE0F3A33EE842A30EEC34A0D
:1017D00062EE0F3A30EE833A31EEC02A31EE800AE3
:1017E00071EE630A31EE231A72EEE41A72EEA42A45
:1017F00070EE013A30EE410AC5ED003A8EED000A76
:1018000032EE200A8AED000A32EE600A89ED000A03
:1018100033EE620A85ED010A33EE220A8EED010AEB
:1018200034EE610A8AED010A34EE210A89ED010ADB
:10183000FFF42EAF082B3FBF02B0BDEC108B04B0FD
:10184000BDE8F08F4FF0000CCDF804C04FF0010C54
:10185000CDF800C0DDF804C0159DAC444FEA8C05FE
:1018600005EB0C07CDF804C007EB0C094FEA4C0858
:1018700008EB0C0609EB0C0A02EBCC0C02EBC808D7
:1018800002EBC60602EBC50502EBC70702EBC9096E
:1018900002EBCA0A9CED00DA9CED018AD8ED00CA81
:1018A00096ED00CAD5ED00BA97ED00BAD9ED00AAC1
:1018B000DAED008AD8ED017A96ED01AA95ED017A6C
:1018C000D7ED016A99ED016ADAED019ADDF800C001
:1018D0000CEB0307FD1805EB030A0AEB030808EB02
:1018E000030606EB030B00EBCC0900EBC808D9EDAF
:1018F000000A98ED000A00EBC70700EBC606D7ED1B
:10190000001A96ED001A70EE803A0BEB030E70EEA3
:10191000C00A31EE810A00EBC50500EBCB0B31EEBE
:10192000C11AD5ED001A9BED002A00EBCA0A00EBA4
:10193000CE0E31EE824A71EEC21A9AED002ADEED29
:10194000002A32EE223A32EE622A73EEC42A73EE95
:10195000843A30EE435A30EE030A33EE803A73EEA7
:10196000C0DA89ED003A99ED010A98ED013AD7ED18
:10197000013A95ED014A70EE03EA30EE433A96EDF6
:10198000010A9AED01EADEED014A33EE809A73EE28
:10199000C03A9BED010A74EE005A34EE404A3EEE26
:1019A000240A7EEE644A3EEEE5EA7EEEA55A79EE22
:1019B00040EA39EE009A32EEAE0A72EEEE2A75EE89
:1019C00089EA35EEC99A7EEE455AC9ED01EA3EEE46
:1019D000055A2BEEADEA67EE09EA2BEE899A67EE1F
:1019E0002DDA3EEE2EEA39EE6D9A88ED00EA67EECA
:1019F000A5DA88ED019A2CEE809A6CEEA55A27EEB6
:101A0000800A39EE2D9A35EEC00A85ED009A66EE11
:101A1000055A85ED010A2AEEA20A2AEE855A66EEDB
:101A2000222A30EE250A8BED000A35EE620A73EEAB
:101A3000A42A8BED010A31EE420A31EE021A33EE8E
:101A4000E42A62EE8F3A20EE0F0A21EE0F1A22EE00
:101A50000F2A70EEC02A30EE800A71EEC10A71EED4
:101A6000811A33EE421A33EE022A34EE633A34EE30
:101A7000234A70EE043A30EE444A01E0F304353F65
:101A800072EE834A72EEC32A32EE613A32EE210AD6
:101A900071EE601A71EE200A2DEE232A28EE031A49
:101AA0002DEE033A68EE233AA44432EE011A28EEF2
:101AB000842A8C4587ED001A33EE631A29EE843AA6
:101AC00087ED011A29EE801A28EE800A32EE011AFB
:101AD00030EE430A26EEA42A8EED001A8EED010A9E
:101AE0002BEE240A26EEA11A6BEE211A30EE010A23
:101AF0002CEE221A86ED000A31EEC20A6AEE221A94
:101B000086ED010A2AEE200A6CEE200A31EE000A68
:101B10008AED000A30EEE10A8AED010AFFF4D8AE40
:101B2000DDF800C00CF1010CCDF800C063453FF6B4
:101B300091AEDDF854C04FF6FF7404EACC0CCDF83A
:101B400054C0072B3FF6A0AD02B0BDEC108B04B023
:101B5000BDE8F08F2DE9F05F0546002092469B46D8
:101B600088460646814640241BE0284641464746B3
:101B7000224600F0DAF953465A46C01A914110D372
:101B800011461846224600F0C1F92D1A67EB0108EC
:101B90004F4622460120002100F0B8F917EB00095A
:101BA0004E41201EA4F10104DFDC484631462A469E
:101BB0004346BDE8F09F40EA01039B0703D009E0DC
:101BC00008C9121F08C0042AFAD203E011F8013B29
:101BD00000F8013B521EF9D27047D2B201E000F882
:101BE000012B491EFBD270470022F6E710B51346C1
:101BF0000A4604461946FFF7F0FF204610BD421E74
:101C000012F8013F002BFBD111F8013B02F8013B18
:101C1000002BF9D17047421C10F8011B0029FBD1A1
:101C2000801A7047034611F8012B00F8012B002A97
:101C3000F9D1184670472DE9FE4F81EA030404F0FC
:101C4000004421F0004100944FF0000B23F00043CA
:101C500050EA01045ED052EA03045BD0C3F30A5495
:101C6000C1F30A552C44A4F2F3340194A0FB0254AE
:101C7000C1F3130141F48011C3F3130343F4801340
:101C800001FB024400FB034E840A970A44EA815494
:101C900047EA8357A4FB076802958D0A05FB078571
:101CA0004FEA932C04FB0C542705029D4FEA06587B
:101CB00047EA1637B5EB08056EEB070C870E920E58
:101CC00047EA811742EA8312A7FB0201B6EB0B0138
:101CD00064EB00042B0D43EA0C335E1844EB1C50FC
:101CE000DA465146E7FB0201C5F313044FEA0B3312
:101CF00043EA14534FEA0432019C43EA0603A4F179
:101D00000C040294009CCDE900B400F064F903B027
:101D1000BDE8F08F00200146F9E72DE9F04D81EA9A
:101D2000030404F0004B21F0004514464FF0000A74
:101D300023F0004150EA050220D054EA01021DD0F0
:101D4000C5F30A570246C5F31303C1F31300C1F3E9
:101D50000A5640F4801543F48013A7EB0608101BC5
:101D6000D64608F2FD3873EB050002D308F10108EE
:101D700001E092185B41B8F1000F03DA0020014640
:101D8000BDE8F08D00204FF48011064684460EE039
:101D9000171B73EB050705D3121B63EB0503064303
:101DA0004CEA010C49084FEA300092185B4150EAB6
:101DB0000107EDD152EA030012D082EA040083EA5F
:101DC0000501084305D0101BAB4106D201220023B8
:101DD00006E000224FF0004302E06FF001025310D2
:101DE0001AEB06004CEB085110EB0A0041EB0B011B
:101DF000BDE8F04D00F0E0B80EB540F2334102917D
:101E00000021CDE900110A460B4600F0E4F803B0CA
:101E100000BD70B5C1F30A5201F000450024C1F3C2
:101E2000130140F2FF3341F480119A4201DA00209D
:101E300070BD40F233439A42A2F2334203DC524275
:101E400000F073F800E090402C43F1D0404270BDA8
:101E5000C1F30A5210B5C1F3130140F2FF3341F44C
:101E600080119A4201DA002010BD40F233439A42B9
:101E7000A2F2334203DC524200F057F810BD90400A
:101E800010BD00F0004230F000400AD0C10D01F555
:101E90006071C0F3160042EA0151C20840071143C5
:101EA000704700200146704701F0004330B421F034
:101EB000004150EA010206D00A0DA2F56072C1F39A
:101EC0001301002A02DC30BC00207047440F44EAB2
:101ED000C104C100E01830BC00EBC25000F035B8BE
:101EE00030B50B46014600202022012409E021FAEA
:101EF00002F59D4205D303FA02F5491B04FA02F5E7
:101F00002844151EA2F10102F1DC30BD202A04DBB9
:101F1000203A00FA02F1002070479140C2F12003FC
:101F200020FA03F3194390407047202A04DB203A3B
:101F300021FA02F00021704721FA02F3D040C2F1E9
:101F4000200291400843194670470029A8BF7047F6
:101F5000401C490008BF20F00100704710B4B0FADF
:101F600080FC00FA0CF050EA010404BF10BC70477A
:101F700049B1CCF1200421FA04F411FA0CF118BF94
:101F8000012121430843A3EB0C01CB1D4FEA006163
:101F90004FEA102042BF002010BC704700EBC35036
:101FA00010440029A4BF10BC7047401C490008BF62
:101FB00020F0010010BC704710B5141E73F100042E
:101FC00008DA401C41F1000192185B411A4301D12B
:101FD00020F0010010BD2DE9F04D92469B4611B155
:101FE000B1FA81F202E0B0FA80F220329046FFF7B7
:101FF0008DFF04460F4640EA0A0041EA0B015346B2
:102000005A46084313D0114653EA010019D0C8F1CB
:1020100040025046FFF789FF05460E465046594696
:102020004246FFF773FF084305D0012004E0204635
:102030003946BDE8F08D0020054346EAE0762C43A2
:1020400037430A986305E40AA0EB08000022FD0A62
:1020500044EA47540A3002D500200146E9E7010569
:1020600010196941DDE9084500196941BDE8F04DE5
:10207000A2E72DE9FE4F804681EA0300C00F0C461F
:10208000009021F0004123F00045B8EB0200A94187
:1020900005D24046214690461C460B46024623F098
:1020A0000040104347D0270DC7F30A00C3F30A517D
:1020B0000290401A019040286BDAC3F3130040F4F9
:1020C000801B0098924620B10023D2EB030A63EBF9
:1020D0000B0B01985946C0F140025046FFF716FF1E
:1020E00006460D4650465946019A00F009F910EB94
:1020F00008006141002487EA115284EAE7731A4319
:1021000040D0009A62B3019A012A4FEA075215DCC7
:10211000001B61EB02014FF0004202EA0752CDE9D9
:102120000042001C41F5801132462B46FFF753FF59
:1021300003B0BDE8F08F40462146F9E7001B61EB94
:102140000201001C41F5801300185B412018A2F524
:10215000001747EB030140EAD570B6196D4111E055
:102160006D084FEA360645EAC0754FEA0752001B74
:1021700061EB0201001C41F5801149084FEA300073
:102180000019514132462B4603B0BDE8F04FFFF72E
:1021900013BF0098012240000023D0EB020263EB42
:1021A000E073009821464FEAE074B8EB000061EB61
:1021B0000401E9E783F000435BE781F0004158E761
:1021C0002DE9F041054621F000400C46284309D096
:1021D000C4F30A5040F23341884205DD28462146C7
:1021E000BDE8F0812846FBE740F2FE31884210DC72
:1021F0000CDB4FEA043040EA155050EA053105D0B7
:10220000104804F0004101430020E9E700200146A6
:10221000E6E7A0F233404642C6F140022846214696
:10222000FFF774FE07468846284621463246FFF7E8
:102230007CFE43463A46FFF7BFFE3246BDE8F0411A
:10224000FFF764BE0000F03FC1F30A52C1F313016F
:1022500040F2FF3341F480119A4202DA0020014635
:10226000704740F233439A42A2F2334202DC5242B8
:10227000FFF75BBEFFF74ABE30B5041E71F10004E4
:1022800004DB4FF00044404264EB0101141E73F183
:10229000000405DB1C464FF00043524263EB04038D
:1022A0008B4208BF824230BD30B5041E71F100047C
:1022B00004DB4FF00044404264EB0101141E73F153
:1022C000000405DB1C464FF00043524263EB04035D
:1022D000994208BF904230BD00207047064C074D20
:1022E00006E0E06840F0010394E8070098471034E6
:1022F000AC42F6D3FDF7ACFF9CCE0008BCCE000884
:10230000202A06DBCB17203A41FA02F043EAE073B9
:1023100006E041FA02F3D040C2F1200291400843A6
:102320001946704770B58C1810F8015B15F007035B
:1023300001D110F8013B2A1106D110F8012B03E05E
:1023400010F8016B01F8016B5B1EF9D12B0705D466
:102350000023521E0DD401F8013BFAE710F8013BAF
:10236000CB1A921C03E013F8015B01F8015B521ECB
:10237000F9D5A142D8D3002070BDFEE7014800F096
:10238000B5BF0000F4A50020014800F0AFBF000079
:1023900054A6002001681823CAB2103AB2FBF3F227
:1023A000054B6FF30901032A9B5CC36500D9091D26
:1023B0008165084670470000E8B3000810B5014683
:1023C00000208B698A6A4FF0C07453B1B3F5005F87
:1023D00015D072B1012A0CD0022A0AD0032A09D1E1
:1023E00004E01AB1012A06D0022A03D1C96AC90140
:1023F00000D5012010BDC96AA142FAD010BD002A43
:10240000F7D0012AF2D0022AF3D0032AF3D010BD6C
:1024100030B50468256825F480252560046863606C
:102420008368402B036803D099600068C26030BDA8
:102430009A600068C16030BD7047000010B520216F
:10244000024801F0ABFA0249086010BD00100240DA
:10245000000000202DE9F041314E0546314C307826
:10246000F0B9607B012804D0022809D0032811D1DB
:1024700022E005F027FC05EB850100EB410007E0B9
:1024800005F020FC05EB4501C1EBC51100EBC100D7
:1024900005F046FC002003F001FE307800281FD034
:1024A00021486321214F0078012602280CD00328FF
:1024B0001AD0042812D123E005F004FC43F6095198
:1024C000694300EB8110E3E7E07A284410F0FF0055
:1024D000E07207D0632800D9E1723E70144806709C
:1024E000BDE8F081E672F8E7A07B284410F0FF0019
:1024F000A07303D06328F0D9A173EEE7A673ECE7CD
:10250000002D01DC207B38B1207B2844C0B2207331
:10251000042801D90420207305F032F8DDE700001B
:102520003A000020E8A200203B0000203C000020F0
:10253000DF00002070B5124D2021284601F02EFA50
:10254000104C60602168884218D020600421284621
:1025500001F024FA616800258842A06806D0401E78
:10256000A06010F1140F09DA681E04E0401CA0609E
:10257000142803DD0120FFF76DFFA56070BD00008A
:10258000001002400000002010B54FF4806001F000
:1025900021F9074C2078002808D100F09BFA207818
:1025A000002803D1BDE8104000F0B2BB10BD000010
:1025B0002600002010B5042001F00CF90448007832
:1025C000002803D0BDE81040FFF7B4BF10BD0000E5
:1025D0006800002010B5102001F0FCF806480078D3
:1025E000002807D005F074FB062803D0BDE8104092
:1025F00005F074BB10BD00006800002010B520205D
:1026000001F0E8F8BDE8104003F0ACBC2DE9F04162
:10261000474D2DED068B687800287DD028784FF443
:1026200080789FED449ADFED449AB7EE00AAF6EE6B
:1026300000AA4FF00004C0B3404F00BF00EE104AA4
:10264000B8EEC00A20EE090A20EE290AFDF78AFF3B
:102650003AEE400A20EE2A0A10EE100AFFF711FCAB
:1026600007EBC40641EC180B3068FFF70AFC53EC8B
:10267000182BFFF7E0FAFFF717FC30607068FFF7E0
:1026800000FC53EC182BFFF7D6FAFFF70DFC641C87
:102690007060FF2CD2DD012300222849A868FEF7D4
:1026A000D9FE4246264925483AE0FFE7254F00BFBC
:1026B00000EE104AB8EEC00A20EE090A20EE290A00
:1026C000FDF750FF3AEE400A20EE2A0A10EE100AFB
:1026D000FFF7D7FB07EBC40641EC180B3068FFF798
:1026E000D0FB53EC182BFFF7A6FAFFF7DDFB3060A9
:1026F0007068FFF7C6FB53EC182BFFF79CFAFFF747
:10270000D3FB641C7060FF2CD2DD012300220D4935
:10271000A868FEF79FFE00E006E042460849094827
:10272000FDF75CFF00206870BDEC068BBDE8F08112
:1027300010000020DB0FC9400000803B2C0100206E
:102740002C7500202C0900202DE9F84F68480178ED
:1027500000297DD1674D6978002979D166490978CA
:10276000002975D14FF0010B824680F800B0A8888F
:102770004FF48074642800D830B95E4B21460C3386
:102780001A1D5E48FEF70CFF95ED040AB5EEC00A6F
:10279000F1EE10FA03D29FED5A0A85ED040A0021EA
:1027A000564BA980084603EB8002401CD2ED000A7C
:1027B0009846FF2880EE801A82ED001AF3D98946E8
:1027C00000911E2322469F21002002F0C5FF4FF4F6
:1027D000FC635022A021802003F00DF93120494EE6
:1027E000E8804FF4007480B206EB4020A0F5007141
:1027F0002246FFF7E0F9E888401E0004000CE8805C
:10280000F1D1002401E0802C04D204F18000C7B291
:10281000802C02D3A4F18000C7B27F2F29D0A1B2AF
:1028200008EB8100F3EE0E0A90ED000A20EE200A7C
:10283000BCEEC00A10EE100A80B268801E280AD9C9
:102840001E2068804FF47840E880A888401C00E093
:102850004CE0A88003E0C0B207F05EF8E880EB88A7
:1028600026F817306888BE21404202B2781C03F077
:10287000C2F8641CFF2CC6D90027002401E07F2C7D
:1028800009D006EB472007F1BE0130F81420601C88
:1028900080B202F035FF641CA4B2FF2CEFD97F1C7C
:1028A000FFB2322FE9D3A8880A2807D995ED040A88
:1028B000DFED150A30EE200A85ED040A1E2807D93F
:1028C00095ED040ADFED110A30EE200A85ED040AC9
:1028D000322807D995ED040ADFED0D0A30EE200A03
:1028E00085ED040A85F801B08AF80090BDE8F88FFC
:1028F0003D000020100000203A0000202C75002030
:10290000000000002C11002000007A4400803B45AC
:1029100000409C4510B500F075FABDE8104000F08D
:102920003DBA00002DE9F05F564C574D4FF00108BD
:102930002DED028B46462069401C2061C5F80080C1
:1029400000F016FA0003E0804FF480372F602E600D
:1029500000F00EFAE18800F00F0041EA0020E0806C
:102960002F602E6000F004FAE18800F00F0041EAC9
:102970000010E0802F602E6000F0FAF9E18800F08E
:102980000F000843E080DFF8049100B2608199F8FD
:1029900000203F49DFF8FCB09FED3F8A00EE100AAF
:1029A0003F4E002AF8EEC00ADFF8F0A0326880EE51
:1029B000880A02D00BEB820001E00AEB820080ED76
:1029C000010AA08901EB800080ED000A2F60C5F8A4
:1029D000008000F0CDF90003E0802F60C5F8008092
:1029E00000F0C6F9E18800F00F0041EA0020E08025
:1029F0002F60C5F8008000F0BBF9E18800F00F00FF
:102A000041EA0010E0802F60C5F8008000F0B0F9C6
:102A1000E18800F00F000843E08000B200EE100AE9
:102A2000608199F80020F8EEC00A1E4BD6F800C06D
:102A300080EE880A12B10BEB8C0001E00AEB8C00EF
:102A40004FF0000C80ED000AA08903EB800080EDC0
:102A5000000AA089401C83B2A3813068801C3060CA
:102A6000402B01D1A4F80CC0B0F5007F05D182F055
:102A70000100C6F800C089F800002F60BDEC028B91
:102A8000BDE8F09F2400002018080240100000203C
:102A90002C7900202C01002000FEFF462C0900208C
:102AA0000C0000202C7A002010B5074C012020607B
:102AB00000F05EF905490870054900F00100087052
:102AC0004FF48030206010BD180802402400002020
:102AD0007100002070B5114C114D0120A0702878B4
:102AE00008B1032000E004206070C0B200F022FAB8
:102AF0000C4E022030600B4801221146183800F0BD
:102B000052FF4FF440303060287810B100F00CF8DC
:102B100001E0FFF707FF0020A07070BD2400002037
:102B200060000020180802402DE9F047374CDFF81C
:102B3000E48047F6FF792069401C20613448A18970
:102B400000EB810090ED000ABDEEC00A10EE100A05
:102B5000C0EBC030208198F8000008B1A4F80890BC
:102B60002089000B00F0E6F92B4D01262E6037047A
:102B70002F602089000A00F0DDF92E602F60208987
:102B8000C0F3071000F0D6F92E602F60207A00F015
:102B9000D1F92E602F602148A18900EB810090EDD2
:102BA000000ABDEEC00A10EE100AC0EBC030208152
:102BB00098F8000008B1A4F808902089000B00F0F4
:102BC000B9F92E602F602089000A00F0B3F92E6059
:102BD0002F602089C0F3071000F0ACF92E602F6041
:102BE000207A00F0A7F92E602F60A0890022401CF7
:102BF00080B20B49A081402805D0202801D1E27085
:102C00000E70BDE8F087A281E670F9E7240000208D
:102C10002C79002061000020180802402C7A002046
:102C2000B10000202DE9F041344D686806F0DCFE6B
:102C300004463349334800224A70007800B1082224
:102C40004A70314A1278104309D1687A00284878CE
:102C500002D040F0040001E020F004004870487801
:102C600000F068F9294F01221146384600F09BFE1A
:102C7000264D4FF4403018352860C4F3035000F05F
:102C800059F901221146384600F08DFE4FF4803686
:102C90002E60C4F3034000F04DF90122114638467E
:102CA00000F081FE2E60C4F3033000F043F90122EE
:102CB0001146384600F077FE2E60C4F3032000F082
:102CC00039F901221146384600F06DFE2E60C4F33A
:102CD000031000F02FF901221146384600F063FE80
:102CE0002E6004F00F0000F025F90122114638464D
:102CF00000F059FE2E60BDE8F0810000E8A200203F
:102D00002400002060000020610000200008024034
:102D10002DE9F041144C01200025A0706570217947
:102D2000022609B1607002E06079C8B1667060780F
:102D300000F000F90D4F3E600C4801221146183892
:102D400000F031FE4FF440303860207918B1FFF7C1
:102D500069FF257104E0607910B1FFF7A5FE657188
:102D6000A570BDE8F0810000240000201808024092
:102D700009490869082202EA80000A69042303EA73
:102D8000820210430A69022303EA9202096910438E
:102D9000C1F38001084370470000024070B50A4C3F
:102DA0000120A070052000F0C5F8084D0220286021
:102DB000064801221146183800F0F5FD4FF4403066
:102DC00028600020A07070BD240000201808024078
:102DD00070B50A4C0120A070062000F0ABF8084D39
:102DE00002202860064801221146183800F0DBFD59
:102DF0004FF4403028600020A07070BD24000020F7
:102E0000180802402DE9F04132A007F00FF8354CC8
:102E10000120A0700A2000F08DF8334D02202860B8
:102E2000314E0122183E1146304600F0BCFD4FF4F1
:102E300040302860012000F07DF801221146304624
:102E400000F0B1FDFFF794FF2070012801D027A00A
:102E500030E04FF480372F60022000F06BF8012241
:102E60001146304600F09FFDFFF782FF20700228D8
:102E700001D022A01EE02F60042000F05BF80122A8
:102E80001146304600F08FFDFFF772FF20700428D6
:102E900001D01EA00EE02F60082000F04BF80122A8
:102EA0001146304600F07FFDFFF762FF20700828D2
:102EB00007D01AA006F0BAFF2078BDE8F04106F06E
:102EC0009FBF2F600020A070BDE8F04117A006F062
:102ED000ADBF0000465047412042757320546573D2
:102EE0007420000024000020180802404552524F70
:102EF0005220302050494E0D0A0000004552524FDA
:102F00005220312050494E0D0A0000004552524FC8
:102F10005220322050494E0D0A0000004552524FB7
:102F20005220332050494E0D0A0000004F4B0D0A2D
:102F30000000000042082023102103EA421201EAA7
:102F4000001111438208402303EA82121143C00892
:102F5000C00741EA106141F470000149886170477F
:102F60000000024070B5B3F5804F05D06FF070419E
:102F700040F82210002070BD50F82240084B8E8986
:102F80001C40D1E9003543EA05138D6889692D029B
:102F900045EA06452B430B43234340F82230E9E73B
:102FA0000000F0CFF0B50C6850F82430114A1340FF
:102FB000D1E90125D1E903672A433E4332434E69F3
:102FC00032438E693243CE6932430E6A32434E6ACF
:102FD00032438E6A3243CE6A3243CE6B096B324340
:102FE0000A431A43082D01D142F0400240F8242040
:102FF0000020F0BD8000F0FF30B500EB8202506889
:103000008D8900F04043D1E9000440EA04108C6847
:10301000240244EA054420430C8A074D05EB04547E
:1030200020430C7D6D0105EB04648969204308434E
:1030300018435060002030BD0000F0FF70B5114C07
:1030400000220121204600F0AEFC4FF0FF352B4658
:1030500001220D490D4801F031FD0B492B46032299
:10306000891C0A4801F02AFD2B461022084907480E
:1030700001F07CFC2046BDE870400122114600F0C2
:1030800092BC000000040240DE00002040A30020AB
:10309000E8A2002070B5164C00220121204600F065
:1030A00082FC4FF0FF352B4601221249124801F0F5
:1030B00005FD01221146204600F075FC0022012189
:1030C000204600F070FC0B492B460122891C0A485F
:1030D00001F0F4FC07492B460322891D064801F044
:1030E000EDFC2046BDE870400122114600F05BBCBB
:1030F00000040240DA00002040A3002070B5194C03
:1031000000220121204600F04EFC4FF0FF352B46F7
:1031100001221549154801F0D1FC01221146204633
:1031200000F041FC00220121204600F03CFC0E4949
:103130002B460122C91C0D4801F0C0FC0A492B4650
:103140000322891D094801F0B9FC2B4610220849C9
:10315000064801F0B3FC2046BDE87040012211464C
:1031600000F021BC00040240DA00002040A300204F
:10317000E8A2002010B504F0E3FB002004F0E0FB1F
:103180004FF6FF7101EA0024002004F0D9FB204330
:10319000C00810BD2DE9F05F07469B469146884662
:1031A00000269020FFF7E6FF0546642006F092FB1C
:1031B000D020FFF7DFFF044614E09020FFF7DAFF8E
:1031C0008246642006F086FBD020FFF7D3FFBAF1D9
:1031D000000F05D020B105EB0A014D08204444083A
:1031E000761CF6B24E45E8D3BBF1000F04D03D800B
:1031F000A8F80040BDE8F09F00EE105A1548B8EE60
:10320000400A90ED011AB0F90010C0EE010A00EE7C
:10321000101AB8EEC00A30EE800ABCEEC00A10EEFA
:10322000101A398000EE104AD0ED020AB0F90200FF
:10323000B8EE400A80EE201A00EE100AB8EEC00A7E
:1032400031EE000ABCEEC00A10EE100AA8F8000029
:10325000D0E70000040100202DE9F0410446876D0D
:1032600000F0A6FB064694F835000025022806D09B
:103270008020606584F834500120BDE8F08120682A
:10328000016821F0160101602068416921F0800188
:103290004161206C08B9A06C20B12068016821F060
:1032A000080101602068016821F0010101600BE064
:1032B00000F07EFB801B052806D92020606504F8FD
:1032C000345F03206070D8E720680068C007EFD142
:1032D00094F85C103F208840B86004F8345F012007
:1032E00060700020C9E790F8350070472DE9F84379
:1032F00004464FF00009CDF8009063484FF4165192
:10330000A56D0068B0FBF1F72E6894F85C100820FA
:1033100000FA01F131420FD021680A6852070BD53B
:103320000A6822F004020A6094F85C108840A860E1
:10333000606D40F00100606594F85C104FF001088A
:1033400008FA01F0304208D021684969090604D51D
:10335000A860606D40F00200606594F85C10042085
:103360008840304208D021680968890704D5A860E0
:10337000606D40F00400606594F85C101020884097
:10338000304218D021680968090714D5A860206860
:103390000168490304D50068000308D5A16C07E063
:1033A0000168C90503D4016821F008010160216C9E
:1033B00009B12046884794F85C10202088403042AC
:1033C00031D021680968C9062DD5A86094F8350068
:1033D00005282068016806D0490347D50068000326
:1033E0001DD4616C1CE021F0160101602068416968
:1033F00021F080014161206C08B9A06C20B12068E7
:10340000016821F00801016094F85C103F208840B9
:10341000A86084F8349084F83580216D1FE0E16B5A
:1034200009B120468847606D00282BD0606DC00729
:1034300014D0052084F835002068016821F00101CE
:1034400001600098401C0090B84203D820680068D2
:10345000C007F6D184F8349084F83580E16C0029F7
:1034600010D001B02046BDE8F04308470168C90507
:10347000D5D4016821F01001016084F8349084F8FB
:103480003580CCE7BDE8F883FC0000202DE9F04151
:10349000044600F08DFA06465CB1002584F83450ED
:1034A000022084F835002068016821F001010160E4
:1034B0000DE00120BDE8F08100F07AFA801B0528BC
:1034C00005D920206065032084F83500F2E72068E4
:1034D0000068C007F0D12268116820480140D4E993
:1034E00001031843D4E9033633431843636918438F
:1034F000A3691843E3691843236A18430843616AC0
:10350000042903D1D4E90B13194308431060206840
:103510004069666A20F0070130460E4301270428FF
:103520000CD1A06A0643E06A40B12046FEF746FF90
:1035300020B14020606584F83570BAE720684661A4
:103540002046FEF727FF94F85C203F2191408160E0
:10355000656584F835700020ACE700003F8010F00E
:103560002DE9F74F82B0044600208946019000F013
:103570001FFA009094F835000027022804D080201C
:10358000606584F8347068E020680068C00503D581
:103590004FF48070606560E094F85C004FF0200BA1
:1035A0004FF0100AB9F1000F06D00AFA00F6A56D27
:1035B00028684FF001083AE00BFA00F6F7E70498A4
:1035C000401C12D0049830B100F0F2F90099411A71
:1035D0000498814209D9C4F854B004F8347F84F8BF
:1035E0000180032005B0BDE8F08F286894F85C20C6
:1035F00008219140014204D0626D42F001026265EF
:10360000A96094F85C2008FA02F1014204D0626DCE
:1036100042F002026265A96094F85C2004219140A6
:10362000014204D0626D42F004026265A96030423A
:1036300002D1606DC007C2D0606D302678B1606D78
:10364000C0070CD02046FFF707FE94F85C008640C8
:10365000AE6004F8347F84F801800120C2E7B9F13C
:10366000000F06D094F85C100AFA01F0A8600198E7
:10367000B8E794F85C008640AE6004F8347F84F8C4
:103680000180F4E770B5044690F834000025012865
:103690000CD0012084F8340094F835600020012E0D
:1036A00006D084F834000225284670BD022070BD83
:1036B000022684F8356060652046FEF7A9FE206882
:1036C000016841F001010160EEE72DE9F041044697
:1036D000866D90F83400002501280DD0012084F873
:1036E000340094F835700020012F07D084F834009E
:1036F00002252846BDE8F0810220FBE7022784F876
:10370000357060652046FEF783FE94F85C103F201C
:103710008840B0602068016841F0160101602068AF
:10372000416941F080014161206C20B1206801684D
:1037300041F0080101602068016841F00101016069
:10374000D7E7000070B5044600F032F90546601C6A
:1037500002D004480078044400F02AF9401BA0423B
:10376000FAD370BDF0000020F0B5154887B00168AD
:10377000002923D1012404601248016841F00101AD
:1037800001600068022500F0010005904FF680708E
:10379000CDE9000502AA03260C2782E8D00069467D
:1037A000094800F023F84EF2B370CDE9000502AAF3
:1037B000694682E8D000054800F018F807B0F0BD6F
:1037C000E80000203838024000100240000C02409F
:1037D00070470000044910B50A68024202D0086030
:1037E000FFF7F6FF10BD0000143C01402DE9F84F33
:1037F000DFF87CB100224FF001084FF0030A4FF0D0
:103800000F090BF1040E00BF0B6808FA02F4234005
:10381000A3426ED14D68022D01D0122D0ED1D508D4
:1038200000EB850CDCF820505607F70E09FA07F676
:10383000B5430E69BE402E43CCF8206006685500A3
:103840000F790AFA05FC07F0030726EA0C06AF40D9
:10385000374307604E68012E05D0022E03D0112E8B
:1038600001D0122E0ED18668CF6826EA0C06AF4032
:10387000374387604668A6430C79C4F3001494402C
:1038800034434460C6688C6826EA0C06AC40344376
:10389000C4604C68E40065D5364C256845F4804525
:1038A0002560246822F0030504F480440094324C1F
:1038B0002E19D6F8084895072F0F09FA07F5AC43DB
:1038C0002E4DA84201D1002524E02D4DA84201D162
:1038D00001251FE02B4DA84201D102251AE02A4DF7
:1038E000A84201D1032515E0284DA84202D10425A4
:1038F00010E037E0264DA84201D105250AE0254D0C
:10390000A84201D1062505E0234DA84201D1072593
:1039100000E00825BD402543C6F80858DBF8004004
:103920005D464E689C43F60300D51C432C60DEF8D0
:10393000004075464E689C43B60300D51C432C607E
:103940000B4D08352C684E689C43F60200D51C438D
:103950002C60074D0C352C684E689C43B60200D590
:103960001C432C60521C102AFFF44EAFBDE8F88FA8
:10397000003C014044380240003001400000024059
:103980000004024000080240000C02400010024007
:103990000014024000180240001C02400069084068
:1039A00000D0012070470AB1816170470904FBE72C
:1039B0000148806870470000F00000202DE9FE43B8
:1039C000044600688168744D744E4FF040270291A0
:1039D000A84201D1314600E0394689680191C169A8
:1039E0004FF00108C1F3012102290AD0C16911F485
:1039F000407F06D00199890773D5A84267D1304628
:103A000066E00299890707D54068C043000603D4E1
:103A10000021204601F024FD0198C0070DD0206848
:103A2000A84201D1304600E038464068C043400615
:103A300003D40121204601F0CFFC01984FF65F79B5
:103A4000400628D52068A84201D1314600E0394619
:103A50004968C94389061ED4A84201D1304600E016
:103A60003846406820F0600101D1304600E0384619
:103A700041602068416801EA090141602068C1682D
:103A80008068009084F84180606C40F002006064BF
:103A9000204600F08DF9029800077BD52068416828
:103AA000C943890676D4416801EA0901416020686A
:103AB000A84201D1304600E03846406820F060005E
:103AC00000D03E46706020688068009057E038461D
:103AD00040686FEA0000000603D40121204601F08F
:103AE000BFFC0298C00708D020684068C043400669
:103AF00003D40021204601F06FFC02984FF69F7915
:103B000040061FD520684168C94389061AD4416818
:103B100001EA090141602068A84201D1304600E075
:103B20003846406820F0A00101D1304600E0384618
:103B3000416084F84180606C40F00200606420467F
:103B400000F036F90198000724D52068A84201D179
:103B5000314600E039464968C94389061AD4A8426B
:103B600001D1304600E03846406820F0A00000D087
:103B70003E4670602068416801EA0901416084F8AE
:103B80004180606C40F0040060642046BDE8FE4364
:103B900000F00EB9BDE8FE8300380040003400405C
:103BA0002DE9F84F1546B1F10009044606D02AB1B7
:103BB00023B194F84100012803D0B2E00120BDE810
:103BC000F88FE26261622068C06900F00700032894
:103BD00036D0052834D0238563852386A4F8323077
:103BE00094F84000012874D0012084F840004FF080
:103BF000000AC4F844A0052084F84100E36B4A4859
:103C00001864E66B494BF363E76B494EFE64A76BA0
:103C10003864A06BC363A06BC6642068C369DFF817
:103C2000148103F44073444E4FF04027B3F5007FF6
:103C30000FD073B1C269C2F30122032A41D043E01D
:103C40004FF6FF7000EA430020856085208660867D
:103C5000C6E7238E404501D1314600E039460C319C
:103C6000E06BFFF732FD2068404501D1304600E0AF
:103C70003846406840F0010001D1314600E0394645
:103C80004860238D2268494602F10C02A06BFFF7C1
:103C90001CFD2068416841F002013AE040453ED1F8
:103CA0003046C06940F4806000D03E46F061206834
:103CB000C16941F48061C16184F840A04FF0000007
:103CC0007DE7C26882680092238D404502D132466A
:103CD00001E026E03A460C32A06BFFF7F6FC2168C3
:103CE000414501D1314600E03946496841F00201C1
:103CF00001D1304600E038464160238E21682A46D3
:103D000001F10C01E06BFFF7E0FC2068416841F035
:103D1000010141602068C1694905BFD5CCE738463B
:103D2000BFE702204BE7000005560008E5540008F5
:103D3000B1550008003800400034004000680949CF
:103D400088420ED1084A09480121137803B1417015
:103D50000170117006490A68521C0A6041684031BE
:103D600041607047003C0040B1000020A0000020EE
:103D7000B800002010B50068094988420FD10949F0
:103D8000094801220B7803B1427000230370074BEE
:103D90001C68641C1C600A7041684031416010BDA1
:103DA000003C0040B1000020A0000020BC0000202A
:103DB000704790F8410070472DE9F05F04004FF024
:103DC00002064FF000074FF010052CD04FF002090B
:103DD000C84684F8419054486063204600F0ACF82F
:103DE0002068C16940F6BF7A21EA0A01C1612168F1
:103DF000C1F820802068D0F81C8060694FF4007BF7
:103E0000022835D0E06800B12025A068202800D81D
:103E10006D00012000F0F4F92169594525D1E168D0
:103E200021B1A90003E00120BDE8F09FE900B0FB4B
:103E3000F1F000BF00EB800061694000B0FBF1F0E1
:103E4000401D0A21B0FBF1F101F00100091AC1F394
:103E50004F060702B01EFE280AD3606C40F0100027
:103E600060642046FFF7A4FFDDE7B0FBF5F0E1E773
:103E7000206921683E4330430862A0882189228B53
:103E80000843A1891143084380B2216840EA080031
:103E900040F40060C861206A01283AD12348606379
:103EA00023482168234A4FF04023814201D1114623
:103EB00000E01946C96921EA0A0101D1154600E06E
:103EC0001D46E96125684946854201D1154600E055
:103ED0001D4629622568854201D1114600E0194638
:103EE000CE69616859451BD0D1B100212789B4F84A
:103EF0000CC047EA0C07B4F818C04CEA010C47EABA
:103F00000C07B9B2314341F40061854200D01A4632
:103F1000D16100206064012084F84100002083E723
:103F20004FF48071E2E700000F560008BD39000829
:103F300000380040003400402DE9F04F064600688C
:103F40003E4987B0884276D13D490120C1F85C01E5
:103F50003C48002500683B4940F400400860086880
:103F6000022400F4004005904FF4004003274FF076
:103F700006088DE8B10169463348FFF737FC4FF476
:103F8000A0508DE8B101DFF8C48069464046FFF7D4
:103F90002DFC4FF400690520CDF80090CDE90370A9
:103FA00069464046CDE90145FFF720FC294C2848E9
:103FB0004FF0040820607806C4E901054FF48060E2
:103FC000C4F81490C4E90350C4F82480C4E90A7505
:103FD00004F11801C0004FF4807A4FF4403B256390
:103FE00081E8010C2046FFF751FA18B192211AA07E
:103FF00004F045F9F463A6631E4C154804F118015A
:104000007830C4E900054020C4E902050001C4E994
:104010000409C4F82480C4E90A75C000256381E856
:10402000010C2046FFF732FA18B1A7210AA004F0CC
:1040300026F9B463A66307B0BDE8F08F003C0040EA
:1040400000004742403802400000024000080240A1
:1040500010600240F4A500202E2E2F5372632F73A0
:10406000746D3332663478785F68616C5F6D73703D
:104070002E63000054A600207047704702488168F4
:104080000278114481607047F00000200B4810B5A1
:10409000016841F400710160016841F480610160D0
:1040A000016841F480710160032000F097F801205D
:1040B00000F006F800F024F8002010BD003C02409B
:1040C00070B50D4D04464FF47A712878B1FBF0F0CD
:1040D0000A490968B1FBF0F000F0CAFE48B9102C9B
:1040E00007D200222146501E00F058F800206C60D4
:1040F00070BD012070BD0000F0000020FC00002019
:104100001F4808B5016841F480410160006800F46F
:10411000804000901A48001F016841F08051016002
:10412000006800F080500090032000F057F8002253
:1041300001216FF00B0000F031F8002201216FF037
:104140000A0000F02BF8002201216FF0090000F0B6
:1041500025F801210022881F00F020F8012100220B
:10416000481F00F01BF801210022C81E00F016F8BD
:1041700000220121BDE80840881E00F00FB80000B1
:104180004438024000F01F020121914040098000A4
:1041900000F1E020C0F8001170470000F0B40E4BB1
:1041A0001B680C46C3F30223C3F10705042D00D995
:1041B0000425191D072901D2002300E0DB1E01267A
:1041C00006FA05F1491E214099409E40761E164090
:1041D0003143F0BC02F070BF0CED00E0064900F086
:1041E000070208684FF6FF03184040EA0220034A1E
:1041F00010430860704700000CED00E00000FA0575
:1042000001460020012907D110490968C1F3C051B6
:1042100019B1002900D00E4870470C48001F0168F2
:104220000068490200F03F0001D50A4900E00A4950
:10423000064AB1FBF0F07C321168C1F388114143AA
:104240001068C0F30270B1FBF0F07047083802400C
:104250000080BB0000127A000024F4002DE9F04732
:104260000E46050065D0DFF81481D8F80000F7B2DB
:1042700000F00F00B04207D288F80070D8F80000B4
:1042800000F00F00B04254D128683D4C810712D590
:10429000400703D5206840F4E050206028780007EC
:1042A00003D5206840F4604020602068A96820F0B1
:1042B000F000084320602878C0072DD03049686896
:1042C0000839012812D0022813D0032811D0096818
:1042D000890700292DDA216821F0030101432160BB
:1042E000FFF766FB814641F2883A0EE009688903D0
:1042F000EFE709688901ECE7FFF75AFBA0EB09013A
:10430000514502D90320BDE8F0872068696800F0B4
:104310000C00B0EB810FEFD1D8F80010404601F04F
:104320000F01B14207D90770006800F00F00B042DA
:1043300001D00120E7E72878400705D52068E96823
:1043400020F4E050084320602878000706D5206854
:10435000296920F4604040EAC100206000F0D4F8F0
:104360002168084AC1F30311515CC840064908603E
:104370000120FFF7A5FE0020C5E70000003C024039
:1043800008380240F0B30008FC0000202DE9F0419D
:10439000FFF70EFB444C0546206840F0010020600A
:1043A00005E000BFFFF704FB401B022847D8206848
:1043B0008007F7D5206840F080002060FFF7F8FA0A
:1043C0000546394E00200836306041F2883704E057
:1043D000FFF7EEFA401BB84231D8306810F00C0FEE
:1043E000F6D1FFF7E5FA0546206820F4502020605A
:1043F00005E000BFFFF7DCFA401B64281FD82068E7
:104400008003F7D4FFF7D4FA0546206820F08070C7
:10441000206004E0FFF7CCFA401B02280FD8206888
:104420008001F7D4FFF7C4FA0546206820F08060C9
:10443000206007E0FFF7BCFA401B022802D90320E6
:10444000BDE8F08120680001F4D417491748091D20
:104450000860154916488431086013480C3001681B
:1044600021F4F8510160016821F4005101600168F4
:1044700041F41F010160016841F4001101600A4824
:104480007430016821F001010160016841F0807120
:1044900001600949074808600120FFF711FE002864
:1044A000CED00120CCE700000038024010300004DC
:1044B000003000200024F400FC00002001480068C7
:1044C00070470000FC0000200448054900680968A6
:1044D000044AC1F38221515CC8407047FC000020AF
:1044E0000838024000B4000804480549006809681B
:1044F000044AC1F34231515CC8407047FC000020BF
:104500000838024000B40008154810B5006810F0E3
:104510000C02144813D04110042A0FD0082A0ED1DF
:104520000F4C241F2268236802F03F025B0207D56C
:104530002068C0F38810A0FB010106E0084610BD0A
:104540002168C1F38811A1FB00010023FDF702FBE4
:104550002168C1F30141491C4900B0FBF1F010BDD5
:10456000083802400024F4002DE9F84F050076D009
:104570002878DFF8F8B2BE4CC00749D0DBF800104D
:104580005846C1F38101012908D00068C0F38100B9
:1045900002280AD1201D0068400206D52068800349
:1045A00036D568680028E2D032E06868B0F5803F10
:1045B00010D0B0F5A02F206810D020F480302060FB
:1045C000206820F4802020606868A0B1FFF7F0F92F
:1045D00006460CE0206840F48030F4E740F4802088
:1045E0002060F7E7FFF7E4F9801B642873D82068A0
:1045F0008003F7D50CE0FFF7DBF9064605E000BFC6
:10460000FFF7D6F9801B6428F0D820688003F7D420
:104610002878DFF8608280074FF000093ED5DBF88C
:104620000010584611F00C0F09D00068C0F381004B
:1046300002280BD18D48001F0068400206D4206874
:10464000800715D5E868012809D111E0E868B8B1FC
:104650000120C8F80000FFF7ABF9064605E002E1CB
:10466000FFF7A6F9801B0228C0D820688007F7D57D
:104670002068296920F0F80040EAC10020600DE0C0
:10468000C8F80090FFF794F9064604E0FFF790F9A8
:10469000801B02281FD820688007F7D428780007DD
:1046A00022D5724E744869696C3671B1012101607E
:1046B000FFF77EF9074604E0FFF77AF9C01B0228EE
:1046C00009D830688007F7D50EE0C0F80090FFF7F2
:1046D0006FF9074605E083E0FFF76AF9C01B02287F
:1046E0007ED830688007F7D42878400768D5DFF88F
:1046F0007CA100270AF1380ADAF80000C0000BD4C8
:10470000DAF8001041F08051CAF80010DAF8000021
:10471000012700F080500090584E3068C00510D43A
:10472000306840F480703060FFF742F9009005E097
:10473000FFF73EF90099401A022851D83068C005A9
:10474000F6D54A4EA868683601280FD0052830688B
:1047500010D020F001003060306820F0040030609C
:10476000A868B8B1FFF724F900900FE0306840F076
:104770000100F4E740F004003060F7E7FFF718F9B4
:104780000099411A41F28830814264D8306880072C
:10479000F4D50EE0FFF70CF9009007E0FFF708F9F9
:1047A0000099411A41F28830814254D8306880071C
:1047B000F4D42FB1DAF8001021F08051CAF80010BB
:1047C000A869C0B3DBF80010C1F3810102294AD007
:1047D0000228484607D0C8F86000FFF7E9F800E073
:1047E00039E005463AE04746C8F86000FFF7E0F8D0
:1047F000064604E0FFF7DCF8801B02282BD820686F
:104800008001F7D4D5E907010843A96A1C4A490881
:1048100002EB01416A6A41EA8211084395F82C10C3
:1048200040EA01611148001F016001203866FFF76E
:10483000BFF8054605E014E0FFF7BAF8401B022870
:1048400009D820688001F7D50BE000BFFFF7B0F86A
:10485000401B022802D90320BDE8F88F20688001A0
:10486000F4D40020F8E70120F6E700000838024001
:104870000038024000004742800E4742007000406E
:104880000000FFFF70B5040005D00025A56294F874
:10489000510010B106E0012070BD84F85050204650
:1048A00000F030F8022084F851002068016821F0FF
:1048B00040010160D4E901010843D4E90312114326
:1048C000084361690843218B01F400710843E169E1
:1048D0000843216A0843A16A084321680860A06967
:1048E000042101EA1040616A084321684860206899
:1048F000C16921F40061C1616565012084F851003E
:10490000002070BD70B5154E0168022201230324FA
:104910000525134886B0B1420AD112490E6846F403
:1049200080560E60096801F48051059138210EE02F
:104930000D4EB14210D10B49091F0E6846F4804656
:104940000E60096801F4804105914FF470418DE8D3
:104950003E006946FEF74AFF06B070BD00300140D8
:104960000004024044380240003800402DE9F84F6E
:10497000044640680026984617460D464FF0040945
:10498000B0F5827F01D1A06890B194F85000012861
:1049900019D04FF0010B84F850B0FFF709F80090E0
:1049A00094F851004FF0000A01280ED002267FE053
:1049B00084F8519013460A462046CDF8008000F056
:1049C00031F9BDE8F88F0220FBE7002D6FD0002FF2
:1049D0006DD084F85190C4F854A0A563A787E787E9
:1049E000C4F830A0A4F834A0A4F836A0C4F840A0BD
:1049F000C4F844A0A0684FF40047B84204D120682E
:104A0000016821F48041016020680168490603D4EF
:104A1000016841F040010160E068B8B133E020680E
:104A20008168C90706D0007B05F8010BE08F401EA6
:104A3000E0870BE0B8F1000F23D0B8F1FF3F05D0BD
:104A4000FEF7B6FF0099411A41451AD2E08F0028BF
:104A5000E5D11BE020688168C90706D0C06825F849
:104A6000020BE08F401EE0870DE0B8F1000F08D088
:104A7000B8F1FF3F07D0FEF79BFF0099411A41456F
:104A800001D3032614E0E08F0028E3D16068B0F57D
:104A9000827F0AD1A068B84202D0B0F5806F04D1FD
:104AA0002068016821F040010160606D00B10126BD
:104AB00084F851B084F850A0304682E72DE9F84FD1
:104AC000044690F850000026994617460D460128E6
:104AD0000DD04FF0010B84F850B0FEF769FF80460F
:104AE00094F85100B246012804D0022694E0022036
:104AF000BDE8F88F002D7BD0002F79D0032084F8FB
:104B00005100C4F854A02563A786E786C4F838A0EE
:104B1000A4F83CA0A4F83EA0C4F844A0C4F840A067
:104B2000A068B0F5004F04D12068016841F48041CD
:104B3000016020680168490603D4016841F0400122
:104B40000160E068B0F5006F606804D030B3E08EBB
:104B5000012823D03EE010B1E08E01281AD135F8AB
:104B6000021B206805E020688168890706D535F8B2
:104B7000021BC160E08E401EE0860BE0B9F1000F21
:104B800034D0B9F1FF3F05D0FEF712FFA0EB0801CA
:104B900049452BD2E08E0028E5D11EE0216815F8AA
:104BA000010B087306E020688168890706D515F8AF
:104BB000011B0173E08E401EE0860BE0B9F1000F8F
:104BC00014D0B9F1FF3F05D0FEF7F2FEA0EB0801CB
:104BD00049450BD2E08E0028E5D14B460122022147
:104BE0002046CDF8008002F06BFC10B1032613E0E4
:104BF00011E042464946204602F052FC18B1012617
:104C00002020606508E0A06818B92068C168806845
:104C10000090606D00B1012684F851B084F850A076
:104C2000304665E72DE9F84F044690F8500000261D
:104C30000A9F9A4693460D464FF0010801280ED070
:104C4000012084F85000FEF7B3FE814694F851002D
:104C5000616801280CD0B1F5827F07D102E0022003
:104C6000BDE8F88FA16809B9042801D00226BDE08B
:104C700055B1BBF1000F07D0BAF1000F04D094F882
:104C80005100012802D004E00126AFE0052084F89D
:104C9000510000206065C4F838B0A4F83EA0A4F824
:104CA0003CA02563A4F836A0A4F834A02064606476
:104CB00020680168490603D4016841F040010160A1
:104CC000E068B0F5006F606804D0E8B3E08E0128BA
:104CD0003BD06AE010B1E08E01282ED1216835F872
:104CE000020BC860E08E401EE08626E0B8F1000F9F
:104CF0000DD0E08E58B120688168890707D535F856
:104D0000021BC160E08E401EE0864FF00008E08F7D
:104D100058B120688168C90707D0C0682BF8020B1A
:104D2000E08F401EE0874FF00108781C05D0FEF7A9
:104D30003FFEA0EB0900B84246D2E08E0028D5D154
:104D4000E08F0028D2D136E0FFE7216815F8010B8B
:104D50000873E08E401EE08627E000BFB8F1000F28
:104D60000DD0E08E58B120688168890707D515F805
:104D7000011B0173E08E401EE0864FF00008E08FBB
:104D800058B120688168C90707D0C0680BF8010BCB
:104D9000E08F401EE0874FF00108781C05D0FEF739
:104DA00007FEA0EB0900B8420ED2E08E0028D5D154
:104DB000E08F0028D2D13B46012202212046CDF8C7
:104DC000009002F07DFB08B103260FE04A46394609
:104DD000204602F065FB18B101262020606505E041
:104DE000A06818B92068C16880680090012084F824
:104DF0005100002084F85000304631E770B5154668
:104E00000E46040003D094F8490010B107E00120D9
:104E100070BD002084F84800204600F01AF804F124
:104E200008012068FEF7BEF83146A2682068FEF748
:104E3000E3F8D4E901022946236BFEF793F8A16851
:104E4000206850F8212042F0010240F82120002083
:104E500070BDFEF789BC4FF0E0210428086903D03B
:104E600020F004000861704740F00400FAE7704742
:104E700010B5401EB0F1807F01D3012010BD4FF06E
:104E8000E02460610F21601702F016F90020A06194
:104E900007202061002010BD10B5FFF7E8FF10BD0E
:104EA0007047704730B590F83820012A20D0012291
:104EB00080F83820022380F8393003685C6824F0D9
:104EC00070045C6003685C680D682C435C60036878
:104ED0009C6824F080049C6003689C6849680C43CB
:104EE0009C6080F83920002180F83810084630BDD9
:104EF000022030BD10B5040003D094F8390010B181
:104F000007E0012010BD002084F83800204600F0A2
:104F10000DF8022084F83900211D206802F02CFED3
:104F2000012084F83900002010BD000008B51E4A99
:104F300001681E4891420ED1016841F004010160F0
:104F40000068002200F00400009008211E20FFF7F6
:104F500025F91E2022E0164A91420ED1016841F047
:104F6000080101600068002200F0080000900421A0
:104F70003220FFF713F9322010E00E4A914211D18E
:104F8000016841F0100101600068002200F010008B
:104F9000009007213620FFF701F93620BDE80840D0
:104FA000FFF7F0B808BD000000080040403802409C
:104FB000000C004000100040022180F83910016808
:104FC0000A6842F001020A60012180F839100020CD
:104FD00070470168CA6842F00102CA60006801684F
:104FE00041F0010101600020704770B5044690F85F
:104FF0003800012817D0012584F83850022084F8A1
:1050000039002068826822F0770222F47F428260B1
:105010000868502837D00DDC202859D005DC88B32B
:10502000102841D151E0022070BD302853D04028D3
:105030003AD13FE060282ED070280BD0B0F5805FC9
:1050400003D0B0F5005F2FD110E02068816821F017
:10505000070115E0CB68D1E90121206802F0ECFDE1
:105060002168886840F0770088601DE0CB68D1E94E
:105070000121206802F0E0FD2068816841F4804150
:10508000816011E01EE0CA684968206802F0E6FD10
:105090005021206806E0CA684968206802F0EFFDE8
:1050A0006021206802F0D2FD84F83950002084F895
:1050B000380070BDCA684968206802F0CFFD402101
:1050C0002068EFE700212068ECE710212068E9E77D
:1050D00020212068E6E730212068E3E7704770B5BB
:1050E0000446006801694FF00005C943890715D4DB
:1050F000C168C943890711D4E91E016101202076E6
:10510000206880698007204602D0FFF7E7FF04E0AF
:1051100000F098F8204600F096F82576206801699E
:10512000C943490717D4C168C943490713D46FF06D
:1051300004010161022020762068806910F4407F1C
:10514000204602D0FFF7CAFF04E000F07BF82046BB
:1051500000F079F8257620680169C943090716D45B
:10516000C168C943090712D46FF008010161042026
:1051700020762068C0698007204602D0FFF7AEFF86
:1051800004E000F05FF8204600F05DF82576206826
:105190000169C943C90617D4C168C943C90613D4F4
:1051A0006FF010010161082020762068C06910F4BA
:1051B000407F204602D0FFF791FF04E000F042F864
:1051C000204600F040F8257620680169C943C907E8
:1051D00008D1C168C943C90704D1891E01612046AD
:1051E00000F032F820680169C943090609D4C16892
:1051F000C943090605D46FF0800101612046FFF71D
:105200004FFE20680169C943490609D4C168C943F2
:10521000490605D46FF040010161204600F015F801
:1052200020680169C94389060BD4C168C94389064E
:1052300007D46FF0200101612046BDE87040FFF700
:1052400030BE70BD704770477047704770B504003E
:1052500004D094F83900002510B106E0012070BD9B
:1052600084F83850204600F023F8242084F83900D0
:105270002068C16821F40051C160204602F0D6FDCB
:105280002068016921F4904101612068416921F0A1
:105290002A0141612068C16841F40051C160E563A1
:1052A000202084F8390084F83A00002070BD000006
:1052B00000B500680E4987B0884217D10D480168D3
:1052C00041F0100101600068694600F0100005908F
:1052D0004FF4C06000900220019001200290032052
:1052E0000390072004900448FEF780FA07B000BD41
:1052F0000010014044380240000002402DE9F8430C
:10530000044690F839001F4616460D46202850D115
:10531000A5B19EB194F8380001284AD0012084F844
:1053200038004FF00008C4F83C80212084F8390090
:10533000FEF73EFBA6848146E68426E00120BDE818
:10534000F883E08C401EE084A0684B46B0F5805F97
:105350004FF000024FF080012046009703D002F08A
:10536000BBFEE8B90DE002F0B7FEC8B92888216895
:10537000C0F308004860206908B16D1C05E0AD1C51
:1053800003E0216815F8010B4860E08C0028D8D1B3
:105390004B46002240212046009702F09DFE08B1B6
:1053A0000320CCE7202084F8390084F838800020DE
:1053B000C5E70220C3E7FEE7C26B00211164836BDF
:1053C000034A1A64C26BD163806B0249C1637047A0
:1053D000277E0008217E00082DE9F041C26A0126DF
:1053E00013460468921C39B11B491C4D4FF04027ED
:1053F0008C4217D12C4616E0E168C2621980418EBA
:10540000491E4186418E00290AD101684A684FF63B
:105410009F731A404A601BE080F84160FEF78EFCE3
:10542000BDE8F0813C46E468C2621C80428E521E98
:105430004286428E002AF3D102688A4201D129466F
:1054400000E03946496821F0600100D03D466960BE
:10545000418D0029E0D0E3E70038004000340040EF
:1054600070B5426A0125941C0368446241B11B492E
:1054700012881B4C4FF040268B4216D1234615E074
:105480001188D960418D491E4185418D00290BD17C
:1054900001684A684FF65F731A404A6019E000BF1E
:1054A00080F84150FEF74AFC70BD3346DA60428D09
:1054B000521E4285428D002AF6D102688A4201D1ED
:1054C000214600E03146496821F0A00100D0344671
:1054D0006160418E0029E3D070BD000000380040BB
:1054E000003400402DE9F0470546846B00680068F1
:1054F000C00556D4E06BDFF8B0802C4E4FF00009A9
:105500004FF0010A4FF04027A84223D12068C1691B
:10551000C1F30121022907D0C16911F4407F03D0F2
:10552000416821F001010BE0404501D1304600E027
:105530003846406820F0010101D1304600E038468D
:105540004160A4F83290608D20B984F841A02046D3
:10555000FEF7F4FBA06BA84223D12068C169C1F318
:105560000121022907D0C16911F4407F03D04045D1
:1055700006D1304605E0416821F00201416006E0B5
:105580003846406820F0020000D03E467060A4F823
:105590002A90608E002804D184F841A02046FEF7AE
:1055A000CDFBBDE8F087000000380040003400402B
:1055B00030B4806B01684A6822F003024A600F4AE7
:1055C00004680F494FF04023944201D10A4600E09D
:1055D0001A46526822F0030200D019464A604FF082
:1055E0000001418541864FF0010180F84110416C76
:1055F00041F00801416430BCFEF7DABB00380040DE
:105600000034004010B5806BFEF7B4FB10BDFEB552
:10561000016804468868019094F841000125042837
:1056200033D101984FF69F76C00716D04868C04323
:10563000400612D4CA682046E16A8B1CE3620A80E5
:10564000618E491E6186618E39B901684A683240AF
:105650004A6080F84150FEF70FFD0198400614D5CE
:1056600020684168C94389060FD4416831404160D0
:105670002068C1688068009084F84150606C40F0F8
:10568000020060642046FEF793FB94F84100032873
:1056900034D101984FF65F76800718D520684068AE
:1056A000C043000613D4616A20468A1C62622268E5
:1056B0000988D160618D491E6185618D39B90168A4
:1056C0004A6832404A6080F84150FEF7D6FC0198A3
:1056D000000713D520684168C94389060ED4416884
:1056E0003140416020688068009084F84150606CCF
:1056F00040F0040060642046FEF75AFBFEBD000047
:1057000010B5144600F0DAF80148048010BD00001E
:105710000000086030B505460D484FF4963440F25D
:105720003F120078012806D0032804D0022805D0B3
:10573000042803D007E01346EF2200E0EF23002106
:10574000084600F099F803480580641EFCD130BD7E
:10575000000100200000086018B50B44039C0244BF
:10576000009400F001F818BD70B5141A5E1A641C9C
:10577000761C74434FF49636049DB44200D93446E7
:105780009BB292B289B280B200F076F8034801E091
:105790000580641E002CFBD170BD00000000086075
:1057A00004484188B1F5A07F01D90021418088B229
:1057B000704700000001002010B54FF0C0440120E8
:1057C00020806420FDF7BEFF28202080C02020809C
:1057D000284809210180C121218010210180C52193
:1057E0002180182101803E210180C7212180BE2116
:1057F000018036212180482101803A2121805521D4
:105800000180B1212180002101801F2101802A21F6
:1058100021800021018001800180EF2101802B2166
:105820002180002101800180012101803F21018030
:1058300034212180B721218007210180B6212180D8
:105840000A2101808221018027210180002101801D
:10585000112020806420FDF775FF2920208064201E
:10586000FDF770FF2C202080BDE810400520FDF7DB
:1058700069BF00000000086070B54FF0C0452A24E1
:105880002C800C4C060A2680C0B22080100A208092
:10589000D0B220802B202880080A2080C8B2208027
:1058A000180A2080D8B220802C202880024842800C
:1058B00070BD0000000008600001002030B54FF00E
:1058C000C0442A2222800B4A030A1380C5B21580E5
:1058D0001380C3B213802B2323800B0A1380CDB215
:1058E00015801380C9B211802C2121800249488083
:1058F00030BD000000000860000100202DE9FE4FCF
:105900009A460D9C88468146B0F5A07F54DAB8F1DE
:10591000F00F51DA04EB440109EB410001284BD4AC
:1059200008EBC401012947D42949401E4880487822
:1059300018B9B02A01D3521CD2B204EB090002906C
:1059400008F101000190234902EB8200002500EBE1
:10595000010B01E0052D09D01BF805700026F807A2
:105960000ED0012C04D0CDF800A00FE00027F5E701
:1059700008EB060081B209EB050080B2524624E034
:105980000C9850450FD0012C18D00090029806FBBF
:10599000044105FB040201980B1806FB048105FB7A
:1059A0000490FFF7E1FE761C7F0876B2082ED6DB66
:1059B0006D1C6DB2062DCDDBBDE8FE8F08EB060039
:1059C00081B209EB050080B20C9AFFF799FEEAE775
:1059D0000001002008B4000818B50244521E14B299
:1059E000009384420B4602DA0246204600E022463B
:1059F000FFF7BAFE18BD18B50A44521E14B28C4205
:105A0000009303DA0B460246214601E02346024694
:105A1000FFF7AAFE18BD2DE9F0478846111A0CB20F
:105A2000DDF820A01F4691460FFA88F100B25346D8
:105A300022460E460546FFF7CFFF2246534639B2AF
:105A40002846FFF7C9FFA7EB080004B253462246D9
:105A500031462846FFF7CFFF2246534631460FFA1C
:105A600089F0BDE8F047FFF7C6BF00002DE9FC4F05
:105A70000746DDE90B9606EB460045009B4692463D
:105A8000884600240DE000BF05FB0480CDE90096A8
:105A900000B25B465146FFF731FF641CA4B2282CCC
:105AA00002D23A5D002AEFD1BDE8FC8F10B5012487
:105AB0001149124B4FF0C042012805D0022808D0EE
:105AC00003280CD0042810D00C70362010808820B9
:105AD00010E0022008703620108028200AE0032001
