:020000040800F2
:10000000687201209D0100082D2D0108E9A8000853
:10001000292D0108290D0008358001080000000085
:10002000000000000000000000000000593C010832
:100030005D140008000000003D2D0108E93E0108A4
:10004000B7010008B7010008B7010008B7010008B0
:10005000B7010008B7010008B7010008B7010008A0
:10006000251A0008B7010008511A0008F513000806
:10007000B7010008B7010008B7010008B701000880
:1000800001140008B7010008B7010008B701000813
:10009000B7010008B7010008B7010008891A000875
:1000A000B7010008B7010008B7010008B701000850
:1000B000B7010008B7010008453F0108B701000873
:1000C000B7010008B7010008B7010008B701000830
:1000D000B7010008B7010008B7010008B701000820
:1000E000F9190008B7010008B7010008B7010008B6
:1000F000B7010008B7010008B7010008B701000800
:10010000B7010008B7010008753F0108B7010008F2
:10011000B7010008B7010008B13F0108B7010008A6
:100120000D14000819140008B7010008B7010008F1
:10013000B7010008B7010008B7010008B7010008BF
:10014000B7010008B7010008B7010008312D010808
:10015000B701000825140008B7010008B70100081E
:10016000B7010008B7010008B7010008B70100088F
:10017000B7010008B7010008B7010008000000003F
:10018000B7010008B7010008DFF80CD000F0F6FC5A
:100190000048004775C90108687201200648804779
:1001A00006480047FEE7FEE7FEE7FEE7FEE7FEE75C
:1001B000FEE7FEE7FEE7FEE7ED3E010889010008E5
:1001C0002DE9F05F0546002092469B46884606468C
:1001D000814640241BE0284641464746224600F01F
:1001E000EBFA53465A46C01A914110D311461846AD
:1001F000224600F0D2FA2D1A67EB01084F4622463C
:100200000120002100F0C9FA17EB00094E41201E21
:10021000A4F10104DFDC484631462A464346BDE8E6
:10022000F09F40EA01039B0703D009E008C9121FB1
:1002300008C0042AFAD203E011F8013B00F8013BA0
:10024000521EF9D27047D2B201E000F8012B491ECC
:10025000FBD270470022F6E710B513460A46044663
:100260001946FFF7F0FF204610BD421E12F8013F6D
:10027000002BFBD111F8013B02F8013B002BF9D117
:10028000704710B5044604E00B7800F8013B03B159
:10029000491C521EF8D2204610BD421C10F8011B0A
:1002A0000029FBD1801A704710B5002200E0521CD3
:1002B000835C8C5CA34201D1002BF8D1D8B2E1B2AF
:1002C000401A10BD034611F8012B00F8012B002A3B
:1002D000F9D11846704770B5064620F0CFFA046889
:1002E00005460A220021304600F088FA2C6070BDD5
:1002F0002DE9FE4F804681EA0300C00F0C460090B6
:1003000021F0004123F00045B8EB0200A94105D2DD
:100310004046214690461C460B46024623F00040CC
:10032000104347D0270DC7F30A00C3F30A510290C8
:10033000401A019040286BDAC3F3130040F4801B8D
:100340000098924620B10023D2EB030A63EB0B0B1B
:1003500001985946C0F14002504600F01EFA064688
:100360000D4650465946019A00F036FA10EB080047
:100370006141002487EA115284EAE7731A4340D0AE
:10038000009A62B3019A012A4FEA075215DC001B5A
:1003900061EB02014FF0004202EA0752CDE9004250
:1003A000001C41F5801132462B4600F0A5FA03B03F
:1003B000BDE8F08F40462146F9E7001B61EB0201E2
:1003C000001C41F5801300185B412018A2F50017AE
:1003D00047EB030140EAD570B6196D4111E06D0895
:1003E0004FEA360645EAC0754FEA0752001B61EB3B
:1003F0000201001C41F5801149084FEA3000001944
:10040000514132462B4603B0BDE8F04F00F065BACB
:100410000098012240000023D0EB020263EBE0735E
:10042000009821464FEAE074B8EB000061EB04014C
:10043000E9E783F000435BE781F0004158E72DE9ED
:10044000FE4F81EA030404F0004421F000410094CF
:100450004FF0000B23F0004350EA01045ED052EA53
:1004600003045BD0C3F30A54C1F30A552C44A4F22D
:10047000F3340194A0FB0254C1F3130141F4801141
:10048000C3F3130343F4801301FB024400FB034E48
:10049000840A970A44EA815447EA8357A4FB076811
:1004A00002958D0A05FB07854FEA932C04FB0C543B
:1004B0002705029D4FEA065847EA1637B5EB0805AF
:1004C0006EEB070C870E920E47EA811742EA831201
:1004D000A7FB0201B6EB0B0164EB00042B0D43EA12
:1004E0000C335E1844EB1C50DA465146E7FB020120
:1004F000C5F313044FEA0B3343EA14534FEA0432B3
:10050000019C43EA0603A4F10C040294009CCDE98B
:1005100000B400F0F1F903B0BDE8F08F002001460F
:10052000F9E72DE9F04D81EA030404F0004B21F0D6
:10053000004514464FF0000A23F0004150EA05023E
:1005400020D054EA01021DD0C5F30A570246C5F374
:100550001303C1F31300C1F30A5640F4801543F4AA
:100560008013A7EB0608101BD64608F2FD3873EB84
:10057000050002D308F1010801E092185B41B8F1CF
:10058000000F03DA00200146BDE8F08D00204FF493
:100590008011064684460EE0171B73EB050705D352
:1005A000121B63EB050306434CEA010C49084FEAB2
:1005B000300092185B4150EA0107EDD152EA030086
:1005C00012D082EA040083EA0501084305D0101B1B
:1005D000AB4106D20122002306E000224FF0004387
:1005E00002E06FF0010253101AEB06004CEB0851C9
:1005F00010EB0A0041EB0B01BDE8F04D00F06DB9C6
:1006000030B5041E71F1000404DB4FF00044404299
:1006100064EB0101141E73F1000405DB1C464FF06E
:100620000043524263EB0403801A994101D3012035
:1006300030BD002030BD30B5041E71F1000404DB74
:100640004FF00044404264EB0101141E73F10004BA
:1006500005DB1C464FF00043524263EB0403101AC3
:100660008B4101D2012030BD002030BD30B5041EC9
:1006700071F1000404DB4FF00044404264EB0101DF
:10068000141E73F1000405DB1C464FF00043524278
:1006900063EB0403101A8B4101D3012030BD00200D
:1006A00030BD0EB5C10F80EAE0700844CA070021D2
:1006B00040F233438DE80E000A460B4600F01CF969
:1006C00003B000BD0EB540F2334102910021CDE9E7
:1006D00000110A460B4600F00FF903B000BDC1F34C
:1006E0000A5210B5C1F3130140F2FF3341F48011F7
:1006F0009A4201DA002010BD40F233439A42A2F23E
:10070000334203DC524200F057F810BD904010BD58
:1007100000F0004230F000400AD0C10D01F56071D8
:10072000C0F3160042EA0151C20840071143704766
:1007300000200146704701F0004330B421F0004131
:1007400050EA010206D00A0DA2F56072C1F313014E
:10075000002A02DC30BC00207047440F44EAC10488
:10076000C100E01830BC00EBC25000F07FB830B5DB
:100770000B46014600202022012409E021FA02F55F
:100780009D4205D303FA02F5491B04FA02F52844F9
:10079000151EA2F10102F1DC30BD202A04DB203A53
:1007A00000FA02F1002070479140C2F1200320FAC4
:1007B00003F3194390407047202A04DB203A21FAC2
:1007C00002F00021704721FA02F3D040C2F120026A
:1007D0009140084319467047202A06DBCB17203A80
:1007E00041FA02F043EAE07306E041FA02F3D04036
:1007F000C2F1200291400843194670472DE9F047A5
:1008000091460F4680460446002614F8015B2DB140
:1008100000F0C6F90068405DC007F6D12B2D02D06C
:100820002D2D18D0641E4A463946204600F0BCF9EA
:1008300027B13968A14201D1C7F8008071054FF096
:1008400002040BD54042002803DD20F017F80460B5
:10085000A007BDE8F08746F48066E4E70028F8DAF0
:1008600020F00CF804606FF00040F2E70029A8BF08
:100870007047401C490008BF20F00100704710B4C9
:10088000B0FA80FC00FA0CF050EA010404BF10BC7E
:10089000704749B1CCF1200421FA04F411FA0CF1AB
:1008A00018BF012121430843A3EB0C01CB1D4FEAE4
:1008B00000614FEA102042BF002010BC704700EBDF
:1008C000C35010440029A4BF10BC7047401C49000D
:1008D00008BF20F0010010BC704710B5141E73F162
:1008E000000408DA401C41F1000192185B411A43F0
:1008F00001D120F0010010BD2DE9F04D92469B463C
:1009000011B1B1FA81F202E0B0FA80F220329046E1
:10091000FFF743FF04460F4640EA0A0041EA0B0195
:1009200053465A46084313D0114653EA010019D0E2
:10093000C8F140025046FFF73FFF05460E465046BD
:1009400059464246FFF729FF084305D0012004E03D
:1009500020463946BDE8F08D0020054346EAE076A2
:100960002C4337430A986305E40AA0EB08000022F1
:10097000FD0A44EA47540A3002D500200146E9E75F
:10098000010510196941DDE9084500196941BDE813
:10099000F04DA2E770B521F0004303430CD0C1F342
:1009A0000A550024D5EB040564EB0403D617AD1AF1
:1009B000B34102DB0020014670BD201841EB02511B
:1009C00070BD2DE9F04D00231A461B1A8A4103DB46
:1009D00000200146BDE8F08DC1F30A52C1F31301B6
:1009E00041F480154FF0000BD10702D100186D4182
:1009F000521E0027044640F2FF11384601EB620AFE
:100A00003E468046024600204FF48011FFF7D4FE98
:100A1000C2197141BB1846EB0100B4EB030C75EB36
:100A2000000C04D3E41A65EB000517460E462419A2
:100A300008F101006D4180463428E3DDF91946EBE9
:100A40000600091BA84103D24FF0FF32134601E014
:100A5000002213461BEB070046EB0A51BDE8F04DA0
:100A6000FFF73BBF2DE9F041054621F000400C4661
:100A7000284309D0C4F30A5040F23341884205DDCF
:100A800028462146BDE8F0812846FBE740F2FE31CA
:100A9000884210DC0CDB4FEA043040EA155050EA83
:100AA000053105D0104804F0004101430020E9E77A
:100AB00000200146E6E7A0F233404642C6F140027C
:100AC00028462146FFF769FE074688462846214604
:100AD0003246FFF771FE43463A46FFF7FEFE3246C6
:100AE000BDE8F041FFF759BE0000F03FC1F30A52E4
:100AF000C1F3130140F2FF3341F480119A4202DA4C
:100B000000200146704740F233439A42A2F233423A
:100B100002DC5242FFF750BEFFF73FBE30B5041E65
:100B200071F1000404DB4FF00044404264EB01012A
:100B3000141E73F1000405DB1C464FF000435242C3
:100B400063EB04038B4208BF824230BD30B5041E04
:100B500071F1000404DB4FF00044404264EB0101FA
:100B6000141E73F1000405DB1C464FF00043524293
:100B700063EB0403994208BF904230BD064C074D19
:100B800006E0E06840F0010394E80700984710345D
:100B9000AC42F6D3FFF7FCFA389B0208589B0208D8
:100BA00000487047A42F02082DE9F05F82460078C4
:100BB000002715468B460AF10104B946302801D0BA
:100BC0009DB113E014F8010B0127782803D05828B1
:100BD00001D045B10AE00DB1102D07D10027102535
:100BE00014F8010B02E0082500E00A250026B046B3
:100BF0000EE005FB080005FB06F1012701EB10469E
:100C00001FFA80F8B6F5803F00D3B94614F8010BFF
:100C1000294600F037F80028EBDABBF1000F05D0C9
:100C20000FB1641E00E05446CBF80040B9F1000F4C
:100C300006D01FF023FE02210160C81EBDE8F09F10
:100C400048EA0640FAE770B5C1F30A5201F00045E0
:100C50000024C1F3130140F2FF3341F480119A42A2
:100C600001DA002070BD40F233439A42A2F23342CF
:100C700003DC5242FFF7A0FD00E090402C43F1D08E
:100C8000404270BD3A2800D2303820F02002412A7C
:100C900001D3A2F13700884201D34FF0FF307047F3
:100CA00070B58C1810F8015B15F0070301D110F82E
:100CB000013B2A1106D110F8012B03E010F8016B5B
:100CC00001F8016B5B1EF9D12B0705D40023521EDE
:100CD0000DD401F8013BFAE710F8013BCB1A921C46
:100CE00003E013F8015B01F8015B521EF9D5A14244
:100CF000D8D3002070BD00000020704710B54FF21F
:100D000028240021C2F20004D4F8980201844DF690
:100D10001E11C2F20001C161204614F017FF2046E7
:100D200014F0F0FE002010BDFEE700000020704728
:100D300000207047B0B540F680354FF228240022DD
:100D4000C2F20005C2F20004691C204614F074FFD0
:100D500005F12101204614F069FF0020B0BD00001C
:100D60002DE9F04F91B00DF1040A0C4606464021E2
:100D70005046FFF76FFA226850463146FFF781FA76
:100D8000206801383F2838D840F6803B41F23016C1
:100D900041F2F0084FF0000900200025C2F2000BDC
:100DA000C2F20006C2F200081AF8000000B39BF875
:100DB00000703B28F0550FD1C7F140013F2F08EBE1
:100DC000070088BF0021FFF745FA404631463A4602
:100DD000FFF727FA06E000BF781C8BF80000C0B2CE
:100DE000402805D3304640218BF80090FFF732FAB7
:100DF00001352168A8B28142D6D8002011B0BDE8E3
:100E0000F08F000080B52DED028B9FED0A8AB0EEC9
:100E1000480A19F0C3FFB0EE480A18F089FC40F602
:100E2000502030EE000AC2F2000080ED020ABDEC54
:100E3000028B80BDDB0FC93D2DE9F04381B02DED64
:100E4000048B40F650250021C2F2000595ED020A00
:100E500095ED032A95ED041A421892EE001A4031DE
:100E600092ED003A92ED014A92ED025A92ED036A38
:100E7000B1F5807F31EE031A92ED043A91EE002A2B
:100E800032EE042A92ED054A92EE001A31EE051A6E
:100E900091EE002A32EE062A92EE001A31EE031A83
:100EA00092ED063A91EE002A32EE042A92ED074ABC
:100EB00092EE001A31EE031A92ED083A91EE002AF2
:100EC00032EE042A92ED094A92EE001A31EE031A2C
:100ED00092ED0A3A91EE002A32EE042A92ED0B4A84
:100EE00092EE001A31EE031A92ED0C3A91EE002ABE
:100EF00032EE042A92ED0D4A92EE001A31EE031AF8
:100F000092ED0E3A91EE002A32EE042A92ED0F4A4B
:100F100092EE001A31EE031A91EE002A32EE042A04
:100F20009AD1B0EE413A85ED032A85ED041AA2EE7E
:100F3000403A22EE020AA3EE010A10EE100AFFF771
:100F4000E7FB41EC100B20F0B3FC51EC100BFFF76A
:100F5000F2FB064600209FEDAA1AC5E9030040F601
:100F6000D41000EE106AC2F20000B4EEC10A01888B
:100F7000F1EE10FA0FDD09B29FEDA21A02EE101A7F
:100F8000B8EEC22A30EE420AA0EE012ABDEEC20A35
:100F900010EE101A01800AB2632ADCBF64210180BE
:100FA00008B2FFF77EFB9FED940B58EC109B4A466E
:100FB0004346FFF744FA074630460C46FFF7A8FBC6
:100FC00002460B4638462146FFF735FB002818BF7E
:100FD000012028706978884202D004F007F968611E
:100FE00004F004F96969401A0728C0F0B78029782D
:100FF000A87881421CBFA9700846E978884200F0B1
:10100000B280002800F0B58004F0F0F8A86104F088
:10101000EDF8E969401A2862A878002800F0A98054
:101020000120E978884200F0C7800021002829715A
:101030004BD1D5E90967B6EB470F1EDA3846FFF703
:1010400030FB4A464346FFF7FAF9044630468846E5
:10105000FFF727FB02460B4620464146FFF706FBFB
:1010600058B905F130042046FFF717F92E21215217
:1010700065A01EF053FDD5E90967B6EB470F21DDEA
:1010800007EB4700400086421CDA05F13004204699
:10109000FFF703F92D2121525CA01EF03FFD45F220
:1010A0005652686AE96AC5F2555250FB02F04FF495
:1010B000966200EBD07092FBF0F0084400EBD07029
:1010C0004010E862A878002876D0E86A9FED500AC0
:1010D00095ED0A2AB7EE008A95ED081AB7EE083AA0
:1010E000B1EE049A1E28C8BFB0EE408A2328B8EE9D
:1010F000C20AC8BFB0EE438AB8EEC11A28EE002A71
:1011000032EE023AB4EEC13AF1EE10FA14DA22EEFF
:10111000092AB4EEC12AF1EE10FA0DDD002085F89F
:1011200030003CA01EF0FAFC95ED081A95ED0A0A75
:10113000B8EEC00AB8EEC11A28EE092A22EE000A5B
:10114000B4EEC10AF1EE10FA36DC002085F830006A
:1011500031A01EF0E3FC1EF0CBFC2DE0A878E9786E
:1011600088427FF44EAFA878E97888427FF45DAF7B
:1011700022E004F03BF8E86104F038F8AA69A96AB3
:10118000801A4A000029686201D0904209DA1118D9
:1011900045F25652C5F2555251FB02F101EBD171A5
:1011A000A96201EB81029042C4BF0844A862A878FA
:1011B000E97888427FF439AF04F018F8E9696A6A7F
:1011C000401A02EB4201B0EB410F06D9287920B951
:1011D00001202871002085F8300040F2980001219C
:1011E000C2F2000001712878A9786870E970BDEC3E
:1011F000048B01B0BDE8F083333333333333E33F43
:101200000000C842ABAA2A3E2E0000002D000000BC
:101210009A99993F2F000000200000004DF27001C4
:10122000C2F200014A7801F10C00002A08BF081D33
:1012300070470000222809D1887840F60331C2F2B5
:1012400000010138B0FA80F04009087000207047B2
:101250000020704710B54FF2282443F22C310022B1
:10126000C2F20004C2F20001204614F07DFD42F6F5
:101270002C312046C2F2000114F070FD002010BD98
:1012800010B54FF228240146C2F20004204614F0A3
:1012900065FD204614F048FD002010BDF0B54A1E43
:1012A0004FF0000E02F47E42BEEB522F18BFF0BD8D
:1012B00040F6C43C4EF210020024C2F2000CC2F20E
:1012C0000002BCF8003000BF055D9EB201339555A9
:1012D00003F47E45BEEB552F04F1010518BF002332
:1012E0008D4229D205199FB201336E78D65503F489
:1012F0007E46BEEB562F04F1020618BF00238E4235
:101300001AD2AE789FB20133D65503F47E46BEEBB7
:10131000562F04F1030618BF00238E420CD2ED783D
:101320009EB201330434955503F47E45BEEB552F30
:1013300018BF00238C42C7D3ACF80030F0BD0000CA
:101340002DE9F041ADF5007D40F6C436C2F200064D
:1013500074883788A74233D04FF22820C2F20000A9
:10136000D0F89052686A58BB68464FF40071FEF797
:1013700071FFA74215D200274FF00008B7EB542F9A
:101380001BD14EF21000C4F50078C2F200004246B4
:1013900001196846FEF745FF00277780686A78B92B
:1013A00017E011D94EF21000A7EB0408C2F20000BA
:1013B000424601196846FEF734FF7780686A40B1FB
:1013C0000DF5007DBDE8F0814FF00008686A002847
:1013D000F6D14FF228241FFA88F26946C2F20004BF
:1013E000204614F0C1FC204614F0C4FC0DF5007D2D
:1013F000BDE8F0814FF2D440C2F2000003F08AB899
:101400004FF23450C2F2000003F084B840F6F040CE
:10141000C2F2000003F07EB840F65050C2F2000065
:1014200003F078B880B540F67060C2F2000003F0B7
:1014300071F88020BE214FF480724FF4FC630AF0F3
:10144000E5F940F280000021C2F20000017040F294
:1014500051000121C2F20000017080BD7047000000
:1014600070B52DED028B82B00546002001AA6B46B7
:101470000C46CDE90000284619F090F89DED010AD0
:10148000B5EE400AF1EE10FA06D141F26F209FED61
:101490006E0AC3F68320019041F224369FED6B1A49
:1014A00040F20C00C2F20006C2F2000096ED002AE3
:1014B00081EE001AB4EEC21AF1EE10FA11DD90EDD1
:1014C000003A31EE424AB7EE005A84EE033AB4EEE7
:1014D000C53AF1EE10FAC8BFB0EE453A33EE022A33
:1014E00007E090ED013A31EE424A84EE033A32EEE3
:1014F000032AB5EEC02A9FED568A9FED563A4DF26B
:101500007000F1EE10FAC2F20000B8BFB0EE482A47
:1015100022EE000AB4EEC30AF1EE10FAC8BFB0EE34
:10152000412A007D86ED002A40B113F0F5FB052825
:1015300004D013F0F1FB062840F083804FF07E507A
:10154000B7EE000A306040F20C00C2F2000090EDED
:10155000021AB4EE401AF1EE10FA0FD0B4EEC01A2F
:10156000F1EE10FA13DCB4EEC01AF1EE10FA1BDB48
:10157000012C23DA02B0BDEC028B70BD284629464F
:10158000224619F0D3FB02B0BDEC028B70BD03EE16
:10159000104A30EE412AB8EEC33A82EE038AB4EE26
:1015A000C01AF1EE10FAE3DA02EE104A30EE410A08
:1015B000B8EEC22A80EE028A012CDBDB0022002179
:1015C00005EB820231EE081A92ED000A20EE010AC4
:1015D00082ED000A41F0010292B2A2422BDA05EB41
:1015E000820231EE081A92ED000A20EE010A82ED25
:1015F000000A41F0020292B2A2421CDA05EB82021A
:1016000031EE081A92ED000A20EE010A82ED000A7E
:1016100041F0030292B2A2420DDA05EB820231EEF2
:10162000081A043192ED000A20EE010A82ED000A48
:101630008AB2A242C4DB80ED021A02B0BDEC028B7A
:1016400070BD96ED000A7EE76F12833A00C0DA455E
:101650000000000000401C4680B541F2000020213F
:10166000C4F2020003F08AFD40F69421C2F20001A8
:10167000087080BDF0B585B0044640F28400C2F227
:101680000000007828B140F28200C2F20000007829
:10169000B8B340F28305C2F20005287818B1287863
:1016A00000286AD1DAE04DF27007C2F2000797F81D
:1016B000620060B340F28800C2F20000007830B3EC
:1016C000B7F86460601C04D1332E24BF193EA7F81C
:1016D0006460FFF7A3FD012C08D1C088B1B281423C
:1016E0003EBFB7F864001930A7F8640040F29800D4
:1016F0004CF268460121C2F20000C2F200060171FC
:1017000036E060B205B0BDE8F04019F0D5BE40F259
:101710009800C2F20000C61C387F03280CD00228B3
:1017200013D0012824D197F8217013F0EFFACFB12C
:10173000642104FB010019E043F6095004FB00F7A3
:1017400013F0E4FA00EB871010E097F8217013F023
:10175000DDFA002F0CBF4FF47A7142F2107104FBD6
:10176000010003E004EB840100EB410013F08EFB69
:10177000012030702878002870D040F28200C2F238
:1017800000000078002847D042F6000000214022E7
:10179000C4F20000006801918DF80320CDE9021128
:1017A0004FF480210491C0F30341C0F3015242EA97
:1017B000820201EB42028DF80020C0F30321C0F346
:1017C000023303EB830301EB430100F00F038DF8B9
:1017D0000110C0F3021000EB800003EB400040F268
:1017E00081038DF80200C2F200031F7897B31F78BF
:1017F000012F3BD1B4F1FF3F00DC79B321448DF8D8
:1018000001101B78022B34D1B4F1FF3F00DC28B368
:1018100020448DF802002CE040F28700C2F2000064
:1018200000780238042800F2A080DFE800F0034BC3
:101830005E7081004DF27000C2F20000817F214491
:1018400011F0FF0F08BF0121CAB2642A28BF64212A
:10185000817784E0B4F1FF3F02DC0AB905B0F0BD46
:1018600022448DF800201F78012FC3D01B78022B53
:10187000CAD0D2B2C9B2C0B240F6E034182AC2F21D
:10188000000424BF00228DF800203C2924BF002141
:101890008DF801103C2824BF00208DF8020020465E
:1018A00006F08CF9204606F00BFA69462046002225
:1018B00006F010FB40F298000121C2F20000817195
:1018C00005B0F0BD4DF27000002CC2F20000C17EE8
:1018D00001DC00293FD0214411F0FF0FC1763AD03E
:1018E000C9B2052939D3042136E04DF27000C2F2A5
:1018F000000090F82810214411F0FF0F08BF0121CB
:10190000CAB2642A28BF642180F8281027E04DF26B
:101910007000002CC2F2000090F8291000DCF1B138
:101920002144CAB20A2A28BF0A2180F8291016E0E9
:101930004DF27000C2F2000090F82A10214411F01C
:10194000FF0F08BF0121CAB2FA2A28BF6FF00501B4
:1019500080F82A1003E00121C17609F0D5F840F2A1
:1019600098000121C2F20000417040F2A000012164
:10197000C2F20000017005B0F0BD0000B0B541F248
:1019800000042021C4F20204204603F0F7FB40F6D5
:101990009425C2F2000568702978884224D0287006
:1019A0002046042103F0EAFB6A786968904210D16E
:1019B000481C68604DF27000C2F2000090F88C0084
:1019C0008142B8BFB0BD0120FFF754FE002068601F
:1019D000B0BD481E68604DF27000C2F2000090F881
:1019E0008C004042814200DDB0BD4FF0FF30FFF778
:1019F00041FE00206860B0BD10B54FF4806003F078
:101A00002DFA40F26C04C2F200042078002808BFCE
:101A100001F0B2F82078002818BF10BDBDE81040D2
:101A200001F07CBC80B5042003F018FA40F60730C2
:101A30000021C2F2000001704DF20F10C2F200004E
:101A40000078002814BFBDE8804080BDFFF796BF36
:101A500080B5102003F002FA40F607300021C2F2F0
:101A6000000001704DF20F10C2F200000078002853
:101A700008BF80BD13F050F9072800D180BDBDE834
:101A8000804013F0C3B9000080B5202003F0E6F9D0
:101A900040F607300021C2F2000001704DF26C00E8
:101AA000C2F200000078002818BF80BDBDE8804069
:101AB0000BF0D2BFFEE70000F0B581B02DED0C8B2E
:101AC00082B040F6B0549FED498A9FED479A9FED52
:101AD00045BA1E2641F6E257B8EE08AAB2EE0ECA83
:101AE000B3EE01DAC2F2000404F12405F0B2022ED2
:101AF00000EE100AB8EE400A0CD800EE107A002171
:101B00000020B8EEC00A20EE080ABDEEC00A10EEB2
:101B1000102A19E00E2E0BD830EE0A0A20EE090A20
:101B2000BDEEC00A10EE101ACA4308460CE000BF12
:101B30003CEE400AB0EE4B1AFF200022A0EE0D1A38
:101B4000BDEEC10A10EE101AD2B21DF0C5FF25F885
:101B5000020BFF3F013EC9D14DF27005C2F20005F4
:101B600095F86020022A38D347F6E01040F2500181
:101B700043F2B8474FF40076C0F60200C2F200010B
:101B8000C0F6020750F822008861C8604EF21020AB
:101B9000C2F20000CDE9000602EB420007EB800034
:101BA0004188436804F10C0018F020F84EF61C2020
:101BB00095F86020C2F20000CDE9000602EB420079
:101BC00007EB80004188436804F1180018F00EF814
:101BD00095F86000B6FBF0F0208002B0BDEC0C8BF5
:101BE00001B0F0BD00007F43721C9741ABAAAA3E32
:101BF0002DE9F04F81B02DED068B8AB04DF27005C6
:101C0000C2F2000595F86700002800F02D8340F22D
:101C10005004C2F200046078002800F02583207888
:101C2000002840F0218344F62C3800204FF4007146
:101C30000422C2F200080990CDE90700404619F0DD
:101C400093F945F22C394FF400710522C2F20009D4
:101C5000484619F089F995F86200C8B144F62C316C
:101C600040F61C104FF40073C2F20001C2F20000F3
:101C70000A4616F071FF45F22C3140F628104FF459
:101C80000073C2F20001C2F200000A4616F064FFBF
:101C900095F86000012840F20281201D414642462D
:101CA0004FF4007316F094FE04F1100049464A46C2
:101CB0004FF4007316F08CFE40F6B0564146424693
:101CC0004FF40073C2F2000606F10C0017F09EFDFF
:101CD00006F1180049464A464FF4007317F096FD86
:101CE00030880022072609EB800143F62C394FEAA1
:101CF000C00AC0F5007BA1F5FF6C08EB8001C2F2C1
:101D000000094FF00108A1F5006E45F62C31C2F232
:101D1000000101F11C0400BF5A4511DA04EB0A006E
:101D2000A4F11805B31FF71F50F81C1C44F81C1C25
:101D300050F8180C44F8180CA4F11C0012E000BF75
:101D4000DEF800005CF8081C48EA4203570044E94A
:101D5000070145F62C30C2F20000014600EBC2003C
:101D600001EB8305006849F827002868551C5D458C
:101D700049F8230018DA04EB0A0142F001000127B8
:101D800051F8143C47EA400844F8143C51F8101C40
:101D900044F8101C45F62C31C2F2000101EBC003DF
:101DA00001EB880740000BE0DEF804002346A6F1B3
:101DB000040843F8140D5CF8040C1F1D5860701FD4
:101DC000196801355D4549F82010386849F8280040
:101DD0001ADA04EB0A0042F002014FF0010850F851
:101DE0000C3C48EA410744F80C3C50F8080C44F815
:101DF000080C45F62C30C2F2000000EBC10300EBEA
:101E0000870049000DE000BFDEF808002346B71E3A
:101E1000F11E4FF0010843F80C0DDCF8000058608B
:101E2000181D1B68013500685D4549F8213049F8E7
:101E3000270017DA04EB0A0142F0030051F8041CF2
:101E400044F8041C54F80A10216045F62C31C2F203
:101E500000010B4601EBC00248EA4001400003EBE1
:101E600081030AE0DEF80C0022462346314642F8A0
:101E7000040DDCF804002060701E12680CF1100CD8
:101E80000EF1100E0836203449F8202018686A1C1C
:101E9000B2F5007F49F821007FF43EAF4FE043F6F2
:101EA0002C300022C2F2000000F13C0159F802007F
:101EB00058F8023008EB020609EB020C029043F6D8
:101EC0002C3041F83C3C4B46C2F2000000EB42078C
:101ED000D6E901A02032B2F5006F0090F0680190C1
:101EE0003069039070690490B0690590F0690690BC
:101EF0004046DCF80480DCE9029E0CF1100C9CE802
:101F00007010DDF808B0C7E901BAC7F80C80804648
:101F10000098C7E9040999460198C7E9060E039895
:101F2000C7E908040498C7E90A050598C7E90C063B
:101F30000698B863C1F800C001F14001B6D143F67C
:101F40002C349FEDDDAA0026B7EE008AB6EE009A8B
:101F5000C2F20004251D00BFB0B200EE100AB8EEB8
:101F6000400A20EE0A0A17F0E3FB38EE400A15EDAE
:101F7000011A95ED002A013620EE090AB6F5007F18
:101F800020EE011A22EE000A05ED011A85ED000A85
:101F900005F10805E0D147F2A410214600220123F3
:101FA0000025C0F6020016F0ADFF204621464FF492
:101FB000007217F0F9FA002021186219403020351C
:101FC00091ED000A91ED011AB0F5006F31EE000AB3
:101FD00020EE090A82ED000A91ED020A91ED031A42
:101FE00031EE000A20EE090A82ED010A91ED040AA1
:101FF00091ED051A31EE000A20EE090A82ED020A7F
:1020000091ED060A91ED071A31EE000A20EE090A59
:1020100082ED030A91ED080A91ED091A31EE000AEA
:1020200020EE090A82ED040A91ED0A0A91ED0B1ADD
:1020300031EE000A20EE090A82ED050A91ED0C0A44
:1020400091ED0D1A31EE000A20EE090A82ED060A22
:1020500091ED0E0A91ED0F1A31EE000A20EE090AF9
:1020600082ED070AA8D1606808AA09AB4FF4807115
:102070002060204618F092FA07AA20464FF480719B
:1020800018F0F4FA40F6B0559DED081A9FED8B2A32
:10209000C2F2000595ED010A688831EE401A062863
:1020A00021EE021A04D3B5EEC01AF1EE10FA17DCD5
:1020B000B5EEC01A00220021BAEE042AF1EE10FAA1
:1020C000B4EEC21AB8BF0122022838BF0121F1EED6
:1020D00010FA01EA020180F2CD80002900F0CA80E6
:1020E00031EE000A85ED010A9DED071AB1EE002AD6
:1020F000002021EE021AB4EEC01AF1EE10FAC4BFAD
:1021000085ED011AB0EE410AB3EE041A6880B4EE10
:10211000C10AF1EE10FABEBF0020C4F2A010686040
:1021200012F0FAFD0B2807D146F200009FED640A79
:10213000C4F26A70686001E095ED010A40F2500552
:1021400088EE000A204621464FF48072C2F2000554
:1021500018F0ECFD4DF2700046F62C31C2F2000092
:10216000C2F2000190F8920000EE100A0020B8EED2
:10217000400A88EE000A00BF0A182318203093EDA9
:10218000002A92ED001AB4EEC21A32EE412AA2EEF3
:10219000001A93ED012AF1EE10FA82ED001A92ED89
:1021A000011AB4EEC21A32EE412AA2EE001A93EDE1
:1021B000022AF1EE10FA82ED011A92ED021AB4EE43
:1021C000C21A32EE412AA2EE001A93ED032AF1EE72
:1021D00010FA82ED021A92ED031AB4EEC21A32EE30
:1021E000412AA2EE001A93ED042AF1EE10FA82EDD4
:1021F000031A92ED041AB4EEC21A32EE412AA2EE8C
:10220000001A93ED052AF1EE10FA82ED041A92ED10
:10221000051AB4EEC21A32EE412AA2EE001A93ED6C
:10222000062AF1EE10FA82ED051A92ED061AB4EEC6
:10223000C21A32EE412AA2EE001A93ED072AF1EEFD
:1022400010FA82ED061A92ED071AB4EEC21A32EEB7
:10225000412AF1EE10FAA2EE001AB0F5806F82ED7D
:10226000071A89D1012028800AB0BDEC068B01B085
:10227000BDE8F08FB2EE043AB4EEC30AF1EE10FA04
:1022800004DD012802D830EE020A2BE7BFEE002A57
:102290000022B4EEC21AF1EE10FAB8BF01221140CA
:1022A00001293FF41DAFB4EEC80AF1EE10FA7FF732
:1022B0001BAF0128E7D917E7DB0FC93CCDCCCC3DDC
:1022C00000606A472DE9F04F83B04DF6C75146F6DE
:1022D0002C3B4FF664694FF0000CCAF63A71C2F21B
:1022E000000BC2F2000951FB0000C846C10901EB16
:1022F000D0704DF27001C2F2000191F860104843B5
:102300000BF10C010FFA80FA09F10E00019109F1AD
:1023100006010091BAF1010F029012DA7AE000BFD3
:1023200002980CF1010C08F50078BCF1320F00F5B1
:10233000007004BF03B0BDE8F08FBAF1010F029046
:1023400068DB0024BCF1000F00F0D880054600BF18
:102350000AEB040608EB44070834B0B2FF288FBF2D
:10236000002009EB4C2031B230F8110025F80E0C9A
:10237000701C81B2FF298FBF002009EB4C2100B2F5
:1023800031F810007880B01C81B2FF298FBF002087
:1023900009EB4C2100B231F81000B880F01C81B27A
:1023A000FF298FBF002009EB4C2100B231F810004B
:1023B000F880301D81B2FF298FBF002009EB4C212E
:1023C00000B231F810003881701D81B2FF298FBF33
:1023D000002009EB4C2100B231F810007881B01DCB
:1023E00081B2FF298FBF002009EB4C2100B231F8E8
:1023F0001000B881F01D81B2FF298FBF002009EBCA
:102400004C2100B231F81000B4F5807F25F8100B94
:102410009ED185E7BAF1FF3F3FF782AFBCF1000FD5
:1024200000F0C580002400BF0AEB040508EB440659
:10243000083C05F1FF0000B20028A6BF09EB4C21C3
:1024400031F810000020A6F8FE0105F1FE0000B2F0
:102450000028A6BF09EB4C2131F810000020A6F897
:10246000FC0105F1FD0000B20028A6BF09EB4C21DC
:1024700031F810000020A6F8FA0105F1FC0000B2C6
:102480000028A6BF09EB4C2131F810000020A6F867
:10249000F80105F1FB0000B20028A6BF09EB4C21B2
:1024A00031F810000020A6F8F60105F1FA0000B29C
:1024B0000028A6BF09EB4C2131F810000020A6F837
:1024C000F40105F1F90000B20028A6BF09EB4C2188
:1024D00031F810000020A6F8F20105F1F80000B272
:1024E0000028A6BF09EB4C2131F81000002014F59C
:1024F000807FA6F8F00197D112E700BFDDE9005612
:102500000AEB040738B23946FF28C8BFA1F580712D
:1025100009B25BF8211046F80C1CB9B2FF2994BF30
:1025200039F81000002025F8060C781C02B281B2A0
:10253000FF2AC8BFA7F1FF00FF2900B25BF82030D7
:102540000BEB8400436094BF39F81210002109EBB3
:10255000440204345180B91C0FFA81FE8BB2BEF1E3
:10256000FF0FC8BFA7F1FE01FF2B09B25BF82110D6
:10257000816007F1030194BF39F81E0000209080AC
:1025800008B28AB2FF28C8BFA7F1FD01FF2A09B22D
:102590005BF82110316006F1100694BF39F8100085
:1025A0000020B4F5807F25F8080BA9D1B8E60026F5
:1025B0000AEB06070BEB860409EB4605083E07F11C
:1025C000FF0108B20028B8BF07F2FF11002809B2C6
:1025D0005BF82110C4F8FC1307F1FE01ACBF39F819
:1025E00010000020A5F8FE0108B20028B8BF07F5CA
:1025F000FF71002809B25BF82110C4F8F81307F145
:10260000FD01ACBF39F810000020A5F8FC0108B2AC
:102610000028B8BF07F2FD11002809B25BF82110AD
:10262000C4F8F41307F1FC01ACBF39F81000002026
:10263000A5F8FA0108B20028B8BF07F5FE71002816
:1026400009B25BF82110C4F8F01307F1FB01ACBF2D
:1026500039F810000020A5F8F80108B20028B8BF2A
:1026600007F2FB11002809B25BF82110C4F8EC1343
:1026700007F1FA01ACBF39F810000020A5F8F60107
:1026800008B20028B8BF07F5FD71002809B25BF851
:102690002110C4F8E81307F1F901ACBF39F81000B4
:1026A0000020A5F8F40108B20028B8BF07F2F9111C
:1026B000002809B25BF82110C4F8E41307F1F8010F
:1026C000ACBF39F810000020A5F8F20108B20028CC
:1026D000B8BF07F5FC71002809B25BF82110C4F8F7
:1026E000E013ACBF39F81000002016F5807FA5F884
:1026F000F0017FF45DAF13E62DE9F0472DED0E8B71
:10270000C0B040F280004DF27008C2F20000C2F288
:102710000008017898F86720002A00F0598140F2FB
:102720005002C2F2000252781143090640F0508173
:1027300040F28301C2F200010978002940F048818B
:1027400040F28501C2F200010978002940F0408181
:1027500040F28601C2F200010978002940F0388178
:1027600001210170FEF75AFD40F6B05A0068C2F22E
:10277000000ADAF8081088420DD0FEF74FFDDAF8AB
:1027800008100068401A00B2FFF79CFDFEF746FDF6
:102790000068CAF808004FF6646940F61064002526
:1027A000C2F20009C2F2000409EB0500802300F523
:1027B000C04100F5C442204602F09CFA20460021A8
:1027C0004FF0FF3202F0C8F9A5F5007515F5C44FBA
:1027D000EAD16C464FF480712046FDF73BFD46F68A
:1027E0002C379FED809A9FED7EAA9FED7CCA002535
:1027F000B3EE0E8AB8EE08BAB2EE0EDAB3EE01EA24
:10280000C2F2000797ED000A20EE080ABDEEC00AEA
:1028100010EE106A1E2E09D3BAF802001E260130EF
:10282000AAF802004FF4784032E000BFF0B200EEA8
:10283000100A0228B8EE400A0ED8C0EB0020002192
:1028400000EE100A0020B8EE400A20EE090ABDEEA4
:10285000C00A10EE102A18E00E280AD830EE0B0A33
:1028600020EE0A0ABDEEC00A10EE101ACA4308464E
:102870000BE03DEE400AB0EE4C1AFF200022A0EE25
:102880000E1ABDEEC10A10EE101AD2B21DF024F9D4
:1028900085F0800101350437B5F5807F665429F84D
:1028A0001100AFD10020A021FF22BE23002508F097
:1028B0006DFC00BF002600BFA05DC0F11E00854278
:1028C00026BF0AEB4500808C002008F057FC01363B
:1028D000B6F5807FF0D101351E2DEBD18020BE21D1
:1028E0006FF01D024FF4FC6308F090FF00209E2162
:1028F0004FF48072002308F06FFFFEF78FFCC5884D
:1029000098F86040FEF78AFC01790A2937D84DF61D
:10291000C750CAF63A70A5FB0002D00901228A40CE
:10292000604312F0290F08D112F0520F0ED081B27D
:102930008022802928BF104605E081B280228029AC
:1029400028BF1046404202B2802013E0012202FA62
:1029500001F111F4A06F12D081B2B1F5807F4FF672
:10296000FE7128BF4FF4807002B208408021A1EBB5
:10297000500000B29E214FF4FC6308F02DFF98F840
:10298000660048B112F0C8F9032803D012F0C4F968
:10299000042801D10E2400E00024C4F1F000BE217F
:1029A000FF2283B2002008F0F1FB4FF448504FF6AD
:1029B0006461A0EB042340F68440C2F20001C2F23D
:1029C0000000026840F67060C2F2000002F0D6F922
:1029D00040B0BDEC0E8BBDE8F08700BF00007F4328
:1029E000721C9741ABAAAA3E2DE9F04F89B040F680
:1029F000D0461025FF204FF00109C2F20006C4F2B4
:102A00000205314641F8040F0320C1E90199C8606D
:102A1000A5F1100002F02EFA40F26C0040F6180BFF
:102A20004FF0000805F5FE640DF1040A0027C2F21C
:102A30000000C4F2020B80F8009000BF70780128FB
:102A400005D1C6F8089000F0C1FE86F801804FF469
:102A50007F0001210122A8600220CBF8000020465F
:102A600002F0A2FB4FF44030CBF800007078012850
:102A700005D1C6F8089000F0A9FE86F8018047F459
:102A80007F0001210122A860204602F08DFB7078B2
:102A900028B9C6F8088000F099FE86F801902868E9
:102AA000296800F0010001F002010843296801F0E3
:102AB00004010843296801F008010843296801F06E
:102AC00010010843296801F020010843296801F03A
:102AD00040010843296801F080010843874210D073
:102AE00050461FA13A46CDE90788CDE90588CDE9D2
:102AF0000388CDE901881DF081FE504601210FF0C9
:102B00000FFE20460121002202F04EFB0137082F64
:102B100094D140F26C074FF000080120C2F2000788
:102B200087F8008038707178012904D1B06000F016
:102B30004DFE86F80180052001210122C0F2FF0030
:102B4000A8600220CBF80000204602F02DFB4FF4D5
:102B50004030CBF8000087F8008009B0BDE8F08F66
:102B600046504741204255532050696E25642065E8
:102B700072726F72000000002DE9F04F83B040F2D6
:102B80006C060120C2F20006307012F027F918B16D
:102B900012F0C2F80B2801D1042400E0032440F60F
:102BA000D04BC2F2000B8BF800409BF801000128CB
:102BB00007D10120CBF8080000F008FE00208BF8B8
:102BC000010010274FF47F4040F618050121012233
:102BD00060F31F24C4F20207C4F202050220BC60A5
:102BE00007F5FE642860204602F0DEFA4FF440301C
:102BF000286012F0F3F820B112F08EF80B2840F0A4
:102C0000C182B0680121012201250130B060204657
:102C100002F0CAFA9BF801005E46A34620B90020E4
:102C2000B06000F0D3FD75703E683D683C68D7F831
:102C30000080D7F800A0D7F8009038680121002262
:102C4000009038680190584602F0AEFA58460121CB
:102C50000122CDF808B002F0A7FA06F0010005F055
:102C60000201084304F00401084308F00801084386
:102C70000AF01001084309F020010843009901F00F
:102C800040010843019901F08001084340F6D0411A
:102C9000C2F20001060248780D4628B90020A8605B
:102CA00000F094FD01206870386839684DF20E120A
:102CB000C2F2000200F0010001F00201084339688D
:102CC00001F004010843396801F00801084339683C
:102CD00001F010010843396801F020010843396808
:102CE00001F040010843396801F080010843C0B297
:102CF000304301B240F25000C2F2000000EE101A60
:102D000000781178B8EEC00A91B160B146F62C7027
:102D100044F62C31C2F20000C2F20001006801EB5F
:102D2000800080ED000A47F23050C2F2000011E04E
:102D300060B146F62C7045F22C31C2F20000C2F2AE
:102D40000001006801EB800080ED000A47F630309A
:102D5000C2F2000040F26C01DDF8089000224FF052
:102D600001080026C2F20001C98800EB81000121A0
:102D700080ED000A484602F017FA48460121012278
:102D800002F012FA687820B9AE6000F01FFD85F8F5
:102D900001803C683E683D68D7F800A0D7F800B0D5
:102DA000D7F800803868012100220090386801902F
:102DB000484602F0F9F948460121012202F0F4F9EF
:102DC00004F0010006F00201084305F0040140F69A
:102DD000D04508430AF00801C2F2000508430BF091
:102DE0001001084308F020010843009901F0400158
:102DF0000843019901F0800108430602687828B968
:102E00000020A86000F0E2FC012068703868396892
:102E100000F0010001F002010843396801F00401EB
:102E20000843396801F008010843396801F01001CE
:102E30000843396801F020010843396801F0400176
:102E40000843396801F080010843C0B2304301B241
:102E500040F2500000EE101A4DF20E11C2F20000C6
:102E6000C2F2000100780978B8EEC00A91B160B1F1
:102E700046F62C7045F22C31C2F20000C2F200017D
:102E8000006801EB800080ED000A47F63030C2F2A6
:102E9000000011E060B146F62C7044F62C31C2F20D
:102EA0000000C2F20001006801EB800080ED000A22
:102EB00047F23050C2F2000040F26C01DDF808A089
:102EC00000224FF001080026C2F20001C98800EB81
:102ED0008100012180ED000A504602F065F950465C
:102EE0000121012202F060F9687820B9AE6000F09B
:102EF0006DFC85F801803C683D683E68D7F800802D
:102F0000D7F800B0D7F8009038680121002200906F
:102F100038680190504602F047F9504601210122DD
:102F200002F042F904F0010005F00201084306F046
:102F30000401084308F0080108430BF0100140F6B3
:102F4000D04B084309F02001C2F2000B084300995E
:102F500001F040010843019901F08001084300029B
:102F600001909BF8010038B90020CBF8080000F070
:102F70002DFC01208BF80100386839683A683B68FD
:102F8000D7F800804DF20E15D7F80090D7F800E082
:102F9000D7F800C048F2307448F23016C2F200058B
:102FA000C2F20004C2F2000600F0010001F00201CA
:102FB0002D78084302F004010022084303F00801C1
:102FC000002D40EA010008F0100108BF26464FF02E
:102FD0000108084309F0200108430EF040010843AE
:102FE0000CF0800108430199C0B2084340F26C0123
:102FF000C2F2000100B2C98800EE100AB8EEC00AA1
:1030000006EB81000121002680ED000A504602F007
:10301000CBF850460121012202F0C6F89BF80100CE
:1030200028B9CBF8086000F0D1FB8BF801803C6830
:103030003D683E68D7F80090D7F80080D7F800B018
:10304000386801210022009038680190504602F053
:10305000ABF850460121012202F0A6F804F001006D
:1030600005F0020140F6D044084306F00401C2F224
:103070000004084309F00801084308F01001084360
:103080000BF020010843009901F040010843019929
:1030900001F0800108434FEA0028607828B9002039
:1030A000A06000F093FB01206070386839683A68CE
:1030B0003B683D683C68D7F800E0D7F800C04DF2A7
:1030C0000E1748F23016C2F20007C2F2000600F0F6
:1030D000010001F002013F78084302F004010843B7
:1030E00003F00801002F48F2307740EA010005F0B4
:1030F0001001C2F2000740EA010004F0200108BFFD
:10310000374640F26C0608430EF04001C2F200065A
:1031100008430CF080010843F188C0B240EA08007F
:1031200000B200EE100A07EB8100B8EEC00A80ED95
:10313000000A481C81B2B1F5C07F08BF0020F080B2
:1031400040F25000C2F20000007888B146F62C70C0
:10315000C2F200000168013101600168B1F5007F31
:1031600006D140F250020021C2F20002117001604B
:1031700002980121002202F017F80020307003B0FD
:10318000BDE8F08FB06849F23031C2F20001013081
:10319000B060F08801EB800090ED000ABDEEC00A3F
:1031A00010EE105AC5F307289BF80100012807D13B
:1031B0000120CBF8080000F009FB00208BF801008B
:1031C00048F47F00012101224FF00108B860204639
:1031D00001F0EAFF2046012100224FF0000901F032
:1031E000E3FF9BF80100012805D1CBF8088000F02F
:1031F000EDFA8BF801904FF47F40012101224FF04E
:10320000010860F31F252046BD6001F0CDFF204678
:10321000012100224FF0000A01F0C6FF48F63051AC
:10322000F088C2F2000101EB800090ED000ABDEED3
:10323000C00A10EE105AC5F307299BF801000128B7
:1032400005D1CBF8088000F0C1FA8BF801A049F451
:103250007F00012101224FF00108B860204601F0F3
:10326000A3FF2046012100224FF0000901F09CFF3E
:103270009BF80100012805D1CBF8088000F0A6FAE0
:103280008BF801904FF47F400121012260F31F254C
:103290002046BD6001F088FF20460121002201F098
:1032A00083FFF088411CBF28F18014D040F27F11C9
:1032B00088427FF462AF40F22200C2F2000001783F
:1032C000C1B140F27F10F0800120F070002030701A
:1032D00003B0BDE8F08F40F22200C2F20000017896
:1032E00091B1BF20F0800120F0700020307003B059
:1032F000BDE8F08F012100223171F28001700020C1
:10330000307003B0BDE8F08F0121017000203071F2
:103310000020307003B0BDE8F08F00002DE9F04FC1
:1033200083B040F26C0640F6D04801200021012411
:10333000C2F20006C2F20008C0F2FF04307088F842
:1033400000107178002943D088F8000098F8010037
:10335000012807D10120C8F8080000F037FA002042
:1033600088F8010040F2100B40F6180502200121F8
:103370000122C4F2020BC4F20205CBF808400BF59F
:10338000FE642860204601F00FFF4FF440302860B3
:10339000707850B3FDF742FF006818F025FA054633
:1033A00011F01CFD002840F0608111F0B5FC0428EC
:1033B00000F04E81032840F05881FDF72FFF4DF2B9
:1033C00070010068C2F20001B1F86810084449E1D8
:1033D000B078002800F037810134022088F800001E
:1033E00098F801000128B5D0BCE7B078002800F0BB
:1033F0002A81204601210122012501F0D5FE98F8FD
:10340000010030B90020C8F8080000F0DFF988F8A2
:103410000150DBF80000DBF800104DF20C12012522
:103420000026C2F2000200F0010001F00201084390
:10343000DBF8001001F004010843DBF8001001F094
:1034400008010843DBF8001001F010010843DBF825
:10345000001001F020010843DBF8001001F04001EA
:103460000843DBF8001001F08001084300F001017F
:1034700011704DF20D11C0F340000022C2F20001A4
:1034800008702046012101F08FFE20460121012213
:1034900001F08AFE98F8010028B9C8F8086000F029
:1034A00095F988F80150DBF80050DBF80060DBF894
:1034B0000070DBF80090DBF800A0DBF800000121D1
:1034C00000220090DBF800000190DBF80000029081
:1034D000204601F069FE20460121012201F064FE30
:1034E00005F0010006F00201084307F0040108435B
:1034F00009F0080140EA010600990AF01000304383
:1035000001F020010843019901F0400108430299AC
:1035100001F0800108434FF4706101EA001598F84A
:10352000010038B90020C8F8080000F04FF9012068
:1035300088F80100DBF80000DBF800104FEA062AEB
:103540004FF0000900F0010001F002010843DBF830
:10355000001001F004010843DBF8001001F008013D
:103560000843DBF8001001F010010843DBF80010FD
:1035700001F020010843DBF8001001F0400108438E
:10358000DBF8001001F0800108434DF20A11C0B2CF
:10359000C2F200012843012500010880B1F90000B2
:1035A000C0F3C3621044002200B200090880204624
:1035B000012101F0F9FD20460121012201F0F4FD75
:1035C00098F8010028B9C8F8089000F0FFF888F8CA
:1035D0000150DBF80000DBF80010002200F00100D1
:1035E00001F002010843DBF8001001F00401084378
:1035F000DBF8001001F008010843DBF8001001F0CF
:1036000010010843DBF8001001F020010843DBF84B
:10361000001001F040010843DBF8001001F08001C8
:1036200008434DF20811C0B2C2F2000140EA0A009C
:1036300008802046012101F0B7FD40F26C06C2F27D
:10364000000686F802900020307003B0BDE8F08FCD
:10365000FDF7E4FD4DF270010068C2F20001B1F81F
:103660006810401A18F0C0F80546002088F80000DD
:1036700011F0B4FB18B111F04FFB0B280FD198F8E3
:10368000000020F0080088F8000011F0A7FB80B1CE
:1036900098F8006098F8010001281DD024E098F8FF
:1036A000000040F0080088F8000011F097FB0028A7
:1036B000EED14DF2700198F80000C2F20001497D90
:1036C00000290CBF00F0FB0640F0040688F80060FB
:1036D00098F80100012807D10120C8F8080000F07F
:1036E00075F8002088F8010046F47F0001210122CE
:1036F0004FF00109CBF80800204601F055FD2046A7
:1037000001210022002601F04FFD98F801002F0C46
:10371000012805D1C8F8089000F058F888F8016031
:103720004FF47F462046012101224FF0010966F344
:103730001F27CBF8087001F037FD20460121002239
:103740004FF0000A01F030FD98F801002F0A01281F
:1037500005D1C8F8089000F039F888F801A066F3A0
:103760001F272046012101224FF00109CBF80870E4
:1037700001F01AFD204601210022002601F014FD6F
:1037800098F80100012805D1C8F8089000F01EF84B
:1037900088F801604FF47F400121012260F31F256A
:1037A0002046CBF8085001F0FFFC20460121002202
:1037B00001F0FAFC40F26C00C2F2000046700646CE
:1037C0000020307003B0BDE8F08F00002DE9F04715
:1037D00040F6D04040F20008C2F20000C4F20208F5
:1037E000D0E901ACCCF300190CF0030EBCF1010FD1
:1037F00040F084804FF0030C0622012403254DE0A5
:10380000901FD8F800100EFA00F30CFA00F021EA2D
:1038100000001843C8F8000009FA07F0D8F80410AF
:10382000B1430843C8F80400AF1E04FA07F61AEAC9
:10383000060F3FD0101FD8F800300EFA00F10CFA36
:1038400000F023EA00000843C8F8000009FA07F076
:10385000D8F80410B1430843C8F804006F1E04FAF6
:1038600007F61AEA060F2BD0901ED8F800300EFA91
:1038700000F10CFA00F023EA00000843C8F8000049
:1038800009FA07F0D8F80410B1430843C8F8040057
:1038900004FA05F61AEA060F17D129E0EF1E04FA1A
:1038A00007F61AEA060FABD1AF1E04FA07F61AEABA
:1038B000060FBFD16F1E04FA07F61AEA060FD3D11E
:1038C00004FA05F61AEA060F12D0D8F800300CFAFE
:1038D00002F10EFA02F023EA01010843C8F80000E1
:1038E00009FA05F0D8F80410B1430843C8F80400F9
:1038F00004350832132DD1D1BDE8F0875FEACA70D4
:1039000047D15FEA8A704FD45FEA4A7057D45FEAC2
:103910000A705FD45FEACA6067D45FEA8A606FD4D6
:103920005FEA4A6077D45FEA0A6000F180805FEA6C
:10393000CA5000F188805FEA8A5000F190805FEA07
:103940004A5000F198805FEA0A5000F1A0805FEAD7
:10395000CA4000F1A8805FEA8A4000F1B0805FEAC7
:103960004A4007D5D8F8000020F0405040EA0E70D9
:10397000C8F800005FEA0A4058BFBDE8F087D8F8F1
:10398000000020F0404040EA8C70C8F80000BDE81C
:10399000F087D8F8000020F0030040EA0E00C8F8D5
:1039A00000005FEA8A70AFD5D8F8000020F00C0064
:1039B00040EA8E00C8F800005FEA4A70A7D5D8F840
:1039C000000020F0300040EA0E10C8F800005FEA66
:1039D0000A709FD5D8F8000020F0C00040EA8E1091
:1039E000C8F800005FEACA6097D5D8F8000020F454
:1039F000407040EA0E20C8F800005FEA8A608FD568
:103A0000D8F8000020F4406040EA8E20C8F800009A
:103A10005FEA4A6087D5D8F8000020F4405040EAB9
:103A20000E30C8F800005FEA0A607FF580AFD8F872
:103A3000000020F4404040EA8E30C8F800005FEA01
:103A4000CA507FF578AFD8F8000020F4403040EA43
:103A50000E40C8F800005FEA8A507FF570AFD8F8D2
:103A6000000020F4402040EA8E40C8F800005FEAE1
:103A70004A507FF568AFD8F8000020F4401040EAC3
:103A80000E50C8F800005FEA0A507FF560AFD8F822
:103A9000000020F4400040EA8E50C8F800005FEAC1
:103AA000CA407FF558AFD8F8000020F0407040EAD7
:103AB0000E60C8F800005FEA8A407FF550AFD8F882
:103AC000000020F0406040EA8E60C8F800005FEA25
:103AD0004A407FF54FAF45E7B0B540F26C0440F681
:103AE000D0450120C2F20004C2F2000520706978BE
:103AF000012904D1A860FFF769FE002068704FF625
:103B0000000040F6180505210122CFF6FF70C4F22F
:103B10000205C0F2FF0129500221284640F8181979
:103B2000012101F041FB4FF440302860002020705B
:103B3000B0BD0000B0B540F26C0440F6D0450120A5
:103B4000C2F20004C2F2000520706978012904D194
:103B5000A860FFF73BFE002068704FF6000040F6BB
:103B6000180506210122CFF6FF70C4F20205C0F24B
:103B7000FF0129500221284640F81819012101F0BF
:103B800013FB4FF44030286000202070B0BD0000CF
:103B9000F0B581B0054643F480401F4614460E46FA
:103BA000B0F5804F07D048F2627040F24F11C0F676
:103BB000020017F089F9B7F5804F28D140F20410C0
:103BC000CAF20000854207D048F2627040F25511F7
:103BD000C0F6020017F078F9306810281ED270681D
:103BE00001380F2826D2B0680138FF282ED2F0689D
:103BF000102836D2B0694FEA307004283ED2062C25
:103C000046D80120A04010F0550F49D140E06FF098
:103C1000704045F82400002001B0F0BD48F2627009
:103C20004FF4AB71C0F6020017F04EF9706801381E
:103C30000F28D8D348F2627040F25711C0F6020044
:103C400017F042F9B0680138FF28D0D348F262700B
:103C50004FF4AC71C0F6020017F036F9F068102886
:103C6000C8D348F2627040F25911C0F6020017F052
:103C70002BF9B0694FEA30700428C0D348F2627063
:103C80004FF4AD71C0F6020017F01EF9062CB8D93A
:103C900048F2627040F25B11C0F6020017F014F9AE
:103CA000002155F82400CCF6F071084096E88E000B
:103CB0000843B16940EA021040EA032040EA0740A5
:103CC000084345F82400002001B0F0BD2DE9F0477D
:103CD0000D468046B0F1204F06D048F26270862132
:103CE000C0F6020017F0F0F8286806280ED8012167
:103CF00001FA00F010F0550F08D0686840F002009B
:103D000002280FD1A868082817D9A8E048F26270E5
:103D10008721C0F6020017F0D7F8686840F002006B
:103D20000228EFD048F262708821C0F6020017F036
:103D3000CBF8A868082800F29280012101FA00F06F
:103D400040F21111084200F08A80E868002818BF8C
:103D5000102840F09180286940F48070B0F5807F91
:103D600040F09B80686940F40070B0F5007F40F03F
:103D7000A280A86940F48060B0F5806F40F0A9800F
:103D8000E86940F40060B0F5006F40F0B080286A48
:103D900040F48050B0F5805F40F0B780686A40F42E
:103DA0000050B0F5005F40F0BE80A86A40F480404B
:103DB000B0F5804F40F0C580E86A40F40040B0F5AF
:103DC000004F40F0CC80286B40F40020B0F5002F6D
:103DD00040F0D380D5F83CE04FEA3E41052908D3B6
:103DE00048F262709621C0F6020017F06DF8D5F81F
:103DF0003CE0D5E900C205F1080A80219AE8D80420
:103E0000D5F81C90CFF6F07158F82C00082B00EA7A
:103E1000010040EA020040EA030040EA040040EAF0
:103E2000060005F1200640EA070056CE2D6B40EA59
:103E30000A0040EA090040EA010040EA020040EAC4
:103E4000040040EA060040EA0E0040EA050008BF10
:103E500040F0400048F82C000020BDE8F08748F210
:103E600062708921C0F6020017F02EF8E868002879
:103E700018BF10283FF46FAF20283FF46CAF48F212
:103E800062708A21C0F6020017F01EF8286940F41B
:103E90008070B0F5807F3FF465AF48F262708B218F
:103EA000C0F6020017F010F8686940F40070B0F531
:103EB000007F3FF45EAF48F262708C21C0F60200D2
:103EC00017F002F8A86940F48060B0F5806F3FF405
:103ED00057AF48F262708E21C0F6020016F0F4FF70
:103EE000E86940F40060B0F5006F3FF450AF48F26D
:103EF00062709021C0F6020016F0E6FF286A40F4D6
:103F00008050B0F5805F3FF449AF48F26270912174
:103F1000C0F6020016F0D8FF686A40F40050B0F511
:103F2000005F3FF442AF48F262709221C0F6020097
:103F300016F0CAFFA86A40F48040B0F5804F3FF405
:103F40003BAF48F262709321C0F6020016F0BCFF4E
:103F5000E86A40F40040B0F5004F3FF434AF48F257
:103F600062709421C0F6020016F0AEFF286B40F498
:103F70000020B0F5002F3FF42DAF48F2627095217C
:103F8000C0F6020016F0A0FFD5F83CE04FEA3E4133
:103F90000529FFF42EAF23E7F0B581B015460C4696
:103FA0000646B0F1204F07D048F262704FF48C7192
:103FB000C0F6020016F088FF206810281FD2606843
:103FC00001380F2827D2A0680138FF282FD2E068D7
:103FD000102837D2206902380F283FD26069023892
:103FE000102847D2A0694FEA307004284FD2062D1E
:103FF00057D80120A84010F0550F5AD151E048F28F
:10400000627040F21911C0F6020016F05DFF6068A0
:1040100001380F28D7D348F262704FF48D71C0F683
:10402000020016F051FFA0680138FF28CFD348F2F4
:10403000627040F21B11C0F6020016F045FFE06806
:104040001028C7D348F262704FF48E71C0F6020098
:1040500016F03AFF206902380F28BFD348F2627089
:1040600040F21D11C0F6020016F02EFF6069023802
:104070001028B7D348F262704FF48F71C0F6020077
:1040800016F022FFA0694FEA30700428AFD348F23F
:10409000627040F21F11C0F6020016F015FF062DE7
:1040A000A7D948F262704FF49071C0F6020016F082
:1040B0000BFF06EB85000027D0F804C094E84C0005
:1040C000D4E90351CFF6F077D4E905E407EB0151C9
:1040D0000CF040473A4342EA031242EA062242EA1F
:1040E000054211430EF1FE02214341EA02614160A3
:1040F000002001B0F0BD00002DE9F04F89B041F281
:1041000020240393CDE901019020924600264FF42C
:1041100080550DF123010DF122020123C2F20004AA
:104120008DF823008DF822600095204604F04AFCAB
:104130000DF123010DF12202204601238DF82360A9
:104140008DF82260009504F03DFC9DF822900DF161
:1041500023010DF12202204601238DF823608DF802
:104160002260009504F02EFC9DF82280642016F059
:104170005FFFD0200DF123010DF1220201238DF804
:10418000226000958DF82300204604F01BFC0DF101
:1041900023010DF12202204601238DF823608DF8C2
:1041A0002260009504F00EFC9DF822700DF12301B1
:1041B0000DF12202204601238DF823608DF8226044
:1041C000009504F0FFFB48EA0920BAF1000FC0F3A4
:1041D000CC0005909DF8220040EA0720C0F3CC00F7
:1041E000CDF810A00690504600F0818041F22025C5
:1041F00000274FF0000B4FF48054C2F2000500BFBF
:1042000090200DF123060DF1220801238DF822B034
:1042100000948DF8230028463146424604F0D2FB34
:1042200028463146424601238DF823B08DF822B04E
:10423000009404F0C7FB9DF822003146424601235A
:104240008DF823B08DF822B000940790284604F032
:10425000B9FB9DF822A0642016F0EAFED02031467A
:10426000424601238DF822B000948DF823002846A1
:1042700004F0A8FB28463146424601238DF823B0BE
:104280008DF822B0009404F09DFB9DF82290284602
:104290003146424601238DF823B08DF822B00094B8
:1042A00004F090FB07984FF6F8714AEA002000EA04
:1042B0000102C0F3CC009DF82210BBEBD20F41EA03
:1042C0000921C1F3CC0118BF00290BD0069A89B28D
:1042D00080B211FA82F149080691059910FA81F02D
:1042E0004008059001370499F8B2884288D3059FA9
:1042F000069B40F65042DFED5D4AC2F20002B8B2C2
:1043000099B292ED0A1A92ED0B2A92ED065A92EDAD
:10431000076A92ED044A92ED057A00EE101A03EE58
:10432000100AF8EE400AB8EE433A32EE410AD2EDF6
:10433000081AD2ED092A30EEC12A73EE453A36EE5C
:10434000455AB7EE001A33EE443A37EE444A82EE4D
:10435000000A83EE855A32EEE12A71EEE00A83EE1E
:10436000044AB5EEC05A31EE406A80EE827A31EEF0
:10437000452AF1EE10FAB5EEC06A37EE013AB8BF41
:10438000B0EE645AF1EE10FAB8BFB0EE646AB4EE63
:10439000C15AF1EE10FAB4EEC16AC8BFB0EE415A8C
:1043A000F1EE10FAB5EEC00AC8BFB0EE416AF1EE08
:1043B00010FAB5EEC04AB8BFB0EE640AF1EE10FADA
:1043C000B5EEC03AB8BFB0EE644AF1EE10FAB5EE01
:1043D000C02AB8BFB0EE643AF1EE10FAB8BFB0EE42
:1043E000642A039830B1019807800298038009B0CD
:1043F000BDE8F08FB4EEC14A26EE055A9FED1C6A67
:104400009FED1C7AF1EE10FAB4EEC10AC8BFB0EE0F
:10441000414AF1EE10FAB4EEC12AC8BFB0EE410A2B
:10442000F1EE10FAB4EEC13AC8BFB0EE412AF1EE97
:1044300010FAC8BFB0EE413AB0EE451AA0EE041A29
:10444000A3EE025A21EE060A25EE071ABDEEC00AB7
:10445000BDEEC11A019910EE100A11EE103A088053
:104460000298038009B0BDE8F08F00BF0000000093
:104470000000A0430000704370B5866D044600F054
:10448000B5FE054694F8350002282DD12068016854
:1044900021F016010160416921F080014161216C28
:1044A00009B9A16C19B1016821F008010160016826
:1044B00021F001010160006810F0010F05D11BE03F
:1044C0002068006810F0010F16D000F08FFE401B2E
:1044D0000628F5D320206065002084F834000320EE
:1044E00084F83500C0B270BD002084F8340080200C
:1044F00060650120C0B270BDE06D3F2101FA00F09F
:10450000B060012084F83500002084F83400C0B287
:1045100070BD0000F0B581B00446002048F2B5132C
:104520000821009040F63810C1F64E33C2F2000068
:104530000268D4E9166037688140A2FB032539423E
:104540000DD02268136813F0040F08D0136823F00D
:1045500004031360B160616D41F0010161650121E7
:104560008140394209D02268526912F0800F04D08C
:10457000B160616D41F00201616504218140394201
:1045800009D02268126812F0020F04D0B160616D88
:1045900041F00401616510218140394219D0206841
:1045A000026812F0080F14D0B1600268016812F4BA
:1045B000802F08D1C9055EBF016821F008010160A4
:1045C000216C21B905E0080345D4216C09B12046CE
:1045D0008847E16D202000FA01F23A4248D0206875
:1045E000036813F0100F43D0B26094F835300268BE
:1045F000052B1ED122F016020260426922F08002D1
:104600004261226C0AB9A26C1AB1026822F0080257
:1046100002603F208840B060012084F8350000200F
:1046200084F83400216D00295FD02046884701B00E
:10463000F0BD0168520312D4C90515D4016821F0F8
:1046400010010160012084F83500002084F8340056
:10465000E16B59B90CE0A16C0029B8D1B9E70803A6
:1046600002D4616C11B903E0E16B09B120468847BF
:10467000606DD0B3606D10F0010F32D00521A80A33
:1046800084F8351021680A6822F001020A60009A55
:104690000132824200921ED80A6812F0010F1AD02D
:1046A000009A01328242009215D80A6812F0010F76
:1046B00011D0009A0132824200920CD80A6812F09E
:1046C000010F08D0009A01328242009203D80A6892
:1046D00012F0010FDBD1012084F83500002084F8AE
:1046E0003400E16C09B12046884701B0F0BD0000FC
:1046F0002DE9F041044600F079FD054604B346F289
:104700000F412068C4F2020188421DDC46F26F01AD
:10471000C4F20201884230DC46F23F01C4F20201D9
:10472000884250DC46F21001C4F20201884200F0D7
:10473000848046F22801C4F2020188427DD075E0EF
:104740000122D0B2BDE8F08146F26F41C4F202010D
:10475000884225DC46F23F41C4F2020188423FDC38
:1047600046F21041C4F20201884266D046F2284166
:10477000C4F20201884260D058E046F29F01C4F2C0
:104780000201884239DC46F27001C4F2020188421B
:1047900053D046F28801C4F2020188424DD045E070
:1047A00046F29F41C4F20201884233DC46F2704176
:1047B000C4F20201884240D046F28841C4F20201AC
:1047C00088423AD032E046F24001C4F20201884207
:1047D00033D046F25801C4F2020188422DD025E0C0
:1047E00046F24041C4F20201884226D046F25841C6
:1047F000C4F20201884220D018E046F2A001C4F2BF
:104800000201884219D046F2B801C4F2020188427E
:1048100013D00BE046F2A041C4F2020188420CD052
:1048200046F2B841C4F20201884206D048F6D310DD
:10483000B821C0F6020016F047FB6068B0F1606F67
:104840000AD04FEA7060072806D348F6D310B92182
:10485000C0F6020016F038FBA068002818BF4028F8
:1048600022D1E06840F40070B0F5007F2BD12069C0
:1048700040F48060B0F5806F32D16069002818BFC5
:10488000B0F5006F39D0B0F5805F36D048F6D31060
:10489000BD21C0F6020016F017FBA069002818BF62
:1048A000B0F5005F30D0F5E08028DAD048F6D310BC
:1048B000BA21C0F6020016F007FBE06840F4007071
:1048C000B0F5007FD3D048F6D310BB21C0F602006C
:1048D00016F0FAFA206940F48060B0F5806FCCD011
:1048E00048F6D310BC21C0F6020016F0EDFA60695C
:1048F000002818BFB0F5006FC5D1A069002818BF07
:10490000B0F5005F40F0C680E069002818BF20289D
:1049100040F0D180206A4FEA3040042806D348F6A0
:10492000D310C021C0F6020016F0CEFA606A00B3C0
:10493000042808D048F6D310C121C0F6020016F0B2
:10494000C3FA606AA8B1A06A042880F0C680E06A51
:104950004FEAF050042880F0CD80206B4FEA705071
:10496000042806D348F6D310C821C0F6020016F07A
:10497000ABFA022084F83500002084F83400206867
:10498000016821F001010160016811F0010F06D1F9
:1049900013E000BF2068016811F0010F0DD000F096
:1049A00025FC401B0528F5D9032320210322D0B282
:1049B000616584F83530BDE8F08148F23F02016856
:1049C000D4E9013504F10C08CFF2100201EA020C1F
:1049D00098E8C201D4E9072E43EA0C032B4319439C
:1049E000636A31433943042B41EA080141EA020179
:1049F00041EA0E0220D1D4E90BE142EA0E02BEF1F7
:104A0000000F41EA020101604169A56A21F0070136
:104A100041EA050141F0040C14D0B8F5005F77D0ED
:104A2000B8F1000F40F08580022D00F08680012D46
:104A300000F0788035B980E00260416921F007011B
:104A400041EA030C6FF00F0140F2FF32C0F814C0CE
:104A5000012351FA80F190434AF6AB22CAF6AA220A
:104A60005F29A1FB021288BF40F00400110947F240
:104A7000B412A065C0F60202515C3F22E16502FA61
:104A800001F1002281600021D0B2616584F83530E7
:104A9000BDE8F081B0F5804F3FF436AF48F6D31053
:104AA000BE21C0F6020016F00FFAE069002818BF18
:104AB00020283FF42FAFB0F5807F3FF42BAF48F6AE
:104AC000D310BF21C0F6020016F0FEF9206A4FEAAB
:104AD00030400428BFF423AF28E748F6D310C6219E
:104AE000C0F6020016F0F0F9E06A4FEAF050042830
:104AF000FFF433AF48F6D310C721C0F6020016F01A
:104B0000E3F9206B4FEA70500428BFF42BAF30E775
:104B1000032D97D8012340210122DFE805F0020E82
:104B20000203B1E7AEF1C071B1FA81F1490949B9A7
:104B300088E7032D06D37FF485AFCEF3006100290B
:104B40003FF480AF012340210122D0B2616584F897
:104B50003530BDE8F08100002DE9F04F81B01646F8
:104B60008846044600F042FB074694F835000228C8
:104B700023D12068006810F4807F28D11021B8F17B
:104B8000000F08BF2021D4E9165001FA00F9296866
:104B900011EA090F23D0616D19B1616D11F0010F98
:104BA00026D1B8F1000F35D0102101FA00F0A8602D
:104BB0000020C0B201B0BDE8F08F002084F83400BE
:104BC000802060650120C0B201B0BDE8F08F4FF4D5
:104BD000807060650120C0B201B0BDE8F08F711C2B
:104BE00026D0002E48D1616D11F0010F74D0D2E7AC
:104BF0002046FFF741FCE06D302101FA00F0002172
:104C0000A860012084F8350084F83410C0B201B0E7
:104C1000BDE8F08F302101FA00F0A860012084F88F
:104C20003500002084F83400C0B201B0BDE8F08F38
:104C3000042101220823814082408340676D17F0E0
:104C4000010FA8D12F683B4204D0666D46F00106E3
:104C50006665AB603A4204D0666D46F00206666552
:104C6000AA60394204D0666D46F004066665A96004
:104C700017EA090FE2D08EE74FF0010B4FF0040A5C
:104C8000616D11F0010F7FF486AF00F0AFFAC01B29
:104C9000B04221D8E06D082101FA00F229680A42E9
:104CA00004D0636D43F001036365AA600BFA00F260
:104CB0000A4204D0636D43F002036365AA600AFAF6
:104CC00000F20A4204D0636D43F004036365AA60F6
:104CD00011EA090FD4D05EE720206065002084F837
:104CE0003400012084F835000320C0B201B0BDE8D3
:104CF000F08F0000F0B581B00D460746581E4FF604
:104D0000FF711E461446884207D348F6D31040F27E
:104D10009D11C0F6020016F0D7F897F8340001286C
:104D200003D10220C0B201B0F0BD012087F83400E9
:104D300097F8350001281AD1022087F835000020A5
:104D400078653968BA680B68402A2A4623F48023BC
:104D50000B604E6008BF22468A6008BF2C46CC60BC
:104D60000A6842F001020A60C0B201B0F0BD002042
:104D700087F834000220C0B201B0F0BD2DE9F04147
:104D80000E460446D0F85880581E4FF6FF711F4655
:104D90001546884207D348F6D3104FF4E671C0F6A3
:104DA000020016F091F894F8340001283BD001205D
:104DB00084F8340094F83500012831D1022084F8B9
:104DC0003500002060652068A168026840293146EE
:104DD00022F480220260476008BF29464FF03F025C
:104DE000816008BF3546C560E16D02FA01F1C8F87F
:104DF0000810016841F016010160416941F080012D
:104E00004161216C00291EBF016841F00801016069
:104E1000016841F0010101600020C0B2BDE8F081ED
:104E2000002084F834000220C0B2BDE8F081000008
:104E3000B0B5044600F0DAF9054640F2AC00611C5A
:104E4000C2F20000007818BF044400BF00F0CEF9A1
:104E5000401BA042FAD3B0BD7047000043F6144196
:104E6000C4F201010A68024214BF08607047FFF7EC
:104E7000F3BF00002DE9F04F83B0054600F13E403E
:104E80000C4600F1FF704FEAB026092E06D348F613
:104E90009A10B321C0F6020016F016F8206800211F
:104EA000B1EB104F01D180B230B948F69A10B4215D
:104EB000C0F6020016F008F84FF6FF716068C1F204
:104EC000100188420BDC122800F22B81012101FA2B
:104ED00000F00F21C0F20601084226D121E14FF671
:104EE000FF71C1F2210188420FDC0021C1F21101E2
:104EF00088421AD00021C1F21201884215D0002147
:104F0000C1F22101884210D00BE10021C1F222013F
:104F100088420AD00021C1F23101884205D0002127
:104F2000C1F23201884240F0FC80A068032806D319
:104F300048F69A10B621C0F6020015F0C5FF41F6FA
:104F4000004008214FF0010C4FF0000B4FF0000A19
:104F50004FF00009C4F20200854204F1100008BFBE
:104F60000721072E38BF31460190009120680CFAC6
:104F700009F6304211D100BF09F101090BF1020B12
:104F80000AF1040AB9F1100F04BF03B0BDE8F08FB5
:104F900020680CFA09F63042EED0606840F010014B
:104FA00012292BD101980068102806D281B24BF645
:104FB000FF7222FA01F1C9070AD148F69A10C721F7
:104FC000C0F6020015F080FF01984FF0010C02E0DE
:104FD0005AA101EB80004FF6FC730AF01C010F226E
:104FE0000068C7F6FF738A4003EA590388402B44E0
:104FF0001F6A27EA020210431862606803222B68C6
:1050000000F00301122802FA0BF201FA0BF123EA75
:1050100002036FEA020841EA0301296021D80CFA71
:1050200000F111F0061F1CD0E16804290AD348F6EC
:105030009A10DA21C0F6020015F046FF6068E168B8
:105040004FF0010CAA6801FA0BF102EA08021143C1
:10505000A960C0F300116A6801FA09F1B243114373
:105060006960E968A268C00001EA080102FA0BF26F
:1050700041EA0201E9607FF57FAF00200AF00C02EF
:105080000F23029043F644009340C4F2020001460D
:10509000006840F480400860086843F60041C4F2AC
:1050A000010100F480400F46029029F003000844FB
:1050B00002994FF60841CFF6FF718E464158994349
:1050C000009B03FA02F2114340F80E103868626840
:1050D00040EA060112F4803F08BF20EA060112F4FC
:1050E000003F3960786840EA060108BF20EA0601FF
:1050F00012F4801F7960B86840EA060108BF20EA10
:10510000060143F60C4012F4001FC4F20100B9601E
:105110000346006840EA060108BF20EA060119605C
:105120002AE748F69A10B521C0F6020015F0CCFE29
:10513000A0680328BFF4FCAE01E700BF0000000038
:105140000100000002000000030000000400000055
:105150000500000006000000070000000800000035
:10516000090000000A0000000B0000000C00000015
:105170000D000000000000000F000000B0B50C465C
:10518000054621B12869204018BF0120B0BD48F66E
:105190009A104FF4BF71C0F6020015F095FE286911
:1051A000204018BF0120B0BD70B516460C4605461C
:1051B00021B16EB1012E0ED1AC6170BD48F69A10CE
:1051C00040F29F11C0F6020015F07EFE002EF1D1D4
:1051D0002404AC6170BD48F69A104FF4D071C0F64B
:1051E000020015F071FEAC6170BD000040F2AC0031
:1051F000C2F200008068704770B586B0044600684F
:1052000043F20045C4F20005816805F58066B042AE
:1052100005914FF0402104BF43F20041C4F2000168
:105220008A680492426803924A680292626842F471
:105230000072B2F5007F40F09180059911F0020FE5
:1052400019D0039911F0800F15D0616A8A1C62622F
:105250000988C160618D01396185618D59B94168E5
:1052600021F0A0014160608E28B9012084F841003E
:10527000204600F0CFF9049810F0010F1FD00298DB
:1052800010F0400F1BD02068B042284618BF4FF0E6
:105290004020C168E26A931CE3621180618E01398B
:1052A0006186618E59B9416821F060014160608D6D
:1052B00028B9012084F84100204600F0ABF9049899
:1052C00010F0400F22D0029810F0200F1ED020685E
:1052D0002946B04218BF4FF040214A6822F06002D0
:1052E0004A60416821F0A001416000210191C1683C
:1052F0000191806801900198012084F84100606C60
:1053000040F002006064204600F0EEF9059810F0CD
:10531000080F00F09F80039810F0200F00F09A8093
:1053200020684168B04221F0A001416018BF4FF0F1
:105330004025696821F06001696000210191806861
:1053400001900198012084F84100606C40F0040055
:105350006064204600F0C8F906B070BD049810F0F3
:10536000020F19D0029810F0800F15D0606A821CCD
:1053700062620088C860608D01386085608D58B9B0
:10538000486820F0A0004860608E28B9012084F8A9
:105390004100204600F03EF9059810F0010F1AD0A8
:1053A000039810F0400F16D02068C168E26A931C81
:1053B000E3621180618E01396186618E59B941685D
:1053C00021F060014160608D28B9012084F841001E
:1053D000204600F01FF9059810F0400F1BD00398ED
:1053E00010F0200F17D020684168B04221F0600112
:1053F0004160284618BF4FF04020416821F0A001CD
:105400004160012084F84100606C40F0020060645B
:10541000204600F069F9049810F0080F1AD002989D
:1054200010F0200F16D02068B04218BF4FF0402572
:10543000696821F0A0016960416821F06001416064
:10544000012084F84100606C40F004006064204654
:1054500000F04AF906B070BD2DE9F04782B004466D
:1054600090F8410015460E46012810D1002E4FF04D
:10547000010018BF002D06D02BB1274617F8400FAA
:1054800001280DD10220C0B202B0BDE8F08704F1BE
:105490004007022000213970C0B202B0BDE8F08799
:1054A0000120666284F84000E5622168C86900F066
:1054B0000700052803D0032808BF5B0000E05B005D
:1054C000002023856385238663864AF6ED0E4AF61F
:1054D000F91C4AF6B11360640520C0F6000EC0F650
:1054E000000CC0F6000384F84100E26BC2E90FEC47
:1054F000D364A06BC0E90FECC364CB6903F4807381
:1055000043F40073B3F5007F34D143F200494FF008
:1055100040204FF04028C4F2000909F5806A514547
:1055200004BF43F20040C4F20000238E40F00C019F
:1055300010462A46FFF722FC21684FF040205145D3
:1055400004BF43F20040C4F20000426842F001028E
:10555000426001F10C023146238DA06BFFF70EFC77
:105560002068416841F002014160C16911F4806F17
:1055700040D04CE0CA6902F44072B2F5407F06D1D7
:1055800000220192CA6801928A680192019A43F24C
:1055900000494FF04028C4F2000909F5806A5145DE
:1055A0004FF0402104BF43F20041C4F20001238DBB
:1055B00041F00C023146FFF7E1FB21684FF040203B
:1055C000514501F10C0104BF43F20040C4F2000058
:1055D000426842F0020242602A46238EE06BFFF7E7
:1055E000CDFB2068416841F001014160C16911F4BF
:1055F000806F0CD1504508BFC846D8F81C1041F444
:105600008061C8F81C10C16941F48061C16100204B
:1056100040E7000043F600410068C4F20001884200
:1056200000D070474DF61E70C2F2000000780028CE
:1056300018BF704740F22100C2F20000017829B182
:1056400040F2A4010122C2F200014A70B0B540F25A
:10565000A4040125C2F20004257005700FF05CFB64
:105660000B2802BF40F22200C2F200000570606801
:1056700000F5C0706060BDE8B040704743F600417F
:105680000068C4F20001884200D070474DF61E70D9
:10569000C2F200000078002818BF704740F22100D5
:1056A000C2F20000017829B140F2A4010122C2F245
:1056B00000014A70B0B540F2A40400210125C2F2F5
:1056C0000004217005700FF027FB0B2802BF40F289
:1056D0002200C2F200000570606800F5C0706060D2
:1056E000BDE8B040704700007047000090F84100EE
:1056F00070470000B0B50446002800F0CC80206858
:1057000043F60041C4F2000140F48060884217D1A2
:1057100060684FEA302004281FD2A0684FEA30109A
:10572000042827D30B2825D048F29A704FF48A71A9
:10573000C0F6020015F0C8FBE06805281DD933E06B
:1057400048F29A704FF48971C0F6020015F0BCFB64
:1057500060684FEA30200428DFD348F29A7040F2A4
:105760001311C0F6020015F0AFFBA0684FEA30102D
:105770000428D7D2E068052816D8012101FA00F0E4
:1057800010F02B0F10D0206940F40070B0F5007FAE
:1057900018D16069B0F5FA5F20D34EF60161C0F20E
:1057A000020188421CD223E048F29A7040F215119F
:1057B000C0F6020015F088FB206940F40070B0F5D7
:1057C000007FE6D048F29A704FF48B71C0F6020069
:1057D00015F07AFB6069B0F5FA5FDED2022807D0D7
:1057E00048F29A7040F21711C0F6020015F06CFBF7
:1057F000A06940F0080008284FD1E069022857D27C
:1058000094F8410000285FD0022140F6BF7384F86D
:1058100041102068C2699A43C2610162616902292C
:1058200003D12169022200235DE0D4E902010022B4
:1058300021284FF0200038BF0122002908BF102086
:1058400000FA02F5012001F053FA2169B1F5007F59
:1058500004D1E268002A0CBFED00AD00B0FBF5F00A
:1058600062696FF0010300EB80004000B0FBF2F0D2
:105870004CF6CD420530CCF6CC42A0FB0202C2F37E
:10588000C000C0EBD20203EB5203FD2B28D9606CA1
:1058900040F0100060640120B0BD48F29A704FF4EF
:1058A0008C71C0F6020015F00FFBE0690228A7D347
:1058B00048F29A7040F21911C0F6020015F004FB8C
:1058C00094F8410000289FD14AF60120C0F600005C
:1058D0006063002084F84000204600F05FF893E702
:1058E0000302206852081A43114340F6BF72016256
:1058F000C169D4E901C3E56821EA0202A16942EA6B
:105900000C021A432A43114341F40061C161226A27
:10591000F2B3012A0CD048F29A704FF4DA71C0F653
:10592000020015F0D1FA206A012831D1D4E9000C27
:1059300045F2F9114FF04022C0F60001616343F2D5
:105940000041C4F2000101F58061884240F6BF7158
:1059500004BF43F20042C4F20002D06988434CF411
:105960000071D0610220B1F5007F1062D06914BFD0
:1059700000214FF480710843D4E90213A56908435C
:105980004FF2FF7118432843084040F40060D06193
:1059900000200121606484F84110B0BD2DE9F04F72
:1059A00087B0002740F6000504460697CDE9047746
:1059B000CDE90277C4F202050068A5F5E631884218
:1059C00002D007B0BDE8F08F40F25C104FF0010943
:1059D0004FF0020A02AE4FF003084FF0060BC4F27C
:1059E0004720C0F8009043F630000197C4F202004F
:1059F000016941F400410161016901F40041019133
:105A000001990197016841F001010160016801F00D
:105A10000101019101990197016841F004010160C0
:105A20003146006800F0040001900198CDF80CA008
:105A30004FF400400290A5F50060CDF81090CDF82D
:105A40001480CDF818B0FFF715FA4FF4A050CDF838
:105A50000CA0314602902846CDE90498CDF818B044
:105A6000FFF708FACDF80CA04FF4006A0520314684
:105A7000CDF808A0CDE9049806902846FFF7FAF97A
:105A80004FF2D44546F210064FF0C0604FF48063E9
:105A90004FF400514FF480724FF4403B4FF0040933
:105AA000C2F20005C4F20206C5E900602846C5E955
:105AB0000277C5E9043AC5E90612C5E908B9C5E99E
:105AC0000A872F63FEF714FE002818BFFBF7F2FFCA
:105AD00006F178004FF2345600214022E563AC63B2
