:020000040800F2
:10000000903101209D010008AD1A0108A9A0000847
:10001000A91A0108C90B0008CD6201080000000000
:100020000000000000000000000000004D2001085A
:10003000A91C000800000000BD1A010815250108D0
:10004000B7010008B7010008B7010008B7010008B0
:10005000B7010008B7010008B7010008B7010008A0
:1000600005200008B701000831200008911C000895
:10007000B7010008B7010008B7010008B701000880
:100080009D1C0008B7010008B7010008B70100086F
:10009000B7010008B7010008B7010008692000088F
:1000A000B7010008B7010008B7010008B701000850
:1000B000B7010008B701000871250108B701000861
:1000C000B7010008B7010008B7010008B701000830
:1000D000B7010008B7010008B7010008B701000820
:1000E000D91F0008B7010008B7010008B7010008D0
:1000F000B7010008B7010008B7010008B701000800
:10010000B7010008B70100089D250108B7010008E4
:10011000B7010008B7010008E1250108B701000890
:10012000B7010008B7010008B7010008B7010008CF
:10013000B7010008B7010008B7010008B7010008BF
:10014000B7010008B7010008B7010008B11A01089B
:10015000B7010008B7010008B7010008B70100089F
:10016000B7010008B7010008B7010008B70100088F
:10017000B7010008B7010008B7010008000000003F
:10018000B7010008B7010008DFF80CD000F03CFC14
:1001900000480047C99F0108903101200648804768
:1001A00006480047FEE7FEE7FEE7FEE7FEE7FEE75C
:1001B000FEE7FEE7FEE7FEE71925010889010008D2
:1001C0002DE9F05F0546002092469B46884606468C
:1001D000814640241BE0284641464746224600F01F
:1001E00001FA53465A46C01A914110D31146184697
:1001F000224600F0E8F92D1A67EB01084F46224627
:100200000120002100F0DFF917EB00094E41201E0C
:10021000A4F10104DFDC484631462A464346BDE8E6
:10022000F09F40EA01039B0703D009E008C9121FB1
:1002300008C0042AFAD203E011F8013B00F8013BA0
:10024000521EF9D27047D2B201E000F8012B491ECC
:10025000FBD270470022F6E710B513460A46044663
:100260001946FFF7F0FF204610BD421E12F8013F6D
:10027000002BFBD111F8013B02F8013B002BF9D117
:10028000704710B5044604E00B7800F8013B03B159
:10029000491C521EF8D2204610BD421C10F8011B0A
:1002A0000029FBD1801A704710B5002200E0521CD3
:1002B000835C8C5CA34201D1002BF8D1D8B2E1B2AF
:1002C000401A10BD034611F8012B00F8012B002A3B
:1002D000F9D11846704770B506461CF049F8046815
:1002E00005460A220021304600F08CF92C6070BDD2
:1002F0002DE9FE4F81EA030404F0004421F000419F
:1003000000944FF0000B23F0004350EA01045ED04C
:1003100052EA03045BD0C3F30A54C1F30A552C44D8
:10032000A4F2F3340194A0FB0254C1F3130141F48D
:100330008011C3F3130343F4801301FB024400FB59
:10034000034E840A970A44EA815447EA8357A4FB80
:10035000076802958D0A05FB07854FEA932C04FB7D
:100360000C542705029D4FEA065847EA1637B5EBAD
:1003700008056EEB070C870E920E47EA811742EADA
:100380008312A7FB0201B6EB0B0164EB00042B0DFB
:1003900043EA0C335E1844EB1C50DA465146E7FB47
:1003A0000201C5F313044FEA0B3343EA14534FEA37
:1003B0000432019C43EA0603A4F10C040294009C5D
:1003C000CDE900B400F09CF903B0BDE8F08F002047
:1003D0000146F9E72DE9F04D81EA030404F0004BF2
:1003E00021F0004514464FF0000A23F0004150EA86
:1003F000050220D054EA01021DD0C5F30A57024677
:10040000C5F31303C1F31300C1F30A5640F480157A
:1004100043F48013A7EB0608101BD64608F2FD38FC
:1004200073EB050002D308F1010801E092185B416B
:10043000B8F1000F03DA00200146BDE8F08D00207E
:100440004FF48011064684460EE0171B73EB050738
:1004500005D3121B63EB050306434CEA010C490864
:100460004FEA300092185B4150EA0107EDD152EAA1
:10047000030012D082EA040083EA0501084305D094
:10048000101BAB4106D20122002306E000224FF0F0
:10049000004302E06FF0010253101AEB06004CEB30
:1004A000085110EB0A0041EB0B01BDE8F04D00F0E4
:1004B00018B90EB540F2334102910021CDE9001187
:1004C0000A460B4600F01CF903B000BD70B5C1F33D
:1004D0000A5201F000450024C1F3130140F2FF333A
:1004E00041F480119A4201DA002070BD40F233439A
:1004F0009A42A2F2334203DC524200F073F800E069
:1005000090402C43F1D0404270BDC1F30A5210B567
:10051000C1F3130140F2FF3341F480119A4201DA32
:10052000002010BD40F233439A42A2F2334203DC72
:10053000524200F057F810BD904010BD00F000424C
:1005400030F000400AD0C10D01F56071C0F3160013
:1005500042EA0151C208400711437047002001469A
:10056000704701F0004330B421F0004150EA01022D
:1005700006D00A0DA2F56072C1F31301002A02DC55
:1005800030BC00207047440F44EAC104C100E018A9
:1005900030BC00EBC25000F06DB830B50B460146E0
:1005A00000202022012409E021FA02F59D4205D312
:1005B00003FA02F5491B04FA02F52844151EA2F1BC
:1005C0000102F1DC30BD202A04DB203A00FA02F1FE
:1005D000002070479140C2F1200320FA03F3194331
:1005E00090407047202A04DB203A21FA02F00021D3
:1005F000704721FA02F3D040C2F120029140084333
:10060000194670472DE9F04791460F46804604464B
:10061000002614F8015B2DB100F01AFA0068405D65
:10062000C007F6D12B2D02D02D2D18D0641E4A46BE
:100630003946204600F010FA27B13968A14201D1AD
:10064000C7F8008071054FF002040BD54042002826
:1006500003DD1BF08DFE0460A007BDE8F08746F4C3
:100660008066E4E70028F8DA1BF082FE04606FF091
:100670000040F2E70029A8BF7047401C490008BFAE
:1006800020F00100704710B4B0FA80FC00FA0CF0C2
:1006900050EA010404BF10BC704749B1CCF12004FA
:1006A00021FA04F411FA0CF118BF01212143084387
:1006B000A3EB0C01CB1D4FEA00614FEA102042BFB3
:1006C000002010BC704700EBC35010440029A4BFA9
:1006D00010BC7047401C490008BF20F0010010BC4E
:1006E000704710B5141E73F1000408DA401C41F184
:1006F000000192185B411A4301D120F0010010BDA6
:100700002DE9F04D92469B4611B1B1FA81F202E01B
:10071000B0FA80F220329046FFF755FF04460F46AC
:1007200040EA0A0041EA0B0153465A46084313D0F7
:10073000114653EA010019D0C8F140025046FFF7B4
:1007400051FF05460E46504659464246FFF73BFFCD
:10075000084305D0012004E020463946BDE8F08D6D
:100760000020054346EAE0762C4337430A986305A8
:10077000E40AA0EB08000022FD0A44EA47540A30CC
:1007800002D500200146E9E7010510196941DDE9BC
:10079000084500196941BDE8F04DA2E72DE9FE4F7B
:1007A000804681EA0300C00F0C46009021F0004112
:1007B00023F00045B8EB0200A94105D2404621468E
:1007C00090461C460B46024623F00040104347D09B
:1007D000270DC7F30A00C3F30A510290401A019093
:1007E00040286BDAC3F3130040F4801B0098924654
:1007F00020B10023D2EB030A63EB0B0B019859469F
:10080000C0F140025046FFF7DEFE06460D46504658
:100810005946019A00F00AF910EB080061410024E2
:1008200087EA115284EAE7731A4340D0009A62B310
:10083000019A012A4FEA075215DC001B61EB020105
:100840004FF0004202EA0752CDE90042001C41F598
:10085000801132462B46FFF753FF03B0BDE8F08FFF
:1008600040462146F9E7001B61EB0201001C41F5FF
:10087000801300185B412018A2F5001747EB030115
:1008800040EAD570B6196D4111E06D084FEA3606A1
:1008900045EAC0754FEA0752001B61EB0201001CDC
:1008A00041F5801149084FEA3000001951413246A4
:1008B0002B4603B0BDE8F04FFFF713BF00980122AD
:1008C00040000023D0EB020263EBE0730098214666
:1008D0004FEAE074B8EB000061EB0401E9E783F054
:1008E00000435BE781F0004158E700002DE9F0414B
:1008F000054621F000400C46284309D0C4F30A50B5
:1009000040F23341884205DD28462146BDE8F081AA
:100910002846FBE740F2FE31884210DC0CDB4FEA50
:10092000043040EA155050EA053105D0104804F073
:10093000004101430020E9E700200146E6E7A0F27C
:1009400033404642C6F1400228462146FFF73BFEAF
:1009500007468846284621463246FFF743FE43466F
:100960003A46FFF7BEFE3246BDE8F041FFF72BBE28
:100970000000F03FC1F30A52C1F3130140F2FF330C
:1009800041F480119A4202DA00200146704740F299
:1009900033439A42A2F2334202DC5242FFF722BEB4
:1009A000FFF711BE30B5041E71F1000404DB4FF0F7
:1009B0000044404264EB0101141E73F1000405DBA6
:1009C0001C464FF00043524263EB04038B4208BFC6
:1009D000824230BD30B5041E71F1000404DB4FF0DB
:1009E0000044404264EB0101141E73F1000405DB76
:1009F0001C464FF00043524263EB0403994208BF88
:100A0000904230BD00207047064C074D06E0E0687C
:100A100040F0010394E8070098471034AC42F6D345
:100A2000FFF7B6FBD8460208F8460208202A06DB84
:100A3000CB17203A41FA02F043EAE07306E041FAAC
:100A400002F3D040C2F1200291400843194670479A
:100A500000487047A4DE01082DE9F05F8246007867
:100A6000002715468B460AF10104B946302801D00B
:100A70009DB113E014F8010B0127782803D0582802
:100A800001D045B10AE00DB1102D07D10027102586
:100A900014F8010B02E0082500E00A250026B04604
:100AA0000EE005FB080005FB06F1012701EB1046EF
:100AB0001FFA80F8B6F5803F00D3B94614F8010B51
:100AC000294600F018F80028EBDABBF1000F05D03A
:100AD0000FB1641E00E05446CBF80040B9F1000F9E
:100AE00006D01BF045FC02210160C81EBDE8F09F46
:100AF00048EA0640FAE73A2800D2303820F02002CF
:100B0000412A01D3A2F13700884201D34FF0FF30D0
:100B1000704770B58C1810F8015B15F0070301D110
:100B200010F8013B2A1106D110F8012B03E010F850
:100B3000016B01F8016B5B1EF9D12B0705D4002373
:100B4000521E0DD401F8013BFAE710F8013BCB1A15
:100B5000921C03E013F8015B01F8015B521EF9D50A
:100B6000A142D8D3002070BD0020704700207047FC
:100B700010B540F68844C2F20004617881F00102A9
:100B80000029627019BF4BF60C41C2F200014BF60E
:100B9000CC41C2F20001C02213F082F90120207082
:100BA00010BD00000020704780B54BF20C40C2F22F
:100BB000000013F07BF9002080BD0000002070478A
:100BC0000020704700207047FEE7000000207047BB
:100BD0000020704710B54BF20C4441F6182100225A
:100BE000C2F20004C2F20001204613F095F941F26E
:100BF00018212046C2F2000113F088F9002010BD30
:100C00002DE9F04FBBB04BF20C4605460C46C2F244
:100C100000062946304613F079F9304613F05CF9A6
:100C20000DF1480B40215846FFF714FB2268584647
:100C30002946FFF726FB206801383F2800F29586F9
:100C400002AF40F6404900253AAE4FF0000847F0A9
:100C50000200C2F200090190002000F077BD002DD3
:100C60004FF0000540F073864BF20C40C2F20000DA
:100C7000D0F89402406D002840F069864BF20C4594
:100C800043F28231C2F20005C0F602018AE155B397
:100C900043F2673043F2B3623946C0F60200C0F651
:100CA00002021BF0D1FA002500F051BE002D4DD0FC
:100CB00043F2922132A8C0F60201FFF7F5FA0028AC
:100CC0004FF0000500F0438643F24A2132A8C0F6F7
:100CD0000201FFF7E9FA002800F0398643F2673095
:100CE000C0F602004CE14BF20C400025C2F20000BD
:100CF000D0F89402406D002840F029864BF20C4554
:100D000043F287310722C2F20005C0F602012846ED
:100D10004AE1002D00F0858043F292210DF1C80ACE
:100D20005046C0F60201FFF7BFFA00284FF0000559
:100D300000F0128143F24A215046C0F60201FFF74B
:100D4000B3FA002840F00E81012006E14BF20C407E
:100D50000025C2F20000D0F89402406D002840F057
:100D6000F6854BF20C450FF6405119E1002D8FD15D
:100D700022AE00253046ADF8A4502895CDE9265581
:100D8000CDE92455CDE92255FFF787FA44F24961B0
:100D9000C3F23001315030443121818012F0A2F889
:100DA00049F28061C0F29801884204DA3046FFF7C8
:100DB00074FA3021315212F095F843F282210DF18C
:100DC000A80A02465046C0F602011BF0A9FA3046B6
:100DD0005146FFF74AFA3046FFF75FFA43F22B011C
:100DE0004FF0300AC3F2300131503044A0F804A073
:100DF0003046FFF752FA26F800A03046FFF74DFACA
:100E000026F800A012F074F80138C1B20A2900F2E5
:100E1000D3804DF6B06140B2C0F6010151F82020F8
:100E2000CBE040F20C100025C2F2000041784BF2FA
:100E30000C40C2F20000D0F894020029406D00F08E
:100E4000A880002840F083854BF20C450FF64841FE
:100E5000A6E08DB340F20C1A0025C2F2000A9AF8FF
:100E6000010020B932A8FFF736FA12F0E7F832A8ED
:100E7000FFF731FACAF8040017E0002D00F00781EF
:100E800040F20C100025C2F200004078002832A881
:100E900004D0FFF720FA12F0D1F832A8FFF71BFABE
:100EA00040F20C11C2F20001C8600CF0F1FA00200F
:100EB0000DF026F800F04BBD22AE00253046ADF80F
:100EC000A4502895CDE92655CDE92455CDE92255E4
:100ED000FFF7E3F944F2461232523044857040F293
:100EE0000C10C2F20000456849F28060C0F2980020
:100EF000854205D23046FFF7D0F922AE3022325279
:100F000043F282210DF1A80A2A465046C0F602019A
:100F10001BF006FA30465146FFF7A7F93046FFF7B7
:100F2000BCF93B2131523046FFF7B7F94BF20C4187
:100F3000C2F20001D1F89412496D59B94BF20C4537
:100F400082B222A9C2F20005284612F0E5FF284627
:100F500012F0E8FF002565E0002040F20C11C2F21B
:100F60000001487040F205100121C2F2000001703A
:100F700009F0AAF910F016FC43F26F30C0F6020037
:100F800043F2B3623946C0F602021BF05DF900F08D
:100F9000DEBC002840F0DB844BF20C450FF600313C
:100FA000C2F200052846042212F0B6FF28460025AA
:100FB00012F0B8FF00F0CBBC012243F282210DF108
:100FC000A80A5046C0F602011BF0AAF922AE51460B
:100FD0003046FFF74AF93046FFF75FF94FF0300A25
:100FE00026F800A03046FFF758F926F800A0304652
:100FF000FFF753F943F230013152304485703046E7
:10100000FFF74BF943F630313152304485703046AA
:10101000FFF743F94BF20C41C2F20001D1F89412F0
:10102000496D21B33AAE00F092BC002D3FF430AED2
:1010300043F2922132A8C0F60201FFF735F90028E9
:101040004FF000057FF44AAE4BF20C40C2F20000B4
:10105000D0F89402406D002840F079844BF20C45A2
:101060000FF62C210522C2F2000528469CE74BF220
:101070000C4582B222A9C2F20005284612F04CFFAC
:101080002846002512F04EFF3AAE00F060BC22AEBA
:1010900000253046ADF8A4502895CDE92655CDE978
:1010A0002455CDE92255FFF7F8F844F246123252A2
:1010B0003044857040F20C10C2F20000C56849F25D
:1010C0008060C0F298008542FFF414AF18E7002D4D
:1010D0003FF4DEAD43F2922132A8C0F60201FFF7E1
:1010E000E3F800284FF000057FF4F8AD40F20C1053
:1010F000C2F20000017D4BF20C40C2F20000D0F8B9
:1011000094020029406D00F01881002840F01F84EF
:101110004BF20C450FF668110522C2F20005284675
:1011200042E7002D3FF4B4AD43F2922132A8C0F65D
:101130000201FFF7B9F800284FF000057FF4CEADAB
:1011400040F20C10C2F20000407D002800F0E28066
:1011500000F0AEFC4079002800F0DC8040F20C107A
:10116000C2F20000407D0138032800F2F083DFE87E
:1011700010F00400AE01C101D4014BF20C40C2F2E8
:101180000000D0F89402406D002840F0E0834BF25C
:101190000C450FF6DC010522C2F20005284603E7E4
:1011A000002D3FF475AD43F292210DF1C80A50466F
:1011B000C0F60201FFF778F800284FF0000500F0B4
:1011C000898011F095FE00905046FFF784F84FF0AB
:1011D000FF3151FA80F008280BD80021DFE810F029
:1011E0006601090047014D015301590109005F01E2
:1011F00065010121009AC9B28A4240F05C81A6E3F0
:10120000002D7FF445AD22AE00253046ADF8A45048
:101210002895CDE92655CDE92455CDE92255FFF78E
:101220003CF844F250310DF1A80A3152304443F2F7
:101230008221857040F20C10C0F60201C2F200005B
:1012400090F8302050461BF06BF8C2E0002D3FF4C0
:101250001FAD43F2922132A8C0F60201FFF724F835
:1012600000284FF0000540F072834BF20C40C2F2B0
:101270000000D0F89402406D002840F068834BF2E3
:101280000C450FF2CC710622C2F2000528468BE60F
:10129000002D3FF4FDAC43F2922132A8C0F60201CA
:1012A000FFF702F800284FF000057FF417AD4BF26E
:1012B0000C40C2F20000D0F89402406D002840F0CB
:1012C00046834BF20C450FF280710522C2F20005F5
:1012D000284669E622AEADF8A4502895CDE92655FA
:1012E000CDE92455CDE922553046FEF7D6FF44F22C
:1012F0004D41C0F23001315011F0FAFD0138C1B258
:101300000A295BD84DF6B06140B2C0F6010151F830
:10131000202054E04BF20C40C2F20000D0F89402BE
:10132000406D002840F013834BF20C450FF24871DA
:101330000522C2F20005284636E6002840F0078361
:101340004BF20C450FF240710522C2F2000528460F
:101350002AE6002D3FF49CAC43F2922132A8C0F65D
:101360000201FEF7A1FF00284FF000057FF4B6ACA4
:101370004BF20C40C2F20000D0F89402406D0028FD
:1013800040F0E5824BF20C450FF2B4610522C2F247
:101390000005284608E6002D7FF47AAC4BF20C409D
:1013A0000025C2F20000D0F89402406D002840F001
:1013B000CE824BF20C450FF28061F1E5012243F23F
:1013C00082210DF1A80A5046C0F602011AF0A8FFCA
:1013D00022AE30465146FEF748FF3046FEF75DFF2D
:1013E0003B21315213E6002D3FF452AC43F29221DF
:1013F00032A8C0F60201FEF757FF00284FF00005A3
:101400007FF46CAC4BF20C40C2F20000D0F89402B6
:10141000406D002840F09B824BF20C450FF21061AA
:101420000522C2F200052846BEE5002D3FF430AC8F
:1014300043F2922132A8C0F60201FEF735FF0028E0
:101440004FF000057FF44AAC4BF20C40C2F20000B2
:10145000D0F89402406D002840F079824BF20C45A0
:101460000FF2C4510522C2F2000528469CE5032173
:10147000009AC9B28A421ED169E20821009AC9B213
:101480008A4218D163E20A21009AC9B28A4212D173
:101490005DE20521009AC9B28A420CD157E20221CD
:1014A000009AC9B28A4206D151E20621009AC9B215
:1014B0008A4200F04C82082807D80021DFE800F0BB
:1014C0006C056163656705696B00012164E04BF29F
:1014D0000C40C2F20000D0F89402406D002840F0A9
:1014E00036824BF20C450FF280510522C2F2000504
:1014F000284659E54BF20C40C2F20000D0F89402A5
:10150000406D002840F023824BF20C450FF2505101
:101510000522C2F20005284646E54BF20C40C2F215
:101520000000D0F89402406D002840F010824BF289
:101530000C450FF224510522C2F20005284633E57E
:10154000002D3FF4A5AB43F27F3132A8C0F6020173
:10155000FEF7AAFE00287FF49BAB4BF20C4000255F
:10156000C2F20000D0F89402406D002840F0EF81F4
:101570004BF20C450FF2A4410822C2F200052846A6
:1015800012E5032108E0082106E00A2104E0052114
:1015900002E0022100E00621C8B211F0D5FD86E488
:1015A000002D7FF475AB4BF20C400025C2F2000019
:1015B000D0F89402406D002840F0C9814BF20C45F0
:1015C0000FF25041ECE4002D3FF462AB43F2922164
:1015D00032A8C0F60201FEF767FE00287FF458AB80
:1015E0004BF20C400025C2F20000D0F89402406D8E
:1015F000002840F0AC814BF20C450FF2104105225F
:10160000C2F200052846CFE4002D3FF441AB43F27F
:10161000922132A8C0F60201FEF746FE00284FF0E4
:10162000000540F094814BF20C40C2F20000D0F86B
:101630009402406D002840F08A814BF20C450FF275
:10164000C4310522C2F200052846ADE4002D3FF466
:101650001FAB43F2922132A8C0F60201FEF724FE2E
:1016600000284FF0000540F072814BF20C40C2F2AE
:101670000000D0F89402406D002840F068814BF2E1
:101680000C45DEA10722C2F2000528468CE40DB30A
:1016900043F2922132A8C0F60201FEF705FE28B9F6
:1016A00040F6BD30C2F2000080F800A043F24A21AB
:1016B00032A8C0F60201FEF7F7FD00284FF0000542
:1016C0003AAE40F0448140F6BD310120C2F2000143
:1016D00008703CE140F6BD30C2F20000007880B1F5
:1016E0004BF20C4000253AAEC2F20000D0F8940252
:1016F000406D002840F02B814BF20C45B9A1FFF75B
:101700004FBC40F6BC30C2F2000001784BF20C40F6
:10171000C2F20000D0F894020029406D0AD00028DF
:101720004FF000053AAE40F012814BF20C45AFA1EC
:10173000FFF736BC00284FF000053AAE40F00781B5
:101740004BF20C45ABA1FFF72BBC00BF1BF8000010
:10175000002800F0028199F800A03B2809EB0A015B
:10176000487040F0ED80CAF14001BAF13F0F07EB3D
:101770000A0088BF0021FEF76DFD09F1010138461E
:101780005246FEF74EFD3846FEF787FD0228C0F0B0
:10179000DE8000253046394602224FF0000A8DF8DF
:1017A000EA50ADF8E850FEF76CFD3846CDE9385503
:1017B000CDE93655CDE93455CDE93255FEF76DFD0D
:1017C000032805D30199821E32A8FEF75AFD012590
:1017D000304668A1FEF768FD00283FF440AA304675
:1017E00065A1FEF761FD00283FF451AA304663A1D0
:1017F000FEF75AFD00283FF459AA304660A1FEF7D3
:1018000053FD00283FF485AA30465EA1FEF74CFD4B
:1018100000283FF4ABAA43F28F313046C0F60201F4
:10182000FEF742FD00283FF414AB304656A1FEF708
:101830003BFD00283FF421AB304654A1FEF734FDB8
:1018400000283FF4F2AB304651A1FEF72DFD0028F1
:101850003FF43DAC30464FA1FEF726FD00283FF493
:1018600060AC30464CA1FEF71FFD00283FF498AC59
:1018700043F292313046C0F60201FEF715FD002812
:101880003FF4BEAC304645A1FEF70EFD00283FF404
:10189000DDAC304642A1FEF707FD00283FF4F8AC6E
:1018A000304640A1FEF700FD00283FF452AD30461F
:1018B0003DA1FEF7F9FC00283FF46DAD30463BA199
:1018C000FEF7F2FC00283FF48EAD304638A1FEF75B
:1018D000EBFC00283FF4A9AD304636A1FEF7E4FC4E
:1018E00000283FF42DAE304633A1FEF7DDFC002882
:1018F0003FF456AE304631A1FEF7D6FC00283FF447
:1019000062AE30462EA1FEF7CFFC00283FF47CAE3D
:1019100030462CA1FEF7C8FC00283FF497AE3046B5
:1019200029A1FEF7C1FC00283FF4B1AE43F2B36237
:1019300026A03946C0F602021AF086FCFFF70ABB61
:101940000AF1010089F80000C0B2402805D34846DA
:10195000402100F8015BFEF77DFC08F101082168D9
:101960001FFA88F081423FF6F1AE00203BB0BDE89F
:10197000F08F00BF41490000494400004654000078
:101980005653000049460000464200005241000004
:1019900050410000475400004D44000053480000EF
:1019A0004E4200004E5200005658000043540000C2
:1019B0004D4C000042500000424900004F530000CF
:1019C0004E410000534D000054580000556E6B6EA0
:1019D0006F776E2043415420636F6D6D616E643A82
:1019E000200000005458313B000000005458323BA6
:1019F000000000005458303B00000000534D3031CF
:101A000030303B004E4130303B0000004F5330300F
:101A10003B0000004249303B0000000042503030A3
:101A20003030303B000000004D4C30303B000000B7
:101A3000435430303B0000005658303B000000005B
:101A40004E5230303B0000004E4230303B00000030
:101A500053483031363B0000475430313B000000E2
:101A6000475430323B000000475430333B00000005
:101A7000475430343B000000475430303B000000F6
:101A8000504130313B000000504130303B000000FD
:101A9000524130303B0000005653313B0000000003
:101AA0005653303B000000004654303B000000001D
:101AB00040F20011C2F200014A7B01F11800002A35
:101AC00008BF01F110007047222809D1887840F63C
:101AD000BF31C2F200010138B0FA80F0400908704D
:101AE000002070470020704710B54BF20C4443F6BD
:101AF00018210022C2F20004C2F20001204612F0B6
:101B0000A3FA43F218212046C2F2000112F096FA1D
:101B1000002010BD10B54BF20C440146C2F2000487
:101B2000204612F08BFA204612F06EFA002010BD0B
:101B3000F0B54A1E4FF0000C02F47E42BCEB522F6F
:101B40004BD140F6844E4BF20C220023C2F2000E21
:101B5000C2F20002BEF80040C55CA6B29555651CF5
:101B600005F47E44BCEB542F03F1010418BF00259B
:101B70008C42AEF8005030D2C418AFB2013566784E
:101B8000D65505F47E46BCEB562F03F1020618BF6E
:101B900000258E42AEF800501FD2A678AFB20135B4
:101BA000D65505F47E46BCEB562F03F1030618BF4D
:101BB00000258E42AEF8005028BFF0BDE478AEB2EA
:101BC000043394556C1C04F47E45BCEB552F18BFB0
:101BD00000248B42AEF80040BED3F0BD2DE9F041A9
:101BE000ADF5007D40F68446C2F200067488378861
:101BF000A74233D04BF20C40C2F20000D0F8905212
:101C0000686D58BB68464FF40071FEF723FBA7428E
:101C100015D200274FF00008B7EB542F1BD14BF221
:101C20000C20C4F50078C2F2000042460119684653
:101C3000FEF7F7FA00277780686D78B917E011D9B9
:101C40004BF20C20A7EB0408C2F200004246011937
:101C50006846FEF7E6FA7780686D40B10DF5007DC5
:101C6000BDE8F0814FF00008686D0028F6D14BF216
:101C70000C441FFA88F26946C2F20004204612F0B2
:101C8000E3F9204612F0E6F90DF5007DBDE8F0819C
:101C90004BF2B860C2F2000002F0E6B84BF21870E6
:101CA000C2F2000002F0E0B87047000080B541F2D7
:101CB00000002021C4F2020002F00AFF40F6B03119
:101CC000C2F20001086080BDF0B585B040F2C501E8
:101CD00040F2C4050446C2F20001C2F200050978D0
:101CE000287831B128B9204605B0BDE8F04016F09B
:101CF0007BBE40F2C306C2F200063178002943D011
:101D0000002800F0B88042F6000000214022C4F212
:101D10000000006801918DF80320CDE902114FF415
:101D200080210491C0F30341C0F3015242EA8202D0
:101D300001EB42028DF80020C0F30321C0F302330F
:101D400003EB830301EB430100F00F038DF8011057
:101D5000C0F3021000EB800003EB400040F2CA0326
:101D6000C2F200038DF802001B78022B21D0012B58
:101D700029D08BBBB4F1FF3F02DC002A00F0EC80DD
:101D800022448DF8002027E040F20C10C2F200003F
:101D9000817D032949D0022950D0012961D190F8D1
:101DA000297011F09FF8002F55D0642104FB010029
:101DB00055E0B4F1FF3F02DC002800F0CD80204464
:101DC0008DF8020008E0B4F1FF3F02DC002900F0CA
:101DD000C38021448DF80110D2B2C9B2C0B240F61E
:101DE000A044182AC2F2000424BF00228DF800206B
:101DF0003C2924BF00218DF801103C2824BF00207D
:101E00008DF80200204605F03FFB204605F0BEFBA2
:101E100069462046002205F0C3FC40F2F60001218D
:101E2000C2F20000817105B0F0BD43F6095004FB19
:101E300000F711F057F800EB871010E090F82970C8
:101E400011F050F8002F0CBF4FF47A7142F210716C
:101E500004FB010003E004EB840100EB410011F0FE
:101E6000EDF80BF015FB3078002800F0758028782D
:101E700000287FF448AF40F2C600C2F200000078AC
:101E80000238042862D8DFE800F0034B1527380039
:101E900040F20C10C2F2000090F82610214411F01C
:101EA000FF0F08BF0121CAB2642A28BF642180F84D
:101EB000261045E040F20C10C2F2000090F83010FD
:101EC000214411F0FF0F08BF0121CAB2642A28BFC4
:101ED000642180F8301033E040F20C10002CC2F284
:101EE000000090F8321000DC51B32144CAB20A2A33
:101EF00028BF0A2180F8321022E040F20C10C2F212
:101F0000000090F83310214411F0FF0F08BF0121A9
:101F1000CAB2FA2A28BF6FF0050180F833100FE02B
:101F200040F20C10002CC2F20000417D00DC29B10F
:101F30002144CAB2042A28BF0421417510F000F9D7
:101F400040F2F6000121C2F20000417040F205109B
:101F50000121C2F20000017005B0F0BDB0B541F240
:101F600000042021C4F20204204602F0B1FD40F634
:101F7000B035C2F2000568602968814224D028602B
:101F80002046042102F0A4FDD5E90121824210D1AE
:101F9000481CA86040F20C10C2F2000090F86A00E1
:101FA0008142B8BFB0BD0120FFF78EFE0020A860BF
:101FB000B0BD481EA86040F20C10C2F2000090F8BC
:101FC0006A004042814200DDB0BD4FF0FF30FFF7B4
:101FD0007BFE0020A860B0BD10B54FF4806002F019
:101FE000E7FB40F29204C2F200042078002818BFF8
:101FF00010BD00F031FF207800B110BDBDE81040E9
:1020000001F00EB980B5042002F0D2FB40F6C330D7
:102010000021C2F20000017049F6D830C2F200007F
:102020000078002814BFBDE8804080BDFFF796BF50
:1020300080B5102002F0BCFB40F6C3300021C2F294
:102040000000017049F6D830C2F200000078002884
:1020500008BF80BD10F04CFF072800D180BDBDE84F
:10206000804010F0B3BF000080B5202002F0A0FB3C
:1020700040F6C3300021C2F200000170BDE880408C
:102080000BF04AB9FEE700002DE9F0472DED088B73
:1020900040F20C10C2F2000090F83100002800F06D
:1020A0008F8240F26008C2F2000898F8020000280F
:1020B00000F0868298F80000002840F0818244F207
:1020C00018209FEDA4AA9FEDA4BA0025B7EE009AB0
:1020D000B6EE008AC2F20000041D00BF00EE105AE6
:1020E000B8EEC00A20EE0A0A20EE0B0A15F0E8F955
:1020F00039EE400A14ED011A94ED002A013520EE64
:10210000080AB5F5007F21EE001A20EE020A04ED60
:10211000011A84ED000A04F10804DFD144F2182505
:1021200041F61C40002201230024C2F20005C0F643
:102130000200294614F0D2FD45F2182928464FF432
:102140000072C2F20009494615F01AF908F11002AE
:1021500008F10C0348464FF4007115F079FD08F1C1
:10216000140248464FF4007115F0DAFD98ED040AA8
:1021700098ED06AAB2EE041A30EE4A0A80EE010A81
:1021800088ED070AB8F80600082804D3B5EEC00A9F
:10219000F1EE10FA16DCB5EEC00A0021BAEE042A00
:1021A000F1EE10FAB4EEC20AB8BF0121022838BF1E
:1021B0000124F1EE10FA01EA040180F205820029FF
:1021C00000F00282B0EE402A3AEE02AA88ED06AA9A
:1021D00098ED050AB1EE001A002020EE010AB4EED7
:1021E000CA0AF1EE10FAC4BF88ED060AB0EE40AAA2
:1021F000B3EE040AA8F80600B4EEC0AAF1EE10FA95
:1022000006DA0020B0EE40AAC4F2A010C8F8180008
:1022100098F801C0BCF1000F00F0A28000EE10CAD7
:102220000CF0030109EB8C009FED4C1A09F1080535
:102230004FEACC0EACF1010A0024B8EE400AACEB38
:10224000010200F1080300BF0020BAF1030F03D21E
:10225000B0EE412AC9B92DE02E46B0EE412A00BFAA
:1022600016ED023A16ED014A96ED005A96ED016A16
:1022700004301036824233EE022A34EE022A35EE62
:10228000022A36EE022AEBD1A1B104FB0CF6012999
:10229000304409EB800090ED003A33EE022A09D079
:1022A00090ED013A022933EE022A1CBF90ED023A6A
:1022B00033EE022A09EB840082EE002ABAF1030F02
:1022C00080ED002A4FF0000006D2B0EE412A44F023
:1022D0000106E1B930E000BF1E46B0EE412A00BF62
:1022E00016ED023A16ED014A96ED005A96ED016A96
:1022F00004301036824233EE022A34EE022A35EEE2
:10230000022A36EE022AEBD144F00106A1B106FB07
:102310000CF70129384409EB800090ED003A33EEC8
:10232000022A09D090ED013A022933EE022A1CBF9D
:1023300090ED023A33EE022A023409EB860082EE77
:10234000003A73447544B4F5807F80ED003A7FF421
:102350007BAF0FE0DB0FC9400000003B0000000036
:1023600045F218204FF48061C2F20000FDF772FFC1
:102370009FEDA62A002088ED082A00BF09EB000186
:10238000203091ED000A91ED011A91ED022A91EDB4
:10239000033A91ED044A91ED055A91ED066A91EDEB
:1023A000077A80EE0A0A81EE0A1A82EE0A2A83EE82
:1023B0000A3A84EE0A4A85EE0A5A86EE0A6A87EEDF
:1023C0000A7AB4EEC90AF1EE10FAB4EEC91AC8BF1F
:1023D000B0EE490AF1EE10FAB4EEC92AC8BFB0EE69
:1023E000491AF1EE10FAB4EEC93AC8BFB0EE492A64
:1023F000F1EE10FAB4EEC94AC8BFB0EE493AF1EEB8
:1024000010FAB4EEC95AC8BFB0EE494AF1EE10FA5C
:10241000B4EEC96AC8BFB0EE495AF1EE10FAB4EE94
:10242000C97AC8BFB0EE496AF1EE10FAC8BFB0EE83
:10243000497AB0F5806F81ED000A81ED011A81EDD6
:10244000022A81ED033A81ED044A81ED055A81EDBE
:10245000066A81ED077A91D145F618210020C2F273
:10246000000100BF0A1809EB0003403093ED000A99
:1024700092ED004A93ED011A92ED015A93ED022A72
:1024800092ED026A93ED033A92ED037AD3ED040ADA
:10249000D2ED041AD3ED052AD2ED053AB0F5806FDE
:1024A00034EE000A35EE011A36EE022A37EE033A10
:1024B00031EEA04A33EEA25A20EE080A21EE081AA5
:1024C00022EE082A23EE083A24EE084A25EE085A9E
:1024D00082ED000A82ED011A82ED022A82ED033AB2
:1024E00082ED044A82ED055A93ED060A92ED061A32
:1024F00031EE000A20EE080A82ED060A93ED070A83
:1025000092ED071A31EE000A20EE080A82ED070A62
:1025100093ED080A92ED081A31EE000A20EE080A3F
:1025200082ED080A93ED090A92ED091A31EE000ACC
:1025300020EE080A82ED090A93ED0A0A92ED0A1AC2
:1025400031EE000A20EE080A82ED0A0A93ED0B0A2A
:1025500092ED0B1A31EE000A20EE080A82ED0B0A0A
:1025600093ED0C0A92ED0C1A31EE000A20EE080AE7
:1025700082ED0C0A93ED0D0A92ED0D1A31EE000A70
:1025800020EE080A82ED0D0A93ED0E0A92ED0E1A66
:1025900031EE000A20EE080A82ED0E0A93ED0F0AD2
:1025A00092ED0F1A31EE000A20EE080A82ED0F0AB2
:1025B0007FF458AF002088F80200012088F800005E
:1025C000BDEC088BBDE8F087B4EEC1AAF1EE10FABD
:1025D00002DD0228FFF4F8ADBFEE001A0022B0EED3
:1025E000402AB4EEC10AF1EE10FAB8BF01220A4245
:1025F0007FF4EAADB4EEC9AAF1EE10FA7FF7E8ADC8
:102600000128B0EE412A7FF6DFADE1E500000000D1
:102610002DE9F0434DF6C751BB28CAF63A7151FB7C
:1026200000014FEAE11202EBD17977DB4BF68C53D4
:102630000FFA89F84FF0000CC2F200034FEA480E7F
:1026400003EB48020BE000BF0CF1020C02F58062C4
:1026500003F58063BCF1320F08BFBDE8F0830026AC
:1026600019461EE0651CADB2FF2D9ABF01EB0E05A9
:102670006F88002703EB460504366F80A71C0334E0
:10268000BFB2A4B2FF2F9ABF01EB0E07BF8800278D
:10269000FF2CAF809ABF01EB0E04E4880024CC80AD
:1026A000083108EB0604A5B2FF2D94BF31F80E5097
:1026B0000025B6F5807F0D80D4D100244FF400753D
:1026C00020E000BF4E1C03EB4400B6B2FF2E9ABFC1
:1026D0005619778800275E1977808F1CBFB2FF2FAD
:1026E0009ABF02EB4407B7F8047200270434A0F83D
:1026F0000472C81C80B2FF289ABF5019C1880021FB
:102700000835F18008EB04018EB2FF2E94BF565BB2
:102710000026B4F5807F5E53D4D195E710F1BB0F4E
:1027200000F37F804BF68C580FFA89F04FF0000EC3
:10273000C2F20008430008EB400208F2FA3C00BF76
:102740004FF48074002522E0B01E043C80B2FF28C4
:102750009ABF02EB4500B0F8FE010020A7F8FE0189
:10276000F01E80B2FF289ABF02EB4500B0F8FC01D2
:102770000020A7F8FC01301F80B2FF289ABF02EBAF
:102780004500B0F8FA010020043DA7F8FA0104EB77
:10279000090608EB4507701E81B205F58070FF2918
:1027A0009ABF02EB4501B1F8001200210028A7F8FA
:1027B0000012C9DC4FF4807465464FF4807619E04E
:1027C000B81E043E043C80B2FF289ABFE8188088F7
:1027D0000020A880F81E80B2FF289ABFE818408821
:1027E00000206880381F80B2FF2894BFE85A00207C
:1027F00025F8080906EB0907781E80B2FF289ABF62
:10280000E818C0880020002CE880D9DC0EF1020E08
:102810000CF5806C02F5806208F58068BEF1320F1D
:102820008ED1BDE8F08300002DE9F04F81B02DED91
:10283000028B40F20C10C2F2000090F83100002828
:1028400000F0388140F2C70240F26006C2F2000296
:10285000C2F200061078B178084340F2C301C2F218
:1028600000010978084340F2C201C2F20001097870
:10287000084340F2C001C2F2000109780843000693
:1028800040F018814BF68C5A40F6A06431200121AB
:10289000C2F2000AC2F20004308111700AEB402239
:1028A00020468023A2F5007101F0CEFE20460021D3
:1028B0004FF0FF3201F0FAFD30890138308180B2EB
:1028C0000028EBD145F6182700254FF6E279B3EE44
:1028D0000E8A6FF07F0B4FF01E08C2F2000700BF98
:1028E00097ED000A85EA0B0420EE080ABDEEC00A47
:1028F00010EE100A1E28B0800ED34FF478403081BD
:10290000A6F80480F1880131F180E4B22AF81400BD
:1029100028063CD14AE000BFC0B20A280CD84CF6C9
:10292000CD41C0EB0020CCF6CC41A0FB0101CA0890
:102930000020002120E000BFC0EB002114280DD8AA
:10294000A1F6F61046F26761C6F2666150FB01F02F
:10295000811001EBD070C24301460DE041F2EC3032
:10296000081A46F26761C6F2666150FB01F08110F9
:1029700001EBD070C1430A46C0B2C9B2D2B219F05D
:102980003FFC3081E4B22AF8140028060ED00FFA7A
:1029900089F22046BE21002309F018F8B088338957
:1029A000BE21404202B2204609F010F8013504373A
:1029B000B5F5807F94D10FFA89F28020BE214FF4C3
:1029C000FC6309F003F800209E214FF4807200237D
:1029D000002708F071FFFFF76BF800790A283CD850
:1029E0000121814011F0290F23D111F0520F0AD09B
:1029F000FFF75EF84DF6C751C088CAF63A71A0FBE2
:102A00000101CA0923E0012101FA00F010F4A06FCE
:102A100023D0FFF74DF84DF6C751C0884FF4FC6343
:102A2000CAF63A71A0FB0101CA0980209E2108F074
:102A300043FFFFF73DF842F23921C088C5F2C501D6
:102A400050FB01F1081AC10901EBD07002B28020DD
:102A50009E214FF4FC6308F02FFF0020BE21FF22CF
:102A6000F02308F0D7FB40F6185040F600744BF600
:102A70008C514FF44853C2F20000C2F20004C2F27B
:102A800000010268204601F0DFFD204600214FF0E2
:102A9000FF3201F00BFD8020BE214FF480724FF415
:102AA000FC6308F093FF40F2C700C2F20000077019
:102AB0000120B070BDEC028B01B0BDE8F08F0000CA
:102AC000B0B500F057FC40F29004012040F6180524
:102AD00050210122C2F20004C4F20205C0F2F0014A
:102AE000A0704FF60000CFF6FF7029500221284653
:102AF00040F81819012102F001F84FF44030286025
:102B00000020A070B0BD00002DE9F04140F290051A
:102B10000020102601210122C2F20005C4F20206A3
:102B2000288106F5FE64686901306861204601F07D
:102B3000E5FF30683168002200F0010001F0020179
:102B40000843316801F004010843316801F00801CD
:102B50000843012100032881204601F0CFFF2046D1
:102B60000121012201F0CAFF30683168002200F023
:102B7000010001F002010843316801F0040108433B
:102B8000316801F008010843298941EA0020012148
:102B90002881204601F0B2FF20460121012201F0E8
:102BA000ADFF30683168002200F0010001F0020141
:102BB0000843316801F004010843316801F008015D
:102BC0000843298941EA001001212881204601F0AB
:102BD00095FF20460121012201F090FF3068316805
:102BE00049F6D23740F26008C2F20007C2F200088C
:102BF00000F0010001F002010843316801F0040116
:102C00000843316895ED080A01F008010843298955
:102C1000084301B201EE101AB8EEC11A3978A88142
:102C2000288198F8000031EE400A002985ED040A59
:102C300012D060B145F6186044F21821C2F20000CB
:102C4000C2F20001006801EB800080ED000A45F649
:102C50001C60C2F2000011E060B145F6186044F259
:102C60001821C2F20000C2F20001006801EB8000EE
:102C700080ED010A46F21C40C2F20000E989002200
:102C800000EB8100012180ED000A204601F036FFB3
:102C900020460121012201F031FF30683168002215
:102CA00000F0010001F002010843316801F0040165
:102CB0000843316801F0080108430121000328811D
:102CC000204601F01BFF20460121012201F016FFE2
:102CD00030683168002200F0010001F00201084371
:102CE000316801F004010843316801F0080108432C
:102CF000298941EA002001212881204601F0FEFEB9
:102D000020460121012201F0F9FE306831680022DD
:102D100000F0010001F002010843316801F00401F4
:102D20000843316801F008010843298941EA00108D
:102D300001212881204601F0E1FE204601210122E7
:102D400001F0DCFE3068316800F0010001F00201A2
:102D50000843316801F004010843316895ED080A21
:102D600001F0080108432989084301B201EE101A55
:102D7000B8EEC11A3978A881288198F8000031EEA0
:102D8000400A002985ED040A1DD060B145F618619E
:102D900044F21822C2F20001C2F20002096802EBFA
:102DA000810181ED010A45F61C63E98946F21C4266
:102DB000C2F20003C2F2000203EB810302EB8102C4
:102DC00093ED001A16E060B145F6186144F218223E
:102DD000C2F20001C2F20002096802EB810181ED3A
:102DE000000A45F61C62E989B0EE401AC2F2000200
:102DF00002EB810282ED000A95ED060A01318AB2EA
:102E0000B4EEC10AF1EE10FAB8BF85ED061A95EDE1
:102E1000070AB4EEC10AF1EE10FAC8BF85ED071A31
:102E2000B2F5807F08BF00210028E9810DD045F66A
:102E30001860C2F2000001680231B1F5806F0160D4
:102E400002BF002188F80010016020460121002205
:102E5000BDE8F04101F052BEB0B540F2900401204F
:102E6000C2F20004A07010F097F818B110F040F80A
:102E70000B2801D1042000E00320607000F00F0057
:102E80004FF4700140F61805012241EA00104FF698
:102E90000001C4F20205CFF6FF71685002212846F6
:102EA00040F81819012101F029FE4FF44030286044
:102EB00010F072F818B110F01BF80B2804D1FFF7CE
:102EC00023FE0020A070B0BD00F004F80020A07028
:102ED000B0BD00002DE9F04140F2900546F61C61BE
:102EE000F0274FF6180640F600040122C2F2000552
:102EF000C2F20001CFF6FF76C4F202046869013025
:102F00006861E88901EB8000012190ED000ABDEEC7
:102F1000C00A10EE100A688107EA102040F4700021
:102F2000A051204601F0EAFD20460121002201F0D7
:102F3000E5FD68890121012207EA101040F47000C4
:102F4000A051204601F0DAFD20460121002201F0C7
:102F5000D5FD68890121012200F0F00040F47000E5
:102F6000A051204601F0CAFD20460121002201F0B7
:102F7000C5FD68894FF470080121012200F00F009F
:102F800048EA0010A051204601F0B8FD204601217A
:102F9000002201F0B3FD46F61C21E8890122C2F2AD
:102FA000000101EB8000012190ED000ABDEEC00A96
:102FB00010EE100A688107EA102040F47000A0515A
:102FC000204601F09BFD20460121002201F096FDE4
:102FD00068890121012207EA101040F47000A05115
:102FE000204601F08BFD20460121002201F086FDE4
:102FF00068890121012200F0F00040F47000A05126
:10300000204601F07BFD20460121002201F076FDE3
:1030100068890121012200F00F0048EA0010A05148
:10302000204601F06BFD20460121002201F066FDE3
:10303000E889411C7F28E9810FD0FF2818BFBDE82F
:10304000F08140F22200C2F20000017889B1FF2035
:10305000E8810120A871BDE8F08140F22200C2F2AF
:103060000000017861B17F20E8810120A871BDE8EE
:10307000F08101210022E970EA810170BDE8F08150
:10308000012101700020E870BDE8F0812DE9F041D8
:10309000FEF70EFD006815F0B7FE04460FF07CFF4A
:1030A000E8B90FF025FF04280CD0032817D1FEF74C
:1030B000FFFC40F20C110068C2F20001B1F8681088
:1030C000084409E0FEF7F4FC40F20C110068C2F27B
:1030D0000001B1F86810401A15F096FE044640F25F
:1030E00090050020C2F2000568700FF055FF18B17E
:1030F0000FF0FEFE0B2808D1687820F008006870F9
:103100000FF04AFF48B1687814E0687840F0080092
:1031100068700FF041FF0028F5D140F20C1168787B
:10312000C2F20001097D00290CBF00F0FB0040F055
:10313000040068704FF470014FF6180740F6000560
:1031400001224FF4700860F30711C4F20205CFF6B4
:10315000FF77E9512846012101F0D0FC28460121E2
:10316000002201F0CBFCF0260121012206EA1440E6
:1031700040F47000E851284601F0C0FC28460121C7
:10318000002201F0BBFC06EA14300121012240F4C8
:103190007000E851284601F0B1FC284601210022C8
:1031A00001F0ACFC06EA14200121012240F4700079
:1031B000E851284601F0A2FC28460121002201F036
:1031C0009DFC06EA14100121012240F47000E85130
:1031D000284601F093FC28460121002201F08EFCD4
:1031E00004F0F0000121012240F47000E85128466B
:1031F00001F084FC28460121002201F07FFC64F3E9
:10320000071828460121012245F8078001F076FCC5
:10321000284601210022BDE8F04101F06FBC00000A
:10322000F0B581B040F290054FF48070C2F2000515
:10323000A5F8010010202979C0F2F00009B10121A0
:1032400004E0697900294CD010300221102640F6A4
:103250001807697001210122C4F20206C4F20207B4
:10326000B060022006F5FE643860204601F046FC9E
:103270004FF440303860287938B1FFF707FF00205D
:1032800028710020A87001B0F0BD687948B32046CD
:103290000121012201F032FC3068316849F6D03258
:1032A000C2F2000200F0010001F00201084331689F
:1032B00001F0040108433168002601F008010843C9
:1032C00000F001012870117049F6D131C0F34000BF
:1032D0000022C2F2000108702046012101F00EFC1C
:1032E0006E710020A87001B0F0BD0000B0B540F2D2
:1032F0009004012040F6180550210122C2F200047A
:10330000C4F20205C0F2F001A0704FF60000CFF643
:10331000FF7029500221284640F81819012101F0B8
:10332000EDFB4FF4403028600020A070B0BD0000DD
:10333000B0B540F29004012040F61805602101224A
:10334000C2F20004C4F20205C0F2F001A0704FF610
:103350000000CFF6FF7029500221284640F81819C6
:10336000012101F0CBFB4FF4403028600020A07019
:10337000B0BD00002DE9F04381B073A018F04CFF00
:1033800040F2900910271026012040F6180501216F
:103390000122C2F20009C0F2F007C4F20206C4F230
:1033A000020589F8020007F1900006F5FE64B0609E
:1033B00002202860204601F0A1FB4FF4403001219B
:1033C000012228602046B76001F098FB3068316820
:1033D00000F0010001F002010843316801F004012E
:1033E0000843316801F008010843012889F800000A
:1033F00071D120460121002201F080FB07F110006D
:1034000001210122B060204601F078FB306831686C
:1034100000F0010001F002010843316801F00401ED
:103420000843316801F008010843022889F80000C8
:103430005FD120460121002201F060FB07F130003E
:1034400001210122B060204601F058FB306831684C
:1034500000F0010001F002010843316801F00401AD
:103460000843316801F008010843042889F8000086
:103470004DD12046012100224FF0000801F03EFB13
:1034800007F1700001210122B060204601F036FBF7
:103490003068316800F0010001F002010843316832
:1034A00001F004010843316801F0080108430828CD
:1034B00089F8000039D120460121002201F01EFBCD
:1034C00043F27D2089F80280C0F6020001B0BDE819
:1034D000F04318F0A1BE20A018F09EFE99F800005D
:1034E000002118F0EFFE20A001B0BDE8F0430EF07F
:1034F0006DB922A018F090FE99F80000002118F094
:10350000E1FE22A001B0BDE8F0430EF05FB924A0B7
:1035100018F082FE99F80000002118F0D3FE24A0D4
:1035200001B0BDE8F0430EF051B926A018F074FECA
:1035300099F80000002118F0C5FE26A001B0BDE8F2
:10354000F0430EF043B900BF465047412042757327
:1035500020546573742000004552524F5220302091
:1035600050494E0D0A0000004650474120627573D5
:103570002050494E30206572726F72004552524F92
:103580005220312050494E0D0A000000465047415C
:10359000206275732050494E31206572726F72003F
:1035A0004552524F5220322050494E0D0A00000021
:1035B00046504741206275732050494E3220657253
:1035C000726F72004552524F5220332050494E0DB7
:1035D0000A00000046504741206275732050494E52
:1035E00033206572726F7200F0B581B0054643F406
:1035F00080401F4614460E46B0F5804F07D043F278
:10360000953040F24F11C0F6020014F0B7FFB7F545
:10361000804F28D140F20410CAF20000854207D042
:1036200043F2953040F25511C0F6020014F0A6FFA7
:10363000306810281ED2706801380F2826D2B06872
:103640000138FF282ED2F068102836D2B0694FEA30
:10365000307004283ED2062C46D80120A04010F03D
:10366000550F49D140E06FF0704045F8240000202C
:1036700001B0F0BD43F295304FF4AB71C0F60200DB
:1036800014F07CFF706801380F28D8D343F29530CE
:1036900040F25711C0F6020014F070FFB068013814
:1036A000FF28D0D343F295304FF4AC71C0F602003E
:1036B00014F064FFF0681028C8D343F2953040F24C
:1036C0005911C0F6020014F059FFB0694FEA30708A
:1036D0000428C0D343F295304FF4AD71C0F6020018
:1036E00014F04CFF062CB8D943F2953040F25B1130
:1036F000C0F6020014F042FF002155F82400CCF679
:10370000F071084096E88E000843B16940EA021063
:1037100040EA032040EA0740084345F8240000201F
:1037200001B0F0BD2DE9F0470D468046B0F1204FC5
:1037300006D043F295308621C0F6020014F01EFF39
:10374000286806280ED8012101FA00F010F0550F64
:1037500008D0686840F0020002280FD1A868082845
:1037600017D9A8E043F295308721C0F6020014F083
:1037700005FF686840F002000228EFD043F2953060
:103780008821C0F6020014F0F9FEA868082800F2AB
:103790009280012101FA00F040F21111084200F07C
:1037A0008A80E868002818BF102840F091802869B6
:1037B00040F48070B0F5807F40F09B80686940F4F1
:1037C0000070B0F5007F40F0A280A86940F48060EE
:1037D000B0F5806F40F0A980E86940F40060B0F572
:1037E000006F40F0B080286A40F48050B0F5805FF0
:1037F00040F0B780686A40F40050B0F5005F40F0D8
:10380000BE80A86A40F48040B0F5804F40F0C5808B
:10381000E86A40F40040B0F5004F40F0CC80286BDF
:1038200040F40020B0F5002F40F0D380D5F83CE004
:103830004FEA3E41052908D343F295309621C0F660
:10384000020014F09BFED5F83CE0D5E900C205F17A
:10385000080A80219AE8D804D5F81C90CFF6F071B8
:1038600058F82C00082B00EA010040EA020040EA68
:10387000030040EA040040EA060005F1200640EAA1
:10388000070056CE2D6B40EA0A0040EA090040EAE4
:10389000010040EA020040EA040040EA060040EA73
:1038A0000E0040EA050008BF40F0400048F82C0038
:1038B0000020BDE8F08743F295308921C0F6020070
:1038C00014F05CFEE868002818BF10283FF46FAFC2
:1038D00020283FF46CAF43F295308A21C0F60200F5
:1038E00014F04CFE286940F48070B0F5807F3FF4FE
:1038F00065AF43F295308B21C0F6020014F03EFE16
:10390000686940F40070B0F5007F3FF45EAF43F2A9
:1039100095308C21C0F6020014F030FEA86940F406
:103920008060B0F5806F3FF457AF43F295308E2141
:10393000C0F6020014F022FEE86940F40060B0F521
:10394000006F3FF450AF43F295309021C0F6020073
:1039500014F014FE286A40F48050B0F5805F3FF404
:1039600049AF43F295309121C0F6020014F006FEF3
:10397000686A40F40050B0F5005F3FF442AF43F294
:1039800095309221C0F6020014F0F8FDA86A40F4C8
:103990008040B0F5804F3FF43BAF43F29530932128
:1039A000C0F6020014F0EAFDE86A40F40040B0F509
:1039B000004F3FF434AF43F295309421C0F602003B
:1039C00014F0DCFD286B40F40020B0F5002F3FF42C
:1039D0002DAF43F295309521C0F6020014F0CEFDD4
:1039E000D5F83CE04FEA3E410529FFF42EAF23E72E
:1039F000F0B581B015460C460646B0F1204F07D011
:103A000043F295304FF48C71C0F6020014F0B6FD0D
:103A1000206810281FD2606801380F2827D2A068BC
:103A20000138FF282FD2E068102837D220690238E9
:103A30000F283FD260690238102847D2A0694FEAA8
:103A4000307004284FD2062D57D80120A84010F01E
:103A5000550F5AD151E043F2953040F21911C0F69A
:103A6000020014F08BFD606801380F28D7D343F2B1
:103A700095304FF48D71C0F6020014F07FFDA06800
:103A80000138FF28CFD343F2953040F21B11C0F626
:103A9000020014F073FDE0681028C7D343F295309C
:103AA0004FF48E71C0F6020014F068FD20690238F0
:103AB0000F28BFD343F2953040F21D11C0F602002B
:103AC00014F05CFD606902381028B7D343F29530DA
:103AD0004FF48F71C0F6020014F050FDA0694FEA58
:103AE00030700428AFD343F2953040F21F11C0F676
:103AF000020014F043FD062DA7D943F295304FF490
:103B00009071C0F6020014F039FD06EB8500002725
:103B1000D0F804C094E84C00D4E90351CFF6F07714
:103B2000D4E905E407EB01510CF040473A4342EA7F
:103B3000031242EA062242EA054211430EF1FE0256
:103B4000214341EA02614160002001B0F0BD000064
:103B50002DE9F04F89B041F2C0140193CDE9020183
:103B60009020924600264FF480550DF123010DF16F
:103B700022020123C2F200048DF823008DF8226096
:103B80000095204604F040FB0DF123010DF12202C7
:103B9000204601238DF823608DF82260009504F003
:103BA00033FB9DF822900DF123010DF122022046F6
:103BB00001238DF823608DF82260009504F024FB2A
:103BC0009DF82280642014F021FDD0200DF1230106
:103BD0000DF1220201238DF8226000958DF823005B
:103BE000204604F011FB0DF123010DF122022046C5
:103BF00001238DF823608DF82260009504F004FB0A
:103C00009DF822700DF123010DF1220220460123BF
:103C10008DF823608DF82260009504F0F5FA48EAEB
:103C20000920BAF1000FC0F3CC0005909DF82200E6
:103C300040EA0720C0F3CC00CDF810A00690504613
:103C400000F0818041F2C01500274FF0000B4FF4C7
:103C50008054C2F2000500BF90200DF123060DF143
:103C6000220801238DF822B000948DF82300284605
:103C70003146424604F0C8FA2846314642460123FE
:103C80008DF823B08DF822B0009404F0BDFA9DF8B1
:103C900022003146424601238DF823B08DF822B030
:103CA00000940790284604F0AFFA9DF822A0642003
:103CB00014F0ACFCD0203146424601238DF822B0EE
:103CC00000948DF82300284604F09EFA28463146D9
:103CD000424601238DF823B08DF822B0009404F001
:103CE00093FA9DF8229028463146424601238DF8EA
:103CF00023B08DF822B0009404F086FA07984FF6AE
:103D0000F8714AEA002000EA0102C0F3CC009DF8F5
:103D10002210BBEBD20F41EA0921C1F3CC0118BF3D
:103D200000290BD0069A89B280B211FA82F14908B3
:103D30000691059910FA81F0400805900137049921
:103D4000F8B2884288D3019840B102980599018061
:103D500006990398018009B0BDE8F08F059A40F6F6
:103D60000850C2F2000092B290ED010AB0F90010C2
:103D700001EE102AB8EE411A81EE000A01EE101A87
:103D8000B8EEC11A30EE010ABDEEC00A029A10EE7A
:103D9000101A1180069990ED020AB0F9020089B25A
:103DA00001EE101AB8EE411A81EE000A01EE100A77
:103DB000B8EEC11A30EE010ABDEEC00A10EE101ABC
:103DC0000398018009B0BDE8F08F000070B5866DE2
:103DD000044600F0B5FE054694F8350002282DD1C2
:103DE0002068016821F016010160416921F080011D
:103DF0004161216C09B9A16C19B1016821F0080178
:103E00000160016821F001010160006810F0010FFC
:103E100005D11BE02068006810F0010F16D000F0FB
:103E20008FFE401B0628F5D320206065002084F813
:103E30003400032084F83500C0B270BD002084F83F
:103E40003400802060650120C0B270BDE06D3F216C
:103E500001FA00F0B060012084F83500002084F8F9
:103E60003400C0B270BD0000F0B581B0044600203F
:103E700048F2B5130821009040F6A010C1F64E3369
:103E8000C2F200000268D4E9166037688140A2FBE4
:103E9000032539420DD02268136813F0040F08D0AF
:103EA000136823F004031360B160616D41F00101F8
:103EB000616501218140394209D02268526912F0BE
:103EC000800F04D0B160616D41F002016165042191
:103ED0008140394209D02268126812F0020F04D0E2
:103EE000B160616D41F0040161651021814039428A
:103EF00019D02068026812F0080F14D0B16002686F
:103F0000016812F4802F08D1C9055EBF016821F055
:103F100008010160216C21B905E0080345D4216C3A
:103F200009B120468847E16D202000FA01F23A42AB
:103F300048D02068036813F0100F43D0B26094F8A3
:103F400035300268052B1ED122F01602026042694C
:103F500022F080024261226C0AB9A26C1AB1026896
:103F600022F0080202603F208840B060012084F8FF
:103F70003500002084F83400216D00295FD02046F0
:103F8000884701B0F0BD0168520312D4C90515D4A9
:103F9000016821F010010160012084F83500002043
:103FA00084F83400E16B59B90CE0A16C0029B8D158
:103FB000B9E7080302D4616C11B903E0E16B09B100
:103FC00020468847606DD0B3606D10F0010F32D08D
:103FD0000521A80A84F8351021680A6822F0010238
:103FE0000A60009A0132824200921ED80A6812F0DA
:103FF000010F1AD0009A01328242009215D80A6845
:1040000012F0010F11D0009A0132824200920CD8B6
:104010000A6812F0010F08D0009A01328242009221
:1040200003D80A6812F0010FDBD1012084F83500B3
:10403000002084F83400E16C09B12046884701B0C3
:10404000F0BD00002DE9F041044600F079FD054681
:1040500004B346F20F412068C4F2020188421DDC1D
:1040600046F26F01C4F20201884230DC46F23F01A1
:10407000C4F20201884250DC46F21001C4F202018F
:10408000884200F0848046F22801C4F2020188428E
:104090007DD075E00122D0B2BDE8F08146F26F41DB
:1040A000C4F20201884225DC46F23F41C4F202011B
:1040B00088423FDC46F21041C4F20201884266D0D9
:1040C00046F22841C4F20201884260D058E046F22C
:1040D0009F01C4F20201884239DC46F27001C4F249
:1040E0000201884253D046F28801C4F2020188429C
:1040F0004DD045E046F29F41C4F20201884233DCD4
:1041000046F27041C4F20201884240D046F2884132
:10411000C4F2020188423AD032E046F24001C4F2D1
:104120000201884233D046F25801C4F202018842AB
:104130002DD025E046F24041C4F20201884226D04B
:1041400046F25841C4F20201884220D018E046F2FB
:10415000A001C4F20201884219D046F2B801C4F2AB
:104160000201884213D00BE046F2A041C4F20201E2
:1041700088420CD046F2B841C4F20201884206D00F
:1041800043F20660B821C0F6020014F0F7F9606847
:10419000B0F1606F0AD04FEA7060072806D343F28F
:1041A0000660B921C0F6020014F0E8F9A068002802
:1041B00018BF402822D1E06840F40070B0F5007FBD
:1041C0002BD1206940F48060B0F5806F32D16069F6
:1041D000002818BFB0F5006F39D0B0F5805F36D039
:1041E00043F20660BD21C0F6020014F0C7F9A069D1
:1041F000002818BFB0F5005F30D0F5E08028DAD095
:1042000043F20660BA21C0F6020014F0B7F9E06884
:1042100040F40070B0F5007FD3D043F20660BB21BC
:10422000C0F6020014F0AAF9206940F48060B0F5ED
:10423000806FCCD043F20660BC21C0F6020014F0BF
:104240009DF96069002818BFB0F5006FC5D1A0695D
:10425000002818BFB0F5005F40F0C680E069002874
:1042600018BF202840F0D180206A4FEA304004284F
:1042700006D343F20660C021C0F6020014F07EF9B6
:10428000606A00B3042808D043F20660C121C0F67A
:10429000020014F073F9606AA8B1A06A042880F0E3
:1042A000C680E06A4FEAF050042880F0CD80206B91
:1042B0004FEA7050042806D343F20660C821C0F6C6
:1042C000020014F05BF9022084F83500002084F825
:1042D00034002068016821F001010160016811F0DB
:1042E000010F06D113E000BF2068016811F0010F33
:1042F0000DD000F025FC401B0528F5D90323202113
:104300000322D0B2616584F83530BDE8F08148F20F
:104310003F020168D4E9013504F10C08CFF2100224
:1043200001EA020C98E8C201D4E9072E43EA0C0323
:104330002B431943636A31433943042B41EA080193
:1043400041EA020141EA0E0220D1D4E90BE142EA3E
:104350000E02BEF1000F41EA020101604169A56A47
:1043600021F0070141EA050141F0040C14D0B8F531
:10437000005F77D0B8F1000F40F08580022D00F08B
:104380008680012D00F0788035B980E002604169B7
:1043900021F0070141EA030C6FF00F0140F2FF32F8
:1043A000C0F814C0012351FA80F190434AF6AB22C1
:1043B000CAF6AA225F29A1FB021288BF40F00400BE
:1043C000110941F62C42A065C0F60202515C3F2261
:1043D000E16502FA01F1002281600021D0B261653D
:1043E00084F83530BDE8F081B0F5804F3FF436AF4A
:1043F00043F20660BE21C0F6020014F0BFF8E06987
:10440000002818BF20283FF42FAFB0F5807F3FF47D
:104410002BAF43F20660BF21C0F6020014F0AEF8E5
:10442000206A4FEA30400428BFF423AF28E743F264
:104430000660C621C0F6020014F0A0F8E06A4FEA58
:10444000F0500428FFF433AF43F20660C721C0F6F2
:10445000020014F093F8206B4FEA70500428BFF468
:104460002BAF30E7032D97D8012340210122DFE84D
:1044700005F0020E0203B1E7AEF1C071B1FA81F1AD
:10448000490949B988E7032D06D37FF485AFCEF3F8
:10449000006100293FF480AF012340210122D0B206
:1044A000616584F83530BDE8F08100002DE9F04FFA
:1044B00081B016468846044600F042FB074694F851
:1044C0003500022823D12068006810F4807F28D1AD
:1044D0001021B8F1000F08BF2021D4E9165001FACD
:1044E00000F9296811EA090F23D0616D19B1616DD6
:1044F00011F0010F26D1B8F1000F35D0102101FACB
:1045000000F0A8600020C0B201B0BDE8F08F00202C
:1045100084F83400802060650120C0B201B0BDE89D
:10452000F08F4FF4807060650120C0B201B0BDE82B
:10453000F08F711C26D0002E48D1616D11F0010F53
:1045400074D0D2E72046FFF741FCE06D302101FA3C
:1045500000F00021A860012084F8350084F83410B0
:10456000C0B201B0BDE8F08F302101FA00F0A860C0
:10457000012084F83500002084F83400C0B201B076
:10458000BDE8F08F0421012208238140824083404E
:10459000676D17F0010FA8D12F683B4204D0666DFC
:1045A00046F001066665AB603A4204D0666D46F09F
:1045B00002066665AA60394204D0666D46F00406BC
:1045C0006665A96017EA090FE2D08EE74FF0010B8C
:1045D0004FF0040A616D11F0010F7FF486AF00F017
:1045E000AFFAC01BB04221D8E06D082101FA00F2F9
:1045F00029680A4204D0636D43F001036365AA6031
:104600000BFA00F20A4204D0636D43F002036365C3
:10461000AA600AFA00F20A4204D0636D43F0040370
:104620006365AA6011EA090FD4D05EE720206065B7
:10463000002084F83400012084F835000320C0B243
:1046400001B0BDE8F08F0000F0B581B00D4607461F
:10465000581E4FF6FF711E461446884207D343F298
:10466000066040F29D11C0F6020013F087FF97F834
:104670003400012803D10220C0B201B0F0BD0120F6
:1046800087F8340097F8350001281AD1022087F8FE
:104690003500002078653968BA680B68402A2A46D8
:1046A00023F480230B604E6008BF22468A6008BF57
:1046B0002C46CC600A6842F001020A60C0B201B028
:1046C000F0BD002087F834000220C0B201B0F0BD78
:1046D0002DE9F0410E460446D0F85880581E4FF69A
:1046E000FF711F461546884207D343F206604FF418
:1046F000E671C0F6020013F041FF94F8340001287F
:104700003BD0012084F8340094F83500012831D1E1
:10471000022084F83500002060652068A1680268E6
:104720004029314622F480220260476008BF2946B2
:104730004FF03F02816008BF3546C560E16D02FA67
:1047400001F1C8F80810016841F0160101604169E3
:1047500041F080014161216C00291EBF016841F0D8
:1047600008010160016841F0010101600020C0B250
:10477000BDE8F081002084F834000220C0B2BDE81A
:10478000F0810000B0B5044600F0DAF9054640F2C9
:104790008C10611CC2F20000007818BF044400BFF6
:1047A00000F0CEF9401BA042FAD3B0BD7047000024
:1047B00043F61441C4F201010A68024214BF0860C2
:1047C0007047FFF7F3BF00002DE9F04F83B00546B7
:1047D00000F13E400C4600F1FF704FEAB026092E72
:1047E00006D343F2CD50B321C0F6020013F0C6FE4B
:1047F00020680021B1EB104F01D180B230B943F2F3
:10480000CD50B421C0F6020013F0B8FE4FF6FF7190
:104810006068C1F2100188420BDC122800F22B8183
:10482000012101FA00F00F21C0F20601084226D151
:1048300021E14FF6FF71C1F2210188420FDC002116
:10484000C1F2110188421AD00021C1F2120188423E
:1048500015D00021C1F22101884210D00BE10021C6
:10486000C1F2220188420AD00021C1F231018842FE
:1048700005D00021C1F23201884240F0FC80A068DE
:10488000032806D343F2CD50B621C0F6020013F040
:1048900075FE41F6004008214FF0010C4FF0000B6F
:1048A0004FF0000A4FF00009C4F20200854204F103
:1048B000100008BF0721072E38BF31460190009134
:1048C00020680CFA09F6304211D100BF09F1010944
:1048D0000BF1020B0AF1040AB9F1100F04BF03B087
:1048E000BDE8F08F20680CFA09F63042EED060681F
:1048F00040F0100112292BD101980068102806D22F
:1049000081B24BF6FF7222FA01F1C9070AD143F2D4
:10491000CD50C721C0F6020013F030FE01984FF0D1
:10492000010C02E05AA101EB80004FF6FC730AF083
:104930001C010F220068C7F6FF738A4003EA59037F
:1049400088402B441F6A27EA0202104318626068FD
:1049500003222B6800F00301122802FA0BF201FA7D
:104960000BF123EA02036FEA020841EA030129601E
:1049700021D80CFA00F111F0061F1CD0E1680429BF
:104980000AD343F2CD50DA21C0F6020013F0F6FD4F
:104990006068E1684FF0010CAA6801FA0BF102EAC5
:1049A00008021143A960C0F300116A6801FA09F115
:1049B000B24311436960E968A268C00001EA0801D6
:1049C00002FA0BF241EA0201E9607FF57FAF0020B5
:1049D0000AF00C020F23029043F644009340C4F205
:1049E00002000146006840F480400860086843F611
:1049F0000041C4F2010100F480400F46029029F00A
:104A00000300084402994FF60841CFF6FF718E4625
:104A100041589943009B03FA02F2114340F80E10EB
:104A20003868626840EA060112F4803F08BF20EA55
:104A3000060112F4003F3960786840EA060108BFB9
:104A400020EA060112F4801F7960B86840EA060186
:104A500008BF20EA060143F60C4012F4001FC4F21E
:104A60000100B9600346006840EA060108BF20EA79
:104A7000060119602AE743F2CD50B521C0F60200C5
:104A800013F07CFDA0680328BFF4FCAE01E700BF73
:104A90000000000001000000020000000300000010
:104AA00004000000050000000600000007000000F0
:104AB00008000000090000000A0000000B000000D0
:104AC0000C0000000D000000000000000F000000BE
:104AD000B0B50C46054621B12869204018BF012019
:104AE000B0BD43F2CD504FF4BF71C0F6020013F0D9
:104AF00045FD2869204018BF0120B0BD70B516469D
:104B00000C46054621B16EB1012E0ED1AC6170BDCF
:104B100043F2CD5040F29F11C0F6020013F02EFD7B
:104B2000002EF1D12404AC6170BD43F2CD504FF49E
:104B3000D071C0F6020013F021FDAC6170BD000021
:104B400040F28C10C2F200008068704770B586B0E9
:104B50000446006843F20045C4F20005816805F58B
:104B60008066B04205914FF0402104BF43F20041FE
:104B7000C4F200018A680492426803924A68029271
:104B8000626842F40072B2F5007F40F091800599AE
:104B900011F0020F19D0039911F0800F15D0616A3E
:104BA0008A1C62620988C160618D01396185618DED
:104BB00059B9416821F0A0014160608E28B90120F7
:104BC00084F84100204600F0CFF9049810F0010F5E
:104BD0001FD0029810F0400F1BD02068B04228462A
:104BE00018BF4FF04020C168E26A931CE362118055
:104BF000618E01396186618E59B9416821F0600189
:104C00004160608D28B9012084F84100204600F001
:104C1000ABF9049810F0400F22D0029810F0200F4A
:104C20001ED020682946B04218BF4FF040214A6884
:104C300022F060024A60416821F0A0014160002139
:104C40000191C1680191806801900198012084F868
:104C50004100606C40F002006064204600F0DAF928
:104C6000059810F0080F00F09F80039810F0200FB7
:104C700000F09A8020684168B04221F0A0014160B4
:104C800018BF4FF04025696821F06001696000217C
:104C90000191806801900198012084F84100606CC6
:104CA00040F004006064204600F0B4F906B070BD26
:104CB000049810F0020F19D0029810F0800F15D050
:104CC000606A821C62620088C860608D01386085FD
:104CD000608D58B9486820F0A0004860608E28B9FF
:104CE000012084F84100204600F03EF9059810F0BC
:104CF000010F1AD0039810F0400F16D02068C16839
:104D0000E26A931CE3621180618E01396186618ED3
:104D100059B9416821F060014160608D28B90120D6
:104D200084F84100204600F01FF9059810F0400F6C
:104D30001BD0039810F0200F17D020684168B042B4
:104D400021F060014160284618BF4FF040204168C3
:104D500021F0A0014160012084F84100606C40F026
:104D600002006064204600F055F9049810F0080F26
:104D70001AD0029810F0200F16D02068B04218BF49
:104D80004FF04025696821F0A0016960416821F079
:104D900060014160012084F84100606C40F0040033
:104DA0006064204600F036F906B070BD2DE9F0478A
:104DB00082B0044690F8410015460E46012810D1F5
:104DC000002E4FF0010018BF002D06D02BB1274652
:104DD00017F8400F01280DD10220C0B202B0BDE883
:104DE000F08704F14007022000213970C0B202B000
:104DF000BDE8F0870120666284F84000E562216822
:104E0000C86900F00700052803D0032808BF5B002D
:104E100000E05B00002023856385238663864AF2D9
:104E2000AD0E4AF2B91C4AF2711360640520C0F657
:104E3000000EC0F6000CC0F6000384F84100E26BDF
:104E4000C2E90FECD364A06BC0E90FECC364CB697B
:104E500003F4807343F40073B3F5007F34D143F25D
:104E600000494FF040204FF04028C4F2000909F5F6
:104E7000806A514504BF43F20040C4F20000238E13
:104E800040F00C0110462A46FFF722FC21684FF043
:104E90004020514504BF43F20040C4F20000426884
:104EA00042F00102426001F10C023146238DA06BF9
:104EB000FFF70EFC2068416841F002014160C169C2
:104EC00011F4806F40D04CE0CA6902F44072B2F530
:104ED000407F06D100220192CA6801928A6801923D
:104EE000019A43F200494FF04028C4F2000909F545
:104EF000806A51454FF0402104BF43F20041C4F2A3
:104F00000001238D41F00C023146FFF7E1FB2168DF
:104F10004FF04020514501F10C0104BF43F2004025
:104F2000C4F20000426842F0020242602A46238E28
:104F3000E06BFFF7CDFB2068416841F00101416063
:104F4000C16911F4806F0CD1504508BFC846D8F82C
:104F50001C1041F48061C8F81C10C16941F48061E3
:104F6000C161002040E70000B0B543F60041006891
:104F7000C4F20001884220D140F28414C2F200043D
:104F8000A078002818BFB0BD40F221000125C2F270
:104F90000000017800291CBF012161700570257097
:104FA0000DF0A6FF0B2802BF40F22200C2F2000063
:104FB0000570606800F580706060B0BDB0B543F604
:104FC00000410068C4F20001884221D140F28414FB
:104FD000C2F20004A078002818BFB0BD40F2210042
:104FE0000125C2F20000017800291CBF0121617077
:104FF0000570002020700DF07BFF0B2802BF40F2EF
:105000002200C2F200000570606800F580706060E8
:10501000B0BD00007047000090F8410070470000EC
:10502000B0B50446002800F0CC80206843F600416B
:10503000C4F2000140F48060884217D160684FEAF2
:10504000302004281FD2A0684FEA3010042827D34C
:105050000B2825D043F2CD304FF48A71C0F6020000
:1050600013F08CFAE06805281DD933E043F2CD3007
:105070004FF48971C0F6020013F080FA60684FEABD
:1050800030200428DFD343F2CD3040F21311C0F6B4
:10509000020013F073FAA0684FEA30100428D7D248
:1050A000E068052816D8012101FA00F010F02B0F56
:1050B00010D0206940F40070B0F5007F18D160690D
:1050C000B0F5FA5F20D34EF60161C0F202018842CA
:1050D0001CD223E043F2CD3040F21511C0F602009D
:1050E00013F04CFA206940F40070B0F5007FE6D070
:1050F00043F2CD304FF48B71C0F6020013F03EFA4C
:105100006069B0F5FA5FDED2022807D043F2CD30F5
:1051100040F21711C0F6020013F030FAA06940F017
:10512000080008284FD1E069022857D294F84100BE
:1051300000285FD0022140F6BF7384F84110206838
:10514000C2699A43C26101626169022903D121697E
:10515000022200235DE0D4E90201002221284FF061
:10516000200038BF0122002908BF102000FA02F5F4
:10517000012001F029FA2169B1F5007F04D1E2682C
:10518000002A0CBFED00AD00B0FBF5F062696FF0D6
:10519000010300EB80004000B0FBF2F04CF6CD4282
:1051A0000530CCF6CC42A0FB0202C2F3C000C0EB3B
:1051B000D20203EB5203FD2B28D9606C40F01000A3
:1051C00060640120B0BD43F2CD304FF48C71C0F665
:1051D000020013F0D3F9E0690228A7D343F2CD30DF
:1051E00040F21911C0F6020013F0C8F994F841001A
:1051F00000289FD14AF2C110C0F600006063002071
:1052000084F84000204600F05FF893E7030220682E
:1052100052081A43114340F6BF720162C169D4E9D2
:1052200001C3E56821EA0202A16942EA0C021A43BD
:105230002A43114341F40061C161226AF2B3012A99
:105240000CD043F2CD304FF4DA71C0F6020013F007
:1052500095F9206A012831D1D4E9000C44F64D318A
:105260004FF04022C0F60001616343F20041C4F2F6
:10527000000101F58061884240F6BF7104BF43F22E
:105280000042C4F20002D06988434CF40071D0613E
:105290000220B1F5007F1062D06914BF00214FF4E5
:1052A00080710843D4E90213A56908434FF2FF71E6
:1052B00018432843084040F40060D06100200121D9
:1052C000606484F84110B0BD2DE9F04F87B000272D
:1052D00040F6000504460697CDE90477CDE902774C
:1052E000C4F202050068A5F5E631884202D007B095
:1052F000BDE8F08F40F25C10012102260DF1080A92
:105300004FF003084FF00609C4F24720016043F64E
:1053100030000197C4F20200016941F400410161CB
:10532000016901F40041019101990197016841F07F
:1053300001010160016801F00101019101990197EA
:10534000016841F0040101605146006800F004006A
:105350000190019803964FF400400290A5F500607B
:105360000496CDF81480CDF81890FFF72DFA4FF47D
:10537000A05003965146029004A880E840032846B6
:10538000FFF722FA4FF40069052003965146CDF845
:105390000890CDE9046806902846FFF715FA4BF20D
:1053A000B86546F210064FF0C0604FF480634FF4CA
:1053B00000514FF480724FF4403B4FF0040AC2F2A8
:1053C0000005C4F20206C5E900602846C5E9027777
:1053D000C5E90439C5E90612C5E908BAC5E90A876D
:1053E0002F63FEF72FFE002818BFFCF74BFE06F1D7
:1053F00078004BF2187600214022E563AC63C2F2DC
:10540000000686E807004FF48060F160C6E90409F1
:105410004FF40050B0614FF48070C6E9070B30467E
:10542000C6E909A8C6E90B11FEF70CFE002818BF53
:10543000FCF728FEA663B46307B0BDE8F08F000058
:105440007047000070470000B0B50446002842D005
:1054500043F200012068C4F20001884206D043F202
:1054600005409E21C0F6020013F088F86068072806
:1054700006D343F205409F21C0F6020013F07EF8E8
:10548000A068B0F5805F07D343F20540A021C0F6C5
:10549000020013F073F8A06821684CF6CC420A6051
:1054A00045F255520A6062684A608860FFF748FB1F
:1054B000054600BF2068C16839B1FFF741FB401BBA
:1054C0003028F7D90320C0B2B0BD4AF6AA21016046
:1054D0000020C0B2B0BD0120C0B2B0BD00684AF625
:1054E000AA2101600020704740F28C10C2F2000037
:1054F00001788268114481607047000080B543F6EE
:105500000040C4F20200016841F4007101600168CA
:1055100041F480610160016841F480710160032001
:1055200000F0C8F8012000F005F800F025F8002090
:1055300080BD000070B540F28C1604464FF47A71BD
:10554000C2F200063078B1FBF0F040F6A011C2F2D2
:1055500000010968B1FBF0F003F060F801250F2CA1
:1055600008D838B94FF0FF3021460022002500F05E
:105570005DF87460284670BD80B582B043F6400186
:1055800000200190C4F202014A6842F480424A605D
:105590004A6802F480420192019A00900868002251
:1055A00040F0805008600868012100F080500090B1
:1055B00000986FF00B0000F039F86FF00A0001213D
:1055C000002200F033F86FF009000121002200F002
:1055D0002DF86FF004000121002200F027F86FF091
:1055E00003000121002200F021F86FF001000121E9
:1055F000002202B0BDE8804000F018B8B0F1FF3FD3
:105600000CDD00F01F010122400902FA01F14EF207
:105610000012CEF2000242F82010704743F23E60C2
:10562000BE21C0F6020012F0A9BF000070B51446FA
:105630000D460646102A06D343F23E60AA21C0F664
:10564000020012F09BFF102D06D343F23E60AB2107
:10565000C0F6020012F092FF06F00F014EF60C5257
:1056600006F16040B6F1FF3FA1F10401CEF2000265
:10567000114401F10C01C8BF00F564411068C0F38A
:105680000220021DC31E80F00700072A4FF001020E
:1056900038BF0023042828BF042002FA00F09A40F3
:1056A00001380F3228402240984010430001087012
:1056B00070BD000010B504460338052806D343F238
:1056C0003E609221C0F6020012F058FF4EF60C50D8
:1056D0004FF6FF02CEF200000168114064F30A2188
:1056E00041F0806141F0FD71016010BD7047000024
:1056F000006841620020704780B5D0F800E00029C2
:10570000DEF824003BD0DEF82830B1F1010C00EBCC
:1057100013432CD0002000210EEB8000D0F80401B0
:1057200003EB104341F00100C0B284451FD90EEBDA
:105730008000D0F8040103EB104341F00200C0B236
:10574000844514D90EEB8000D0F8040103EB10431C
:1057500041F00300C0B2844509D90EEB800004314A
:10576000D0F8040103EB1043C8B28445D4D80EEB43
:105770008C0043EA0241C0F80411002080BD40EAD9
:105780000240CEF82800002080BD0000D0F80404BC
:105790000EF022BFC1EBC10200EB8202D0F804047C
:1057A000926C0EF06FBE0000C1EBC10200EB8202F2
:1057B000D0F80404D2F808220EF0C8BED0F80404D1
:1057C0000EF00CBF10B5044601F00F0011F0800F71
:1057D00009D1C0EBC001002204EB810181F8FD2159
:1057E00001F5FE7107E0C0EBC001012204EB81016D
:1057F00081F83D203C31087094F8BC03012802BFB9
:105800000220C0B210BD012084F8BC0320680FF054
:105810008DFF002084F8BC03C0B210BDB0B50446B3
:1058200001F00F006268904282BF0125E8B2B0BD6E
:10583000090609D4C0EBC001002204EB810181F804
:10584000FD2101F5FE7107E0C0EBC001012204EB70
:10585000810181F83D203C31002508708D7094F85D
:10586000BC03012802BF0225E8B2B0BD012084F8C4
:10587000BC03206810F03EFAE8B284F8BC53B0BD17
:1058800001F00F01C1EBC10100EB8100D0F814025F
:105890007047000010B5044601F00F0011F0800FB2
:1058A00009D1C0EBC00104EB810C00218CF8FD1183
:1058B0000CF5FE7108E0C0EBC00104EB810C012186
:1058C0008CF83D100CF13C018A60CB7008704A786E
:1058D000002A1CBFC0B2C880022B04BF0020087180
:1058E00094F8BC03012802BF0220C0B210BD012001
:1058F00084F8BC0320680FF0F3FD002084F8BC039B
:10590000C0B210BD80B501F00F0CCCEBCC0100EBA8
:10591000810E0021CEF80822CEE984318EF8FD11E7
:105920008EF8FCC10EF5FE710369012B08BFCEF89D
:105930000C22DAB2BCF1000F006803D010F02AFA92
:10594000002080BD10F026F9002080BDB0B50446CF
:10595000406801F00F05854282BF0120C0B2B0BD92
:10596000080609D4C1EBC100002104EB800080F8D7
:10597000FD1100F5FE7108E0C5EBC500012104EB47
:10598000800080F83D1000F13C0101200D7088700E
:1059900094F8BC23012A02BF0220C0B2B0BD84F833
:1059A000BC03206810F0CEF925B1002084F8BC03B8
:1059B000C0B2B0BD217C206804F5717210F06CF9A2
:1059C000002084F8BC03C0B2B0BD000010B501F0E7
:1059D0000F0C0024CCEBCC0100EB810E714601F8DA
:1059E0003CCFCA60C1E9053401234B700369012B28
:1059F00008BFCEF84C20DAB2BCF1000F006803D02B
:105A000010F0C8F9002010BD10F0C4F8002010BD3F
:105A10002DE9F04F87B083460068069010F0F6FA43
:105A200010B107B0BDE8F08FDBF8000010F01CFBF0
:105A30000028F6D0DBF8000010F016FB0146DBF87A
:105A4000000011F0020F1EBF416901F00201416127
:105A500010F00AFB10F4002F0ED0DBF8000010F05D
:105A6000E1FA002640B10BF571710BF501744FF4AA
:105A70003068002505918DE00025DBF8000010F06E
:105A8000F3FA10F4802F40F00781D8E143F20A02C4
:105A9000C4F654720132914206D310F400401CBF88
:105AA0004FF40040C9F80800584600F049FDDBF803
:105AB0000000059A012110F0EFF80820C9F808004D
:105AC000380740F1C88000BFDBF8001008EB010088
:105AD0000E6C8168DBF81020012A09D143F20A021A
