:020000040800F2
:10000000101201209D0100080DC90008418300085D
:1000100039C80008532500089FF8000800000000B8
:100020000000000000000000000000000BCE0008EF
:1000300041260008000000001DC9000801D2000888
:10004000B7010008B7010008B7010008B7010008B0
:10005000B7010008B7010008B7010008B7010008A0
:10006000312B0008B7010008592B0008852500082E
:10007000B7010008B7010008B7010008B701000880
:1000800091250008B7010008B7010008B701000872
:10009000B7010008B7010008B7010008892B000864
:1000A000B7010008B7010008B7010008B701000850
:1000B000B7010008B70100080DD30008B701000818
:1000C000B7010008B7010008B7010008B701000830
:1000D000B7010008B7010008B7010008B701000820
:1000E000052B0008B7010008B7010008B701000898
:1000F000B7010008B7010008B7010008B701000800
:10010000B7010008B70100084DD30008B701000887
:10011000B7010008B7010008A5D30008B70100081F
:10012000B7010008B7010008B7010008B7010008CF
:10013000B7010008B7010008B7010008B7010008BF
:10014000B7010008B7010008B701000811C900088D
:10015000B7010008B7010008B7010008B70100089F
:10016000B7010008B7010008B7010008B70100088F
:10017000B7010008B7010008B7010008000000003F
:10018000B7010008B7010008DFF80CD000F08EFCC2
:10019000004800470D210108101201200648804741
:1001A00006480047FEE7FEE7FEE7FEE7FEE7FEE75C
:1001B000FEE7FEE7FEE7FEE7B9D200088901000886
:1001C0002DE9F05F0546002092469B46884606468C
:1001D000814640241BE0284641464746224600F01F
:1001E00039FA53465A46C01A914110D3114618465F
:1001F000224600F020FA2D1A67EB01084F462246EE
:100200000120002100F017FA17EB00094E41201ED3
:10021000A4F10104DFDC484631462A464346BDE8E6
:10022000F09F40EA01039B0703D009E008C9121FB1
:1002300008C0042AFAD203E011F8013B00F8013BA0
:10024000521EF9D27047D2B201E000F8012B491ECC
:10025000FBD270470022F6E710B513460A46044663
:100260001946FFF7F0FF204610BD421E12F8013F6D
:10027000002BFBD111F8013B02F8013B002BF9D117
:10028000704710B5044604E00B7800F8013B03B159
:10029000491C521EF8D2204610BD421C10F8011B0A
:1002A0000029FBD1801A704710B5002200E0521CD3
:1002B000835C8C5CA34201D1002BF8D1D8B2E1B2AF
:1002C000401A10BD034611F8012B00F8012B002A3B
:1002D000F9D1184670472DE9F04791460F46804600
:1002E0000446002614F8015B2DB100F0C3F9006844
:1002F000405DC007F6D12B2D02D02D2D18D0641EE5
:100300004A463946204600F0B9F927B13968A1427A
:1003100001D1C7F8008071054FF002040BD54042AF
:10032000002803DD0FF07CFC0460A007BDE8F08727
:1003300046F48066E4E70028F8DA0FF071FC046008
:100340006FF00040F2E770B506460FF069FC0468F4
:1003500005460A2200213046FFF7BDFF2C6070BD24
:100360002DE9FE4F81EA030404F0004421F000412E
:1003700000944FF0000B23F0004350EA01045ED0DC
:1003800052EA03045BD0C3F30A54C1F30A552C4468
:10039000A4F2F3340194A0FB0254C1F3130141F41D
:1003A0008011C3F3130343F4801301FB024400FBE9
:1003B000034E840A970A44EA815447EA8357A4FB10
:1003C000076802958D0A05FB07854FEA932C04FB0D
:1003D0000C542705029D4FEA065847EA1637B5EB3D
:1003E00008056EEB070C870E920E47EA811742EA6A
:1003F0008312A7FB0201B6EB0B0164EB00042B0D8B
:1004000043EA0C335E1844EB1C50DA465146E7FBD6
:100410000201C5F313044FEA0B3343EA14534FEAC6
:100420000432019C43EA0603A4F10C040294009CEC
:10043000CDE900B400F0B7F903B0BDE8F08F0020BB
:100440000146F9E72DE9F04D81EA030404F0004B81
:1004500021F0004514464FF0000A23F0004150EA15
:10046000050220D054EA01021DD0C5F30A57024606
:10047000C5F31303C1F31300C1F30A5640F480150A
:1004800043F48013A7EB0608101BD64608F2FD388C
:1004900073EB050002D308F1010801E092185B41FB
:1004A000B8F1000F03DA00200146BDE8F08D00200E
:1004B0004FF48011064684460EE0171B73EB0507C8
:1004C00005D3121B63EB050306434CEA010C4908F4
:1004D0004FEA300092185B4150EA0107EDD152EA31
:1004E000030012D082EA040083EA0501084305D024
:1004F000101BAB4106D20122002306E000224FF080
:10050000004302E06FF0010253101AEB06004CEBBF
:10051000085110EB0A0041EB0B01BDE8F04D00F073
:1005200033B90EB540F2334102910021CDE90011FB
:100530000A460B4600F037F903B000BD70B5C1F3B1
:100540000A5201F000450024C1F3130140F2FF33C9
:1005500041F480119A4201DA002070BD40F2334329
:100560009A42A2F2334203DC524200F073F800E0F8
:1005700090402C43F1D0404270BDC1F30A5210B5F7
:10058000C1F3130140F2FF3341F480119A4201DAC2
:10059000002010BD40F233439A42A2F2334203DC02
:1005A000524200F057F810BD904010BD00F00042DC
:1005B00030F000400AD0C10D01F56071C0F31600A3
:1005C00042EA0151C208400711437047002001462A
:1005D000704701F0004330B421F0004150EA0102BD
:1005E00006D00A0DA2F56072C1F31301002A02DCE5
:1005F00030BC00207047440F44EAC104C100E01839
:1006000030BC00EBC25000F088B830B50B46014654
:1006100000202022012409E021FA02F59D4205D3A1
:1006200003FA02F5491B04FA02F52844151EA2F14B
:100630000102F1DC30BD202A04DB203A00FA02F18D
:10064000002070479140C2F1200320FA03F31943C0
:1006500090407047202A04DB203A21FA02F0002162
:10066000704721FA02F3D040C2F1200291400843C2
:1006700019467047004870473C8201082DE9F05F39
:1006800082460078002715468B460AF10104B946D8
:10069000302801D09DB113E014F8010B0127782810
:1006A00003D0582801D045B10AE00DB1102D07D173
:1006B0000027102514F8010B02E0082500E00A25A8
:1006C0000026B0460EE005FB080005FB06F10127F9
:1006D00001EB10461FFA80F8B6F5803F00D3B9460B
:1006E00014F8010B294600F005FA0028EBDABBF1FB
:1006F000000F05D00FB1641E00E05446CBF8004057
:10070000B9F1000F06D00FF08BFA02210160C81E6C
:10071000BDE8F09F48EA0640FAE70029A8BF704705
:10072000401C490008BF20F00100704710B4B0FA27
:1007300080FC00FA0CF050EA010404BF10BC7047C2
:1007400049B1CCF1200421FA04F411FA0CF118BFDC
:10075000012121430843A3EB0C01CB1D4FEA0061AB
:100760004FEA102042BF002010BC704700EBC3507E
:1007700010440029A4BF10BC7047401C490008BFAA
:1007800020F0010010BC704710B5141E73F1000476
:1007900008DA401C41F1000192185B411A4301D173
:1007A00020F0010010BD2DE9F04D92469B4611B19D
:1007B000B1FA81F202E0B0FA80F220329046FFF7FF
:1007C0003AFF04460F4640EA0A0041EA0B0153464D
:1007D0005A46084313D0114653EA010019D0C8F114
:1007E00040025046FFF736FF05460E465046594632
:1007F0004246FFF720FF084305D0012004E02046D1
:100800003946BDE8F08D0020054346EAE0762C43EA
:1008100037430A986305E40AA0EB08000022FD0AAA
:1008200044EA47540A3002D500200146E9E70105B1
:1008300010196941DDE9084500196941BDE8F04D2D
:10084000A2E72DE9FE4F804681EA0300C00F0C4667
:10085000009021F0004123F00045B8EB0200A941CF
:1008600005D24046214690461C460B46024623F0E0
:100870000040104347D0270DC7F30A00C3F30A51C5
:100880000290401A019040286BDAC3F3130040F441
:10089000801B0098924620B10023D2EB030A63EB41
:1008A0000B0B01985946C0F140025046FFF7C3FEBA
:1008B00006460D4650465946019A00F009F910EBDC
:1008C00008006141002487EA115284EAE7731A4361
:1008D00040D0009A62B3019A012A4FEA075215DC10
:1008E000001B61EB02014FF0004202EA0752CDE922
:1008F0000042001C41F5801132462B46FFF753FFA2
:1009000003B0BDE8F08F40462146F9E7001B61EBDC
:100910000201001C41F5801300185B412018A2F56C
:10092000001747EB030140EAD570B6196D4111E09D
:100930006D084FEA360645EAC0754FEA0752001BBC
:1009400061EB0201001C41F5801149084FEA3000BB
:100950000019514132462B4603B0BDE8F04FFFF776
:1009600013BF0098012240000023D0EB020263EB8A
:10097000E073009821464FEAE074B8EB000061EBA9
:100980000401E9E783F000435BE781F0004158E7A9
:100990002DE9F041054621F000400C46284309D0DE
:1009A000C4F30A5040F23341884205DD284621460F
:1009B000BDE8F0812846FBE740F2FE31884210DCBA
:1009C0000CDB4FEA043040EA155050EA053105D0FF
:1009D000104804F0004101430020E9E700200146EF
:1009E000E6E7A0F233404642C6F1400228462146DF
:1009F000FFF721FE07468846284621463246FFF784
:100A000029FE43463A46FFF7BFFE3246BDE8F041B5
:100A1000FFF711BE0000F03FC1F30A52C1F313010A
:100A200040F2FF3341F480119A4202DA002001467D
:100A3000704740F233439A42A2F2334202DC524200
:100A4000FFF708BEFFF7F7BD30B5041E71F10004D3
:100A500004DB4FF00044404264EB0101141E73F1CB
:100A6000000405DB1C464FF00043524263EB0403D5
:100A70008B4208BF824230BD30B5041E71F10004C4
:100A800004DB4FF00044404264EB0101141E73F19B
:100A9000000405DB1C464FF00043524263EB0403A5
:100AA000994208BF904230BD00207047064C074D68
:100AB00006E0E06840F0010394E80700984710342E
:100AC000AC42F6D3FFF764FBD89E0108F89E0108FC
:100AD000202A06DBCB17203A41FA02F043EAE07302
:100AE00006E041FA02F3D040C2F1200291400843EF
:100AF000194670473A2800D2303820F02002412AA7
:100B000001D3A2F13700884201D34FF0FF30704784
:100B100070B58D1810F8014B14F0030201D110F8D4
:100B2000012B231106D110F8013B03E010F8016BF3
:100B300001F8016B521EF9D1ABB110F8012B04F092
:100B40000C048A1A0C2C03D0A2EB84129B1C08E024
:100B500010F8014BA2EB0422F8E712F8014B01F860
:100B6000014B5B1EF9D5A942D4D3002070BD000013
:100B70000023B3EB920F1FD093085B4290ED000A65
:100B80000133B0EEC00A81ED000A90ED010AB0EE2B
:100B9000C00A81ED010A90ED020AB0EEC00A81EDB3
:100BA000020A90ED030A00F11000B0EEC00A81EDD8
:100BB000030A01F11001E1D112F0030208BF7047EE
:100BC000524200BF90ED000A013200F10400B0EE85
:100BD000C00A81ED000A01F10401F3D17047000061
:100BE0004FF0000CBCEB930F2DD04FEA930CCCF1DF
:100BF000000C00BF91ED000A90ED001A1CF1010CF1
:100C000031EE000A82ED000A91ED010A90ED011A21
:100C100031EE000A82ED010A91ED020A90ED021A0E
:100C200031EE000A82ED020A91ED030A90ED031AFB
:100C300001F1100100F1100031EE000A82ED030A0B
:100C400002F11002D6D113F0030308BF70475B42D4
:100C500091ED000A90ED001A013301F1040100F159
:100C6000040031EE000A82ED000A02F10402EFD125
:100C700070470000B0B5E1B14FF0000C02EB4C043E
:100C800032F81C300CF1020C64888C4523F003030D
:100C900024F0030450F803E00559C55040F804E07F
:100CA00003440444D3F804E065685D60C4F804E0DC
:100CB000E4D3B0BD2DE9F0410588984616460C46B0
:100CC0000746012A0CD1E5B3201D294690ED000A04
:100CD0000139B1EE400A80ED000A00F10800F5D1BB
:100CE000FF2D0CDDB5F5806F10DBB5F5805F22D0F0
:100CF000B5F5006F11D0B5F5806F17D021E03F2D0D
:100D000010DC102D12D0202D07D01AE0B5F5807F11
:100D100003D0B5F5007F0ED013E03846214600F031
:100D200007F90EE0402D06D0802D0AD13846214625
:100D300000F030F805E07A6820462946012301F0EA
:100D400067F8B8F1000F04D0BA68B9892046FFF7F8
:100D500091FF012E1CD100EE105A002DB8EE400A72
:100D600008BFBDE8F081B7EE001A81EE000A00BFAF
:100D700094ED001A94ED012A013D20EE011A20EEB7
:100D8000422A84ED001A84ED012A04F10804EFD10F
:100D9000BDE8F0812DE9F0472DED088B80460088F5
:100DA0000023D8F8042001EB800A4FEA5009B3EB86
:100DB000D00F00F0AD80C70801EB890C0AEB890E5B
:100DC0007C420027C8190AEB07060CEB07030EEB61
:100DD0000705013496ED000A90ED004A96ED011AE0
:100DE00090ED015A96ED022A90ED026A96ED033AD3
:100DF00090ED037AD5ED000AD5ED011AD5ED022A62
:100E0000D5ED033AD3ED004AD3ED015AD3ED026A92
:100E1000D3ED037A34EE00BA37EE038A36EE029A47
:100E200035EE01AA34EE400A35EE411A36EE422A7A
:100E300037EE433A33EEE76A32EEE67A80ED00BAF7
:100E400080ED01AA80ED029A80ED038A34EEA0BA0B
:100E500035EEA1AA37EEA38A36EEA29A02EB07007E
:100E600071EEE51A70EEE40A07F1100783ED00BA9F
:100E700083ED01AA83ED029A83ED038A90ED008A47
:100E800090ED019A20EE094A21EE085A21EE091A46
:100E900020EE080A35EE444A30EE010A21EE891AA6
:100EA00020EE885A61EE881A60EE890A86ED014AC2
:100EB00086ED000A35EE010A30EEE11A85ED010AF1
:100EC00085ED001A90ED020A90ED031A22EE014A18
:100ED00023EE005A23EE013A22EE002A35EE444A70
:100EE00032EE032A26EE013A27EE005A26EE000AD9
:100EF00027EE011A86ED034A86ED022A35EE032A13
:100F000031EE400A85ED032A85ED020A7FF45AAFDF
:100F100008464946022300F07BFFD8F804205046DB
:100F200049460223BDEC088BBDE8F04700F070BFD6
:100F30002DE9F04F81B02DED088B92B0B0F800C0D4
:100F40000590406891ED000A91ED011A4FF00009FB
:100F50004FF0000B4FEA5C0206906FF001000F911A
:100F600001EB820300EB9C0703EB8205A9EB570022
:100F70006FF0030793ED004A93ED015A95ED002AB7
:100F800095ED013A05EB8204119007EB820007EB27
:100F9000C20E6FF0070794ED007AD4ED010A07EB5B
:100FA0000216109031EE036A70EE021A31EE431A07
:100FB00030EE420A0E9602EB420676EE052A71EEFC
:100FC000843A31EE442A30EE053A31EE041A30EE1E
:100FD000450A36EE456A71EEC41A07EB86004FEA01
:100FE0009C074FEA860A73EE873A72EEA02A32EE29
:100FF000072A33EE603A31EE471A30EE200A0D90A0
:1010000001970293049597000394C1ED003AC1ED56
:10101000012A83ED003A83ED012A31EEC73A36EE1C
:10102000602AD10085ED003A85ED012A84ED000AA1
:1010300084ED011A0024E0E00F98089407920B91C8
:101040005A46CB46109900EB0E0400EB01090D99AE
:101050000A97CDF830E0CDF824A0D4ED002A14EDA5
:10106000015ADDF838A0D9ED001A59ED017A471878
:101070000839D7ED010A00EB0A0ED7ED006A079890
:10108000AAF1080ADEED014A9EED004A71EEA03A8F
:1010900037EEA69A73EEA25A75EEA45AC9ED005A1D
:1010A00054ED015A9EED008A79EE255A75EE885A64
:1010B00049ED015AD9469346D3ED035A93ED028A7E
:1010C00009F1080902F1180B26EE25AA27EE08BA45
:1010D00027EE257A26EE086A3BEE0AAA36EE476A24
:1010E00032EEE47A85ED02AA85ED036A31EEE06A1C
:1010F00077EEE60A76EE451A70EE876A71EE841A8C
:1011000066EE887A21EEA5AA66EEA55A61EE881AE7
:101110007AEE677A71EEA51AC4ED007A44ED011AF1
:10112000089CD6ED051AD6ED045A103462EE216AF9
:1011300063EE257A23EE213A22EE252A77EEA66A7F
:1011400032EE432A33EEE23ACCED026A8CED032A0A
:1011500039EE452A33EE643A32EE442A63EE653ABC
:1011600023EE213A62EE212A22EE252A73EEE22AAC
:1011700033EE422AC7ED012A87ED002A0A9F90ED3F
:10118000072A90ED063A1098083760EE021A61EED1
:10119000032A21EE021A20EE030A083872EEA11A81
:1011A00030EE410A37EE601AC8ED021A88ED030AE4
:1011B00034EE450A21EE034A21EE021A30EE460AC9
:1011C00020EE025A20EE030A35EE444A30EE010AC0
:1011D0008EED014A8EED000ADDF830E01090119896
:1011E000AEF1080E013011900D910B99CDF838A099
:1011F000DDF824A008310AF1080A0F9B119803EBCF
:10120000090203EB010CDD1903EB0A08069B002819
:101210009CED020A92ED022A95ED024A98ED026ACF
:101220009CED031A92ED033A95ED035A98ED037A7B
:1012300003EB040672EE000A73EE013A33EE411A34
:1012400032EE400A70EE841A31EE042A70EEC40ABF
:1012500030EE453A31EE444A71EE861A33EE071A03
:1012600030EEC63AC2ED021AD5ED031AD8ED032AC4
:1012700073EEA11A71EEA21AC2ED031A73EEC51A2B
:1012800030EE055A32EE460A03EB0B024B4434EEC5
:10129000066A31EEC72A35EE477A7FF4CDAE93ED7C
:1012A000024A93ED035A0F98042367EE050A66EE8F
:1012B000041A26EE055A27EE044A34EE054A31EEAA
:1012C000E06A85ED024A85ED036A019D96ED044AC8
:1012D00096ED055A294623EE056A22EE047A23EE9E
:1012E000043A22EE052A33EE022A37EE464A8CED06
:1012F000022A8CED034A92ED062A92ED073A069AED
:1013000021EE034A20EE025A21EE021A20EE030AD1
:1013100031EE000A35EE442A88ED020A88ED032AF0
:1013200000F076FD059C029829460423626800F0CF
:101330006FFD626804982946042300F069FD626825
:1013400003982946042312B0BDEC088B01B0BDE818
:10135000F04F00F05DBD00002DE9F0412DED028B56
:101360000446002090460D46B0EB920F6DD04FEA38
:101370009800474294ED000A94ED011A21EE011AFB
:1013800020EE000A30EE018AB0EE480A0FF080FB32
:10139000B4EEC00AF1EE10FA03D7B0EE480A0FF02F
:1013A00077FB85ED000A94ED020A94ED031A21EE15
:1013B000011A20EE000A30EE018AB0EE480A0FF062
:1013C00067FBB4EEC00AF1EE10FA03D7B0EE480A9C
:1013D0000FF05EFB85ED010A94ED040A94ED051A09
:1013E00021EE011A20EE000A30EE018AB0EE480A22
:1013F0000FF04EFBB4EEC00AF1EE10FA03D7B0EED8
:10140000480A0FF045FB85ED020A94ED060A94EDBB
:10141000071A21EE011A20EE000A30EE018AB0EE22
:10142000480A0FF035FBB4EEC00A05F1100620346F
:10143000F1EE10FA03D7B0EE480A0FF029FB85ED64
:10144000030A0137354695D100E02E4618F0030017
:101450001ED0454294ED000A94ED011A21EE011AC6
:1014600020EE000A30EE018AB0EE480A0FF010FBC1
:10147000B4EEC00A371DF1EE10FA03D7B0EE480AF9
:101480000FF006FB86ED000A083401353E46E1D137
:10149000BDEC028BBDE8F0819FED241AB5EE002A69
:1014A00048F2D4630021B7EE004AC0F6010320EEF3
:1014B000010A30EE020ABDEEC01AB5EEC00A11EE06
:1014C000100AF1EE10FA9FED1A1AB8BF013802EEB9
:1014D000100AB8EEC22A30EE420A9FED162A20EE1C
:1014E000010ABDEEC01A11EE100A30EE021A0246D1
:1014F000B1EB502F18BF002202EE102A03EB82033B
:10150000B1EB502F18BFB0EE410AB8EE421A93ED7E
:10151000002A93ED013A30EE410A34EE401A20EEF3
:10152000030A21EE021A31EE000A704783F9223EC7
:1015300000000044000000C42DE9F04F81B02DED03
:10154000108B88B0D0E901CB0488601E03900CEBAF
:10155000800E0020CDE90143B0EBD30F00F0FA81FB
:10156000A0EBD40004F007059FEDF90ADB08069014
:1015700044F007000CEB800A24F007000BEB80001E
:101580000590E00807906842049060460C68CEF829
:1015900000404C68CEF804408C68CEF80840CC6817
:1015A000CEF80C400C69CEF810404C69CEF81440CF
:1015B0008C69CEF81840CC69CEF81C40079CD0ED61
:1015C000007AD0ED010A90ED027A90ED031A90EDC9
:1015D000042A90ED053A90ED064A002C00F04E8169
:1015E000DDF818904FF00008F0EE401AF0EE402AB7
:1015F000F0EE403AB0EE405AF0EE406AF0EE405A5B
:10160000F0EE404AB0EE406A0BEB080600EB08042F
:1016100008F1200819F1010996ED00CA94ED07BA06
:1016200094ED088A96ED01DA94ED099A96ED02EAB6
:1016300096ED03FA94ED0AAA6CEE0B8A63EE0CAAFF
:1016400061EE0CBA64EE0C9A67EE8C7A71EEA81A11
:1016500067EE0C8A73EEAA3A76EEAB6A72EEA92AAE
:1016600060EE8C9A36EE276A60EE8D0A61EE0F7A94
:1016700075EEA85A6DEE088A74EEA94A6BEE0D9AC3
:1016800036EE206A69EE0F0A71EEA81A64EE0D8A32
:1016900072EEA92A73EEA83A62EE0D8A76EEA86A77
:1016A00061EE0D8A75EEA85A67EE0D8A27EE0E7A66
:1016B00074EEA84A6EEE098A36EE076A2FEE0A7AB1
:1016C00071EEA81A68EE0E8A36EE276A72EEA82A24
:1016D0006BEE0E8A31EE877A68EE0F1A73EEA83A37
:1016E00063EE0E8A72EEA00A6BEE0F2A76EEA86AFF
:1016F00062EE0E8A73EEA11A75EEA85A61EE0E8A9A
:1017000094ED0B1A74EEA84A62EE0C8A22EE0FCA10
:1017100035EE285A63EE0D8A23EE0FDA74EE8C4A0A
:1017200035EE285A64EE0E8A24EE0FEA75EE8D5AD5
:1017300096ED07FA35EE285A76EE8E3A35EE225AB5
:10174000D6ED042A69EE0F8A68EE0F9A68EE227AC7
:1017500022EE22CA2AEE22DA29EE222A62EE816ADB
:1017600035EE275AD6ED057A70EE8D0A23EE22DA91
:1017700071EE821A94ED0C2A37EE267A6BEE226A0D
:1017800064EE222A36EE0C6A74EE8D4A73EEA63AA7
:1017900075EEA22A23EE27DA2AEE273A29EE27CA87
:1017A00067EE826A61EE275A71EE831A35EE0C5AA3
:1017B00096ED06CA94ED0D3A37EE267A68EE276A62
:1017C00070EEA50A6BEE275A64EE277A36EE0D6AA4
:1017D00073EEA63A72EEA52A74EEA74A6CEE036A7F
:1017E00062EE0C5A61EE0C7A2BEE0CEA2AEE0CDA61
:1017F0002BEE0FBA37EE267A69EE0C6A70EEA50A68
:1018000068EE0C5A24EE0CCA94ED0E4A71EEA77ADB
:1018100074EE8E4A35EE0D5A2AEE0FDA73EEA66A92
:1018200072EEA55A36EE0C6A74EEA94A6FEE041AEF
:1018300076EE8D6A75EEA85A36EE0B6A77EE211AAF
:1018400023EE0F7A70EE872A21EE0F7A62EE0F0AEE
:1018500077EEA03A35EE075AB0EE4A7AF0EE490A32
:10186000F0EE487A7FF4D0AE059C5646F0EE487A0A
:10187000F0EE490AB0EE4A7A13E000BF00F11C0610
:101880005C46B0EE406AF0EE404AF0EE405AF0EEB0
:10189000406AB0EE405AF0EE403AF0EE402AF0EEE8
:1018A000401A0EF1200E2031C5B3049F94ED009A2A
:1018B000B0EE608AF0EE470AB0EE417AB0EE421A1E
:1018C000B0EE432AB0EE443A96ED004A013706F1F5
:1018D000040604F1040429EE04AA23EE09BA22EE58
:1018E00009CA21EE09DA27EE09EA20EE89FA68EE44
:1018F000098A67EE897A36EE276A71EE8A1A72EEE5
:101900008B2A73EE8C3A35EE0D5A76EE8E6A75EEB2
:101910008F5A74EEA84AF0EE487AC7D182ED006A79
:10192000C2ED014AC2ED025AC2ED036A82ED045AC9
:10193000C2ED053AC2ED062AC2ED071A0AF1200AE5
:10194000013B02F1200200F120007FF41FAE02E013
:10195000000000006046029B13F0070928D0019B9D
:101960009FED280AC3F100080C684646B0EE401A05
:10197000CEF80040002400BF05190BEB0407013628
:1019800004F1040497ED002A95ED003A23EE022AB3
:1019900031EE021AF0D182ED001AB9F1010900F11D
:1019A000040002F104020EF1040E01F10401DBD186
:1019B000039B0021B1EB930F14D09908494200BF5B
:1019C00002680131CCF800204268CCF8042082681B
:1019D000CCF80820C26800F11000CCF80C200CF103
:1019E000100CEDD113F0030106D0494250F8042B3E
:1019F00001314CF8042BF9D108B0BDEC108B01B0CB
:101A0000BDE8F08F00000000B0B58260054601809F
:101A100004981C4608446FF0030101EB800118464E
:101A2000FEF718FC6C60B0BD2DE9F04F85B007885B
:101A3000D0F804E0002B00F0BC8000269FED720A75
:101A40004FEA9708F4469B46A6EB9706049607F0E4
:101A50000306D0E9025A27F00300019700930AEB2E
:101A6000800003907042029091ED002AB8F1000FBF
:101A700062D0049FB1460023B0EE401A0CEB030085
:101A8000EC180AEB03061033013794ED003A90EDA1
:101A9000006A94ED014A90ED017A94ED025AD0ED7E
:101AA000020AD0ED031AD6ED003AD6ED014A66EEF1
:101AB000032A32EE622A64EE072A23EE023A32EE5D
:101AC000622A36EE033A25EE206A24EE024A80EDC1
:101AD000003A32EE462A37EE044A23EE833AD4ED3A
:101AE000032A25EE025A80ED014A24EE844A31EEA3
:101AF000031A30EE855A96ED026A31EE041A21EE91
:101B0000A27A80ED025A32EE472A96ED033A25EE8C
:101B1000064A22EE827A31EE041A31EE875A25EE19
:101B2000033A80ED035A31EE031AA7D1039C0CEB64
:101B300003072B444E4604E067462B465446B0EE5E
:101B4000401A043106B30298A14600BF93ED003A53
:101B500097ED004A013003F1040324EE035A32EEFC
:101B6000452A99ED005A09F1040923EE023A34EEB0
:101B7000033A25EE034A87ED003A07F1040731EEF8
:101B8000041AE3D104EB860494ED003A87ED002AB1
:101B9000BBF1010B0CF1040C22EE033A31EE031AF7
:101BA00082ED001A02F104027FF45EAFDDE9003736
:101BB00001E04FEA9708B8F1000F15D0980000BF78
:101BC0005EF80010B8F10108CEF800100EEB00012D
:101BD0004A68CEF804208A68CEF80820C968CEF892
:101BE0000C100EF1100EEBD10EEB830017F0030179
:101BF00006D0494250F8042B01314EF8042BF9D19C
:101C000005B0BDE8F08F00BF00000000B0B5C0E92E
:101C10000223044601800598049D0844810028465B
:101C2000FEF718FB6560B0BDF0B54C1E4FF0000C20
:101C300090ED000A00F1040EBCEB940F40D0A70811
:101C4000012625464FF0000C66F301057E4204276D
:101C50009EED001A9EED012A9EED023A9EED034A8A
:101C600001360EF1100EB4EEC10AF1EE10FABCBF4F
:101C7000A7F1030CB0EE410AB4EEC20AF1EE10FA7D
:101C8000BCBFA7F1020CB0EE420AB4EEC30AF1EEFB
:101C900010FABCBFA7F1010CB0EE430AB4EEC40ABF
:101CA000F1EE10FAB4EEC40AB8BFBC460437F1EE48
:101CB00010FAB8BFB0EE440A002EC9D100EB850E71
:101CC00014F0030012D040429EED001A0EF1040EF3
:101CD000B4EEC10AF1EE10FAB8BF01EB000C00F14E
:101CE0000100B8BFB0EE410A0028EDD182ED000A34
:101CF000C3F800C0F0BD00000023B3EB910F22D069
:101D000080B58B089FED1C0A21F0030CC3F1000E77
:101D1000034600BF93ED001A93ED012A93ED023ABA
:101D200093ED034A10331EF1010E30EE010A30EE3E
:101D3000020A30EE030A30EE040AEBD100EB8C000D
:101D4000BDE8804001E09FED0C0A11F0030309D0CB
:101D50005B4200BF90ED001A013300F1040030EE49
:101D6000010AF7D101EE101AB8EE411A80EE010A0D
:101D700082ED000A704700BF000000004FF0000C29
:101D8000BCEB930F2DD04FEA930CCCF1000C00BFAD
:101D900091ED000A90ED001A1CF1010C21EE000AF1
:101DA00082ED000A91ED010A90ED011A21EE000A80
:101DB00082ED010A91ED020A90ED021A21EE000A6D
:101DC00082ED020A91ED030A90ED031A01F1100170
:101DD00000F1100021EE000A82ED030A02F1100268
:101DE000D6D113F0030308BF70475B4291ED000AA0
:101DF00090ED001A013301F1040100F1040021EE1D
:101E0000000A82ED000A02F10402EFD170470000DF
:101E10002DE9F04F81B02DED108BA0B09FED050A9C
:101E2000CDE903328C46019004301B9102900846A4
:101E300002E000BFF304353F4FEADC064FEACC076F
:101E40004FF0000BF30006EB860235010896A3EB7A
:101E5000DC00D100C0001A9006EB46007601C400F9
:101E600000012246029CCDE91E7CCDE90C01CDE9A2
:101E70001C6500BF0C9804EB03091F461A9B04EB7A
:101E800001082644254404EB020E14ED017ADDF826
:101E90007CC0114656ED010A1EED012A18ED013AEB
:101EA00019ED014A15ED016A04EB030A20443B4693
:101EB000E3441AED011A10ED015A77EE204A74EE50
:101EC000032A37EE607A72EE011A76EE053A32EEA8
:101ED000411A34EE432A36EE455A72EEA15A74EE98
:101EE000A36A34EEE33A72EEE11A76EEA57A76EE64
:101EF000E55A44ED017A46ED015ADAED005ADEED7D
:101F0000006AD8ED007A99ED008A90ED009A95ED7F
:101F100000AA96ED00BA94ED00CA36EEA5DA38EEC6
:101F200027EA3AEE09FA7CEE0B8A36EEE54A78EEBD
:101F3000673A72EE415A32EE011A3CEE4B6A7EEE7F
:101F40000D9A78EE8FAA3EEE4DDA73EE842A78EE83
:101F5000CF6A65EE800A33EEC42A21EE001A7AEECB
:101F6000A9BA73EE0D4A7AEEE99A33EE4D3A62EE73
:101F7000802A76EEE15A71EEA61A22EE002A37EE9A
:101F8000604AC4ED00BAC6ED009A45ED014A7AEE0A
:101F9000494A00ED013A37EE203AC5ED005AC0ED4E
:101FA000001A76EE021A36EE422A74EEA27A34EE67
:101FB000E27A73EE275A33EE673A74EE070A34EE8C
:101FC000474A49ED015A0AED013A35EE013A48ED2A
:101FD000010A0EED014A35EE411A31EEC37A33EEB5
:101FE000213A32EE414A31EE021A89ED007A8AED49
:101FF000003ADDE91C651E9F1B980D9988ED004A8B
:102000008EED001A3C448345FFF434AFBCF1400F21
:10201000C0F0C9810398DDF80480002501270792EC
:102020000E9380B206900898C0EBC000C0000590E7
:102030000698049CCDF824800A97DFEDDE2A05443B
:1020400005EB850305EB45020B95D900D00004EBA9
:10205000C3030431043004EB010E04EB451104EB1F
:10206000000CC5EBC50091ED000A04EB0511DCED99
:10207000006AC446DEED005ADDF81C808DED1A0AB8
:1020800091ED000A04EBC5018DED190A91ED000AEE
:1020900004EBC001C00004308DED180A91ED000A78
:1020A00004EB021120448DED170A91ED000A110195
:1020B00004EBC20204318DED160A93ED000AEB0029
:1020C00004EB01096901043304318DED150A92ED29
:1020D000000A2A012344043222440C448DED140AE0
:1020E00094ED000A8DED130A92ED000A8DED120AAF
:1020F00093ED000A3B468DED110A90ED000A8DED3F
:10210000100A99ED000A8DED0F0ADDE90C15059F07
:102110001D980CEB060B0CEB01090CEB05020CEB0C
:10212000070E9CED02DA9CED03EADDED1A3ADDEDD7
:10213000134A1C9E9BED02FADEED027A92ED029AA2
:1021400099ED02BA0CEB000A0E989AED02CA7DEEE8
:102150000FBA0CEB00040CEB080090ED028A94ED32
:1021600002AA7CEE0BAA7BEEAADA78EE278A7AEE38
:10217000099A78EE677A3AEE498A79EEA8CA38EE7B
:10218000670A78EE277A79EEE88A7DEEACEA7DEE92
:10219000ECCA20EE220A67EEA27ACCED02EA63EEE8
:1021A000AC0A64EEACCADBED03DA9EED039A90ED67
:1021B00003AAD2ED03EAD4ED03FA99ED031A9AEDDE
:1021C000032A32EE013A3EEE2D4A7AEE099A3FEEAC
:1021D000AE8A32EE411A38EE295A34EE036A34EEF2
:1021E000433A38EE698A3BEEEA4A36EE457A36EEF5
:1021F000055A3AEE496A3FEEEE9A39EE46AA64EE87
:10220000871A39EE066A23EE877ADDED124ADDED94
:10221000193A8CED035A34EE085A3DEE4F9A34EEDB
:10222000484A26EE222A37EE6C6A30EEA17A73EE27
:10223000680A7CEE4B1A38EE833A3EEE6DCA2AEEFF
:1022400022AA39EE008A39EE400A24EE85BA23EE3E
:10225000A0DA23EE855A64EEA00ADDED0F4ADDED2B
:10226000163A8BED027A8BED036A31EE02EA31EE1B
:10227000A77A31EE421A31EEE72A7CEE4A1A3DEE99
:102280004B6A30EE855A3CEE0ABA38EE0EFA38EE5A
:102290004E8A70EE017A30EE410A32EE211A64EE77
:1022A000840A23EE83DA8AED025A23EE844ADDEDB6
:1022B000183A24EE833A7BEE478A8AED036A37EEBA
:1022C0000B7A3DEE605ADDED110A33EE043A23EE4F
:1022D000A86A23EE8FDA89ED023ADDED103A89ED36
:1022E000035A20EE8F4A60EEA80A36EE443A3DEEDD
:1022F000204ADDED170A23EE885A84ED024A84ED68
:10230000033A20EE876A60EE880A23EE877A31EE80
:10231000C28A30EE874ADDED150A36EE453A25EEE3
:10232000A75A25EE887A8EED024A8EED033A26EE04
:10233000804A20EE886A60EEA70A36EE452A9DEDB7
:10234000146A30EE873A82ED023A82ED032A26EED5
:10235000015A26EE811A26EE000A30EE010A35EE09
:10236000442A80ED020A80ED032A1E9884441F98B7
:1023700003441B988342FFF4CBAE0A9FDDF8248010
:1023800008980B9D013708F108088742FFF450AE0A
:102390000398DDF820C09FED070AC00003901F9846
:1023A0003F283FF649AD20B0BDEC108B01B0BDE831
:1023B000F08F00BFF304353F0023B3EB920F1FD023
:1023C00093085B4290ED001A013321EE001A81ED73
:1023D000001A90ED011A21EE001A81ED011A90ED1C
:1023E000021A21EE001A81ED021A90ED031A00F193
:1023F000100021EE001A81ED031A01F11001E1D164
:1024000012F0030208BF7047524200BF90ED001A5D
:10241000013200F1040021EE001A81ED001A01F1F1
:102420000401F3D1704700009FED221A48F2D463F3
:102430000021B7EE004AC0F6010320EE010ABDEE0E
:10244000C01AB5EEC00A11EE100AF1EE10FA9FEDB7
:102450001A1AB8BF013802EE100AB8EEC22A30EEDE
:10246000420A9FED162A20EE010ABDEEC01A11EEB7
:10247000100A30EE021A0246B1EB502F18BF0022AC
:1024800002EE102A03EB8203B1EB502F18BFB0EE1F
:10249000410AB8EE421A93ED002A93ED013A30EE6C
:1024A000410A34EE401A20EE030A21EE021A31EE00
:1024B000000A704783F9223E00000044000000C477
:1024C0004FF0000CBCEB930F2DD04FEA930CCCF1E6
:1024D000000C00BF91ED000A90ED001A1CF1010CF8
:1024E00031EE400A82ED000A91ED010A90ED011AE9
:1024F00031EE400A82ED010A91ED020A90ED021AD6
:1025000031EE400A82ED020A91ED030A90ED031AC2
:1025100001F1100100F1100031EE400A82ED030AD2
:1025200002F11002D6D113F0030308BF70475B42DB
:1025300091ED000A90ED001A013301F1040100F160
:10254000040031EE400A82ED000A02F10402EFD1EC
:102550007047FEE710B50446FDF79FFE82B20348C0
:1025600021460068BDE810400CF0CFB83C7A010865
:102570000348417809B10C307047001D70470000D6
:1025800078E80020014801F08DBC000038010120EE
:10259000014801F087BC0000980101200168182360
:1025A000CAB2103AB2FBF3F2054B6FF30901032AEA
:1025B0009B5CC36500D9091D816508467047000012
:1025C000807A010810B5014600208B698A6A4FF0B5
:1025D000C07453B1B3F5005F15D072B1012A0CD0AD
:1025E000022A0AD0032A09D104E01AB1012A06D02E
:1025F000022A03D1C96AC90100D5012010BDC96AE8
:10260000A142FAD010BD002AF7D0012AF2D0022A46
:10261000F3D0032AF3D010BD30B50468256825F443
:1026200080252560046863608368402B036803D0BD
:1026300099600068C26030BD9A600068C16030BDBA
:10264000704700002DE9F04FDFF8A4B100252DED13
:10265000048BADF5017D9FED679A674CDFF89C8197
:10266000DFF89CA10BF500790BEB850794ED152A9B
:1026700097ED001A09EB8506D4ED161A21EE020A31
:10268000D6ED000A00EEE10A60EE820A41EE210A70
:102690000DF0CAFA684600EB8500F0EE408AC0ED06
:1026A000008A94ED0E8A38EEC80A00EE098A84ED9D
:1026B0000E8A97ED000A84ED160A96ED000A84ED65
:1026C000150A98F80000E0B39AF83200C8B39FEDFD
:1026D0004D0A00BF6D1CADB286ED000A802DC3D33C
:1026E0009DED000AB0EEC00A0EF0D2F9DFED460A09
:1026F00020EE200AD4ED0D0A9FED441A00EE810A67
:1027000084ED0D0AE07800286BD110EE100A4049E4
:10271000884203DD9FED3F0A84ED0D0AB2EE041AF4
:102720009AF8320020EE010A0023012598B198F8AA
:102730000010DFED390A99B3C0F10A0001EE100A6A
:1027400000E00BE0B8EEC11A71EE600AF4EEC00AC8
:10275000F1EE10FA44DB88F8003041E00BF063FA48
:10276000092814D094ED100AD4ED0F0A84ED0F8AD5
:1027700030EE080A30EE600ADFED280A20EE200A6B
:10278000DFED270A84ED100A20EE200AA2E79FED74
:10279000250AC8EE800A9FED240A20EE800A99E7F8
:1027A000FFE7C0F10A0101EE901A204FF8EEE11A9E
:1027B00011EE906ABE4206DD01EE101AB8EEC11AA3
:1027C00071EE200A05E000EE900AF8EE600A71EE64
:1027D000600AF4EEC00AF1EE10FA01D288F8005057
:1027E000E3700DF5017DBDEC048BBDE8F08F0000BA
:1027F00010250020CDCC4C3D14000020C408002042
:1028000078E80020000000000AD7A33B52B87E3FC2
:102810003333333F3333333F9A99993E8FC2753FF9
:102820000060EA46DB0F4940000080469A99993ED5
:1028300010B52021024802F07FF90249086010BD5E
:102840000010024070000020F0B504468B488C4E0A
:1028500085B000783178884305D005B02046BDE8C2
:10286000F0400FF0E9B8874F874D387898BB28467D
:10287000A97D90F82900012904D0022913D0032949
:1028800024D15EE040B10BF0C9F904EBC40101EBC7
:10289000041100EB810017E00BF0C0F904EB840198
:1028A00000EB410010E038B10BF0B8F940F27121B3
:1028B000614300EB011007E00BF0B0F904EB4401B9
:1028C000C1EBC41100EBC1000BF0E0F907F064FDAF
:1028D000387800286FD030786C4F012680B36C4870
:1028E000006840218DF8031000210191B20402918B
:1028F000CDE90312C0F3015202EB8202C0F303439D
:1029000003EB4203C0F3023202EB8202C0F3032561
:1029100005EB420200F00F05C0F3021000EB80004F
:1029200005EB40058DF800305A488DF801208DF8F0
:102930000250007868B1012812D0022817D01CE09C
:102940003BE00BF06BF943F60951614300EB81105A
:10295000BAE70BB9002C2EDB18198DF800000CE03B
:102960000AB9002C27DB10198DF8010005E00DB91C
:10297000002C20DB28198DF802009DF80000182893
:1029800001D38DF800109DF801003C2801D38DF88B
:1029900001109DF802003C2801D38DF802103E483A
:1029A00003F012FD3C4803F079FD002269463A48E5
:1029B00003F036FEBE7105B0F0BD384864210078E2
:1029C000801E052811D2DFE800F0034939271600E0
:1029D00095F82600204410F0FF0085F8260007D067
:1029E000642801D985F826107E702D480670E2E72C
:1029F00085F82660F8E795F83300204410F0FF00D2
:102A000085F8330005D0FA28EED9FA2085F833008E
:102A1000EAE785F83360E7E7002C03DC95F832003D
:102A20000028E1D095F832002044C0B285F8320089
:102A30000A28D9D90A2085F83200D5E795F8300060
:102A4000204410F0FF0085F8300004D06428CBD972
:102A500085F83010C8E785F83060C5E7002C01DC48
:102A6000687D38B1687D2044C0B26875042801D9FA
:102A7000042068750AF0DEF9B6E70000750800204A
:102A8000740800207308002078E80020A6080020C1
:102A9000002800407A08002098FC002076080020DA
:102AA000B208002070B5144D2021284602F044F8E9
:102AB000124C6060216888421DD0206004212846A5
:102AC00002F03AF86268002590420D49A06808D0EB
:102AD000401EA06091F86A10494281420BDD681ED9
:102AE00006E0401CA06091F86A10814203DA0120E0
:102AF000FFF7AAFEA56070BD001002407000002024
:102B000078E8002010B54FF4806001F083FE074C98
:102B10002078002808D100F0BBFB2078002803D1E2
:102B2000BDE8104000F002BD10BD0000AA0000206A
:102B300010B5042001F06EFE05490020087005481C
:102B40000078002803D0BDE81040FFF7ABBF10BDF0
:102B5000CB080020C508002010B5102001F05AFE57
:102B600007490020087007480078002807D00BF0BC
:102B70005AF8072803D0BDE810400BF059B810BD33
:102B8000CB080020C508002010B5202001F042FE2F
:102B9000034900200870BDE8104007F051BB000059
:102BA000CB080020FEE700002DE9F041A0482DED04
:102BB000068B90F8310000287ED09E4CA07800282B
:102BC0007AD02078DFED9C9A9FED9CAAF6EE00AAC1
:102BD0004FF40077B7EE009A4FF00005C8B3DFF866
:102BE000608200BF00EE105AB8EEC00A20EE290A3B
:102BF00020EE0A0AFEF750FC39EE400A20EE2A0ABF
:102C000010EE100AFDF7D2FC08EBC50641EC180BDC
:102C10003068FDF7CBFC53EC182BFDF7A1FBFDF75B
:102C2000D8FC30607068FDF7C1FC53EC182BFDF741
:102C300097FBFDF7CEFC6D1C7060BD42D2DB01231B
:102C400000227F49E068FEF735F83A467D497C4826
:102C50003AE0FFE7DFF8F08100EE105AB8EEC00A64
:102C600020EE290A20EE0A0AFEF716FC39EE400A89
:102C700020EE2A0A10EE100AFDF798FC08EBC506B4
:102C800041EC180B3068FDF791FC53EC182BFDF765
:102C900067FBFDF79EFC30607068FDF787FC53EC26
:102CA000182BFDF75DFBFDF794FC6D1C7060BD42B9
:102CB000D2DB0123002200E0B5E06349E068FDF7C4
:102CC000F9FF3A465F496048FEF746FB594B3946E3
:102CD00010331A1D5B48FEF7A7FF564A39461832D3
:102CE0005848FFF709F894ED050AD4ED070A30EECD
:102CF000601ADFED561A4FF07E5581EE210A84ED01
:102D0000080AE088082808D3B5EEC00AF1EE10FAE8
:102D100003DD00BF30EE800A25E0012825D8B5EE9E
:102D2000C00AF1EE10FA04D210EE100A48498842A7
:102D3000F0D810EE900A4749884204DDB2EE040A4A
:102D400030EEC00A0FE0B5EEC00AF1EE10FA04D280
:102D500010EE100A10F1814FDCD810EE900AA84254
:102D600003DD30EEC90A84ED070AD4ED060AB1EEA0
:102D7000000A20EE800AD4ED070AB4EEE00AF1EE74
:102D800010FA01DD84ED070A0026E6803249E06989
:102D9000884203DAB3EE040A84ED070AD4ED070A89
:102DA000284B002103EB810090ED001A81EE200AF0
:102DB00010EE102A80ED000AAA4201DD80ED009A93
:102DC000491C89B2B942EDD36278DFED240A0021B3
:102DD000C4ED090A00200DE001FB020703EB8707A1
:102DE00094ED091A97ED000A401CC0B230EE010ABA
:102DF00084ED090A9042EFD300EE102A94ED091AEF
:102E000003EB8107F8EE401A81EE210A10EE100A5A
:102E100087ED000AA84201DD87ED009A491C89B2BE
:102E2000FF29D5D9A670BDEC068BBDE8F081000066
:102E300078E8002080000020DB0FC9400000003B44
:102E40002C4B00202CCF00202C5B0020000048429F
:102E5000000020C1000020410000A041000000004F
:102E6000BB2190FBF1F0F0B500211B4F02B24FF4F3
:102E700080730E46002A14DD4FF0000007EB41245A
:102E800000EB02052DB2FF2D02D924F8106003E0FB
:102E900034F8155024F81050401C00B29842EFDD71
:102EA00014E013DA184607EB4125841824B2002CED
:102EB00001DD9C4202DD25F8106003E035F8144086
:102EC00025F81040401E00B20028EEDA491CC9B2B5
:102ED0003229CFD3F0BD00002C6B00202DE9F04744
:102EE0006F4D287800287DD16E4890F83100002879
:102EF00078D06D486D490078097808436C490978A5
:102F000008436FD10AF08FFE0B286BD0694CA07874
:102F1000002867D168480078002863D167480078A6
:102F200000285FD16648007800285BD14FF0010986
:102F300085F800903120634FA84620814FF0FF3A7A
:102F400080B207EB4022A2F5007180235E4801F0B9
:102F50007BFA524600215C4801F0E4F92089401ECA
:102F60000004000C2081EBD1002501E0802D04D26B
:102F700005F18000C6B2802D02D3A5F18000C6B253
:102F80007F2E32D05149A8B201EB8000F3EE0E0A39
:102F900090ED000A20EE200ABCEEC00A10EE100AE6
:102FA00080B2A0801D2808D91E20A0804FF4784050
:102FB0002081E088401CE08003E0C0B20EF00CFEEF
:102FC0002081208927F8160000236FF01E02BE2101
:102FD000701C05F046FDA088BE21404202B2238944
:102FE000701C00E04CE005F03CFD6D1CFF2DBDD9D0
:102FF0004FF4FC6633466FF01D02BE21802005F0C1
:1030000030FDFFF7B5FA0079BB250B2819D2DFE8B0
:1030100000F0060D18060D060D1839183900FFF7D7
:10302000A7FAC088404290FBF5F004E0FFF7A0FA51
:10303000C088B0FBF5F002B233469F21802005F036
:1030400001FD4FF48075F0232A46BE21012005F0D2
:10305000ABFB4FF448531E4A1A491E4801F0F4F9DD
:10306000524600211B4801F05DF933462A46BE2135
:10307000802005F0F6FC84F80290002188F800100A
:10308000BDE8F087FFF774FAC0884FF4BB75B0FB5A
:10309000F5F002B233469F21802005F0D3FCBEE755
:1030A0007708002078E80020B8080020B908002040
:1030B000BC08002080000020730800207208002057
:1030C000700800202C6B0020280001202CCF00204D
:1030D000000008608800012010B500F09FFABDE8EC
:1030E000104000F067BA00002DE9F05F524C534DDC
:1030F0004FF0010820694646401C2061C5F8008059
:1031000000F044FA000320814FF480372F602E60D6
:1031100000F03CFA218900F00F0041EA00202081F4
:103120002F602E6000F032FA218900F00F0041EA92
:10313000001020812F602E6000F028FA218900F015
:103140000F000843208100B2DFF8F490A08100EE68
:10315000100A99F800203E4E002AB8EEC00A3949FC
:10316000DFF8E4B0DFF8E4A0326802D00BEB8200B5
:1031700001E00AEB820080ED010AE08901EB8000AA
:1031800080ED000A2F60C5F8008000F0FFF9000311
:1031900020812F60C5F8008000F0F8F9218900F047
:1031A0000F0041EA002020812F60C5F8008000F068
:1031B000EDF9218900F00F0041EA001020812F6015
:1031C000C5F8008000F0E2F9218900F00F00084303
:1031D000208100B200EE100AA08199F80020B8EE1C
:1031E000C00A1C4BD6F800C012B10BEB8C0001E0FA
:1031F0000AEB8C004FF0000C80ED000AE08903EB35
:10320000800080ED000AE089401C80B2E0813368D4
:103210009B1C3360B0F5807F01D1A4F80EC0B3F5DC
:10322000806F05D182F00100C6F800C089F8000067
:103230002F60BDE8F09F0000A800002018080240A1
:10324000800000202CD700202C4B00202C5B00207D
:103250007C0000202CDB002010B5094C01202060F0
:1032600000F094F90749084A087000F00101117054
:103270000649C0F3400008704FF48030206010BD54
:1032800018080240A8000020C9080020CA08002031
:103290002DE9F041184C0120184D194EA0702878E6
:1032A0003178DFF86080084398F80010084301D0B7
:1032B000032000E004206070C0B200F083FA124FD7
:1032C00002203860104801221146183801F060FCD5
:1032D0004FF44030386028783178084398F800106F
:1032E000084302D000F012F801E0FFF7FDFE0020D5
:1032F000A070BDE8F0810000A8000020B808002000
:10330000B9080020BC080020180802402DE9F0414F
:10331000364C2069401C20613548E18900EB810072
:1033200090ED000ABDEEC00A10EE100A00B26081F6
:10333000C0F3073000F046FA2E4D01262E60370408
:103340002F606089C0F3072000F03CFA2E602F60E8
:103350006089C0F3071000F035FA2E602F60A07A64
:1033600000F030FA2E602F602348E18900EB8100E5
:1033700090ED000ABDEEC00A10EE100A00B26081A6
:10338000C0F3073000F01EFA2E602F606089C0F392
:10339000072000F017FA2E602F606089C0F3071035
:1033A00000F010FA2E602F60A07A00F00BFA2E6069
:1033B0002F60E0890022401C80B21049E081B0F506
:1033C000807F08D0802804D1087860B1A6717F2062
:1033D000E081BDE8F081087810B1A671FF20F7E721
:1033E000E281E67000E0E2700E70F2E7A8000020D3
:1033F0002CDF0020180802402CE3002016000020DB
:103400002DE9F041FFF7B4F800680EF071FC414E71
:10341000414F044630783978DFF800810843404D49
:1034200098F80010084316D10AF0FDFB032802D0DB
:10343000042810D106E0FFF79BF80068B5F8681083
:10344000084405E0FFF794F80068B5F86810401AE2
:103450000EF04EFC044633480021417032783B7830
:103460001A4398F800301A4301D0082103E0417054
:103470002A7D02B104214170C8B200F0A3F92A4F9D
:1034800001221146384601F083FB274D4FF44030AE
:1034900018352860C4F3035000F094F90122114656
:1034A000384601F075FB4FF480362E60C4F30340BC
:1034B00000F088F901221146384601F069FB2E60C0
:1034C000C4F3033000F07EF901221146384601F0C2
:1034D0005FFB2E60C4F3032000F074F90122114653
:1034E000384601F055FB2E60C4F3031000F06AF972
:1034F00001221146384601F04BFB2E6004F00F000C
:1035000000F060F901221146384601F041FB2E60BF
:10351000BDE8F081B8080020B9080020BC080020F0
:1035200078E80020A8000020000802402DE9F041C2
:10353000144C01200025A07065702179022609B184
:10354000607002E06079C8B16670607800F03AF9A6
:103550000D4F3E600C4801221146183801F018FB4F
:103560004FF440303860207918B1FFF749FF2571DA
:1035700004E0607910B1FFF76FFE6571A570BDE8DA
:10358000F0810000A80000201808024008490869DE
:103590000A6900F0010002F0020210430A69096999
:1035A00002F00402104301F00801084370470000D4
:1035B0000000024070B50A4C0120A070052000F008
:1035C00001F9084D022028600648012211461838EA
:1035D00001F0DEFA4FF4403028600020A07070BD8A
:1035E000A80000201808024070B50A4C0120A07005
:1035F000062000F0E7F8084D022028600648012266
:103600001146183801F0C4FA4FF440302860002009
:10361000A07070BDA8000020180802402DE9F041FC
:103620003CA00FF08BFC3F4C0120A0700A2000F062
:10363000C9F83D4D022028603B4E0122183E11463C
:10364000304601F0A5FA4FF440302860012000F028
:10365000B9F801221146304601F09AFAFFF796FFB9
:103660002070012807D031A00FF068FC20780FF0FF
:103670004FFC32A042E04FF480372F60022000F070
:10368000A1F801221146304601F082FAFFF77EFFD1
:103690002070022807D02EA00FF050FC20780FF0E9
:1036A00037FC2FA02AE02F60042000F08BF80122C5
:1036B0001146304601F06CFAFFF768FF20700428CD
:1036C00007D02CA00FF03AFC20780FF021FC2DA0A1
:1036D00014E02F60082000F075F8012211463046F2
:1036E00001F056FAFFF752FF207008280AD02AA0EE
:1036F0000FF024FC20780FF00BFC2BA0BDE8F0416C
:1037000008F0F2BC2F600020A070BDE8F0412BA0B3
:103710000FF014BC46504741204275732054657326
:1037200074200000A8000020180802404552524FA3
:103730005220302050494E0D0A00000046504741AB
:10374000206275732050494E30206572726F72008E
:103750004552524F5220312050494E0D0A00000070
:1037600046504741206275732050494E31206572A2
:10377000726F72004552524F5220322050494E0D06
:103780000A00000046504741206275732050494EA0
:1037900032206572726F72004552524F52203320B0
:1037A00050494E0D0A000000465047412062757393
:1037B0002050494E33206572726F72004F4B0D0AD4
:1037C0000000000042082023102103EA421201EA0F
:1037D000001111438208402303EA82121143C008FA
:1037E000C00741EA106141F47000014988617047E7
:1037F0000000024070B515460C4606463BB1B3F5D5
:10380000804F07D040F24F1130A00DF02BFE6FF02B
:10381000704056E03B48864204D040F255112BA040
:103820000DF020FE20680F2804D94FF4AB7127A0BB
:103830000DF018FE6068401E0E2804D940F25711A2
:1038400022A00DF00FFEA068401EFE2804D94FF400
:10385000AC711EA00DF006FEE0680F2804D940F2FE
:1038600059111AA00DF0FEFDA06968B1B0F1805F9A
:103870000AD0B0F1005F07D0B0F1405F04D04FF440
:10388000AD7112A00DF0EEFD55B1022D08D0042D42
:1038900006D0062D04D040F25B110CA00DF0E2FD25
:1038A00056F825101848A3890140D4E9000240EADF
:1038B0000210A268120242EA03421043A2691043B6
:1038C000084346F82500002070BD00002E2E2F442E
:1038D0007269766572732F53544D3332463478785B
:1038E0005F48414C5F4472697665722F5372632F53
:1038F00073746D3332663478785F6C6C5F66736DA9
:10390000632E6300040100A00000F0CF2DE9F04118
:103910000C460546B0F1204F03D086215AA00DF089
:10392000A1FD206848B1022807D0042805D0062848
:1039300003D0872154A00DF095FD606828B10228BE
:1039400003D0882150A00DF08DFDA06838B1042867
:1039500005D0082803D089214BA00DF083FDE06835
:1039600038B1102805D0202803D08A2146A00DF0B8
:1039700079FD206930B1B0F5807F03D08B2142A062
:103980000DF070FD606930B1B0F5007F03D08C217F
:103990003DA00DF067FDA06930B1B0F5806F03D098
:1039A0008E2139A00DF05EFDE06930B1B0F5006FF9
:1039B00003D0902134A00DF055FD206A30B1B0F550
:1039C000805F03D0912130A00DF04CFD606A30B1D2
:1039D000B0F5005F03D092212BA00DF043FDA06A4B
:1039E00030B1B0F5804F03D0932127A00DF03AFD00
:1039F000E06A30B1B0F5004F03D0942122A00DF061
:103A000031FD206B30B1B0F5002F03D095211EA001
:103A10000DF028FDE06B78B1B0F5803F0CD0B0F52B
:103A2000003F09D0B0F5403F06D0B0F5802F03D05D
:103A3000962115A00DF016FD226855F822002049A8
:103A40000840D4E90113D4E9036719433E433143E5
:103A500066693143A6693143E6693143266A3143D9
:103A6000666A3143A66A3143E66A3143E66B246BEA
:103A7000314321430143082B01D141F0400145F876
:103A800022100020BDE8F0812E2E2F447269766549
:103A900072732F53544D3332463478785F48414C1B
:103AA0005F4472697665722F5372632F73746D333E
:103AB00032663478785F6C6C5F66736D632E63007A
:103AC0008000F0FF70B515460C460646B0F1204F59
:103AD00004D04FF48C7139A00DF0C4FC20680F287D
:103AE00004D940F2191135A00DF0BCFC6068401EED
:103AF0000E2804D94FF48D7130A00DF0B3FCA068EE
:103B0000401EFE2804D940F21B112CA00DF0AAFC87
:103B1000E0680F2804D94FF48E7128A00DF0A2FCA4
:103B20002069801E0E2804D940F21D1123A00DF03B
:103B300099FC6069801E0F2804D94FF48F711FA073
:103B40000DF090FCA16969B1B1F1805F0AD0B1F1CB
:103B5000005F07D0B1F1405F04D040F21F1117A001
:103B60000DF080FC55B1022D08D0042D06D0062D95
:103B700004D04FF4907111A00DF074FC06EB850297
:103B80005068A58900F04041D4E9000340EA0310E1
:103B9000A3681B0243EA05431843238A154D05EB2E
:103BA00003531843237D6D0105EB03631843A36999
:103BB000184308435060002070BD00002E2E2F4493
:103BC0007269766572732F53544D33324634787868
:103BD0005F48414C5F4472697665722F5372632F60
:103BE00073746D3332663478785F6C6C5F66736DB6
:103BF000632E63000000F0FF70B5114C002201211C
:103C0000204600F0C5FF4FF0FF352B4601220D493D
:103C10000D4803F001F80B492B460322891C0A4882
:103C200002F0FAFF2B4670220849074802F04CFFC9
:103C30002046BDE870400122114600F0A9BF0000F7
:103C400000040240B1080020B8FC002078E8002001
:103C500070B5164C00220121204600F099FF4FF06C
:103C6000FF352B4601221249124802F0D5FF0122EE
:103C70001146204600F08CFF00220121204600F072
:103C800087FF0B492B460122891C0A4802F0C4FF1A
:103C900007492B460322891D064802F0BDFF204636
:103CA000BDE870400122114600F072BF00040240DE
:103CB000AD080020B8FC002070B5194C002201218D
:103CC000204600F065FF4FF0FF352B4601221549D5
:103CD000154802F0A1FF01221146204600F058FFCE
:103CE00000220121204600F053FF0E492B460122FD
:103CF000C91C0D4802F090FF0A492B460322891D7A
:103D0000094802F089FF2B4670220849064802F054
:103D100083FF2046BDE870400122114600F038BF05
:103D200000040240AD080020B8FC002078E8002024
:103D300010B509F051FA002009F04EFA4FF6FF7164
:103D400001EA0024002009F047FA2043C00810BD12
:103D50002DE9F05F07469B46914688460026902055
:103D6000FFF7E6FF054664200DF052FCD020FFF778
:103D7000DFFF044614E09020FFF7DAFF824664205C
:103D80000DF046FCD020FFF7D3FFBAF1000F05D0AD
:103D900020B105EB0A014D0820444408761CF6B218
:103DA0004E45E8D3BBF1000F04D03D80A8F8004099
:103DB000BDE8F09F00EE105A1548B8EE400A90EDAD
:103DC000011AB0F90010C0EE010A00EE101AB8EEA8
:103DD000C00A30EE800ABCEEC00A10EE101A39801C
:103DE00000EE104AD0ED020AB0F90200B8EE400A27
:103DF00080EE201A00EE100AB8EEC00A31EE000A7A
:103E0000BCEEC00A10EE100AA8F80000D0E70000CF
:103E1000700900202DE9F0410446876D00F0EEFEA8
:103E2000064694F835000025022806D080206065FB
:103E300084F834500120BDE8F0812068016821F049
:103E4000160101602068416921F080014161206C08
:103E500008B9A06C20B12068016821F00801016058
:103E60002068016821F0010101600BE000F0C6FE4E
:103E7000801B052806D92020606504F8345F0320E4
:103E80006070D8E720680068C007EFD194F85C1034
:103E90003F208840B86004F8345F01206070002043
:103EA000C9E700002DE9F84304464FF00009CDF8BA
:103EB000009063484FF41651A56D0068B0FBF1F710
:103EC0002E6894F85C10082000FA01F131420FD0FE
:103ED00021680A6852070BD50A6822F004020A60BA
:103EE00094F85C108840A860606D40F00100606547
:103EF00094F85C104FF0010808FA01F0304208D045
:103F000021684969090604D5A860606D40F0020087
:103F1000606594F85C1004208840304208D0216825
:103F20000968890704D5A860606D40F004006065E9
:103F300094F85C1010208840304218D0216809683D
:103F4000090714D5A86020680168490304D50068F2
:103F5000000308D5A16C07E00168C90503D4016816
:103F600021F008010160216C09B12046884794F8CE
:103F70005C1020208840304231D021680968C90691
:103F80002DD5A86094F8350005282068016806D072
:103F9000490347D5006800031DD4616C1CE021F083
:103FA000160101602068416921F080014161206CA7
:103FB00008B9A06C20B12068016821F008010160F7
:103FC00094F85C103F208840A86084F8349084F80E
:103FD0003580216D1FE0E16B09B120468847606D97
:103FE00000282BD0606DC00714D0052084F8350060
:103FF0002068016821F0010101600098401C0090D8
:10400000B84203D820680068C007F6D184F834901D
:1040100084F83580E16C002910D001B02046BDE85D
:10402000F04308470168C905D5D4016821F01001A3
:10403000016084F8349084F83580CCE7BDE8F883DB
:10404000640900202DE9F041044600F0D7FD054643
:10405000002C7CD0A249206888423ED0A04918316B
:1040600088423AD09E493031884236D09C49483106
:10407000884232D09A49603188422ED098497831AE
:1040800088422AD096499031884226D09449A83156
:10409000884222D0934988421FD0924918318842E1
:1040A0001BD090493031884217D08E494831884220
:1040B00013D08C49603188420FD08A4978318842C8
:1040C0000BD088499031884207D08649A831884270
:1040D00003D0B82184A00DF0C5F96068C0B1B0F17B
:1040E000007F15D0B0F1806F12D0B0F1C06F0FD04B
:1040F000B0F1006F0CD0B0F1206F09D0B0F1406F7B
:1041000006D0B0F1606F03D0B92177A00DF0AAF905
:10411000A06838B1402805D0802803D0BA2172A009
:104120000DF0A0F9E068B0F5007F04D018B1BB2114
:104130006DA00DF097F92069B0F5806F04D018B12B
:10414000BC2169A00DF08EF9606958B100E071E002
:10415000B0F5006F06D0B0F5805F03D0BD2162A03E
:104160000DF080F9A06948B1B0F5005F06D0B0F558
:10417000804F03D0BE215CA00DF074F9E06940B11E
:10418000B0F5807F05D0202803D0BF2156A00DF0C8
:1041900069F9206A60B1B0F5803F09D0B0F5003F01
:1041A00006D0B0F5403F03D0C0214FA00DF05AF922
:1041B000606A002832D0042806D0C1214AA00DF040
:1041C00051F9606A002829D0A06A48B1012807D0B7
:1041D000022805D0032803D0C62143A00DF042F9E0
:1041E000E06A60B1B0F5000F09D0B0F1807F06D071
:1041F000B0F1C07F03D0C7213BA00DF033F9206B95
:1042000060B1B0F5001F09D0B0F5800F06D0B0F551
:10421000C00F03D0C82134A00DF024F9002684F883
:104220003460022084F835002068016821F0010123
:1042300001600EE00120BDE8F08100BF00F0DEFC6F
:10424000401B052805D920206065032084F835002F
:10425000F1E720680068C007F0D122681168304893
:104260000140D4E901031843D4E903352B43184333
:1042700063691843A3691843E3691843236A184321
:104280000843616A042903D1D4E90B131943084395
:10429000106020684069656A20F0070128460D43D8
:1042A000012704280CD1A06A0543E06A40B12046EA
:1042B000FEF788F920B14020606584F83570B9E7D1
:1042C000206845612046FEF769F994F85C203F219B
:1042D00091408160666584F835700020ABE700008E
:1042E00010600240106402402E2E2F4472697665E1
:1042F00072732F53544D3332463478785F48414CB3
:104300005F4472697665722F5372632F73746D33D5
:1043100032663478785F68616C5F646D612E63002B
:104320003F8010F02DE9F74F82B004460020894607
:10433000019000F063FC009094F8350000270228FB
:1043400004D08020606584F8347068E020680068DC
:10435000C00503D54FF48070606560E094F85C00A0
:104360004FF0200B4FF0100AB9F1000F06D00AFAF7
:1043700000F6A56D28684FF001083AE00BFA00F648
:10438000F7E70498401C12D0049830B100F036FCD6
:104390000099411A0498814209D9C4F854B004F82C
:1043A000347F84F80180032005B0BDE8F08F2868D1
:1043B00094F85C2008219140014204D0626D42F0E3
:1043C00001026265A96094F85C2008FA02F10142DA
:1043D00004D0626D42F002026265A96094F85C202C
:1043E00004219140014204D0626D42F004026265F2
:1043F000A960304202D1606DC007C2D0606D302626
:1044000078B1606DC0070CD02046FFF703FD94F82B
:104410005C008640AE6004F8347F84F8018001209F
:10442000C2E7B9F1000F06D094F85C100AFA01F067
:10443000A8600198B8E794F85C008640AE6004F884
:10444000347F84F80180F4E72DE9F0418846044682
:104450000025581E4FF6FF711E461746884204D3AA
:1044600040F29D1113A00CF0FDFF94F834000128D8
:104470000DD0012084F8340094F835100020012973
:1044800007D084F8340002252846BDE8F0810220D8
:10449000FBE7022184F83510606533463A46414611
:1044A0002046FEF7B9F82068016841F0010101607B
:1044B000EAE700002E2E2F447269766572732F533F
:1044C000544D3332463478785F48414C5F447269CA
:1044D0007665722F5372632F73746D33326634783E
:1044E000785F68616C5F646D612E63002DE9F04751
:1044F00089460446876D0025581E4FF6FF711E46FB
:104500009046884204D34FF4E6711EA00CF0AAFF37
:1045100094F8340001280DD0012084F8340094F878
:1045200035100020012907D084F8340002252846E0
:10453000BDE8F0870220FBE7022184F835106065B2
:104540003346424649462046FEF766F894F85C102A
:104550003F208840B8602068016841F01601016082
:104560002068416941F080014161206C20B12068E0
:10457000016841F0080101602068016841F0010113
:104580000160D4E72E2E2F447269766572732F5323
:10459000544D3332463478785F48414C5F447269F9
:1045A0007665722F5372632F73746D33326634786D
:1045B000785F68616C5F646D612E630070B504465E
:1045C00000F01CFB0546601C02D00448007804443F
:1045D00000F014FB401BA042FAD370BD5809002024
:1045E000F0B5154887B00168002923D10124046083
:1045F00012480025016841F00101016000680226AF
:1046000000F0010005904FF68070CDE9000602AA87
:104610000C2782E8B0006946094800F007F94EF21D
:10462000B370CDE9000602AA694682E8B0000548E9
:1046300000F0FCF807B0F0BD500900203838024007
:1046400000100240000C02402DE9F05FDFF85891A5
:10465000DFF858B10E46044648451BD05C4519D0DA
:104660005348844216D05348844213D0524884425F
:1046700010D0524884420DD0514884420AD051484B
:10468000844207D05048844204D04FF498714FA020
:104690000CF0E8FE002001234FF00F0A03FA00F1AE
:1046A00006EA01058D4279D1574A20F003071744E5
:1046B000D7F8088882074FEA127C0AFA0CFE0EEA45
:1046C00008024C4502D14FF0000830E05C4502D1B1
:1046D0004FF001082BE0DFF8D880444502D14FF0BD
:1046E000020824E0DFF8CC80444502D14FF00308F3
:1046F0001DE0DFF8C480444502D14FF0040816E005
:10470000DFF8B880444502D14FF005080FE0DFF82C
:10471000B080444502D14FF0060808E0DFF8A480DD
:10472000444502D14FF0070801E04FF0080808FAAD
:104730000CF8904515D1D7F808C82CEA0E0CC7F82C
:1047400008C8324A1768AF431760121D1768AF4395
:104750001760121D1768AF431760121D1768AF432B
:104760001760256847000322BA4095432560C508B5
:1047700004EB8505D5F820C047074FEAD7680AFA49
:1047800008F72CEA070CC5F820C0A5689543A5607A
:1047900065688D436560E1689143E160401C1028C5
:1047A000FFF47CAFBDE8F09F00000240000402402F
:1047B00000080240000C02400010024000140240B9
:1047C00000180240001C0240002002402E2E2F4400
:1047D0007269766572732F53544D3332463478784C
:1047E0005F48414C5F4472697665722F5372632F44
:1047F00073746D3332663478785F68616C5F6770AC
:10480000696F2E630000000000300140003C014051
:1048100070470000044910B50A68024202D00860DF
:10482000FFF7F6FF10BD0000143C01402DE9F84FE2
:104830000446A0480D4684421BD09F48844218D0AD
:104840009E48844215D09E48844212D09D4884429E
:104850000FD09D4884420CD09C48844209D09C488B
:10486000844206D09B48844203D0B3219AA00CF026
:10487000F9FD28680104090C01D0000C03D0B42113
:1048800095A00CF0EFFD6868F8B101281DD0112843
:104890001BD0022819D0122817D09E49884214D064
:1048A0009D49884211D09D4988420ED09C4988423A
:1048B0000BD09C49884208D09B49884205D00328E8
:1048C00003D0B52184A00CF0CDFDA86838B1012833
:1048D00005D0022803D0B6217FA00CF0C3FD00262E
:1048E0004FF0010B0BFA06F02F6882460740574540
:1048F0007ED16868022801D012282ED12869F8B12B
:1049000009281DD001281BD0022819D0032817D050
:10491000042815D0052813D0062811D007280FD059
:1049200008280DD00A280BD00B2809D00C2807D056
:104930000D2805D00F2803D0C72167A00CF092FDE9
:10494000F00804EB8002106A7107CB0E0F2199402A
:10495000884329699940014311622068720003214C
:1049600001FA02F82979914601F0030120EA0800D2
:1049700001FA09F1014321606868012805D0022885
:1049800003D0112801D012281CD1E86848B10128B1
:1049900007D0022805D0032803D0DA214EA00CF05E
:1049A00061FDA068E96820EA080001FA09F1014305
:1049B000A1606068297920EA0A00C1F30011B140C2
:1049C00001436160E068A96820EA080001FA09F182
:1049D0000143E1606868C00065D55448016841F44E
:1049E00080410160006826F0030100F4804000E08F
:1049F00059E000904E480A18D2F80808B1070B0F8A
:104A00000F21994088432B498C4201D1002123E09A
:104A100029498C4201D101211EE028498C4201D153
:104A2000022119E026498C4201D1032114E02549D5
:104A30008C4201D104210FE023498C4201D1052190
:104A40000AE022498C4201D1062105E020498C422E
:104A500001D1072100E0082199400143C2F808185C
:104A6000344908686A68B843D20300D538430860FF
:104A70003049091D08686A68B843920300D5384375
:104A800008602C49083108686A68B843D20200D52A
:104A90003843086027490C3108686A68B8439202B5
:104AA00000D538430860761C102EFFF41BAFBDE81C
:104AB000F88F00000000024000040240000802409D
:104AC000000C024000100240001402400018024096
:104AD000001C0240002002402E2E2F447269766591
:104AE00072732F53544D3332463478785F48414CBB
:104AF0005F4472697665722F5372632F73746D33DE
:104B000032663478785F68616C5F6770696F2E63B6
:104B10000000000000001110000021100000311002
:104B20000000121000002210000032104438024031
:104B300000300140003C014070B50C00054604D136
:104B40004FF4BF7103A00CF08DFC2869204000D009
:104B5000012070BD2E2E2F447269766572732F531B
:104B6000544D3332463478785F48414C5F44726923
:104B70007665722F5372632F73746D333266347897
:104B8000785F68616C5F6770696F2E63000000007A
:104B900070B515460C00064604D140F29F1108A0DE
:104BA0000CF060FC45B1012D04D04FF4D07104A08D
:104BB0000CF058FCB46170BD2004B06170BD000001
:104BC0002E2E2F447269766572732F53544D3332F3
:104BD000463478785F48414C5F4472697665722F3D
:104BE0005372632F73746D3332663478785F686103
:104BF0006C5F6770696F2E63000000000148806879
:104C000070470000580900202DE9FF410446006864
:104C1000816800917749784E4FF04027884201D152
:104C2000324600E03A469268019240688846029017
:104C300001D1304600E038464068039060684FF08C
:104C40000105B0F5007F1CD0D8B1900705D50398B9
:104C5000000602D5204603F0B5FB0098C0070FD030
:104C6000029840067FD521682046CA68E16A8B1CFD
:104C7000E3620A80618E491E6186618E002967D0D9
:104C800071E00098800719D50298000616D5616A70
:104C900020468A1C626222680988D160618D491EA3
:104CA0006185618D51B901684A6822F0A0024A60AD
:104CB000418E19B980F8415000F070F90198C00791
:104CC00005D00398400602D5204603F04BFB01981F
:104CD000400622D5039880061FD52168414501D1A1
:104CE000304600E03846406820F0600101D130468F
:104CF00000E0384641602068416821F0A001416031
:104D00002068C1688068019084F84150606C40F070
:104D100002006064204600F089F90098000767D51A
:104D20000298800664D52068416821F0A0014160A6
:104D30002168414501D1304600E03846406820F006
:104D4000600000D03E46706020688068009043E0BC
:104D500001684A6822F060024A60418D19B980F802
:104D6000415000F01BF9009840061ED502988006BD
:104D70001BD52068416821F06001416021684145F0
:104D800001D1304600E03846406820F0A00101D152
:104D9000304600E03846416084F84150606C40F095
:104DA00002006064204600F041F9019800071FD519
:104DB000039880061CD52168414501D1304600E0AA
:104DC0003846406820F0A00000D03E467060206861
:104DD000416821F06001416084F84150606C40F00E
:104DE0000400606404B02046BDE8F04100F01EB944
:104DF000BDE8FF8100380040003400402DE9F84F45
:104E0000044690F84100154689464FF0000AD34603
:104E1000012802D04FF0020A82E0E9B3E2B3DBB32B
:104E200094F8400001283DD0012084F84000E2625F
:104E300061622068C06900F00700032834D00528AB
:104E400032D0238563852386A4F83230C4F844B079
:104E5000052084F84100E36B4B481864E66B4B4B2C
:104E6000F363E76B4A4EFE64A76B3864A06BC363C1
:104E7000A06BC6642068C369DFF8188103F440732F
:104E8000454E4FF04027B3F5007F16D0ABB1C26955
:104E9000C2F30122032A00E001E045D047E00120EF
:104EA000BDE8F88F0220FBE74FF6FF7000EA4300F1
:104EB0002085608520866086C8E7238E404501D125
:104EC000314600E039460C31E06BFFF70FFB2068FC
:104ED000404501D1304600E03846406840F00100CE
:104EE00001D1314600E039464860238D22684946A9
:104EF00002F10C02A06BFFF7F9FA2068416841F05B
:104F0000020138E040453CD13046C06940F4806041
:104F100000D03E46F0612068C16941F48061C16102
:104F200084F840B05046BBE7C26882680092238D87
:104F3000404501D1324600E03A460C32A06BFFF703
:104F4000D5FA2168414501D1314600E0394649682A
:104F500041F0020101D1304600E038464160238E25
:104F600021682A4601F10C01E06BFFF7BFFA2068C7
:104F7000416841F0010141602068C1694905C1D51E
:104F8000CEE73846C1E700004185000825840008C7
:104F9000ED840008003800400034004070B500681F
:104FA0000C49884214D10C4DA878002810D10B4828
:104FB0000124017801B16C702C70047008F033FE8C
:104FC0000B2801D106480470686800F5807068609D
:104FD00070BD0000003C0040FC08002015000020CF
:104FE0001600002070B500680C49884215D10C4CA1
:104FF000A078002811D10B480125017801B1657016
:1050000000212170057008F00EFE0B2801D1064822
:105010000570606800F58070606070BD003C004005
:10502000FC0800201500002016000020704790F8B2
:10503000410070472DE9F05F040067D0914D206872
:10504000A84207D09049884204D04FF489718FA0BC
:105050000CF008FA60684FF4807B4FF4007758B189
:10506000584509D0B84207D0B0F5407F04D040F28F
:10507000131186A00CF0F6F9A06860B110280AD0D0
:10508000202808D0302806D0B02804D04FF48A71E8
:105090007EA00CF0E7F9E06850B1012808D00328A1
:1050A00006D0052804D040F2151178A00CF0DAF9EA
:1050B0002069B84205D020B14FF48B7173A00CF079
:1050C000D1F960697F4AA0F5FA51914206D90228C8
:1050D00004D040F217116DA00CF0C4F9A06930B1F2
:1050E000082804D04FF48C7168A00CF0BBF9E0697B
:1050F000012805D020B140F2191164A00CF0B2F9DA
:1051000094F841004FF0000A18B109E00120BDE811
:10511000F09F84F840A06C486063204600F0DAF805
:105120004FF0020884F841802168CA6940F6BF79CF
:1051300022EA0902CA612168C1F820806069022858
:1051400038D0E068B0B12026A068202800D87600CA
:10515000012000F04BFB2169B94228D1E16859B127
:10516000B100B0FBF1F000EB800041006069B1FBE1
:10517000F0F00BE01026E7E7F100B0FBF1F000BF24
:1051800000EB800061694000B0FBF1F0401D0A2196
:10519000B0FBF1F000F00101401A40080902821E44
:1051A000FE2A09D3606C40F010006064AEE7B0FBEB
:1051B000F6F0E5E702200021226908430243206857
:1051C0000262D4E901010843A269E168114308437E
:1051D0002168CA694E46B243104340F40060C8617A
:1051E000206AE8B3012807D04FF4DA7127A00CF049
:1051F00039F9206A01283CD1344860632068344979
:105200004FF04022A84201D1084600E01046C06994
:1052100020EA060001D10B4600E01346D86123685E
:105220004046AB4201D10B4600E0134618622368AA
:10523000AB4201D1084600E01046C06986B2606802
:10524000B8421DD0E0B100202789B4F80CC047EA6D
:105250000C07B4F818C04CEA000C47EA0C0700E051
:1052600007E0B8B2304340F40060AB4200D01146D2
:10527000C861C4F844A0012084F84100002046E73A
:105280005846E1E700380040003C00402E2E2F44F5
:105290007269766572732F53544D33324634787881
:1052A0005F48414C5F4472697665722F5372632F79
:1052B00073746D3332663478785F68616C5F69321D
:1052C000732E6300C0CE02004B850008094C000815
:1052D000003400402DE9F04F87B0054614216846A0
:1052E000FAF7B8FF4549286888427DD1444801262D
:1052F000C0F85C6143480068424940F400400860DF
:10530000086800F4004005903E481038016841F0FC
:1053100001010160016801F001010591016841F09E
:10532000040101600068022400F004000590F0030D
:105330008DE851000627CDE9034769463248FFF75B
:1053400075FA4FF4A0508DE85100DFF8C080CDE928
:10535000034769464046FFF769FAA7020097CDE97F
:1053600001460520CDE9034069464046FFF75EFA55
:10537000284C274804F10C0120604FF0C0606060A9
:105380000020B6024FF40058A06081E8C1014FF040
:10539000030BC4E90AB020631031B7104FF4403951
:1053A0004FF0040A81E880062046FEF74BFE08B164
:1053B000FDF7F8FBEC63A5631548174C78304021E6
:1053C00020600020C4E90101C4E90306C4E90AB071
:1053D00020634901C4E9051804F11C01204681E855
:1053E0008006FEF72FFE00E004E008B1FDF7DAFBCF
:1053F000AC63A56307B0BDE8F08F0000003C00403F
:1054000000004742403802400000024000080240CD
:105410001060024038010120980101207047704758
:1054200070B5040033D024492068884203D09E21FF
:1054300022A00CF017F8606878B101280DD002287E
:105440000BD0032809D0042807D0052805D006284A
:1054500003D09F2119A00CF005F8A068B0F5805F7B
:1054600003D3A02115A00BF0FDFF21684CF6CC4022
:105470000860216845F255500860D4E90001416098
:105480002168A0688860FFF7B9FB054609E00120A4
:1054900070BD00BFFFF7B2FB401B302801D90320CD
:1054A00070BD2068C0680028F4D121684AF6AA209F
:1054B0000860002070BD0000003000402E2E2F44F8
:1054C0007269766572732F53544D3332463478784F
:1054D0005F48414C5F4472697665722F5372632F47
:1054E00073746D3332663478785F68616C5F6977A6
:1054F00064672E630000000000684AF6AA2101607C
:10550000002070470248816802781144816070472A
:10551000580900200B4810B5016841F40071016082
:10552000016841F480610160016841F480710160AB
:10553000032000F01BF9012000F006F800F024F829
:10554000002010BD003C024070B50D4D04464FF4E4
:105550007A712878B1FBF0F00A490968B1FBF0F0E4
:1055600001F071FD48B9102C07D200222146501ECF
:1055700000F0ACF800206C6070BD012070BD000030
:1055800058090020640900201B4808B5016841F44F
:1055900080410160006800F4804000901648001FC0
:1055A000016841F0805101600068002200F08050E5
:1055B000009001216FF00B0000F088F8002201211B
:1055C0006FF00A0000F082F8002201216FF009005C
:1055D00000F07CF801210022881F00F077F80121FB
:1055E0000022481F00F072F800220121BDE80840A7
:1055F000C81E00F06BB800004438024010B504002B
:1056000003D5CE2109A00BF02DFF002C0DDB04F0FB
:105610001F01012088406109890001F1E021C1F8E2
:105620008001BFF34F8FBFF36F8F10BD2E2E2F441D
:105630007269766572732F53544D333246347878DD
:105640005F48414C5F4472697665722F5372632FD5
:1056500073746D3332663478785F68616C5F636F42
:10566000727465782E63000010B5040003D5BE2166
:1056700007A00BF0F7FE002C09DB04F01F0101204E
:1056800088406109890001F1E021C1F8000110BDE5
:105690002E2E2F447269766572732F53544D333218
:1056A000463478785F48414C5F4472697665722F62
:1056B0005372632F73746D3332663478785F686128
:1056C0006C5F636F727465782E63000070B5154669
:1056D0000C460646102A03D3AA2114A00BF0C2FEE2
:1056E000102C03D3AB2111A00BF0BCFE1E480068A8
:1056F000C0F30223C3F107022046042A00D9042282
:10570000191D072901D2002300E0DB1E012404FA41
:1057100002F1491E014099409C40641E2C402143E7
:105720003046BDE870400AF06ABA00002E2E2F44C1
:105730007269766572732F53544D333246347878DC
:105740005F48414C5F4472697665722F5372632FD4
:1057500073746D3332663478785F68616C5F636F41
:10576000727465782E6300000CED00E010B50446FD
:1057700007280BD0062C09D0052C07D0042C05D007
:10578000032C03D0922108A00BF06CFE154904F005
:10579000070208684FF6FF03184040EA0220124A49
:1057A0001043086010BD00002E2E2F4472697665EC
:1057B00072732F53544D3332463478785F48414CDE
:1057C0005F4472697665722F5372632F73746D3301
:1057D00032663478785F68616C5F636F7274657885
:1057E0002E6300000CED00E00000FA0501460020E9
:1057F000012907D110490968C1F3C05119B1002925
:1058000000D00E4870470C48001F0168006849022C
:1058100000F03F0001D50A4900E00A49064AB1FB01
:10582000F0F07C321168C1F3881141431068C0F375
:105830000270B1FBF0F070470838024020BCBE0097
:1058400000127A000024F4002DE9F84304460068B1
:10585000401E062804D940F6CD1188A00BF002FEA8
:1058600020684FF00109C1074FF0000601D1400741
:105870003AD5A068801E052804D940F6D4117FA02F
:105880000BF0F0FD60683238B0F5BF7F04D940F608
:10589000D5117AA00BF0E6FDDFF81C82C8F868602D
:1058A000FFF7ACF90746854D05E000BFFFF7A6F905
:1058B000C01B02287DD828680001F7D46068217ACF
:1058C000800140EA01707D4984310860C8F8689021
:1058D000FFF794F9074604E0FFF790F9C01B022890
:1058E000E8D828680001F7D5207880077AD5E068E5
:1058F000B0F5807F63D0B0F5007F60D070498842FA
:105900005DD0704988425AD06F49884257D06F495C
:10591000884254D06E49884251D06E4988424ED058
:105920006D4988424BD06D49884248D06C498842C5
:1059300045D06C49884242D06B4988423FD06B4980
:1059400088423CD06A49884239D06A49884236D078
:105950006949884233D06949884230D068498842D1
:105960002DD0684988422AD06749884227D06749A4
:10597000884224D06649884221D0664988421ED098
:10598000654988421BD06549884218D064498842DD
:1059900015D06449884212D0634988420FD06349C8
:1059A00088420CD06249884209D06249884206D0B8
:1059B00000E042E040F6062130A00BF053FD3F48E6
:1059C0004030016841F08051016000685A4D00F09C
:1059D00080500090286840F480702860FFF70EF92E
:1059E000074606E040E000BFFFF708F9C01B0228A9
:1059F00023D82868C005F7D5304D7035286810F4D5
:105A0000407020D0A18901F4407181421BD02868E8
:105A10004A4920F44070C1F800900E602860286860
:105A2000C00710D0FFF7EAF8064641F2883707E0D2
:105A3000FFF7E4F8801BB84202D90320BDE8F883E1
:105A400028688007F4D5E1681C48C1F301220830BA
:105A5000032A0BD0016821F4F81101602868A1899C
:105A6000C1F30B01084328600020E7E70268344BCC
:105A700022F4F81219400A430260EFE72E2E2F4459
:105A80007269766572732F53544D33324634787889
:105A90005F48414C5F4472697665722F5372632F81
:105AA00073746D3332663478785F68616C5F7263EB
:105AB000635F65782E6300000000474200380240B3
:105AC00000030200000303000003040000030500BC
:105AD000000306000003070000030800000309009C
