:020000040800F2
:1000000028E100205D020008A7B10008EF7D00088C
:10001000A5B100084F240008F5E00008000000002A
:100020000000000000000000000000001FB80008F1
:10003000512500080000000033B3000809BC000887
:1000400077020008770200087702000877020008AC
:10005000770200087702000877020008770200089C
:10006000CD27000877020008ED2700089524000836
:10007000770200087702000877020008770200087C
:10008000A124000877020008770200087702000820
:100090007702000877020008770200081528000898
:1000A000770200087702000877020008770200084C
:1000B000770200087702000815BD000877020008E3
:1000C000770200087702000877020008770200082C
:1000D000770200087702000877020008770200081C
:1000E000A1270008770200087702000877020008BD
:1000F00077020008770200087702000877020008FC
:10010000770200087702000839BD0008770200086E
:1001100077020008770200087DBD0008770200081A
:1001200077020008770200087702000877020008CB
:1001300077020008770200087702000877020008BB
:10014000770200087702000877020008A9B10008CA
:10015000770200087702000877020008770200089B
:10016000770200087702000877020008770200088B
:1001700077020008770200087702000800000000FC
:1001800077020008770200084B1C012B98BF7047CC
:100190002DE9F003911C9B08B1F80480B1F802909E
:1001A0000A8831F802CC8044814402448444D9F85E
:1001B0000070D8F800601568DCF80040C9F80060ED
:1001C000C8F80070CCF800501460D9F80470D8F862
:1001D00004605568DCF80440C9F80460C8F804708D
:1001E000CCF80450546008315B1ED5D1BDE8F00353
:1001F00070474B1C012B98BF70472DE9F003911CF1
:100200009B08B1F80480B1F802900A8831F802CC5A
:1002100000EB580800EB590900EB520200EB5C0CB4
:10022000D9F80070D8F800601568DCF80040C9F80B
:100230000060C8F80070CCF80050146008315B1EF4
:10024000DFD1BDE8F0037047DFF80CD002F0B0F862
:100250000048004789FE000828E100200648804742
:1002600006480047FEE7FEE7FEE7FEE7FEE7FEE79B
:10027000FEE7FEE7FEE7FEE7C1BC00084902000812
:1002800093081BD090ED000AD0ED011AD0ED020AC0
:1002900090ED031AB0EEC00A81ED000AF0EEE11A0B
:1002A000B0EEE00AC1ED011AF0EEC10A81ED020ADA
:1002B000C1ED030A103010315B1EE3D112F00302CE
:1002C00008BF7047B2F1004F23D2002AD8BF704751
:1002D000001F091F12F0010F07D090ED010A001D49
:1002E000B0EEC00A81ED010A091D520808BF70472F
:1002F00090ED010AB0EEC00A81ED010A90ED020A0C
:100300000830B0EEC00A81ED020A0831521EEFD16A
:100310007047B0EC010A521EB0EEC00AA1EC010A0F
:10032000F7D170475FEA930C26D000BFD0ED003ABA
:1003300091ED001AD0ED010A91ED013A33EE811AE8
:10034000D0ED022A70EE830A91ED022A90ED030AA5
:10035000D1ED031A82ED001AC2ED010A72EE820A93
:1003600030EE210A1030C2ED020A82ED030A10318C
:100370001032BCF1010CD9D113F0030308BF704750
:10038000B3F1004F2CD2002BD8BF7047001F091FBC
:10039000121F13F0010F0AD090ED010AD1ED010AEE
:1003A000001D091D30EE200A82ED010A121D5B08B6
:1003B00008BF704790ED010AD1ED010A30EE200A26
:1003C00082ED010A90ED020AD1ED020A08300831EF
:1003D00030EE200A82ED020A08325B1EEAD1704735
:1003E000B0EC010A5B1EF1EC010A30EE200AA2EC2F
:1003F000010AF5D1704700005FEA930C26D000BFD8
:1004000090ED000AD1ED000A90ED012A91ED011A5C
:1004100060EE201A90ED020A22EE012AD1ED020AC6
:1004200090ED031AC2ED001AD1ED031A20EE200A56
:1004300082ED012A61EE210A82ED020A1030C2ED3E
:10044000030A10311032BCF1010CD9D113F00303AF
:1004500008BF7047B3F1004F2CD2002BD8BF7047B4
:10046000001F091F121F13F0010F0AD090ED010A9F
:10047000D1ED010A001D091D20EE200A82ED010ABE
:10048000121D5B0808BF704790ED010AD1ED010A0B
:1004900020EE200A82ED010A90ED020AD1ED020A57
:1004A0000830083120EE200A82ED020A08325B1E75
:1004B000EAD17047B0EC010A5B1EF1EC010A20EEB4
:1004C000200AA2EC010AF5D170470000930814D06D
:1004D00090ED032AD0ED000A90ED011AD0ED021A3A
:1004E00022EE002A60EE800A21EE001A61EE801AE8
:1004F000E1EC040A10305B1EEAD112F0030208BFDF
:100500007047B2F1004F24D2002AD8BF7047001FB5
:10051000091F12F0010F07D0D0ED010A001D60EE97
:10052000800AC1ED010A091D520808BF704700BFCB
:10053000D0ED010A60EE800AC1ED010AD0ED020A99
:10054000083060EE800AC1ED020A0831521EEFD178
:100550007047F0EC010A521E60EE800AE1EC010ADD
:10056000F7D170475FEA930C26D000BFD0ED003A78
:1005700091ED001AD0ED010A91ED013A33EEC11A66
:10058000D0ED022A70EEC30A91ED022A90ED030A23
:10059000D1ED031A82ED001AC2ED010A72EEC20A11
:1005A00030EE610A1030C2ED020A82ED030A10310A
:1005B0001032BCF1010CD9D113F0030308BF70470E
:1005C000B3F1004F2CD2002BD8BF7047001F091F7A
:1005D000121F13F0010F0AD090ED010AD1ED010AAC
:1005E000001D091D30EE600A82ED010A121D5B0834
:1005F00008BF704790ED010AD1ED010A30EE600AA4
:1006000082ED010A90ED020AD1ED020A08300831AC
:1006100030EE600A82ED020A08325B1EEAD17047B2
:10062000B0EC010A5B1EF1EC010A30EE600AA2ECAC
:10063000010AF5D1704700009FED1A1AF5EE000A85
:1006400040EE010ABDEEE00AF5EEC00A10EE100A17
:10065000F1EE10FA38BF401E00EE100A1349F7EE13
:10066000001AB8EEC00A30EEC00ADFED0F0A20EE25
:10067000200AFCEEC00A10EE900AC0F3080000EE5B
:10068000900A01EB8000F8EE600A90ED011A70EE1E
:10069000600A90ED000A71EEE01A21EE800A00EE89
:1006A000810A704783F9223E00000044006301087C
:1006B000930833D090ED000AD0ED010A90ED031AB3
:1006C00060EE002A90ED020A20EEA02AD0ED040A86
:1006D00060EE001A90ED050A21EE013A20EEA01A14
:1006E00060EE000A32EE822A90ED060AD0ED072A6B
:1006F00071EE831A20EE000A62EEA22A71EE200A41
:1007000081ED002AC1ED011A30EE220AC1ED020A84
:10071000203081ED030A10315B1ECBD112F00302B1
:1007200008BF7047B2F1004F2FD2002AD8BF7047E0
:100730000838091F12F0010F0BD090ED020A60EE8D
:10074000000A90ED030A083040EE000AC1ED010AEC
:10075000091D520808BF704790ED020A60EE000ABA
:1007600090ED030A40EE000AC1ED010A90ED040A83
:1007700060EE000A90ED050A103040EE000AC1ED6F
:10078000020A0831521EE7D17047D0ED000A90ED01
:10079000010A083060EEA00A521E40EE000AE1ECA9
:1007A000010AF2D1704700002DE9F00F6FF0030449
:1007B0002DED0C8B5FEAD30AD0E901C7B0F80090A9
:1007C00004EB89040CEB04089FEDFE9A18BF4FEA76
:1007D000D90B00F0C18100BF91ED000AB0EE493A9B
:1007E00088ED000A91ED010AF0EE430A88ED010A56
:1007F00091ED020AB0EE431A88ED020A91ED030A68
:10080000F0EE431A88ED030A91ED040AB0EE432A94
:1008100088ED040A91ED050AF0EE432A88ED050AF9
:1008200091ED060AF0EE433A88ED060A91ED070ACB
:10083000203188ED070ADCED007A9CED017ADCEDD1
:10084000026A9CED036ADCED045A9CED055ADCED6E
:10085000064AB0EE434A3D460CF11C0408F120085C
:100860005FEA0B0600F02681D5ED008A94ED008A40
:1008700026EE280A65EEA89A25EE28AA27EEA8BA41
:1008800064EEA8AA67EE28BA26EEA8CA68EE28CABF
:10089000D5ED018A32EE000A32EEA92A73EE0A2A59
:1008A00030EE8BBA33EEAA3AD5ED020A74EE2C3A4A
:1008B00071EE8C1AD4ED017A31EE2B1A27EE28DA7C
:1008C00026EEA8CA66EE28BA25EEA84A65EE289A52
:1008D00024EEA8AA68EE28AA67EEA8CA94ED027AC8
:1008E0007BEE0D8A31EE0C1A71EEAB1A30EE040A73
:1008F00032EE292A72EE8A2A33EE2A3A73EEAC3AA5
:1009000066EEA0CA66EE20BA65EEA09A25EE20AA91
:1009100024EEA04A68EE20AA27EEA0BA27EE20CA4D
:10092000D5ED030AD4ED036A30EE0A0A32EE042A4A
:1009300078EEAC8A31EE2B1A71EEA91A72EEAA2A61
:1009400033EE0B3A73EE8C3A66EE20CA65EEA0BA2F
:1009500065EE209A24EEA04A28EE20AA67EEA0AA0F
:1009600027EE20BA26EEA0CAD5ED040A78EEAC8AAE
:1009700031EE2B1A71EEA91A30EE040A32EE0A2A71
:1009800072EEAA2A33EE0B3A73EE8C3A65EEA0CAE9
:1009900094ED046A65EE20BA24EEA0BA28EE204A4F
:1009A00067EEA09A27EE20AA66EEA0AA26EE20CA3D
:1009B000D5ED050AD4ED055A31EE2B1A71EE8B1ADE
:1009C00078EEAC8A30EE040A32EE292A72EE8A2AD8
:1009D00033EE2A3A73EE8C3A65EE20CA24EEA0BAC2
:1009E00068EE20BA27EEA04A67EE209A26EEA0AA6B
:1009F00066EE20AA25EEA0CAD5ED060A30EE040A5E
:100A000032EE292A27EE204A94ED065A72EE8A2AFF
:100A100066EEA09A78EEAC8A31EE0B1A71EEAB1A44
:100A200033EE2A3A73EE8C3A26EE20AA65EEA0AA9F
:100A300064EEA0BA28EE20CA27EEA0BA65EE20CA5E
:100A4000D5ED070A30EE040A32EE294A72EE8A9A90
:100A500033EE2AAAD4ED074A31EE0C1A78EEAB8AAF
:100A600028EE20CA71EE8B1A73EEACAA66EE202A2D
:100A700067EEA0BA27EE20BA26EEA02A25EEA03A0D
:100A800065EE203A24EEA08A74EE222A78EE8C0AD3
:100A900031EE2B1A71EE8B1A30EE022A39EE833AC0
:100AA0007AEE233A3AEE884A20342035761E7FF4D7
:100AB000DBAE00BF19F0070636D000BF95ED008A07
:100AC00094ED000A241D67EE889A67EE088A26EEE8
:100AD00088AA66EE08AA25EE88BA65EE08BA24EE62
:100AE00088CA20EE088AF0EE477AB0EE667AF0EE19
:100AF000466AB0EE656AF0EE455A70EEA90A31EE2C
:100B0000281A71EE8A1A32EE2A2A72EE8B2A33EEF6
:100B10002B3A73EE8C3A34EE084AB0EE645A2D1D2F
:100B2000F0EE404A761EC9D1C2ED000A82ED011AEC
:100B3000C2ED021A82ED032AC2ED042A82ED053AC3
:100B4000C2ED063A82ED074A2032BAF1010A0CF1F1
:100B5000200C7FF441AE00BF13F0070A43D000BF62
:100B6000B1EC010A3E1D0CF10404B9F10103A8EC3B
:100B7000010ADCED000A97ED001AB0EE490A00EE1A
:100B8000810A29D0B3F1004F7DD2002B24DD251F2F
:100B9000341F13F0010F07D0D5ED010A94ED011AAF
:100BA000241D2D1D00EE810A5B1015D0D5ED010A24
:100BB00094ED011A00EE810AD5ED020A94ED021AB5
:100BC00002E000000000000000EE810A5B1E04F15C
:100BD000080405F10805E9D1A2EC010ABAF1010AFD
:100BE0000CF1040CBCD14068A9F10104A3081FD08A
:100BF000B3F1004F54D2002B1ADD624601461D4668
:100C000092ED000A81ED000A92ED010A81ED010AE0
:100C100092ED020A81ED020A92ED030A103281ED93
:100C2000030A10316D1EEBD10CEB031C00EB03101B
:100C300014F0030202BFBDEC0C8BBDE8F00F70474F
:100C4000B2F1004F42D2002A1ADD001FACF10401BC
:100C500012F0010F05D091ED010A80ED010A001D8F
:100C6000091D52080CD000BF91ED010A80ED010A68
:100C700091ED020A083180ED020A0830521EF3D1CC
:100C8000BDEC0C8B00E002E0BDE8F00F7047F4EC27
:100C9000010A5B1EB6EC011A00EE810AF7D19BE750
:100CA0009CED000A80ED000A9CED010A80ED010A2E
:100CB0009CED020A80ED020A9CED030A0CF1100C77
:100CC00080ED030A10305B1EEAD1B1E7BCEC010AEB
:100CD000521EA0EC010AF9D1D2E770B5044604987F
:100CE000218008448000011F1D461846A26000F0C4
:100CF000E5FF656070BD00002DE9FF4F81B00788FA
:100D0000DDF81090D0F80480B9F1000F7ED0DFED4F
:100D1000884ABB08CDF80030D0E90254009EC44692
:100D2000B1EC010A6346F0EE640A002E47D000BF22
:100D3000DCED002AD5ED001A95ED014A9CED012A63
:100D400001EEE20AD4ED003AD4ED015A95ED025AD3
:100D5000B0EE401A41EE802A04EE421AC3ED002A9A
:100D6000DCED021AB0EE413A42EEA30A05EE611A3A
:100D700004EE032ADCED032A95ED033A10350CF15D
:100D8000100CF0EE413A42EE250AB0EE630A45EE51
:100D9000231A03EE620A83ED012A94ED021AC3EDD1
:100DA000021A41EE810A40EE032A94ED031A103430
:100DB000C3ED032A42EE810A1033761EB8D117F034
:100DC00003061ED0B6F1004F7ED2002E19DDE34699
:100DD000A4469A464FEA060EF5EC011ABEF1010E42
:100DE000BBEC011A01EEC10A00EE211AFCEC011A5B
:100DF000AAEC011A41EE210AEED104EB860403EBC2
:100E0000860394ED001A40EE010A00E009E083ED4C
:100E1000000A08F10408E2EC010AB9F101097FF4C3
:100E20007BAF40680499BB0800EB810121D0B3F18E
:100E3000004F5FD2002B1CDD8C4602464FEA0304B4
:100E40009CED000A82ED000A9CED010A82ED010A88
:100E50009CED020A82ED020A9CED030A0CF1100CD3
:100E600082ED030A1032641EEAD101EB031100EB9C
:100E7000031017F0030204BF05B0BDE8F08FB2F114
:100E8000004F4CD2002ADCBF05B0BDE8F08F001F38
:100E9000091F12F0010F05D091ED010A80ED010A42
:100EA000001D091D520804BF05B0BDE8F08F00BF4A
:100EB00091ED010A80ED010A91ED020A083180ED01
:100EC000020A0830521E00E003E0F1D105B0BDE88F
:100ED000F08FBCEC011A761EF5EC011A01EEC10A86
:100EE00000EE211AF4EC011AA3EC011A41EE210ADA
:100EF000EFD186E791ED000A80ED000A91ED010A3D
:100F000080ED010A91ED020A80ED020A91ED030ADB
:100F1000103180ED030A10305B1EEBD1A9E7B1EC74
:100F2000010A521EA0EC010AF9D105B0BDE8F08F0C
:100F30000000000070B50446DDE90450218008443B
:100F400081002846C4E9022300F0B8FE656070BD48
:100F50002DE9F04106462DED028B8C460088736822
:100F600001EB80044508274601EB850004EB850270
:100F70005FEA95087DD000BFD1ED003AD4ED001AAC
:100F800091ED012A94ED013A73EEA16A91ED024AC6
:100F900091ED031AD4ED022AD4ED035A90ED008AA4
:100FA00090ED017A90ED020A90ED036A92ED005AFD
:100FB000D2ED014AD2ED027AD2ED030AC1ED006A08
:100FC00072EE036A73EEE13A74EEC71AC1ED016A7C
:100FD00074EE226A74EE622A37EEC04AC1ED026AEC
:100FE00071EE256AC1ED036A72EE436A31EE652A3D
:100FF00038EE051A35EE483A80ED001A37EE241A1D
:1010000080ED011A30EE271A80ED021A36EE201A12
:1010100080ED031A30EEC61A93ED000AD3ED010AF3
:1010200063EE804A26EEA05A66EE805A63EEA03A3E
:1010300074EE854A75EEE33AC4ED004A63EE204A49
:10104000C4ED013A61EE803A61EEA00A23EE000A97
:1010500074EEE31A30EE800AC2ED001A82ED010A46
:1010600093ED020AD3ED030A62EE803A22EE203AB3
:1010700000E024E062EEA01A22EE002A73EE832A3A
:101080001030103172EE611AC4ED022A24EE202ACB
:10109000C4ED031A61EE001A61EE200A24EE000A84
:1010A000103332EE611A103430EE800A82ED021AEB
:1010B00082ED030A1032B8F101087FF45DAF2946D2
:1010C00002236046726800F041FB72682946BDEC5D
:1010D000028B3846BDE8F041022300F037BB2DE912
:1010E000F34F2DED048B87B00B980088470801EB78
:1010F000870000EB870606EB8705CDE90056DDF893
:101100002C80A5F1040C0CEB8703CDE902014FEA1A
:101110005709D8F804800427CDE90497D1ED000AD7
:1011200096ED000A90ED011A95ED013A70EE802AD5
:1011300070EEC03AD1ED010A96ED010A041F321F8C
:1011400030EE802A70EEC01A31EE230AD0ED000A8C
:1011500032EE415A33EEC11A30EE434A71EEE04AA4
:1011600095ED000A70EEA11A35EE435A74EE805ADE
:1011700072EEE04A70EEA20A71EEC01A31EE031A66
:1011800074EEC04A30EE800A062708F1080A81EDA5
:10119000000A90ED010AD5ED010A08F1100B30EEBE
:1011A000020A08F1180830EE200A81ED010A80EDEC
:1011B000004AC0ED015AC6ED004A86ED015A85EDA0
:1011C000001AC5ED011ADDF8109008300831083515
:1011D0000836A9F102095FEA590900F0078100BF4A
:1011E000D1ED000A96ED000AD0ED011AD5ED014AC5
:1011F00030EE802A30EEC05AD1ED010A96ED010A98
:1012000070EE802A30EEC01A31EE850AD5ED000A64
:1012100030EE644A90ED000A31EE403A30EE011AA9
:1012200073EE205A32EE403A30EE020A31EE601A86
:1012300073EE603A30EE200A32EEE13A75EE611A52
:1012400081ED000A90ED010AD5ED010A33EE643A12
:1012500030EE220A71EEA41A30EE200A81ED010A66
:10126000D4ED002ADCED004A54ED010A1CED010A20
:1012700032EEA47A32EEE49A72EEE42A52ED018A5A
:1012800070EE807A30EEC02A72EEE82AD2ED000AC3
:1012900093ED000A13ED018A30EEC05A72EE886AAF
:1012A00077EEE82A35EE026A32EEC85A77EE602A07
:1012B00072EEC04A70EEC02A70EE870A72EEC22A41
:1012C00030EE800A38EE682A84ED000A12ED010A39
:1012D00053ED010A32EE492A30EE270A30EE200A99
:1012E00004ED010A9AED000ADAED010A64EE007AD3
:1012F00025EEA07A65EE805A24EE204A37EE877AF2
:1013000035EEC44A80ED007A80ED014A26EEA04A0F
:1013100066EE005A66EE200A26EE800A083034EEA9
:10132000654A083130EE800A82ED004A083C02ED41
:10133000010A9BED000ADBED010ADDF814E023EE63
:10134000804A63EE205A23EE003A63EEA03A083A50
:1013500034EE254A0BEB8E0B33EE633A86ED004AF2
:101360000AF1080A86ED013AB1EE643A083663EEF6
:10137000003A25EE203A25EE000A64EEA00A33EE8C
:10138000C33A30EEC00A8CED003A0CED010A98ED3C
:10139000000AD8ED010A08EB870861EE803A21EED9
:1013A000203A21EE001A61EEA01AACF1080C33EEDF
:1013B000833A31EE611A85ED003A62EE801A85EDCE
:1013C000011A22EE201A62EEA00A22EE000A083567
:1013D00031EE611A30EE800A83ED001A03ED010A46
:1013E000083BB9F101097FF4FBAE00BFD1ED000A63
:1013F00096ED000A91ED011AD0ED015A30EE802AE7
:1014000070EEC00A96ED010A95ED015A042371EEC3
:10141000001A71EE404A35EEA00A90ED001A31EE46
:10142000E54A70EEE50A30EE453A95ED000A34EEF5
:10143000454A30EE855A74EEC12A72EE413A71EE99
:10144000240A31EE021A72EE802A73EEC03A70EE70
:10145000C00A31EE000A81ED000A90ED010A95ED17
:10146000011A30EE210A30EE010A81ED010A9AEDEF
:10147000000A9AED011A63EE001A22EE812A22EE8A
:10148000800A23EE011A71EE821A30EE410AC0ED95
:10149000001A80ED010A9BED000A9BED011A63EE34
:1014A000801A24EE012A24EE000A23EE811A71EE3E
:1014B000821A30EE410AC6ED001A86ED010A98ED57
:1014C000010A98ED001A60EE801A25EE012A60EEFE
:1014D000810A25EE000A32EE211A30EEC00A85EDAF
:1014E000001A85ED010A0B984268DDE9030100F05E
:1014F0002DF90B98042304994268029800F026F90C
:101500000B98042304994268019800F01FF90B9886
:10151000049904234268009807B0BDEC048B02B024
:10152000BDE8F04F00F012B92DE9F041048898466B
:1015300017460D460646012A20D1281DF4B1A0F118
:10154000080114F0010F06D091ED020AB1EE400A35
:1015500081ED020A08315FEA540C0FD091ED020AC6
:10156000B1EE400A81ED020A91ED040AB1EE400AA3
:1015700081ED040A1031BCF1010CEFD1B4F5807F8C
:101580001BD008DC102C13D0202C16D0402C19D0E6
:10159000802C0DD01CE0B4F5007F13D0B4F5806F23
:1015A00006D0B4F5006F08D0B4F5805F0AD00FE024
:1015B00029463046FFF7CCFC0AE029463046FFF7C3
:1015C0008EFD05E0214601232846726800F0BEF832
:1015D000B8F1000F04D0B1892846B268FEF7D4FDF7
:1015E000012F18BFBDE8F08100EE104AB7EE001AD7
:1015F000002CF8EE400A81EE200A08BFBDE8F08119
:10160000A5F1080014F0010F0ED0D0ED020A60EE33
:10161000800AC0ED020AD0ED030AF1EE600A60EE26
:10162000800AC0ED030A0830610808BFBDE8F081F8
:10163000D0ED020A60EE800AC0ED020AD0ED030A86
:10164000F1EE600A60EE800AC0ED030AD0ED040AF4
:1016500060EE800AC0ED040AD0ED050AF1EE600AE2
:1016600060EE800AC0ED050A1030491EE0D1BDE8E9
:10167000F081000070B44FF0000CB0EC010A4E1E77
:101680006446B50832D000BFD0ED000A90ED011AD3
:101690000830B4EEE00AF1EE10FA3CBFB0EE600A9A
:1016A0000CF10104B4EEC10AF1EE10FA3CBFB0EE49
:1016B000410A0CF10204D0ED000A90ED011A083045
:1016C000B4EEE00AF1EE10FA3CBFB0EE600A0CF1A5
:1016D0000304B4EEC10AF1EE10FA3CBFB0EE410AC9
:1016E0000CF104046D1E0CF1040CCDD116F0030CAA
:1016F00018D0BCF1004F1AD2BCF1000FC4BF0025B6
:1017000066460FDDD0ED000AF4EEC00AF1EE10FAE5
:1017100004DD4C19B0EE600AA4EB0C04001D6D1C36
:10172000761EEFD182ED000A1C6070BC7047F0ECB1
:10173000010AB4EEE00AF1EE10FA3CBFB0EE600A26
:10174000A1EB0C04BCF1010CF1D1EBE72DE9FF4F4B
:101750002DED108B82B09FEDFEFA0B461C46DB0888
:101760004FF0000C0CEB030505EB030808EB030935
:1017700009EB030606EB030A00EBCC0700EBC606F9
:1017800097ED001AD6ED000A0AEB030B00EBC50536
:1017900000EBCA0A31EE200A71EE601A95ED002ABC
:1017A000DAED000A0BEB030E00EBC80832EE201A4C
:1017B00000EBCB0B32EE602AD8ED002ADBED000AFD
:1017C00000EBC90900EBCE0E99ED003A9EED004A00
:1017D00072EEA03A72EEE02A73EE040A33EE443A57
:1017E00070EE636A70EE233A31EE600A71EE200A01
:1017F00033EEA01A73EEE00A87ED001AC6ED000A78
:1018000097ED011AD6ED010AD5ED013A98ED014A9E
:1018100031EE206A71EE600A9AED011A99ED015AD3
:1018200073EE814A73EEC13A9BED011A34EE017AF0
:1018300034EE411A9EED014A75EE045A35EE444AE3
:1018400036EE475A36EE076A34EEE57A74EEA54A6C
:1018500076EE245A76EE644AC7ED015AC6ED014A87
:1018600076EE874AC8ED004A76EEC74ACBED004ACD
:1018700075EE404A35EE000AC8ED014A8BED010ACB
:1018800032EE430A32EE032A20EE0F0A62EE0F4ACE
:1018900033EEC42AA4448C4522EE0F3A33EE842A58
:1018A00030EEC34A62EE0F3A30EE833A31EEC02A90
:1018B00031EE800A71EE630A31EE231A72EEE41AF9
:1018C00072EEA42A70EE013A30EE410AC5ED003AFC
:1018D0008EED000A32EE200A8AED000A32EE600A2E
:1018E00089ED000A33EE620A85ED010A33EE220A21
:1018F0008EED010A34EE610A8AED010A34EE210A06
:1019000089ED010AFFF42EAF082B3FBF02B0BDECFA
:10191000108B04B0BDE8F08F4FF0000CCDF804C080
:101920004FF0010CCDF800C0DDF804C0159DAC44AB
:101930004FEA8C0505EB0C07CDF804C007EB0C094A
:101940004FEA4C0808EB0C0609EB0C0A02EBCC0C36
:1019500002EBC80802EBC60602EBC50502EBC7079F
:1019600002EBC90902EBCA0A9CED00DA9CED018A80
:10197000D8ED00CA96ED00CAD5ED00BA97ED00BAD1
:10198000D9ED00AADAED008AD8ED017A96ED01AA28
:1019900095ED017AD7ED016A99ED016ADAED019AC8
:1019A000DDF800C00CEB0307FD1805EB030A0AEB9A
:1019B000030808EB030606EB030B00EBCC0900EB76
:1019C000C808D9ED000A98ED000A00EBC70700EB44
:1019D000C606D7ED001A96ED001A70EE803A0BEBB2
:1019E000030E70EEC00A31EE810A00EBC50500EB74
:1019F000CB0B31EEC11AD5ED001A9BED002A00EB9E
:101A0000CA0A00EBCE0E31EE824A71EEC21A9AED8E
:101A1000002ADEED002A32EE223A32EE622A73EE1E
:101A2000C42A73EE843A30EE435A30EE030A33EEA2
:101A3000803A73EEC0DA89ED003A99ED010A98ED2B
:101A4000013AD7ED013A95ED014A70EE03EA30EE26
:101A5000433A96ED010A9AED01EADEED014A33EED2
:101A6000809A73EEC03A9BED010A74EE005A34EE90
:101A7000404A3EEE240A7EEE644A3EEEE5EA7EEE01
:101A8000A55A79EE40EA39EE009A32EEAE0A72EECD
:101A9000EE2A75EE89EA35EEC99A7EEE455AC9ED11
:101AA00001EA3EEE055A2BEEADEA67EE09EA2BEEAF
:101AB000899A67EE2DDA3EEE2EEA39EE6D9A88EDC0
:101AC00000EA67EEA5DA88ED019A2CEE809A6CEEBA
:101AD000A55A27EE800A39EE2D9A35EEC00A85ED1B
:101AE000009A66EE055A85ED010A2AEEA20A2AEE50
:101AF000855A66EE222A30EE250A8BED000A35EE75
:101B0000620A73EEA42A8BED010A31EE420A31EE2D
:101B1000021A33EEE42A62EE8F3A20EE0F0A21EE2B
:101B20000F1A22EE0F2A70EEC02A30EE800A71EEF4
:101B3000C10A71EE811A33EE421A33EE022A34EEF4
:101B4000633A34EE234A70EE043A30EE444A01E040
:101B5000F304353F72EE834A72EEC32A32EE613AE5
:101B600032EE210A71EE601A71EE200A2DEE232A60
:101B700028EE031A2DEE033A68EE233AA44432EE1F
:101B8000011A28EE842A8C4587ED001A33EE631A79
:101B900029EE843A87ED011A29EE801A28EE800A90
:101BA00032EE011A30EE430A26EEA42A8EED001A18
:101BB0008EED010A2BEE240A26EEA11A6BEE211AF5
:101BC00030EE010A2CEE221A86ED000A31EEC20A2E
:101BD0006AEE221A86ED010A2AEE200A6CEE200A2D
:101BE00031EE000A8AED000A30EEE10A8AED010AC0
:101BF000FFF4D8AEDDF800C00CF1010CCDF800C048
:101C000063453FF691AEDDF854C04FF6FF7404EA29
:101C1000CC0CCDF854C0072B3FF6A0AD02B0BDEC04
:101C2000108B04B0BDE8F08F2DE9F05F0546002071
:101C300092469B4688460646814640241BE028463D
:101C400041464746224600F0DAF953465A46C01A42
:101C5000914110D311461846224600F0C1F92D1AC1
:101C600067EB01084F4622460120002100F0B8F939
:101C700017EB00094E41201EA4F10104DFDC4846A9
:101C800031462A464346BDE8F09F40EA01039B07E0
:101C900003D009E008C9121F08C0042AFAD203E0E1
:101CA00011F8013B00F8013B521EF9D27047D2B245
:101CB00001E000F8012B491EFBD270470022F6E735
:101CC00010B513460A4604461946FFF7F0FF2046B2
:101CD00010BD421E12F8013F002BFBD111F8013B51
:101CE00002F8013B002BF9D17047421C10F8011B90
:101CF0000029FBD1801A7047034611F8012B00F828
:101D0000012B002AF9D1184670472DE9FE4F81EAD0
:101D1000030404F0004421F0004100944FF0000B54
:101D200023F0004350EA01045ED052EA03045BD082
:101D3000C3F30A54C1F30A552C44A4F2F3340194BA
:101D4000A0FB0254C1F3130141F48011C3F3130348
:101D500043F4801301FB024400FB034E840A970AFC
:101D600044EA815447EA8357A4FB076802958D0A29
:101D700005FB07854FEA932C04FB0C542705029DB5
:101D80004FEA065847EA1637B5EB08056EEB070C25
:101D9000870E920E47EA811742EA8312A7FB0201DF
:101DA000B6EB0B0164EB00042B0D43EA0C335E1819
:101DB00044EB1C50DA465146E7FB0201C5F313041D
:101DC0004FEA0B3343EA14534FEA0432019C43EACF
:101DD0000603A4F10C040294009CCDE900B400F0C9
:101DE00064F903B0BDE8F08F00200146F9E72DE962
:101DF000F04D81EA030404F0004B21F00045144645
:101E00004FF0000A23F0004150EA050220D054EAC6
:101E100001021DD0C5F30A570246C5F31303C1F3EF
:101E20001300C1F30A5640F4801543F48013A7EB66
:101E30000608101BD64608F2FD3873EB050002D3E6
:101E400008F1010801E092185B41B8F1000F03DAD4
:101E500000200146BDE8F08D00204FF480110646B9
:101E600084460EE0171B73EB050705D3121B63EBCB
:101E7000050306434CEA010C49084FEA300092186A
:101E80005B4150EA0107EDD152EA030012D082EA29
:101E9000040083EA0501084305D0101BAB4106D2BC
:101EA0000122002306E000224FF0004302E06FF021
:101EB000010253101AEB06004CEB085110EB0A001C
:101EC00041EB0B01BDE8F04D00F0E0B80EB540F27B
:101ED000334102910021CDE900110A460B4600F082
:101EE000E4F803B000BD70B5C1F30A5201F000453B
:101EF0000024C1F3130140F2FF3341F480119A42F0
:101F000001DA002070BD40F233439A42A2F233421C
:101F100003DC524200F073F800E090402C43F1D013
:101F2000404270BDC1F30A5210B5C1F3130140F233
:101F3000FF3341F480119A4201DA002010BD40F2D3
:101F400033439A42A2F2334203DC524200F057F884
:101F500010BD904010BD00F0004230F000400AD0AB
:101F6000C10D01F56071C0F3160042EA0151C208CB
:101F700040071143704700200146704701F00043BD
:101F800030B421F0004150EA010206D00A0DA2F55A
:101F90006072C1F31301002A02DC30BC00207047DC
:101FA000440F44EAC104C100E01830BC00EBC25049
:101FB00000F035B830B50B46014600202022012440
:101FC00009E021FA02F59D4205D303FA02F5491B07
:101FD00004FA02F52844151EA2F10102F1DC30BD1D
:101FE000202A04DB203A00FA02F1002070479140D9
:101FF000C2F1200320FA03F3194390407047202ACE
:1020000004DB203A21FA02F00021704721FA02F3A2
:10201000D040C2F120029140084319467047002980
:10202000A8BF7047401C490008BF20F0010070475E
:1020300010B4B0FA80FC00FA0CF050EA010404BFBE
:1020400010BC704749B1CCF1200421FA04F411FA14
:102050000CF118BF012121430843A3EB0C01CB1D58
:102060004FEA00614FEA102042BF002010BC7047C9
:1020700000EBC35010440029A4BF10BC7047401CA3
:10208000490008BF20F0010010BC704710B5141EB5
:1020900073F1000408DA401C41F1000192185B4121
:1020A0001A4301D120F0010010BD2DE9F04D9246F8
:1020B0009B4611B1B1FA81F202E0B0FA80F220320F
:1020C0009046FFF78DFF04460F4640EA0A0041EABA
:1020D0000B0153465A46084313D0114653EA0100F8
:1020E00019D0C8F140025046FFF789FF05460E4659
:1020F000504659464246FFF773FF084305D001207A
:1021000004E020463946BDE8F08D0020054346EA4C
:10211000E0762C4337430A986305E40AA0EB0800F5
:102120000022FD0A44EA47540A3002D50020014645
:10213000E9E7010510196941DDE908450019694120
:10214000BDE8F04DA2E72DE9FE4F804681EA03008D
:10215000C00F0C46009021F0004123F00045B8EB81
:102160000200A94105D24046214690461C460B4636
:10217000024623F00040104347D0270DC7F30A0062
:10218000C3F30A510290401A019040286BDAC3F35E
:10219000130040F4801B0098924620B10023D2EB3C
:1021A000030A63EB0B0B01985946C0F140025046FD
:1021B000FFF716FF06460D4650465946019A00F0B5
:1021C00009F910EB08006141002487EA115284EA02
:1021D000E7731A4340D0009A62B3019A012A4FEA8A
:1021E000075215DC001B61EB02014FF0004202EACE
:1021F0000752CDE90042001C41F5801132462B46C2
:10220000FFF753FF03B0BDE8F08F40462146F9E7E2
:10221000001B61EB0201001C41F5801300185B41BB
:102220002018A2F5001747EB030140EAD570B61954
:102230006D4111E06D084FEA360645EAC0754FEA78
:102240000752001B61EB0201001C41F58011490897
:102250004FEA30000019514132462B4603B0BDE829
:10226000F04FFFF713BF0098012240000023D0EB8E
:10227000020263EBE073009821464FEAE074B8EB8A
:10228000000061EB0401E9E783F000435BE781F0C4
:10229000004158E72DE9F041054621F000400C4689
:1022A000284309D0C4F30A5040F23341884205DD87
:1022B00028462146BDE8F0812846FBE740F2FE3182
:1022C000884210DC0CDB4FEA043040EA155050EA3B
:1022D000053105D0104804F0004101430020E9E732
:1022E00000200146E6E7A0F233404642C6F1400234
:1022F00028462146FFF774FE0746884628462146B1
:102300003246FFF77CFE43463A46FFF7BFFE3246B1
:10231000BDE8F041FFF764BE0000F03FC1F30A5290
:10232000C1F3130140F2FF3341F480119A4202DA03
:1023300000200146704740F233439A42A2F23342F2
:1023400002DC5242FFF75BBEFFF74ABE30B5041E07
:1023500071F1000404DB4FF00044404264EB0101E2
:10236000141E73F1000405DB1C464FF0004352427B
:1023700063EB04038B4208BF824230BD30B5041EBC
:1023800071F1000404DB4FF00044404264EB0101B2
:10239000141E73F1000405DB1C464FF0004352424B
:1023A00063EB0403994208BF904230BD00207047A0
:1023B000064C074D06E0E06840F0010394E8070092
:1023C00098471034AC42F6D3FDF742FF146D010874
:1023D000346D0108202A06DBCB17203A41FA02F0BF
:1023E00043EAE07306E041FA02F3D040C2F1200272
:1023F000914008431946704770B58C1810F8015B7E
:1024000015F0070301D110F8013B2A1106D110F88D
:10241000012B03E010F8016B01F8016B5B1EF9D191
:102420002B0705D40023521E0DD401F8013BFAE717
:1024300010F8013BCB1A921C03E013F8015B01F882
:10244000015B521EF9D5A142D8D3002070BDFEE732
:10245000002070470020704710B50022044905484D
:102460000AF006FC044903480AF0FCFB002010BDFA
:1024700014CB002070BA002014C3002010B5014610
:1024800003480AF0EFFB02480AF0D0FB002010BD21
:1024900070BA0020014801F03DBA0000B0B9002038
:1024A000014801F037BA000010BA00200168182373
:1024B000CAB2103AB2FBF3F2054B6FF30901032ADB
:1024C0009B5CC36500D9091D816508467047000003
:1024D000504A010810B5014600208B698A6A4FF006
:1024E000C07453B1B3F5005F15D072B1012A0CD09E
:1024F000022A0AD0032A09D104E01AB1012A06D01F
:10250000022A03D1C96AC90100D5012010BDC96AD8
:10251000A142FAD010BD002AF7D0012AF2D0022A37
:10252000F3D0032AF3D010BD30B50468256825F434
:1025300080252560046863608368402B036803D0AE
:1025400099600068C26030BD9A600068C16030BDAB
:102550007047000010B52021024801F041FF0249F8
:10256000086010BD0010024000000020F0B56E4E63
:1025700004466E4D307885B000BB687B012804D0DE
:10258000022852D0032814D158E095F8230040B116
:1025900009F074FD04EBC40101EB041100EB8100B0
:1025A00005E009F06BFD04EB840100EB410009F04C
:1025B00093FD07F0A5F93078002879D05C485D4F8D
:1025C00001260078002876D05B48006840218DF80D
:1025D000031000210191B2040291CDE90312C0F36E
:1025E000015202EB8202C0F3034303EB4203C0F348
:1025F000023202EB8202C0F3032505EB420200F037
:102600000F05C0F3021000EB800005EB40058DF8CC
:1026100000304A488DF801208DF802500078A8B1AA
:1026200001281AD002281FD024E009F027FD04EB6E
:102630004401C1EBC41100EBC100B8E709F01EFD75
:1026400043F60951614300EB8110B0E70BB9002C50
:102650002EDB18198DF800000CE00AB9002C27DBDE
:1026600010198DF8010005E00DB9002C20DB2819A8
:102670008DF802009DF80000182801D38DF8001095
:102680009DF801003C2801D38DF801109DF802004F
:102690003C2801D38DF80210294803F0FDFE28489C
:1026A00003F064FF00226946254804F021F83E70DB
:1026B00005B0F0BDFFE723480078022804D00328C6
:1026C00023D004280BD10FE0A87F204410F0FF0096
:1026D000A87707D0C82801D9C820A8773E701A4823
:1026E0000670E5E7AE77F9E795F82C00204410F086
:1026F000FF0085F82C0005D06428EFD9642085F808
:102700002C00EBE785F82C60E8E7002C01DC287B47
:1027100038B1287B2044C0B22873042801D9042092
:10272000287309F091F8D9E7430000200CB5002088
:102730004400002046000020002800404A000020FD
:1027400010B60020450000200501002070B5124D94
:102750002021284601F044FE104C60602168884228
:1027600018D020600421284601F03AFE6168002557
:102770008842A06806D0401EA06010F1140F09DA4C
:10278000681E04E0401CA060142803DD0120FFF750
:10279000EDFEA56070BD00000010024000000020AA
:1027A00010B54FF4806001F089FC074C20780028B8
:1027B00008D100F00DFB2078002803D1BDE81040BF
:1027C00000F028BC10BD00002E00002010B5042031
:1027D00001F074FC04480078002803D0BDE81040E4
:1027E000FFF7B4BF10BD00008000002010B510201E
:1027F00001F064FC06480078002807D009F044FC8A
:10280000062803D0BDE8104009F044BC10BD00000C
:102810008000002010B5202001F050FCBDE81040E1
:1028200006F0D2BFFEE700002DE9F041754C2DED1A
:10283000068BA07800287DD02078DFED73AA9FED6D
:1028400073AAF6EE008A4FF40077B7EE008A4FF0D5
:102850000005C0B3DFF8B88100EE105AB8EEC00A28
:1028600020EE2A0A20EE0A0AFDF7E6FE38EE400ABC
:1028700020EE280A10EE100AFFF76DFB08EBC506E4
:1028800041EC190B3068FFF766FB53EC192BFFF78F
:102890003CFAFFF773FB30607068FFF75CFB53ECAA
:1028A000192BFFF732FAFFF769FB6D1C7060BD4210
:1028B000D2DB012300225649E068FEF735FE3A4696
:1028C000544953483AE0FFE7DFF84C8100EE105AD4
:1028D000B8EEC00A20EE2A0A20EE0A0AFDF7ACFE86
:1028E00038EE400A20EE280A10EE100AFFF733FBFC
:1028F00008EBC50641EC190B3068FFF72CFB53ECD5
:10290000192BFFF702FAFFF739FB30607068FFF709
:1029100022FB53EC192BFFF7F8F9FFF72FFB6D1C87
:102920007060BD42D2DB012300223B49E068FEF724
:10293000FBFD00E061E03A4636493748FDF7B8FE56
:10294000E0880A2800D830B92E4B394610331A1DBA
:102950003048FEF78FFE0026E680304960698842E5
:1029600003DA9FED2F0A84ED050AD4ED050A294B01
:1029700000204FF07E5500BF03EB800191ED001A5F
:1029800081EE200A10EE102A81ED000AAA4201DD34
:1029900081ED008A401C80B2B842EDD36278DFED51
:1029A000210A0021C4ED060A00200DE001FB020708
:1029B00003EB870794ED061A97ED000A401CC0B29E
:1029C00030EE010A84ED060A9042EFD300EE102AA1
:1029D00094ED061A03EB8107F8EE401A81EE210A06
:1029E00010EE100A87ED000AA84201DD87ED008A8B
:1029F000491C89B2FF29D5D9A670BDEC068BBDE86C
:102A0000F081000010000020DB0FC9400000003BF7
:102A1000D8020020D8860020D8120020BD37863585
:102A2000BD37863500000000BB2190FBF1F0F0B50A
:102A30000021194C02B24FF480730E46002A11DDBA
:102A4000002004EB412587183FB29F4202D925F8A8
:102A5000106003E035F8177025F81070401C00B2C4
:102A60009842F0DD002A11DA184604EB4125871858
:102A70003FB29F4202D925F8106003E035F8177085
:102A800025F81070401E00B20028F0DA491CC9B2C7
:102A90003229D3D3F0BD0000D82200202DE9F05F09
:102AA000514D287800287DD1504851490078097847
:102AB000084377D109F0E8FA092873D04D4CA07883
:102AC00000286FD14C48007800286BD14FF0010BE3
:102AD0004FF4FC6AA84685F800B053463222A02184
:102AE000802005F01AFD3120444F20814FF40075FD
:102AF00080B207EB4020A0F500712A46FFF7C5F829
:102B00002089401E0004000C2081F1D1002501E045
:102B1000802D04D205F18000C6B2802D02D3A5F12C
:102B20008000C6B27F2E30D03549A8B201EB8000BC
:102B3000F3EE0E0A90ED000A20EE200ABCEEC00A69
:102B400010EE100A80B2A0801D2808D91E20A08097
:102B50004FF478402081E088401CE08003E0C0B260
:102B60000CF02CFF2081208927F8160000236FF03D
:102B70001E02BE21701C05F0D0FCA08823894042B3
:102B800002B2BE21701C05F0C8FC6D1CFF2DBFD920
:102B9000F0234FF48072BE21012005F061FB002676
:102BA000354600E019E0B94603E0002501E07F2D3D
:102BB00015D009EB462030F8150005F04BFB5746C1
:102BC0006D1CADB2FF2DF2D9761CF6B2322EECD3CD
:102BD00084F802B0002188F80010BDE8F09F384664
:102BE00005F038FBECE700004700002078000020EB
:102BF000790000201000002043000020D82200208F
:102C0000D886002010B500F07DFABDE8104000F035
:102C100045BA00002DE9F05F574C584D4FF00108C0
:102C20002DED028B46462069401C2061C5F80080CE
:102C300000F020FA000320814FF480372F602E60CF
:102C400000F018FA218900F00F0041EA00202081ED
:102C50002F602E6000F00EFA218900F00F0041EA8B
:102C6000001020812F602E6000F004FA218900F00E
:102C70000F0008432081DFF8089100B2A08199F885
:102C800000204049DFF800B19FED408A00EE100AB5
:102C9000404E002AF8EEC00ADFF8F4A0326880EE59
:102CA000880A02D00BEB820001E00AEB820080ED83
:102CB000010AE08901EB800080ED000A2F60C5F871
:102CC000008000F0D7F9000320812F60C5F8008054
:102CD00000F0D0F9218900F00F0041EA00202081A6
:102CE0002F60C5F8008000F0C5F9218900F00F00C1
:102CF00041EA001020812F60C5F8008000F0BAF989
:102D0000218900F00F000843208100B200EE100A74
:102D1000A0811C4BF8EEC00A99F80020D6F800C03C
:102D2000803380EE880A12B10BEB8C0001E00AEBD5
:102D30008C004FF0000C80ED000AE08903EB80006E
:102D400080ED000AE089401C83B2E3813068801C7A
:102D50003060202B01D1A4F80EC0B0F5806F05D1F2
:102D600082F00100C6F800C089F800002F60BDECB9
:102D7000028BBDE8F09F00002C00002018080240E4
:102D800010000020D88E0020D802002000FEFF4650
:102D9000D81200200C00002010B5094C0120206042
:102DA00000F068F90749084A087000F00101117045
:102DB0000649C0F3400008704FF48030206010BD19
:102DC000180802402C000020890000208A00002002
:102DD0002DE9F041144C0120144D154EA0702878B7
:102DE0003178084301D0032000E004206070C0B2B5
:102DF00000F020FA0F4F022038600E4801221146E1
:102E0000183801F019FB4FF44030386028783178D9
:102E1000084302D000F010F801E0FFF7FBFE0020AD
:102E2000A070BDE8F08100002C0000207800002098
:102E300079000020180802402DE9F041384C2DEDB2
:102E4000028B20699FED388A401C20613548E1895A
:102E500000EB810090ED000A20EE080ABDEEC00AEA
:102E600010EE100A00B26081C0F3073000F0E2F902
:102E70002E4D01262E6037042F606089C0F3072095
:102E800000F0D8F92E602F606089C0F3071000F0C1
:102E9000D1F92E602F60A07A00F0CCF92E602F605F
:102EA0002048E189803000EB810090ED000A20EE9F
:102EB000080ABDEEC00A10EE100A00B26081C0F32D
:102EC000073000F0B7F92E602F606089C0F307204B
:102ED00000F0B0F92E602F606089C0F3071000F099
:102EE000A9F92E602F60A07A00F0A4F92E602F605F
:102EF000E0890021401C80B20D4AE081202809D0E1
:102F0000102803D1107800B1A671E170BDEC028BDE
:102F1000BDE8F081107800B1A671E181E670F5E7B7
:102F20002C000020D88F002000FEFF461808024029
:102F3000C50000202DE9F041314D68680CF0A4FD7A
:102F4000304904460020304A304B487012781B78D4
:102F50001A4301D0082003E048706A7A02B10420C5
:102F60004870C0B200F066F9294F01221146384678
:102F700001F062FA264D4FF4403018352860C4F352
:102F8000035000F057F901221146384601F054FA77
:102F90004FF480362E60C4F3034000F04BF9012259
:102FA0001146384601F048FA2E60C4F3033000F0B1
:102FB00041F901221146384601F03EFA2E60C4F371
:102FC000032000F037F901221146384601F034FAA7
:102FD0002E60C4F3031000F02DF90122114638468B
:102FE00001F02AFA2E6004F00F0000F023F901220C
:102FF0001146384601F020FA2E60BDE8F08100004D
:103000000CB500202C000020780000207900002062
:10301000000802402DE9F041144C01200025A07069
:1030200065702179022609B1607002E06079C8B14B
:103030006670607800F0FEF80D4F3E600C4801228B
:103040001146183801F0F8F94FF440303860207913
:1030500018B1FFF76FFF257104E0607910B1FFF739
:103060009BFE6571A570BDE8F08100002C0000207A
:1030700018080240084908690A6900F0010002F0D6
:10308000020210430A69096902F00402104301F0C8
:1030900008010843704700000000024070B50A4C68
:1030A0000120A070052000F0C5F8084D022028601E
:1030B000064801221146183801F0BEF94FF440309D
:1030C00028600020A07070BD2C000020180802406D
:1030D00070B50A4C0120A070062000F0ABF8084D36
:1030E00002202860064801221146183801F0A4F990
:1030F0004FF4403028600020A07070BD2C000020EC
:10310000180802402DE9F04132A00DF003FD354CC6
:103110000120A0700A2000F08DF8334D02202860B5
:10312000314E0122183E1146304601F085F94FF428
:1031300040302860012000F07DF801221146304621
:1031400001F07AF9FFF796FF2070012801D027A03F
:1031500030E04FF480372F60022000F06BF801223E
:103160001146304601F068F9FFF784FF207002280D
:1031700001D022A01EE02F60042000F05BF80122A5
:103180001146304601F058F9FFF774FF207004280B
:1031900001D01EA00EE02F60082000F04BF80122A5
:1031A0001146304601F048F9FFF764FF2070082807
:1031B00007D01AA00DF0AEFC2078BDE8F0410DF06C
:1031C00093BC2F600020A070BDE8F04117A00DF067
:1031D000A1BC0000465047412042757320546573DE
:1031E000742000002C000020180802404552524F65
:1031F0005220302050494E0D0A0000004552524FD7
:103200005220312050494E0D0A0000004552524FC5
:103210005220322050494E0D0A0000004552524FB4
:103220005220332050494E0D0A0000004F4B0D0A2A
:103230000000000042082023102103EA421201EAA4
:10324000001111438208402303EA82121143C0088F
:10325000C00741EA106141F470000149886170477C
:103260000000024070B515460C4606463BB1B3F56A
:10327000804F07D040F24F1130A00CF029FB6FF0C7
:10328000704056E03B48864204D040F255112BA0D6
:103290000CF01EFB20680F2804D94FF4AB7127A057
:1032A0000CF016FB6068401E0E2804D940F257113E
:1032B00022A00CF00DFBA068401EFE2804D94FF49C
:1032C000AC711EA00CF004FBE0680F2804D940F29A
:1032D00059111AA00CF0FCFAA06968B1B0F1805F36
:1032E0000AD0B0F1005F07D0B0F1405F04D04FF4D6
:1032F000AD7112A00CF0ECFA55B1022D08D0042DDE
:1033000006D0062D04D040F25B110CA00CF0E0FAC0
:1033100056F825101848A3890140D4E9000240EA74
:103320000210A268120242EA03421043A26910434B
:10333000084346F82500002070BD00002E2E2F44C3
:103340007269766572732F53544D333246347878F0
:103350005F48414C5F4472697665722F5372632FE8
:1033600073746D3332663478785F6C6C5F66736D3E
:10337000632E6300040100A00000F0CF2DE9F041AE
:103380000C460546B0F1204F03D086215AA00CF020
:103390009FFA206848B1022807D0042805D00628E3
:1033A00003D0872154A00CF093FA606828B102285A
:1033B00003D0882150A00CF08BFAA06838B1042803
:1033C00005D0082803D089214BA00CF081FAE068D1
:1033D00038B1102805D0202803D08A2146A00CF04F
:1033E00077FA206930B1B0F5807F03D08B2142A0FD
:1033F0000CF06EFA606930B1B0F5007F03D08C211B
:103400003DA00CF065FAA06930B1B0F5806F03D033
:103410008E2139A00CF05CFAE06930B1B0F5006F94
:1034200003D0902134A00CF053FA206A30B1B0F5EB
:10343000805F03D0912130A00CF04AFA606A30B16D
:10344000B0F5005F03D092212BA00CF041FAA06AE6
:1034500030B1B0F5804F03D0932127A00CF038FA9B
:10346000E06A30B1B0F5004F03D0942122A00CF0F7
:103470002FFA206B30B1B0F5002F03D095211EA09C
:103480000CF026FAE06B78B1B0F5803F0CD0B0F5C7
:10349000003F09D0B0F5403F06D0B0F5802F03D0F3
:1034A000962115A00CF014FA226855F82200204944
:1034B0000840D4E90113D4E9036719433E4331437B
:1034C00066693143A6693143E6693143266A31436F
:1034D000666A3143A66A3143E66A3143E66B246B80
:1034E000314321430143082B01D141F0400145F80C
:1034F00022100020BDE8F0812E2E2F4472697665DF
:1035000072732F53544D3332463478785F48414CB0
:103510005F4472697665722F5372632F73746D33D3
:1035200032663478785F6C6C5F66736D632E63000F
:103530008000F0FF70B515460C460646B0F1204FEE
:1035400004D04FF48C7139A00CF0C2F920680F2818
:1035500004D940F2191135A00CF0BAF96068401E88
:103560000E2804D94FF48D7130A00CF0B1F9A06889
:10357000401EFE2804D940F21B112CA00CF0A8F923
:10358000E0680F2804D94FF48E7128A00CF0A0F940
:103590002069801E0E2804D940F21D1123A00CF0D2
:1035A00097F96069801E0F2804D94FF48F711FA00E
:1035B0000CF08EF9A16969B1B1F1805F0AD0B1F167
:1035C000005F07D0B1F1405F04D040F21F1117A097
:1035D0000CF07EF955B1022D08D0042D06D0062D31
:1035E00004D04FF4907111A00CF072F906EB850233
:1035F0005068A58900F04041D4E9000340EA031077
:10360000A3681B0243EA05431843238A154D05EBC3
:1036100003531843237D6D0105EB03631843A3692E
:10362000184308435060002070BD00002E2E2F4428
:103630007269766572732F53544D333246347878FD
:103640005F48414C5F4472697665722F5372632FF5
:1036500073746D3332663478785F6C6C5F66736D4B
:10366000632E63000000F0FF70B5114C00220121B1
:10367000204600F0E1FE4FF0FF352B4601220D49B8
:103680000D4803F02BFB0B492B460322891C0A48EB
:1036900003F024FB2B4630220849074803F076FA52
:1036A0002046BDE870400122114600F0C5BE000072
:1036B000000402400401002030B600200CB50020B8
:1036C00070B5164C00220121204600F0B5FE4FF0E7
:1036D000FF352B4601221249124803F0FFFA01225E
:1036E0001146204600F0A8FE00220121204600F0ED
:1036F000A3FE0B492B460122891C0A4803F0EEFA6F
:1037000007492B460322891D064803F0E7FA2046A5
:10371000BDE870400122114600F08EBE0004024058
:103720000001002030B6002070B5194C00220121A4
:10373000204600F081FE4FF0FF352B46012215494F
:10374000154803F0CBFA01221146204600F074FE22
:1037500000220121204600F06FFE0E492B46012277
:10376000C91C0D4803F0BAFA0A492B460322891DE9
:10377000094803F0B3FA2B4630220849064803F003
:10378000ADFA2046BDE870400122114600F054BE5B
:10379000000402400001002030B600200CB50020DB
:1037A00010B508F01DFA002008F01AFA4FF6FF7164
:1037B00001EA0024002008F013FA2043C00810BDDD
:1037C0002DE9F05F07469B469146884600269020EB
:1037D000FFF7E6FF054664200CF0A6F8D020FFF7BF
:1037E000DFFF044614E09020FFF7DAFF82466420F2
:1037F0000CF09AF8D020FFF7D3FFBAF1000F05D0F4
:1038000020B105EB0A014D0820444408761CF6B2AD
:103810004E45E8D3BBF1000F04D03D80A8F800402E
:10382000BDE8F09F00EE105A1548B8EE400A90ED42
:10383000011AB0F90010C0EE010A00EE101AB8EE3D
:10384000C00A30EE800ABCEEC00A10EE101A3980B1
:1038500000EE104AD0ED020AB0F90200B8EE400ABC
:1038600080EE201A00EE100AB8EEC00A31EE000A0F
:10387000BCEEC00A10EE100AA8F80000D0E7000065
:10388000940100202DE9F0410446876D00F00AFE06
:10389000064694F835000025022806D08020606591
:1038A00084F834500120BDE8F0812068016821F0DF
:1038B000160101602068416921F080014161206C9E
:1038C00008B9A06C20B12068016821F008010160EE
:1038D0002068016821F0010101600BE000F0E2FDC9
:1038E000801B052806D92020606504F8345F03207A
:1038F0006070D8E720680068C007EFD194F85C10CA
:103900003F208840B86004F8345F012060700020D8
:10391000C9E700002DE9F84304464FF00009CDF84F
:10392000009063484FF41651A56D0068B0FBF1F7A5
:103930002E6894F85C10082000FA01F131420FD093
:1039400021680A6852070BD50A6822F004020A604F
:1039500094F85C108840A860606D40F001006065DC
:1039600094F85C104FF0010808FA01F0304208D0DA
:1039700021684969090604D5A860606D40F002001D
:10398000606594F85C1004208840304208D02168BB
:103990000968890704D5A860606D40F0040060657F
:1039A00094F85C1010208840304218D021680968D3
:1039B000090714D5A86020680168490304D5006888
:1039C000000308D5A16C07E00168C90503D40168AC
:1039D00021F008010160216C09B12046884794F864
:1039E0005C1020208840304231D021680968C90627
:1039F0002DD5A86094F8350005282068016806D008
:103A0000490347D5006800031DD4616C1CE021F018
:103A1000160101602068416921F080014161206C3C
:103A200008B9A06C20B12068016821F0080101608C
:103A300094F85C103F208840A86084F8349084F8A3
:103A40003580216D1FE0E16B09B120468847606D2C
:103A500000282BD0606DC00714D0052084F83500F5
:103A60002068016821F0010101600098401C00906D
:103A7000B84203D820680068C007F6D184F83490B3
:103A800084F83580E16C002910D001B02046BDE8F3
:103A9000F04308470168C905D5D4016821F0100139
:103AA000016084F8349084F83580CCE7BDE8F88371
:103AB000880100202DE9F041044600F0F3FC0546A2
:103AC000002C7CD0A249206888423ED0A049183101
:103AD00088423AD09E493031884236D09C4948319C
:103AE000884232D09A49603188422ED09849783144
:103AF00088422AD096499031884226D09449A831EC
:103B0000884222D0934988421FD092491831884276
:103B10001BD090493031884217D08E4948318842B5
:103B200013D08C49603188420FD08A49783188425D
:103B30000BD088499031884207D08649A831884205
:103B400003D0B82184A00BF0C3FE6068C0B1B0F10F
:103B5000007F15D0B0F1806F12D0B0F1C06F0FD0E0
:103B6000B0F1006F0CD0B0F1206F09D0B0F1406F10
:103B700006D0B0F1606F03D0B92177A00BF0A8FE9A
:103B8000A06838B1402805D0802803D0BA2172A09F
:103B90000BF09EFEE068B0F5007F04D018B1BB21A9
:103BA0006DA00BF095FE2069B0F5806F04D018B1C0
:103BB000BC2169A00BF08CFE606958B100E071E097
:103BC000B0F5006F06D0B0F5805F03D0BD2162A0D4
:103BD0000BF07EFEA06948B1B0F5005F06D0B0F5ED
:103BE000804F03D0BE215CA00BF072FEE06940B1B3
:103BF000B0F5807F05D0202803D0BF2156A00BF060
:103C000067FE206A60B1B0F5803F09D0B0F5003F93
:103C100006D0B0F5403F03D0C0214FA00BF058FEB6
:103C2000606A002832D0042806D0C1214AA00BF0D7
:103C30004FFE606A002829D0A06A48B1012807D049
:103C4000022805D0032803D0C62143A00BF040FE74
:103C5000E06A60B1B0F5000F09D0B0F1807F06D006
:103C6000B0F1C07F03D0C7213BA00BF031FE206B29
:103C700060B1B0F5001F09D0B0F5800F06D0B0F5E7
:103C8000C00F03D0C82134A00BF022FE002684F818
:103C90003460022084F835002068016821F00101B9
:103CA00001600EE00120BDE8F08100BF00F0FAFBEA
:103CB000401B052805D920206065032084F83500C5
:103CC000F1E720680068C007F0D122681168304829
:103CD0000140D4E901031843D4E903352B431843C9
:103CE00063691843A3691843E3691843236A1843B7
:103CF0000843616A042903D1D4E90B13194308432B
:103D0000106020684069656A20F0070128460D436D
:103D1000012704280CD1A06A0543E06A40B120467F
:103D2000FEF7D8FB20B14020606584F83570B9E714
:103D3000206845612046FEF7B9FB94F85C203F21DE
:103D400091408160666584F835700020ABE7000023
:103D500010600240106402402E2E2F447269766576
:103D600072732F53544D3332463478785F48414C48
:103D70005F4472697665722F5372632F73746D336B
:103D800032663478785F68616C5F646D612E6300C1
:103D90003F8010F02DE9F74F82B00446002089469D
:103DA000019000F07FFB009094F835000027022876
:103DB00004D08020606584F8347068E02068006872
:103DC000C00503D54FF48070606560E094F85C0036
:103DD0004FF0200B4FF0100AB9F1000F06D00AFA8D
:103DE00000F6A56D28684FF001083AE00BFA00F6DE
:103DF000F7E70498401C12D0049830B100F052FB51
:103E00000099411A0498814209D9C4F854B004F8C1
:103E1000347F84F80180032005B0BDE8F08F286866
:103E200094F85C2008219140014204D0626D42F078
:103E300001026265A96094F85C2008FA02F101426F
:103E400004D0626D42F002026265A96094F85C20C1
:103E500004219140014204D0626D42F00402626587
:103E6000A960304202D1606DC007C2D0606D3026BB
:103E700078B1606DC0070CD02046FFF703FD94F8C1
:103E80005C008640AE6004F8347F84F80180012035
:103E9000C2E7B9F1000F06D094F85C100AFA01F0FD
:103EA000A8600198B8E794F85C008640AE6004F81A
:103EB000347F84F80180F4E72DE9F0418846044618
:103EC0000025581E4FF6FF711E461746884204D340
:103ED00040F29D1113A00BF0FBFC94F83400012874
:103EE0000DD0012084F8340094F835100020012909
:103EF00007D084F8340002252846BDE8F08102206E
:103F0000FBE7022184F83510606533463A464146A6
:103F10002046FEF709FB2068016841F001010160BD
:103F2000EAE700002E2E2F447269766572732F53D4
:103F3000544D3332463478785F48414C5F4472695F
:103F40007665722F5372632F73746D3332663478D3
:103F5000785F68616C5F646D612E63002DE9F047E6
:103F600089460446876D0025581E4FF6FF711E4690
:103F70009046884204D34FF4E6711EA00BF0A8FCD3
:103F800094F8340001280DD0012084F8340094F80E
:103F900035100020012907D084F834000225284676
:103FA000BDE8F0870220FBE7022184F83510606548
:103FB0003346424649462046FEF7B6FA94F85C106E
:103FC0003F208840B8602068016841F01601016018
:103FD0002068416941F080014161206C20B1206876
:103FE000016841F0080101602068016841F00101A9
:103FF0000160D4E72E2E2F447269766572732F53B9
:10400000544D3332463478785F48414C5F4472698E
:104010007665722F5372632F73746D333266347802
:10402000785F68616C5F646D612E630070B50446F3
:1040300000F038FA0546601C02D0044800780444B9
:1040400000F030FA401BA042FAD370BD7C01002082
:10405000F0B5154887B00168002923D10124046018
:104060001248016841F0010101600068022500F07A
:10407000010005904FF68070CDE9000502AA0326E5
:104080000C2782E8D0006946094800F023F84EF278
:10409000B370CDE9000502AA694682E8D000054860
:1040A00000F018F807B0F0BD740100203838024065
:1040B00000100240000C024070470000044910B597
:1040C0000A68024202D00860FFF7F6FF10BD000048
:1040D000143C01402DE9F84F0446A0480D468442A7
:1040E0001BD09F48844218D09E48844215D09E48D9
:1040F000844212D09D4884420FD09D4884420CD007
:104100009C48844209D09C48844206D09B48844203
:1041100003D0B3219AA00BF0DBFB28680104090C43
:1041200001D0000C03D0B42195A00BF0D1FB68683E
:10413000F8B101281DD011281BD0022819D012284F
:1041400017D09E49884214D09D49884211D09D497C
:1041500088420ED09C4988420BD09C49884208D0A6
:104160009B49884205D0032803D0B52184A00BF0D9
:10417000AFFBA86838B1012805D0022803D0B621CA
:104180007FA00BF0A5FB00264FF0010B0BFA06F009
:104190002F688246074057457ED16868022801D0C3
:1041A00012282ED12869F8B109281DD001281BD06A
:1041B000022819D0032817D0042815D0052813D0B9
:1041C000062811D007280FD008280DD00A280BD0B8
:1041D0000B2809D00C2807D00D2805D00F2803D0B4
:1041E000C72167A00BF074FBF00804EB8002106A93
:1041F0007107CB0E0F2199408843296999400143EB
:10420000116220687200032101FA02F829799146AF
:1042100001F0030120EA080001FA09F101432160DD
:104220006868012805D0022803D0112801D012287F
:104230001CD1E86848B1012807D0022805D003281E
:1042400003D0DA214EA00BF043FBA068E96820EA16
:10425000080001FA09F10143A1606068297920EAA8
:104260000A00C1F30011B14001436160E068A96830
:1042700020EA080001FA09F10143E1606868C00022
:1042800065D55448016841F480410160006826F01A
:10429000030100F4804000E059E000904E480A1805
:1042A000D2F80808B1070B0F0F21994088432B491A
:1042B0008C4201D1002123E029498C4201D1012106
:1042C0001EE028498C4201D1022119E026498C4286
:1042D00001D1032114E025498C4201D104210FE0D2
:1042E00023498C4201D105210AE022498C4201D1A7
:1042F000062105E020498C4201D1072100E0082178
:1043000099400143C2F80818344908686A68B843FC
:10431000D20300D5384308603049091D08686A682F
:10432000B843920300D5384308602C490831086827
:104330006A68B843D20200D53843086027490C3177
:1043400008686A68B843920200D538430860761C52
:10435000102EFFF41BAFBDE8F88F000000000240F4
:104360000004024000080240000C0240001002401D
:104370000014024000180240001C024000200240CD
:104380002E2E2F447269766572732F53544D33323B
:10439000463478785F48414C5F4472697665722F85
:1043A0005372632F73746D3332663478785F68614B
:1043B0006C5F6770696F2E630000000000001110D1
:1043C0000000211000003110000012100000221027
:1043D000000032104438024000300140003C0140EF
:1043E00070B50C00054604D14FF4BF7103A00BF06B
:1043F0006FFA2869204000D0012070BD2E2E2F4476
:104400007269766572732F53544D3332463478781F
:104410005F48414C5F4472697665722F5372632F17
:1044200073746D3332663478785F68616C5F67707F
:10443000696F2E630000000070B515460C0006463B
:1044400004D140F29F1108A00BF042FA45B1012DB2
:1044500004D04FF4D07104A00BF03AFAB46170BDEF
:104460002004B06170BD00002E2E2F447269766565
:1044700072732F53544D3332463478785F48414C31
:104480005F4472697665722F5372632F73746D3354
:1044900032663478785F68616C5F6770696F2E632D
:1044A0000000000001488068704700007C01002087
:1044B0002DE9FF4104460068816800917749784EF4
:1044C0004FF04027884201D1324600E03A469268D8
:1044D000019240688846029001D1304600E038469B
:1044E0004068039060684FF00105B0F5007F1CD074
:1044F000D8B1900705D50398000602D5204603F0F1
:10450000B7FC0098C0070FD0029840067FD52168FD
:104510002046CA68E16A8B1CE3620A80618E491EEC
:104520006186618E002967D071E00098800719D5F7
:104530000298000616D5616A20468A1C62622268CB
:104540000988D160618D491E6185618D51B901680D
:104550004A6822F0A0024A60418E19B980F84150A1
:1045600000F070F90198C00705D00398400602D505
:10457000204603F04DFC0198400622D503988006A2
:104580001FD52168414501D1304600E038464068DA
:1045900020F0600101D1304600E0384641602068DB
:1045A000416821F0A00141602068C16880680190E5
:1045B00084F84150606C40F002006064204600F0D6
:1045C0006FF90098000767D50298800664D52068C7
:1045D000416821F0A00141602168414501D1304688
:1045E00000E03846406820F0600000D03E46706031
:1045F00020688068009043E001684A6822F0600209
:104600004A60418D19B980F8415000F01BF90098BB
:1046100040061ED5029880061BD52068416821F00F
:10462000600141602168414501D1304600E03846D3
:10463000406820F0A00101D1304600E038464160DA
:1046400084F84150606C40F002006064204600F045
:1046500027F9019800071FD5039880061CD521680B
:10466000414501D1304600E03846406820F0A000C6
:1046700000D03E4670602068416821F060014160D2
:1046800084F84150606C40F00400606404B020463F
:10469000BDE8F04100F004B9BDE8FF8100380040FA
:1046A000003400402DE9F84F044690F841001546CB
:1046B00089464FF0000AD346012802D04FF0020A83
:1046C00082E0E9B3E2B3DBB394F8400001283DD0C7
:1046D000012084F84000E26261622068C06900F055
:1046E0000700032834D0052832D02385638523862C
:1046F000A4F83230C4F844B0052084F84100E36BDC
:104700004B481864E66B4B4BF363E76B4A4EFE6411
:10471000A76B3864A06BC363A06BC6642068C369D1
:10472000DFF8188103F44073454E4FF04027B3F58E
:10473000007F16D0ABB1C269C2F30122032A00E0A8
:1047400001E045D047E00120BDE8F88F0220FBE7FB
:104750004FF6FF7000EA4300208560852086608662
:10476000C8E7238E404501D1314600E039460C317F
:10477000E06BFFF7F3FB2068404501D1304600E0D5
:104780003846406840F0010001D1314600E039462A
:104790004860238D2268494602F10C02A06BFFF7A6
:1047A000DDFB2068416841F0020138E040453CD122
:1047B0003046C06940F4806000D03E46F061206819
:1047C000C16941F48061C16184F840B05046BBE7E3
:1047D000C26882680092238D404501D1324600E0D4
:1047E0003A460C32A06BFFF7B9FB2168414501D175
:1047F000314600E03946496841F0020101D13046B6
:1048000000E038464160238E21682A4601F10C0100
:10481000E06BFFF7A3FB2068416841F001014160B4
:104820002068C1694905C1D5CEE73846C1E7000017
:10483000ED7F0008D17E0008997F00080038004015
:10484000003400400068074988420AD1064A0748F8
:104850000121137803B1417001701170416820315A
:1048600041607047003C0040C5000020B4000020BB
:104870000068084988420BD10749084801220B7893
:1048800003B14270002303700A7041682031416017
:1048900070470000003C0040C5000020B40000202C
:1048A000704790F8410070472DE9F05F040067D031
:1048B000914D2068A84207D09049884204D04FF417
:1048C00089718FA00BF004F860684FF4807B4FF47F
:1048D000007758B1584509D0B84207D0B0F5407FAD
:1048E00004D040F2131186A00AF0F2FFA06860B174
:1048F00010280AD0202808D0302806D0B02804D0AC
:104900004FF48A717EA00AF0E3FFE06850B10128FD
:1049100008D0032806D0052804D040F2151178A04D
:104920000AF0D6FF2069B84205D020B14FF48B7150
:1049300073A00AF0CDFF60697F4AA0F5FA51914259
:1049400006D9022804D040F217116DA00AF0C0FF6A
:10495000A06930B1082804D04FF48C7168A00AF027
:10496000B7FFE069012805D020B140F2191164A019
:104970000AF0AEFF94F841004FF0000A18B109E0C8
:104980000120BDE8F09F84F840A06C486063204699
:1049900000F0DAF84FF0020884F841802168CA6913
:1049A00040F6BF7922EA0902CA612168C1F8208075
:1049B0006069022838D0E068B0B12026A0682028BD
:1049C00000D87600012000F079FF2169B94228D192
:1049D000E16859B1B100B0FBF1F000EB800041009B
:1049E0006069B1FBF0F00BE01026E7E7F100B0FBE7
:1049F000F1F000BF00EB800061694000B0FBF1F016
:104A0000401D0A21B0FBF1F000F00101401A4008FE
:104A10000902821EFE2A09D3606C40F01000606417
:104A2000AEE7B0FBF6F0E5E702200021226908437B
:104A3000024320680262D4E901010843A269E168E7
:104A4000114308432168CA694E46B243104340F4FB
:104A50000060C861206AE8B3012807D04FF4DA711A
:104A600027A00AF035FF206A01283CD13448606352
:104A7000206834494FF04022A84201D1084600E0A6
:104A80001046C06920EA060001D10B4600E013463B
:104A9000D86123684046AB4201D10B4600E0134683
:104AA00018622368AB4201D1084600E01046C06995
:104AB00086B26068B8421DD0E0B100202789B4F802
:104AC0000CC047EA0C07B4F818C04CEA000C47EADF
:104AD0000C0700E007E0B8B2304340F40060AB429E
:104AE00000D01146C861C4F844A0012084F84100F8
:104AF000002046E75846E1E700380040003C00400F
:104B00002E2E2F447269766572732F53544D3332B3
:104B1000463478785F48414C5F4472697665722FFD
:104B20005372632F73746D3332663478785F6861C3
:104B30006C5F6932732E6300C0CE0200F77F0008FD
:104B4000B1440008003400402DE9F04F87B005461D
:104B500014216846FDF7B2F84849286888427DD19B
:104B600047490120C1F85C0146480068454940F4C6
:104B700000400860086800F4004005904148103883
:104B8000016841F001010160016801F00101059136
:104B9000016841F0040101600068022400F0040093
:104BA00005904FF40040CDE9000402AA002003263E
:104BB000062782E8C10069463348FFF78BFA4FF4B5
:104BC000A050CDE9000402AA002082E8C100DFF86D
:104BD000BC8069464046FFF77DFAA7020020009797
:104BE000CDE901400520CDE9036069464046FFF765
:104BF00071FA284C26484FF4806B20607006606084
:104C00000020A060E060C4E904B74FF00409C4F8D4
:104C10002490C4E90A60206304F11801BF004FF436
:104C200080784FF4403A81E880052046FEF742FF45
:104C300008B1FDF7F7FDEC63A5631548164C783015
:104C4000402120600020C4E90101C4F82490C4E997
:104C5000030BC4E90A604901206300E00BE004F1A2
:104C60001402204682E88205FEF724FF08B1FDF712
:104C7000D9FDAC63A56307B0BDE8F08F003C0040F0
:104C80000000474240380240000002400008024055
:104C900010600240B0B9002010BA00207047704781
:104CA0000248816802781144816070477C010020CD
:104CB0000B4810B5016841F400710160016841F4CE
:104CC00080610160016841F480710160032000F09F
:104CD000E5F8012000F006F800F024F8002010BDEF
:104CE000003C024070B50D4D04464FF47A712878AF
:104CF000B1FBF0F00A490968B1FBF0F002F005FAE7
:104D000048B9102C07D200222146501E00F076F838
:104D100000206C6070BD012070BD00007C0100208F
:104D2000880100201B4808B5016841F480410160FA
:104D3000006800F4804000901648001F016841F0B0
:104D4000805101600068002200F080500090012135
:104D50006FF00B0000F052F8002201216FF00A0002
:104D600000F04CF8002201216FF0090000F046F835
:104D700001210022881F00F041F801210022481F74
:104D800000F03CF800220121BDE80840C81E00F0F8
:104D900035B800004438024010B5040003D5BE21E8
:104DA00007A00AF095FD002C09DB04F01F0101208B
:104DB00088406109890001F1E021C1F8000110BDBE
:104DC0002E2E2F447269766572732F53544D3332F1
:104DD000463478785F48414C5F4472697665722F3B
:104DE0005372632F73746D3332663478785F686101
:104DF0006C5F636F727465782E63000070B5154642
:104E00000C460646102A03D3AA2114A00AF060FD1E
:104E1000102C03D3AB2111A00AF05AFD1E480068E4
:104E2000C0F30223C3F107022046042A00D904225A
:104E3000191D072901D2002300E0DB1E012404FA1A
:104E400002F1491E014099409C40641E2C402143C0
:104E50003046BDE8704009F050BA00002E2E2F44B5
:104E60007269766572732F53544D333246347878B5
:104E70005F48414C5F4472697665722F5372632FAD
:104E800073746D3332663478785F68616C5F636F1A
:104E9000727465782E6300000CED00E010B50446D6
:104EA00007280BD0062C09D0052C07D0042C05D0E0
:104EB000032C03D0922108A00AF00AFD154904F042
:104EC000070208684FF6FF03184040EA0220124A22
:104ED0001043086010BD00002E2E2F4472697665C5
:104EE00072732F53544D3332463478785F48414CB7
:104EF0005F4472697665722F5372632F73746D33DA
:104F000032663478785F68616C5F636F727465785D
:104F10002E6300000CED00E00000FA057047006809
:104F2000416200207047F0B50368586A39B19C6A45
:104F30004FF4827600EB144400204D1E0AE040EA54
:104F4000024098620FE006EB8007DF59401C04EB3B
:104F50001744C0B2A842F6D344EA02404FF480722C
:104F600002EB810158500020F0BDD0F8040408F095
:104F700014B9C1EBC10200EB8202D0F80404926CB8
:104F800008F067B8C1EBC10200EB8202D0F804045C
:104F9000D2F8082208F0C0B8D0F8040408F0FFB82E
:104FA00070B504460B0601F00F00C0EBC00104EB26
:104FB00081014FF001024FF0000503D581F83D203B
:104FC0003C3103E081F8FD5101F5FE71087094F861
:104FD000BC03012808D084F8BC23206808F056FCE4
:104FE00084F8BC53002070BD022070BD70B504462B
:104FF00001F00F006268904201D9012070BD0B06DC
:1050000001F00F01C1EBC10104EB81014FF001027E
:105010004FF0000503D581F83D203C3103E081F8D5
:10502000FD5101F5FE718D70087094F8BC030128E4
:1050300008D084F8BC23206808F0FEFD84F8BC5337
:10504000002070BD022070BD01F00F01C1EBC10155
:1050500000EB8100D0F8140270472DE9F0410446BE
:105060000F0601F00F00C0EBC00104EB81014FF00F
:1050700001064FF0000503D581F83D603C3103E0A7
:1050800081F8FD5101F5FE7108708A60CB704A7895
:1050900002B1C880022B00D10D7194F8BC03012825
:1050A00009D084F8BC63206808F040FB284684F8E7
:1050B000BC53BDE8F0810220FBE770B50C4601F05F
:1050C0000F05C5EBC50100EB8101C1F81032C1F835
:1050D00008220023C1F8143281F8FD3181F8FC5117
:1050E000036901F5FE71012B00D10A612207027CE0
:1050F000006803D008F0F8FD002070BD08F0EAFC5D
:10510000FAE770B504460D4601F00F006168884269
:1051100001D9012070BD29064FF000064FF00102B1
:1051200007D5C0EBC00104EB810181F83D203C3183
:1051300007E0C5EBC50104EB810181F8FD6101F5D4
:10514000FE718A70087094F8BC03012807D084F8B7
:10515000BC23206808F09CFD280702D007E002204D
:1051600070BD217C04F57172206808F039FD84F867
:10517000BC63002070BD70B50C4601F00F05C5EB97
:10518000C50100EB81010B658A6400234B65012397
:1051900081F83D3001F83C5F0369012B00D10A61C1
:1051A0002207027C006803D008F09EFD002070BD3D
:1051B00008F090FCFAE700002DE9FC5F0446006867
:1051C000002681464D4608F0A8FE00287ED12068C2
:1051D00008F0CFFE002879D0206808F0CAFE8007CA
:1051E00004D52068416901F002014161206808F09E
:1051F000C0FE010304F571704FF0010B009076D5ED
:10520000206808F095FE0746DFF810A46DE0F80767
:1052100069D0F1B2206808F0A4FE8046C00707D02C
:1052200005EB4611C1F808BB3146204605F0C2FF28
:105230005FEA087033D52068016C00EB46100191DD
:10524000D0F8081B2269012A019A0FD0F44B9A4228
:1052500014D1090403D54FF40041C0F8081B2046BF
:1052600000F0ECFA206901280FD013E0524505D96F
:10527000090403D54FF40041C0F8081B204600F094
:10528000DDFA01985045EDD804E020680121009A2C
:1052900008F0A6FC05EB46110820C1F8080B5FEAF0
:1052A000C86004D505EB46111020C1F8080B5FEA71
:1052B00088600FD52069012804D120680121009A57
:1052C00008F08EFC202005EB461101E0A4E10EE081
:1052D000C1F8080B5FEA884005D505EB46114FF48D
:1052E0000050C1F8080B7F08761C002F8FD1206872
:1052F00008F03FFE40034FF0000A60D5206808F038
:1053000010FE0746002658E0F80754D0F1B2206896
:1053100008F015FE8046C00726D006F00F020BFAF3
:1053200002F0D5F834288243C5F8342805EB46103E
:10533000C0F808B92069012807D1C6EBC60004EB04
:105340008000D0E9112111448164F1B22046FFF7B9
:1053500010FE2069012807D136B9206D20B92068D8
:105360000121009A08F03CFC5FEA087004D505EBC7
:1053700046110820C1F808095FEAC86004D505EBAA
:1053800046111020C1F808095FEA486004D505EB12
:1053900046114020C1F808095FEA887004D505EB82
:1053A00046110220C1F808095FEA086003D53146BA
:1053B000204605F06DFF7F08761C002FA4D12068E1
:1053C00008F0D7FD002811DAD5F8040820F0010014
:1053D000C5F8040894F8F40301282BD0204600F007
:1053E00011FA2068416901F000414161206808F02C
:1053F000C0FD00050BD5D5F80808C00702D020462F
:1054000000F044FA2068416901F4006141612068BC
:1054100008F0AFFDC0045DD5D5F8040820F0010008
:10542000C5F804081021206808F058FD00214FF647
:105430007F321AE084F8F4A300212046FFF76EFDC6
:10544000CFE700BF05EB4110C0F80829D0F80039BC
:1054500023F40013C0F80039C0F8082BD0F8003B43
:1054600023F40013C0F8003B491C60688842E9D867
:10547000D5F81C0840F00110C5F81C08206B60B17D
:10548000D5F8840840F00B00C5F88408D5F8440826
:1054900040F00B00C5F844080CE0D5F8140842F2BF
:1054A0002B010843C5F81408D5F8100840F00B008C
:1054B000C5F81008D5F8000820F4FE60C5F800080B
:1054C000217C2068009A08F08BFB2068416901F478
:1054D00080514161206808F04CFD800418D5206897
:1054E00008F064F9206808F00BFD60B30320E06069
:1054F00000F04CFD23680146227B184608F074FD3D
:10550000204600F069F92068416901F400514161C9
:10551000206808F02EFDC00638D52068816921F08A
:1055200010018161D9F8207007F00F00C0EBC000B6
:1055300004EB8005C7F3434005F5FE75022805D04E
:10554000062814D01DE0C4F80CA0D1E747F6F0718E
:105550000F4216D0C7F30A1217464846E96808F00A
:105560000CFDE8683844E860A869384408E008227F
:105570004846009908F001FDA869C7F30A110844DC
:10558000A8612068816941F010018161206808F0FC
:10559000F0FC000707D5204600F038F92068416983
:1055A00001F008014161206808F0E3FCC00208D561
:1055B000F1B2204600F036F82068416901F480110C
:1055C0004161206808F0D5FC800208D5F1B2204680
:1055D00000F02CF82068416901F400114161206855
:1055E00008F0C7FC400007D52046FFF7BEFC206846
:1055F000416901F080414161206808F0BAFC400730
:105600000AD520684568680702D52046FFF7C4FC24
:105610002068416829434160BDE8FC9F0A30544F2F
:105620000A31544FD0F8040407F008BED0F804043F
:1056300007F006BE2DE9F0418AB004000FD02068C3
:10564000B0F1A04F06D03749884203D0862136A05A
:105650000AF03EF994F8BD03002520B108E00120CE
:105660000AB0BDE8F08184F8BC53204600F078F819
:10567000032084F8BD03206808F026FA04F1100125
:10568000282288466846FCF700FB94E80F0008F0E3
:10569000A7F80226C8BB0021206808F07CFC002087
:1056A00001270EE0C0EBC00104EB810181F83D70E1
:1056B00001F83C0FC880CD708D60CD60401CC0B239
:1056C0004D6161688142EDD8002011E0C0EBC0015E
:1056D00004EB810181F8FD5181F8FC0181F8FF5153
:1056E000C1F80452C1F80852401CC0B2C1F81052AF
:1056F00061688142EAD8282241466846FCF7C5FA2B
:1057000094E80F0008F01AF910B184F8BD63A6E719
:1057100084F8385084F8BD73206808F003F900203D
:105720009EE70000000004402E2E2F44726976652B
:1057300072732F53544D3332463478785F48414C5E
:105740005F4472697665722F5372632F73746D3381
:1057500032663478785F68616C5F7063642E6300D2
:1057600000B5006887B0B0F1A04F2FD118480021D4
:10577000026842F001020260006800F0010005903A
:105780004FF4C05000900220CDE9010103200390A6
:105790000A20049069460F48FEF79CFC0C48001D47
:1057A000016841F08001016009481430016841F44A
:1057B000804101600068002200F48040059011469D
:1057C0004320FFF71BFB4320FFF7E6FA07B000BDBD
:1057D000303802400000024070B50446C068012520
:1057E00070B1022801D0FDF71DF82946D4F8040451
:1057F00007F077FDD4F80404BDE8704007F037BD2A
:105800000025F2E7D0F8040407F059BDD0F80404ED
:1058100007F05BBD10B5044690F8BC0301280BD01F
:10582000012084F8BC0384F83810206808F0CAFB13
:10583000002084F8BC0310BD022010BDD0F8042461
:1058400000F57171104607F058BD10B504460068A8
:1058500094F8BC13012906D0012184F8BC13A16A75
:10586000012902D008E0022010BDA169012903D05E
:10587000816B41F480318163206808F047F820682B
:1058800008F016FB002084F8BC0310BD10B50446D8
:10589000D0F8040407F070FD2068D0F8001E41F035
:1058A0000101C0F8001E206A002804D002480168E7
:1058B00041F00601016010BD10ED00E0014600203E
:1058C000012907D110490968C1F3C05119B1002954
:1058D00000D00E4870470C48001F0168006849025C
:1058E00000F03F0001D50A4900E00A49064AB1FB31
:1058F000F0F07C321168C1F3881141431068C0F3A5
:105900000270B1FBF0F070470838024020BCBE00C6
:1059100000127A000024F4002DE9F84304460068E0
:10592000401E062804D940F6CD1188A009F0D0FF0A
:1059300020684FF00109C1074FF0000601D1400770
:105940003AD5A068801E052804D940F6D4117FA05E
:1059500009F0BEFF60683238B0F5BF7F04D940F669
:10596000D5117AA009F0B4FFDFF81C82C8F868608E
:10597000FEF798FD0746854D05E000BFFEF792FD56
:10598000C01B02287DD828680001F7D46068217AFE
:10599000800140EA01707D4984310860C8F8689050
:1059A000FEF780FD074604E0FEF77CFDC01B0228E1
:1059B000E8D828680001F7D5207880077AD5E06814
:1059C000B0F5807F63D0B0F5007F60D07049884229
:1059D0005DD0704988425AD06F49884257D06F498C
:1059E000884254D06E49884251D06E4988424ED088
:1059F0006D4988424BD06D49884248D06C498842F5
:105A000045D06C49884242D06B4988423FD06B49AF
:105A100088423CD06A49884239D06A49884236D0A7
:105A20006949884233D06949884230D06849884200
:105A30002DD0684988422AD06749884227D06749D3
:105A4000884224D06649884221D0664988421ED0C7
:105A5000654988421BD06549884218D0644988420C
:105A600015D06449884212D0634988420FD06349F7
:105A700088420CD06249884209D06249884206D0E7
:105A800000E042E040F6062130A009F021FF3F4847
:105A90004030016841F08051016000685A4D00F0CB
:105AA00080500090286840F480702860FEF7FAFC6F
:105AB000074606E040E000BFFEF7F4FCC01B0228EA
:105AC00023D82868C005F7D5304D7035286810F404
:105AD000407020D0A18901F4407181421BD0286818
